{
  "contractName": "Jacket",
  "abi": [
    {
      "inputs": [],
      "stateMutability": "nonpayable",
      "type": "constructor"
    },
    {
      "anonymous": false,
      "inputs": [
        {
          "indexed": true,
          "internalType": "address",
          "name": "owner",
          "type": "address"
        },
        {
          "indexed": true,
          "internalType": "address",
          "name": "approved",
          "type": "address"
        },
        {
          "indexed": true,
          "internalType": "uint256",
          "name": "tokenId",
          "type": "uint256"
        }
      ],
      "name": "Approval",
      "type": "event"
    },
    {
      "anonymous": false,
      "inputs": [
        {
          "indexed": true,
          "internalType": "address",
          "name": "owner",
          "type": "address"
        },
        {
          "indexed": true,
          "internalType": "address",
          "name": "operator",
          "type": "address"
        },
        {
          "indexed": false,
          "internalType": "bool",
          "name": "approved",
          "type": "bool"
        }
      ],
      "name": "ApprovalForAll",
      "type": "event"
    },
    {
      "anonymous": false,
      "inputs": [
        {
          "indexed": true,
          "internalType": "address",
          "name": "previousOwner",
          "type": "address"
        },
        {
          "indexed": true,
          "internalType": "address",
          "name": "newOwner",
          "type": "address"
        }
      ],
      "name": "OwnershipTransferred",
      "type": "event"
    },
    {
      "anonymous": false,
      "inputs": [
        {
          "indexed": true,
          "internalType": "address",
          "name": "from",
          "type": "address"
        },
        {
          "indexed": true,
          "internalType": "address",
          "name": "to",
          "type": "address"
        },
        {
          "indexed": true,
          "internalType": "uint256",
          "name": "tokenId",
          "type": "uint256"
        }
      ],
      "name": "Transfer",
      "type": "event"
    },
    {
      "inputs": [
        {
          "internalType": "address",
          "name": "to",
          "type": "address"
        },
        {
          "internalType": "uint256",
          "name": "tokenId",
          "type": "uint256"
        }
      ],
      "name": "approve",
      "outputs": [],
      "stateMutability": "nonpayable",
      "type": "function"
    },
    {
      "inputs": [
        {
          "internalType": "address",
          "name": "owner",
          "type": "address"
        }
      ],
      "name": "balanceOf",
      "outputs": [
        {
          "internalType": "uint256",
          "name": "",
          "type": "uint256"
        }
      ],
      "stateMutability": "view",
      "type": "function",
      "constant": true
    },
    {
      "inputs": [],
      "name": "baseURI",
      "outputs": [
        {
          "internalType": "string",
          "name": "",
          "type": "string"
        }
      ],
      "stateMutability": "view",
      "type": "function",
      "constant": true
    },
    {
      "inputs": [
        {
          "internalType": "uint256",
          "name": "tokenId",
          "type": "uint256"
        }
      ],
      "name": "getApproved",
      "outputs": [
        {
          "internalType": "address",
          "name": "",
          "type": "address"
        }
      ],
      "stateMutability": "view",
      "type": "function",
      "constant": true
    },
    {
      "inputs": [
        {
          "internalType": "address",
          "name": "owner",
          "type": "address"
        },
        {
          "internalType": "address",
          "name": "operator",
          "type": "address"
        }
      ],
      "name": "isApprovedForAll",
      "outputs": [
        {
          "internalType": "bool",
          "name": "",
          "type": "bool"
        }
      ],
      "stateMutability": "view",
      "type": "function",
      "constant": true
    },
    {
      "inputs": [],
      "name": "name",
      "outputs": [
        {
          "internalType": "string",
          "name": "",
          "type": "string"
        }
      ],
      "stateMutability": "view",
      "type": "function",
      "constant": true
    },
    {
      "inputs": [
        {
          "internalType": "uint256",
          "name": "",
          "type": "uint256"
        }
      ],
      "name": "nftTokenPrices",
      "outputs": [
        {
          "internalType": "uint256",
          "name": "",
          "type": "uint256"
        }
      ],
      "stateMutability": "view",
      "type": "function",
      "constant": true
    },
    {
      "inputs": [
        {
          "internalType": "uint256",
          "name": "",
          "type": "uint256"
        }
      ],
      "name": "onSaleNftTokenArray",
      "outputs": [
        {
          "internalType": "uint256",
          "name": "",
          "type": "uint256"
        }
      ],
      "stateMutability": "view",
      "type": "function",
      "constant": true
    },
    {
      "inputs": [],
      "name": "owner",
      "outputs": [
        {
          "internalType": "address",
          "name": "",
          "type": "address"
        }
      ],
      "stateMutability": "view",
      "type": "function",
      "constant": true
    },
    {
      "inputs": [
        {
          "internalType": "uint256",
          "name": "tokenId",
          "type": "uint256"
        }
      ],
      "name": "ownerOf",
      "outputs": [
        {
          "internalType": "address",
          "name": "",
          "type": "address"
        }
      ],
      "stateMutability": "view",
      "type": "function",
      "constant": true
    },
    {
      "inputs": [],
      "name": "renounceOwnership",
      "outputs": [],
      "stateMutability": "nonpayable",
      "type": "function"
    },
    {
      "inputs": [
        {
          "internalType": "address",
          "name": "from",
          "type": "address"
        },
        {
          "internalType": "address",
          "name": "to",
          "type": "address"
        },
        {
          "internalType": "uint256",
          "name": "tokenId",
          "type": "uint256"
        }
      ],
      "name": "safeTransferFrom",
      "outputs": [],
      "stateMutability": "nonpayable",
      "type": "function"
    },
    {
      "inputs": [
        {
          "internalType": "address",
          "name": "from",
          "type": "address"
        },
        {
          "internalType": "address",
          "name": "to",
          "type": "address"
        },
        {
          "internalType": "uint256",
          "name": "tokenId",
          "type": "uint256"
        },
        {
          "internalType": "bytes",
          "name": "_data",
          "type": "bytes"
        }
      ],
      "name": "safeTransferFrom",
      "outputs": [],
      "stateMutability": "nonpayable",
      "type": "function"
    },
    {
      "inputs": [
        {
          "internalType": "address",
          "name": "operator",
          "type": "address"
        },
        {
          "internalType": "bool",
          "name": "approved",
          "type": "bool"
        }
      ],
      "name": "setApprovalForAll",
      "outputs": [],
      "stateMutability": "nonpayable",
      "type": "function"
    },
    {
      "inputs": [],
      "name": "symbol",
      "outputs": [
        {
          "internalType": "string",
          "name": "",
          "type": "string"
        }
      ],
      "stateMutability": "view",
      "type": "function",
      "constant": true
    },
    {
      "inputs": [
        {
          "internalType": "uint256",
          "name": "index",
          "type": "uint256"
        }
      ],
      "name": "tokenByIndex",
      "outputs": [
        {
          "internalType": "uint256",
          "name": "",
          "type": "uint256"
        }
      ],
      "stateMutability": "view",
      "type": "function",
      "constant": true
    },
    {
      "inputs": [
        {
          "internalType": "address",
          "name": "owner",
          "type": "address"
        },
        {
          "internalType": "uint256",
          "name": "index",
          "type": "uint256"
        }
      ],
      "name": "tokenOfOwnerByIndex",
      "outputs": [
        {
          "internalType": "uint256",
          "name": "",
          "type": "uint256"
        }
      ],
      "stateMutability": "view",
      "type": "function",
      "constant": true
    },
    {
      "inputs": [],
      "name": "totalSupply",
      "outputs": [
        {
          "internalType": "uint256",
          "name": "",
          "type": "uint256"
        }
      ],
      "stateMutability": "view",
      "type": "function",
      "constant": true
    },
    {
      "inputs": [
        {
          "internalType": "address",
          "name": "from",
          "type": "address"
        },
        {
          "internalType": "address",
          "name": "to",
          "type": "address"
        },
        {
          "internalType": "uint256",
          "name": "tokenId",
          "type": "uint256"
        }
      ],
      "name": "transferFrom",
      "outputs": [],
      "stateMutability": "nonpayable",
      "type": "function"
    },
    {
      "inputs": [
        {
          "internalType": "address",
          "name": "newOwner",
          "type": "address"
        }
      ],
      "name": "transferOwnership",
      "outputs": [],
      "stateMutability": "nonpayable",
      "type": "function"
    },
    {
      "inputs": [],
      "name": "mint",
      "outputs": [
        {
          "internalType": "uint256",
          "name": "",
          "type": "uint256"
        }
      ],
      "stateMutability": "nonpayable",
      "type": "function"
    },
    {
      "inputs": [
        {
          "internalType": "uint256",
          "name": "tokenId",
          "type": "uint256"
        }
      ],
      "name": "tokenURI",
      "outputs": [
        {
          "internalType": "string",
          "name": "",
          "type": "string"
        }
      ],
      "stateMutability": "view",
      "type": "function",
      "constant": true
    },
    {
      "inputs": [
        {
          "internalType": "bytes4",
          "name": "interfaceId",
          "type": "bytes4"
        }
      ],
      "name": "supportsInterface",
      "outputs": [
        {
          "internalType": "bool",
          "name": "",
          "type": "bool"
        }
      ],
      "stateMutability": "view",
      "type": "function",
      "constant": true
    },
    {
      "inputs": [
        {
          "internalType": "address",
          "name": "_nftTokenOwner",
          "type": "address"
        }
      ],
      "name": "getNftTokens",
      "outputs": [
        {
          "components": [
            {
              "internalType": "uint256",
              "name": "nftTokenId",
              "type": "uint256"
            },
            {
              "internalType": "string",
              "name": "nftTokenURI",
              "type": "string"
            },
            {
              "internalType": "uint256",
              "name": "price",
              "type": "uint256"
            }
          ],
          "internalType": "struct Jacket.NftTokenData[]",
          "name": "",
          "type": "tuple[]"
        }
      ],
      "stateMutability": "view",
      "type": "function",
      "constant": true
    },
    {
      "inputs": [
        {
          "internalType": "uint256",
          "name": "_tokenId",
          "type": "uint256"
        },
        {
          "internalType": "uint256",
          "name": "_price",
          "type": "uint256"
        }
      ],
      "name": "setSaleNftToken",
      "outputs": [],
      "stateMutability": "nonpayable",
      "type": "function"
    },
    {
      "inputs": [],
      "name": "getSaleNftTokens",
      "outputs": [
        {
          "components": [
            {
              "internalType": "uint256",
              "name": "nftTokenId",
              "type": "uint256"
            },
            {
              "internalType": "string",
              "name": "nftTokenURI",
              "type": "string"
            },
            {
              "internalType": "uint256",
              "name": "price",
              "type": "uint256"
            }
          ],
          "internalType": "struct Jacket.NftTokenData[]",
          "name": "",
          "type": "tuple[]"
        }
      ],
      "stateMutability": "view",
      "type": "function",
      "constant": true
    },
    {
      "inputs": [],
      "name": "getSaleNftToken",
      "outputs": [
        {
          "internalType": "uint256[]",
          "name": "",
          "type": "uint256[]"
        }
      ],
      "stateMutability": "view",
      "type": "function",
      "constant": true
    },
    {
      "inputs": [
        {
          "internalType": "uint256",
          "name": "_tokenId",
          "type": "uint256"
        }
      ],
      "name": "getNftTokenPrice",
      "outputs": [
        {
          "internalType": "uint256",
          "name": "",
          "type": "uint256"
        }
      ],
      "stateMutability": "view",
      "type": "function",
      "constant": true
    },
    {
      "inputs": [
        {
          "internalType": "uint256",
          "name": "_tokenId",
          "type": "uint256"
        }
      ],
      "name": "buyNftToken",
      "outputs": [],
      "stateMutability": "payable",
      "type": "function",
      "payable": true
    },
    {
      "inputs": [
        {
          "internalType": "uint256",
          "name": "_tokenId",
          "type": "uint256"
        }
      ],
      "name": "burn",
      "outputs": [],
      "stateMutability": "nonpayable",
      "type": "function"
    },
    {
      "inputs": [
        {
          "internalType": "uint256",
          "name": "x",
          "type": "uint256"
        }
      ],
      "name": "set",
      "outputs": [],
      "stateMutability": "nonpayable",
      "type": "function"
    },
    {
      "inputs": [],
      "name": "get",
      "outputs": [
        {
          "internalType": "uint256",
          "name": "",
          "type": "uint256"
        }
      ],
      "stateMutability": "view",
      "type": "function",
      "constant": true
    }
  ],
  "bytecode": "0x60806040523480156200001157600080fd5b506040518060400160405280600681526020017f4a61636b657400000000000000000000000000000000000000000000000000008152506040518060400160405280600681526020017f4a41434b45540000000000000000000000000000000000000000000000000000815250816000908051906020019062000096929190620001a6565b508060019080519060200190620000af929190620001a6565b505050620000d2620000c6620000d860201b60201c565b620000e060201b60201c565b620002ba565b600033905090565b6000600a60009054906101000a900473ffffffffffffffffffffffffffffffffffffffff16905081600a60006101000a81548173ffffffffffffffffffffffffffffffffffffffff021916908373ffffffffffffffffffffffffffffffffffffffff1602179055508173ffffffffffffffffffffffffffffffffffffffff168173ffffffffffffffffffffffffffffffffffffffff167f8be0079c531659141344cd1fd0a4f28419497f9722a3daafe3b4186f6b6457e060405160405180910390a35050565b828054620001b49062000285565b90600052602060002090601f016020900481019282620001d8576000855562000224565b82601f10620001f357805160ff191683800117855562000224565b8280016001018555821562000224579182015b828111156200022357825182559160200191906001019062000206565b5b50905062000233919062000237565b5090565b5b808211156200025257600081600090555060010162000238565b5090565b7f4e487b7100000000000000000000000000000000000000000000000000000000600052602260045260246000fd5b600060028204905060018216806200029e57607f821691505b602082108103620002b457620002b362000256565b5b50919050565b61481880620002ca6000396000f3fe6080604052600436106101e35760003560e01c80636d4ce63c11610102578063a22cb46511610095578063da8cc6e811610064578063da8cc6e81461072c578063e985e9c514610748578063f257f54814610785578063f2fde38b146107c2576101e3565b8063a22cb46514610674578063b88d4fde1461069d578063b8e297f4146106c6578063c87b56dd146106ef576101e3565b806374a6b54f116100d157806374a6b54f146105b65780638da5cb5b146105e1578063912c45cf1461060c57806395d89b4114610649576101e3565b80636d4ce63c146104fa57806370a0823114610525578063715018a61461056257806373e778c514610579576101e3565b80632f745c591161017a5780634f6ccce7116101495780634f6ccce71461042c57806360fe47b1146104695780636352211e146104925780636c0360eb146104cf576101e3565b80632f745c591461036057806342842e0e1461039d57806342966c68146103c65780634ae23e64146103ef576101e3565b80631249c58b116101b65780631249c58b146102b657806318160ddd146102e15780631efceb901461030c57806323b872dd14610337576101e3565b806301ffc9a7146101e857806306fdde0314610225578063081812fc14610250578063095ea7b31461028d575b600080fd5b3480156101f457600080fd5b5061020f600480360381019061020a9190612dfe565b6107eb565b60405161021c9190612e46565b60405180910390f35b34801561023157600080fd5b5061023a6107fd565b6040516102479190612efa565b60405180910390f35b34801561025c57600080fd5b5061027760048036038101906102729190612f52565b61088f565b6040516102849190612fc0565b60405180910390f35b34801561029957600080fd5b506102b460048036038101906102af9190613007565b610914565b005b3480156102c257600080fd5b506102cb610a2b565b6040516102d89190613056565b60405180910390f35b3480156102ed57600080fd5b506102f6610a56565b6040516103039190613056565b60405180910390f35b34801561031857600080fd5b50610321610a63565b60405161032e919061312f565b60405180910390f35b34801561034357600080fd5b5061035e60048036038101906103599190613151565b610abb565b005b34801561036c57600080fd5b5061038760048036038101906103829190613007565b610b1b565b6040516103949190613056565b60405180910390f35b3480156103a957600080fd5b506103c460048036038101906103bf9190613151565b610bc0565b005b3480156103d257600080fd5b506103ed60048036038101906103e89190612f52565b610be0565b005b3480156103fb57600080fd5b5061041660048036038101906104119190612f52565b610c71565b6040516104239190613056565b60405180910390f35b34801561043857600080fd5b50610453600480360381019061044e9190612f52565b610c89565b6040516104609190613056565b60405180910390f35b34801561047557600080fd5b50610490600480360381019061048b9190612f52565b610cfa565b005b34801561049e57600080fd5b506104b960048036038101906104b49190612f52565b610d04565b6040516104c69190612fc0565b60405180910390f35b3480156104db57600080fd5b506104e4610db5565b6040516104f19190612efa565b60405180910390f35b34801561050657600080fd5b5061050f610e43565b60405161051c9190613056565b60405180910390f35b34801561053157600080fd5b5061054c600480360381019061054791906131a4565b610e4d565b6040516105599190613056565b60405180910390f35b34801561056e57600080fd5b50610577610f04565b005b34801561058557600080fd5b506105a0600480360381019061059b9190612f52565b610f8c565b6040516105ad9190613056565b60405180910390f35b3480156105c257600080fd5b506105cb610fb0565b6040516105d8919061332d565b60405180910390f35b3480156105ed57600080fd5b506105f66110ae565b6040516106039190612fc0565b60405180910390f35b34801561061857600080fd5b50610633600480360381019061062e9190612f52565b6110d8565b6040516106409190613056565b60405180910390f35b34801561065557600080fd5b5061065e6110f5565b60405161066b9190612efa565b60405180910390f35b34801561068057600080fd5b5061069b6004803603810190610696919061337b565b611187565b005b3480156106a957600080fd5b506106c460048036038101906106bf91906134f0565b61119d565b005b3480156106d257600080fd5b506106ed60048036038101906106e89190613573565b6111ff565b005b3480156106fb57600080fd5b5061071660048036038101906107119190612f52565b6113a2565b6040516107239190612efa565b60405180910390f35b61074660048036038101906107419190612f52565b611424565b005b34801561075457600080fd5b5061076f600480360381019061076a91906135b3565b61164a565b60405161077c9190612e46565b60405180910390f35b34801561079157600080fd5b506107ac60048036038101906107a791906131a4565b6116de565b6040516107b9919061332d565b60405180910390f35b3480156107ce57600080fd5b506107e960048036038101906107e491906131a4565b6117d2565b005b60006107f6826118c9565b9050919050565b60606000805461080c90613622565b80601f016020809104026020016040519081016040528092919081815260200182805461083890613622565b80156108855780601f1061085a57610100808354040283529160200191610885565b820191906000526020600020905b81548152906001019060200180831161086857829003601f168201915b5050505050905090565b600061089a82611943565b6108d9576040517f08c379a00000000000000000000000000000000000000000000000000000000081526004016108d0906136c5565b60405180910390fd5b6004600083815260200190815260200160002060009054906101000a900473ffffffffffffffffffffffffffffffffffffffff169050919050565b600061091f82610d04565b90508073ffffffffffffffffffffffffffffffffffffffff168373ffffffffffffffffffffffffffffffffffffffff160361098f576040517f08c379a000000000000000000000000000000000000000000000000000000000815260040161098690613757565b60405180910390fd5b8073ffffffffffffffffffffffffffffffffffffffff166109ae6119af565b73ffffffffffffffffffffffffffffffffffffffff1614806109dd57506109dc816109d76119af565b61164a565b5b610a1c576040517f08c379a0000000000000000000000000000000000000000000000000000000008152600401610a13906137e9565b60405180910390fd5b610a2683836119b7565b505050565b6000610a37600b611a70565b6000610a43600b611a86565b9050610a4f3382611a94565b8091505090565b6000600880549050905090565b6060600e805480602002602001604051908101604052809291908181526020018280548015610ab157602002820191906000526020600020905b815481526020019060010190808311610a9d575b5050505050905090565b610acc610ac66119af565b82611ab2565b610b0b576040517f08c379a0000000000000000000000000000000000000000000000000000000008152600401610b029061387b565b60405180910390fd5b610b16838383611b90565b505050565b6000610b2683610e4d565b8210610b67576040517f08c379a0000000000000000000000000000000000000000000000000000000008152600401610b5e9061390d565b60405180910390fd5b600660008473ffffffffffffffffffffffffffffffffffffffff1673ffffffffffffffffffffffffffffffffffffffff168152602001908152602001600020600083815260200190815260200160002054905092915050565b610bdb8383836040518060200160405280600081525061119d565b505050565b6000610beb82610d04565b90503373ffffffffffffffffffffffffffffffffffffffff168173ffffffffffffffffffffffffffffffffffffffff1614610c5b576040517f08c379a0000000000000000000000000000000000000000000000000000000008152600401610c529061399f565b60405180910390fd5b610c6482611df6565b610c6d82611f13565b5050565b600d6020528060005260406000206000915090505481565b6000610c93610a56565b8210610cd4576040517f08c379a0000000000000000000000000000000000000000000000000000000008152600401610ccb90613a31565b60405180910390fd5b60088281548110610ce857610ce7613a51565b5b90600052602060002001549050919050565b80600f8190555050565b6000806002600084815260200190815260200160002060009054906101000a900473ffffffffffffffffffffffffffffffffffffffff169050600073ffffffffffffffffffffffffffffffffffffffff168173ffffffffffffffffffffffffffffffffffffffff1603610dac576040517f08c379a0000000000000000000000000000000000000000000000000000000008152600401610da390613af2565b60405180910390fd5b80915050919050565b600c8054610dc290613622565b80601f0160208091040260200160405190810160405280929190818152602001828054610dee90613622565b8015610e3b5780601f10610e1057610100808354040283529160200191610e3b565b820191906000526020600020905b815481529060010190602001808311610e1e57829003601f168201915b505050505081565b6000600f54905090565b60008073ffffffffffffffffffffffffffffffffffffffff168273ffffffffffffffffffffffffffffffffffffffff1603610ebd576040517f08c379a0000000000000000000000000000000000000000000000000000000008152600401610eb490613b84565b60405180910390fd5b600360008373ffffffffffffffffffffffffffffffffffffffff1673ffffffffffffffffffffffffffffffffffffffff168152602001908152602001600020549050919050565b610f0c6119af565b73ffffffffffffffffffffffffffffffffffffffff16610f2a6110ae565b73ffffffffffffffffffffffffffffffffffffffff1614610f80576040517f08c379a0000000000000000000000000000000000000000000000000000000008152600401610f7790613bf0565b60405180910390fd5b610f8a6000612007565b565b600e8181548110610f9c57600080fd5b906000526020600020016000915090505481565b60606000610fbc610a63565b90506000815167ffffffffffffffff811115610fdb57610fda6133c5565b5b60405190808252806020026020018201604052801561101457816020015b611001612d71565b815260200190600190039081610ff95790505b50905060005b82518110156110a557600083828151811061103857611037613a51565b5b60200260200101519050600061104d826110d8565b90506040518060600160405280838152602001611069846113a2565b81526020018281525084848151811061108557611084613a51565b5b60200260200101819052505050808061109d90613c3f565b91505061101a565b50809250505090565b6000600a60009054906101000a900473ffffffffffffffffffffffffffffffffffffffff16905090565b6000600d6000838152602001908152602001600020549050919050565b60606001805461110490613622565b80601f016020809104026020016040519081016040528092919081815260200182805461113090613622565b801561117d5780601f106111525761010080835404028352916020019161117d565b820191906000526020600020905b81548152906001019060200180831161116057829003601f168201915b5050505050905090565b6111996111926119af565b83836120cd565b5050565b6111ae6111a86119af565b83611ab2565b6111ed576040517f08c379a00000000000000000000000000000000000000000000000000000000081526004016111e49061387b565b60405180910390fd5b6111f984848484612239565b50505050565b600061120a83610d04565b90503373ffffffffffffffffffffffffffffffffffffffff168173ffffffffffffffffffffffffffffffffffffffff161461127a576040517f08c379a000000000000000000000000000000000000000000000000000000000815260040161127190613cd3565b60405180910390fd5b600082116112bd576040517f08c379a00000000000000000000000000000000000000000000000000000000081526004016112b490613d3f565b60405180910390fd5b6000600d60008581526020019081526020016000205414611313576040517f08c379a000000000000000000000000000000000000000000000000000000000815260040161130a90613dd1565b60405180910390fd5b61131d813061164a565b61135c576040517f08c379a000000000000000000000000000000000000000000000000000000000815260040161135390613e63565b60405180910390fd5b81600d600085815260200190815260200160002081905550600e839080600181540180825580915050600190039060005260206000200160009091909190915055505050565b60606113ad82611943565b6113ec576040517f08c379a00000000000000000000000000000000000000000000000000000000081526004016113e390613ef5565b60405180910390fd5b6113f4612295565b6113fd836122b5565b60405160200161140e929190613f9d565b6040516020818303038152906040529050919050565b6000600d6000838152602001908152602001600020549050600061144783610d04565b90506000821161148c576040517f08c379a000000000000000000000000000000000000000000000000000000000815260040161148390614018565b60405180910390fd5b348211156114cf576040517f08c379a00000000000000000000000000000000000000000000000000000000081526004016114c690614084565b60405180910390fd5b3373ffffffffffffffffffffffffffffffffffffffff168173ffffffffffffffffffffffffffffffffffffffff160361153d576040517f08c379a0000000000000000000000000000000000000000000000000000000008152600401611534906140f0565b60405180910390fd5b611547813061164a565b611586576040517f08c379a000000000000000000000000000000000000000000000000000000000815260040161157d90613e63565b60405180910390fd5b8073ffffffffffffffffffffffffffffffffffffffff166108fc349081150290604051600060405180830381858888f193505050501580156115cc573d6000803e3d6000fd5b503073ffffffffffffffffffffffffffffffffffffffff166342842e0e8233866040518463ffffffff1660e01b815260040161160a93929190614110565b600060405180830381600087803b15801561162457600080fd5b505af1158015611638573d6000803e3d6000fd5b5050505061164583611f13565b505050565b6000600560008473ffffffffffffffffffffffffffffffffffffffff1673ffffffffffffffffffffffffffffffffffffffff16815260200190815260200160002060008373ffffffffffffffffffffffffffffffffffffffff1673ffffffffffffffffffffffffffffffffffffffff16815260200190815260200160002060009054906101000a900460ff16905092915050565b606060006116eb83610e4d565b905060008167ffffffffffffffff811115611709576117086133c5565b5b60405190808252806020026020018201604052801561174257816020015b61172f612d71565b8152602001906001900390816117275790505b50905060005b828110156117c757600061175c8683610b1b565b90506000611769826113a2565b90506000611776836110d8565b90506040518060600160405280848152602001838152602001828152508585815181106117a6576117a5613a51565b5b602002602001018190525050505080806117bf90613c3f565b915050611748565b508092505050919050565b6117da6119af565b73ffffffffffffffffffffffffffffffffffffffff166117f86110ae565b73ffffffffffffffffffffffffffffffffffffffff161461184e576040517f08c379a000000000000000000000000000000000000000000000000000000000815260040161184590613bf0565b60405180910390fd5b600073ffffffffffffffffffffffffffffffffffffffff168173ffffffffffffffffffffffffffffffffffffffff16036118bd576040517f08c379a00000000000000000000000000000000000000000000000000000000081526004016118b4906141b9565b60405180910390fd5b6118c681612007565b50565b60007f780e9d63000000000000000000000000000000000000000000000000000000007bffffffffffffffffffffffffffffffffffffffffffffffffffffffff1916827bffffffffffffffffffffffffffffffffffffffffffffffffffffffff1916148061193c575061193b82612415565b5b9050919050565b60008073ffffffffffffffffffffffffffffffffffffffff166002600084815260200190815260200160002060009054906101000a900473ffffffffffffffffffffffffffffffffffffffff1673ffffffffffffffffffffffffffffffffffffffff1614159050919050565b600033905090565b816004600083815260200190815260200160002060006101000a81548173ffffffffffffffffffffffffffffffffffffffff021916908373ffffffffffffffffffffffffffffffffffffffff160217905550808273ffffffffffffffffffffffffffffffffffffffff16611a2a83610d04565b73ffffffffffffffffffffffffffffffffffffffff167f8c5be1e5ebec7d5bd14f71427d1e84f3dd0314c0f7b2291e5b200ac8c7c3b92560405160405180910390a45050565b6001816000016000828254019250508190555050565b600081600001549050919050565b611aae8282604051806020016040528060008152506124f7565b5050565b6000611abd82611943565b611afc576040517f08c379a0000000000000000000000000000000000000000000000000000000008152600401611af39061424b565b60405180910390fd5b6000611b0783610d04565b90508073ffffffffffffffffffffffffffffffffffffffff168473ffffffffffffffffffffffffffffffffffffffff161480611b495750611b48818561164a565b5b80611b8757508373ffffffffffffffffffffffffffffffffffffffff16611b6f8461088f565b73ffffffffffffffffffffffffffffffffffffffff16145b91505092915050565b8273ffffffffffffffffffffffffffffffffffffffff16611bb082610d04565b73ffffffffffffffffffffffffffffffffffffffff1614611c06576040517f08c379a0000000000000000000000000000000000000000000000000000000008152600401611bfd906142dd565b60405180910390fd5b600073ffffffffffffffffffffffffffffffffffffffff168273ffffffffffffffffffffffffffffffffffffffff1603611c75576040517f08c379a0000000000000000000000000000000000000000000000000000000008152600401611c6c9061436f565b60405180910390fd5b611c80838383612552565b611c8b6000826119b7565b6001600360008573ffffffffffffffffffffffffffffffffffffffff1673ffffffffffffffffffffffffffffffffffffffff1681526020019081526020016000206000828254611cdb919061438f565b925050819055506001600360008473ffffffffffffffffffffffffffffffffffffffff1673ffffffffffffffffffffffffffffffffffffffff1681526020019081526020016000206000828254611d3291906143c3565b92505081905550816002600083815260200190815260200160002060006101000a81548173ffffffffffffffffffffffffffffffffffffffff021916908373ffffffffffffffffffffffffffffffffffffffff160217905550808273ffffffffffffffffffffffffffffffffffffffff168473ffffffffffffffffffffffffffffffffffffffff167fddf252ad1be2c89b69c2b068fc378daa952ba7f163c4a11628f55a4df523b3ef60405160405180910390a4611df1838383612562565b505050565b6000611e0182610d04565b9050611e0f81600084612552565b611e1a6000836119b7565b6001600360008373ffffffffffffffffffffffffffffffffffffffff1673ffffffffffffffffffffffffffffffffffffffff1681526020019081526020016000206000828254611e6a919061438f565b925050819055506002600083815260200190815260200160002060006101000a81549073ffffffffffffffffffffffffffffffffffffffff021916905581600073ffffffffffffffffffffffffffffffffffffffff168273ffffffffffffffffffffffffffffffffffffffff167fddf252ad1be2c89b69c2b068fc378daa952ba7f163c4a11628f55a4df523b3ef60405160405180910390a4611f0f81600084612562565b5050565b6000600d60008381526020019081526020016000208190555060005b600e80549050811015612003576000600d6000600e8481548110611f5657611f55613a51565b5b906000526020600020015481526020019081526020016000205403611ff057600e6001600e80549050611f89919061438f565b81548110611f9a57611f99613a51565b5b9060005260206000200154600e8281548110611fb957611fb8613a51565b5b9060005260206000200181905550600e805480611fd957611fd8614419565b5b600190038181906000526020600020016000905590555b8080611ffb90613c3f565b915050611f2f565b5050565b6000600a60009054906101000a900473ffffffffffffffffffffffffffffffffffffffff16905081600a60006101000a81548173ffffffffffffffffffffffffffffffffffffffff021916908373ffffffffffffffffffffffffffffffffffffffff1602179055508173ffffffffffffffffffffffffffffffffffffffff168173ffffffffffffffffffffffffffffffffffffffff167f8be0079c531659141344cd1fd0a4f28419497f9722a3daafe3b4186f6b6457e060405160405180910390a35050565b8173ffffffffffffffffffffffffffffffffffffffff168373ffffffffffffffffffffffffffffffffffffffff160361213b576040517f08c379a000000000000000000000000000000000000000000000000000000000815260040161213290614494565b60405180910390fd5b80600560008573ffffffffffffffffffffffffffffffffffffffff1673ffffffffffffffffffffffffffffffffffffffff16815260200190815260200160002060008473ffffffffffffffffffffffffffffffffffffffff1673ffffffffffffffffffffffffffffffffffffffff16815260200190815260200160002060006101000a81548160ff0219169083151502179055508173ffffffffffffffffffffffffffffffffffffffff168373ffffffffffffffffffffffffffffffffffffffff167f17307eab39ab6107e8899845ad3d59bd9653f200f220920489ca2b5937696c318360405161222c9190612e46565b60405180910390a3505050565b612244848484611b90565b61225084848484612567565b61228f576040517f08c379a000000000000000000000000000000000000000000000000000000000815260040161228690614526565b60405180910390fd5b50505050565b606060405180608001604052806050815260200161479360509139905090565b6060600082036122fc576040518060400160405280600181526020017f30000000000000000000000000000000000000000000000000000000000000008152509050612410565b600082905060005b6000821461232e57808061231790613c3f565b915050600a826123279190614575565b9150612304565b60008167ffffffffffffffff81111561234a576123496133c5565b5b6040519080825280601f01601f19166020018201604052801561237c5781602001600182028036833780820191505090505b5090505b6000851461240957600182612395919061438f565b9150600a856123a491906145a6565b60306123b091906143c3565b60f81b8183815181106123c6576123c5613a51565b5b60200101907effffffffffffffffffffffffffffffffffffffffffffffffffffffffffffff1916908160001a905350600a856124029190614575565b9450612380565b8093505050505b919050565b60007f80ac58cd000000000000000000000000000000000000000000000000000000007bffffffffffffffffffffffffffffffffffffffffffffffffffffffff1916827bffffffffffffffffffffffffffffffffffffffffffffffffffffffff191614806124e057507f5b5e139f000000000000000000000000000000000000000000000000000000007bffffffffffffffffffffffffffffffffffffffffffffffffffffffff1916827bffffffffffffffffffffffffffffffffffffffffffffffffffffffff1916145b806124f057506124ef826126ee565b5b9050919050565b6125018383612758565b61250e6000848484612567565b61254d576040517f08c379a000000000000000000000000000000000000000000000000000000000815260040161254490614526565b60405180910390fd5b505050565b61255d838383612931565b505050565b505050565b60006125888473ffffffffffffffffffffffffffffffffffffffff16612a43565b156126e1578373ffffffffffffffffffffffffffffffffffffffff1663150b7a026125b16119af565b8786866040518563ffffffff1660e01b81526004016125d3949392919061462c565b6020604051808303816000875af192505050801561260f57506040513d601f19601f8201168201806040525081019061260c919061468d565b60015b612691573d806000811461263f576040519150601f19603f3d011682016040523d82523d6000602084013e612644565b606091505b506000815103612689576040517f08c379a000000000000000000000000000000000000000000000000000000000815260040161268090614526565b60405180910390fd5b805181602001fd5b63150b7a0260e01b7bffffffffffffffffffffffffffffffffffffffffffffffffffffffff1916817bffffffffffffffffffffffffffffffffffffffffffffffffffffffff1916149150506126e6565b600190505b949350505050565b60007f01ffc9a7000000000000000000000000000000000000000000000000000000007bffffffffffffffffffffffffffffffffffffffffffffffffffffffff1916827bffffffffffffffffffffffffffffffffffffffffffffffffffffffff1916149050919050565b600073ffffffffffffffffffffffffffffffffffffffff168273ffffffffffffffffffffffffffffffffffffffff16036127c7576040517f08c379a00000000000000000000000000000000000000000000000000000000081526004016127be90614706565b60405180910390fd5b6127d081611943565b15612810576040517f08c379a000000000000000000000000000000000000000000000000000000000815260040161280790614772565b60405180910390fd5b61281c60008383612552565b6001600360008473ffffffffffffffffffffffffffffffffffffffff1673ffffffffffffffffffffffffffffffffffffffff168152602001908152602001600020600082825461286c91906143c3565b92505081905550816002600083815260200190815260200160002060006101000a81548173ffffffffffffffffffffffffffffffffffffffff021916908373ffffffffffffffffffffffffffffffffffffffff160217905550808273ffffffffffffffffffffffffffffffffffffffff16600073ffffffffffffffffffffffffffffffffffffffff167fddf252ad1be2c89b69c2b068fc378daa952ba7f163c4a11628f55a4df523b3ef60405160405180910390a461292d60008383612562565b5050565b61293c838383612a66565b600073ffffffffffffffffffffffffffffffffffffffff168373ffffffffffffffffffffffffffffffffffffffff160361297e5761297981612a6b565b6129bd565b8173ffffffffffffffffffffffffffffffffffffffff168373ffffffffffffffffffffffffffffffffffffffff16146129bc576129bb8382612ab4565b5b5b600073ffffffffffffffffffffffffffffffffffffffff168273ffffffffffffffffffffffffffffffffffffffff16036129ff576129fa81612c21565b612a3e565b8273ffffffffffffffffffffffffffffffffffffffff168273ffffffffffffffffffffffffffffffffffffffff1614612a3d57612a3c8282612cf2565b5b5b505050565b6000808273ffffffffffffffffffffffffffffffffffffffff163b119050919050565b505050565b6008805490506009600083815260200190815260200160002081905550600881908060018154018082558091505060019003906000526020600020016000909190919091505550565b60006001612ac184610e4d565b612acb919061438f565b9050600060076000848152602001908152602001600020549050818114612bb0576000600660008673ffffffffffffffffffffffffffffffffffffffff1673ffffffffffffffffffffffffffffffffffffffff168152602001908152602001600020600084815260200190815260200160002054905080600660008773ffffffffffffffffffffffffffffffffffffffff1673ffffffffffffffffffffffffffffffffffffffff168152602001908152602001600020600084815260200190815260200160002081905550816007600083815260200190815260200160002081905550505b6007600084815260200190815260200160002060009055600660008573ffffffffffffffffffffffffffffffffffffffff1673ffffffffffffffffffffffffffffffffffffffff16815260200190815260200160002060008381526020019081526020016000206000905550505050565b60006001600880549050612c35919061438f565b9050600060096000848152602001908152602001600020549050600060088381548110612c6557612c64613a51565b5b906000526020600020015490508060088381548110612c8757612c86613a51565b5b906000526020600020018190555081600960008381526020019081526020016000208190555060096000858152602001908152602001600020600090556008805480612cd657612cd5614419565b5b6001900381819060005260206000200160009055905550505050565b6000612cfd83610e4d565b905081600660008573ffffffffffffffffffffffffffffffffffffffff1673ffffffffffffffffffffffffffffffffffffffff168152602001908152602001600020600083815260200190815260200160002081905550806007600084815260200190815260200160002081905550505050565b60405180606001604052806000815260200160608152602001600081525090565b6000604051905090565b600080fd5b600080fd5b60007fffffffff0000000000000000000000000000000000000000000000000000000082169050919050565b612ddb81612da6565b8114612de657600080fd5b50565b600081359050612df881612dd2565b92915050565b600060208284031215612e1457612e13612d9c565b5b6000612e2284828501612de9565b91505092915050565b60008115159050919050565b612e4081612e2b565b82525050565b6000602082019050612e5b6000830184612e37565b92915050565b600081519050919050565b600082825260208201905092915050565b60005b83811015612e9b578082015181840152602081019050612e80565b83811115612eaa576000848401525b50505050565b6000601f19601f8301169050919050565b6000612ecc82612e61565b612ed68185612e6c565b9350612ee6818560208601612e7d565b612eef81612eb0565b840191505092915050565b60006020820190508181036000830152612f148184612ec1565b905092915050565b6000819050919050565b612f2f81612f1c565b8114612f3a57600080fd5b50565b600081359050612f4c81612f26565b92915050565b600060208284031215612f6857612f67612d9c565b5b6000612f7684828501612f3d565b91505092915050565b600073ffffffffffffffffffffffffffffffffffffffff82169050919050565b6000612faa82612f7f565b9050919050565b612fba81612f9f565b82525050565b6000602082019050612fd56000830184612fb1565b92915050565b612fe481612f9f565b8114612fef57600080fd5b50565b60008135905061300181612fdb565b92915050565b6000806040838503121561301e5761301d612d9c565b5b600061302c85828601612ff2565b925050602061303d85828601612f3d565b9150509250929050565b61305081612f1c565b82525050565b600060208201905061306b6000830184613047565b92915050565b600081519050919050565b600082825260208201905092915050565b6000819050602082019050919050565b6130a681612f1c565b82525050565b60006130b8838361309d565b60208301905092915050565b6000602082019050919050565b60006130dc82613071565b6130e6818561307c565b93506130f18361308d565b8060005b8381101561312257815161310988826130ac565b9750613114836130c4565b9250506001810190506130f5565b5085935050505092915050565b6000602082019050818103600083015261314981846130d1565b905092915050565b60008060006060848603121561316a57613169612d9c565b5b600061317886828701612ff2565b935050602061318986828701612ff2565b925050604061319a86828701612f3d565b9150509250925092565b6000602082840312156131ba576131b9612d9c565b5b60006131c884828501612ff2565b91505092915050565b600081519050919050565b600082825260208201905092915050565b6000819050602082019050919050565b600082825260208201905092915050565b600061321982612e61565b61322381856131fd565b9350613233818560208601612e7d565b61323c81612eb0565b840191505092915050565b600060608301600083015161325f600086018261309d565b5060208301518482036020860152613277828261320e565b915050604083015161328c604086018261309d565b508091505092915050565b60006132a38383613247565b905092915050565b6000602082019050919050565b60006132c3826131d1565b6132cd81856131dc565b9350836020820285016132df856131ed565b8060005b8581101561331b57848403895281516132fc8582613297565b9450613307836132ab565b925060208a019950506001810190506132e3565b50829750879550505050505092915050565b6000602082019050818103600083015261334781846132b8565b905092915050565b61335881612e2b565b811461336357600080fd5b50565b6000813590506133758161334f565b92915050565b6000806040838503121561339257613391612d9c565b5b60006133a085828601612ff2565b92505060206133b185828601613366565b9150509250929050565b600080fd5b600080fd5b7f4e487b7100000000000000000000000000000000000000000000000000000000600052604160045260246000fd5b6133fd82612eb0565b810181811067ffffffffffffffff8211171561341c5761341b6133c5565b5b80604052505050565b600061342f612d92565b905061343b82826133f4565b919050565b600067ffffffffffffffff82111561345b5761345a6133c5565b5b61346482612eb0565b9050602081019050919050565b82818337600083830152505050565b600061349361348e84613440565b613425565b9050828152602081018484840111156134af576134ae6133c0565b5b6134ba848285613471565b509392505050565b600082601f8301126134d7576134d66133bb565b5b81356134e7848260208601613480565b91505092915050565b6000806000806080858703121561350a57613509612d9c565b5b600061351887828801612ff2565b945050602061352987828801612ff2565b935050604061353a87828801612f3d565b925050606085013567ffffffffffffffff81111561355b5761355a612da1565b5b613567878288016134c2565b91505092959194509250565b6000806040838503121561358a57613589612d9c565b5b600061359885828601612f3d565b92505060206135a985828601612f3d565b9150509250929050565b600080604083850312156135ca576135c9612d9c565b5b60006135d885828601612ff2565b92505060206135e985828601612ff2565b9150509250929050565b7f4e487b7100000000000000000000000000000000000000000000000000000000600052602260045260246000fd5b6000600282049050600182168061363a57607f821691505b60208210810361364d5761364c6135f3565b5b50919050565b7f4552433732313a20617070726f76656420717565727920666f72206e6f6e657860008201527f697374656e7420746f6b656e0000000000000000000000000000000000000000602082015250565b60006136af602c83612e6c565b91506136ba82613653565b604082019050919050565b600060208201905081810360008301526136de816136a2565b9050919050565b7f4552433732313a20617070726f76616c20746f2063757272656e74206f776e6560008201527f7200000000000000000000000000000000000000000000000000000000000000602082015250565b6000613741602183612e6c565b915061374c826136e5565b604082019050919050565b6000602082019050818103600083015261377081613734565b9050919050565b7f4552433732313a20617070726f76652063616c6c6572206973206e6f74206f7760008201527f6e6572206e6f7220617070726f76656420666f7220616c6c0000000000000000602082015250565b60006137d3603883612e6c565b91506137de82613777565b604082019050919050565b60006020820190508181036000830152613802816137c6565b9050919050565b7f4552433732313a207472616e736665722063616c6c6572206973206e6f74206f60008201527f776e6572206e6f7220617070726f766564000000000000000000000000000000602082015250565b6000613865603183612e6c565b915061387082613809565b604082019050919050565b6000602082019050818103600083015261389481613858565b9050919050565b7f455243373231456e756d657261626c653a206f776e657220696e646578206f7560008201527f74206f6620626f756e6473000000000000000000000000000000000000000000602082015250565b60006138f7602b83612e6c565b91506139028261389b565b604082019050919050565b60006020820190508181036000830152613926816138ea565b9050919050565b7f6d73672e73656e646572206973206e6f7420746865206f776e6572206f66207460008201527f686520746f6b656e000000000000000000000000000000000000000000000000602082015250565b6000613989602883612e6c565b91506139948261392d565b604082019050919050565b600060208201905081810360008301526139b88161397c565b9050919050565b7f455243373231456e756d657261626c653a20676c6f62616c20696e646578206f60008201527f7574206f6620626f756e64730000000000000000000000000000000000000000602082015250565b6000613a1b602c83612e6c565b9150613a26826139bf565b604082019050919050565b60006020820190508181036000830152613a4a81613a0e565b9050919050565b7f4e487b7100000000000000000000000000000000000000000000000000000000600052603260045260246000fd5b7f4552433732313a206f776e657220717565727920666f72206e6f6e657869737460008201527f656e7420746f6b656e0000000000000000000000000000000000000000000000602082015250565b6000613adc602983612e6c565b9150613ae782613a80565b604082019050919050565b60006020820190508181036000830152613b0b81613acf565b9050919050565b7f4552433732313a2062616c616e636520717565727920666f7220746865207a6560008201527f726f206164647265737300000000000000000000000000000000000000000000602082015250565b6000613b6e602a83612e6c565b9150613b7982613b12565b604082019050919050565b60006020820190508181036000830152613b9d81613b61565b9050919050565b7f4f776e61626c653a2063616c6c6572206973206e6f7420746865206f776e6572600082015250565b6000613bda602083612e6c565b9150613be582613ba4565b602082019050919050565b60006020820190508181036000830152613c0981613bcd565b9050919050565b7f4e487b7100000000000000000000000000000000000000000000000000000000600052601160045260246000fd5b6000613c4a82612f1c565b91507fffffffffffffffffffffffffffffffffffffffffffffffffffffffffffffffff8203613c7c57613c7b613c10565b5b600182019050919050565b7f43616c6c6572206973206e6f74206e667420746f6b656e206f776e65722e0000600082015250565b6000613cbd601e83612e6c565b9150613cc882613c87565b602082019050919050565b60006020820190508181036000830152613cec81613cb0565b9050919050565b7f5072696365206973207a65726f206f72206c6f7765722e000000000000000000600082015250565b6000613d29601783612e6c565b9150613d3482613cf3565b602082019050919050565b60006020820190508181036000830152613d5881613d1c565b9050919050565b7f54686973206e667420746f6b656e20697320616c7265616479206f6e2073616c60008201527f652e000000000000000000000000000000000000000000000000000000000000602082015250565b6000613dbb602283612e6c565b9150613dc682613d5f565b604082019050919050565b60006020820190508181036000830152613dea81613dae565b9050919050565b7f6e667420746f6b656e206f776e657220646964206e6f7420617070726f76652060008201527f746f6b656e2e0000000000000000000000000000000000000000000000000000602082015250565b6000613e4d602683612e6c565b9150613e5882613df1565b604082019050919050565b60006020820190508181036000830152613e7c81613e40565b9050919050565b7f4552433732314d657461646174613a2055524920717565727920666f72206e6f60008201527f6e6578697374656e7420746f6b656e0000000000000000000000000000000000602082015250565b6000613edf602f83612e6c565b9150613eea82613e83565b604082019050919050565b60006020820190508181036000830152613f0e81613ed2565b9050919050565b600081905092915050565b6000613f2b82612e61565b613f358185613f15565b9350613f45818560208601612e7d565b80840191505092915050565b7f2f00000000000000000000000000000000000000000000000000000000000000600082015250565b6000613f87600183613f15565b9150613f9282613f51565b600182019050919050565b6000613fa98285613f20565b9150613fb482613f7a565b9150613fc08284613f20565b91508190509392505050565b7f6e667420746f6b656e206e6f742073616c652e00000000000000000000000000600082015250565b6000614002601383612e6c565b915061400d82613fcc565b602082019050919050565b6000602082019050818103600083015261403181613ff5565b9050919050565b7f63616c6c65722073656e74206c6f776572207468616e2070726963652e000000600082015250565b600061406e601d83612e6c565b915061407982614038565b602082019050919050565b6000602082019050818103600083015261409d81614061565b9050919050565b7f63616c6c6572206973206e667420746f6b656e206f776e65722e000000000000600082015250565b60006140da601a83612e6c565b91506140e5826140a4565b602082019050919050565b60006020820190508181036000830152614109816140cd565b9050919050565b60006060820190506141256000830186612fb1565b6141326020830185612fb1565b61413f6040830184613047565b949350505050565b7f4f776e61626c653a206e6577206f776e657220697320746865207a65726f206160008201527f6464726573730000000000000000000000000000000000000000000000000000602082015250565b60006141a3602683612e6c565b91506141ae82614147565b604082019050919050565b600060208201905081810360008301526141d281614196565b9050919050565b7f4552433732313a206f70657261746f7220717565727920666f72206e6f6e657860008201527f697374656e7420746f6b656e0000000000000000000000000000000000000000602082015250565b6000614235602c83612e6c565b9150614240826141d9565b604082019050919050565b6000602082019050818103600083015261426481614228565b9050919050565b7f4552433732313a207472616e736665722066726f6d20696e636f72726563742060008201527f6f776e6572000000000000000000000000000000000000000000000000000000602082015250565b60006142c7602583612e6c565b91506142d28261426b565b604082019050919050565b600060208201905081810360008301526142f6816142ba565b9050919050565b7f4552433732313a207472616e7366657220746f20746865207a65726f2061646460008201527f7265737300000000000000000000000000000000000000000000000000000000602082015250565b6000614359602483612e6c565b9150614364826142fd565b604082019050919050565b600060208201905081810360008301526143888161434c565b9050919050565b600061439a82612f1c565b91506143a583612f1c565b9250828210156143b8576143b7613c10565b5b828203905092915050565b60006143ce82612f1c565b91506143d983612f1c565b9250827fffffffffffffffffffffffffffffffffffffffffffffffffffffffffffffffff0382111561440e5761440d613c10565b5b828201905092915050565b7f4e487b7100000000000000000000000000000000000000000000000000000000600052603160045260246000fd5b7f4552433732313a20617070726f766520746f2063616c6c657200000000000000600082015250565b600061447e601983612e6c565b915061448982614448565b602082019050919050565b600060208201905081810360008301526144ad81614471565b9050919050565b7f4552433732313a207472616e7366657220746f206e6f6e20455243373231526560008201527f63656976657220696d706c656d656e7465720000000000000000000000000000602082015250565b6000614510603283612e6c565b915061451b826144b4565b604082019050919050565b6000602082019050818103600083015261453f81614503565b9050919050565b7f4e487b7100000000000000000000000000000000000000000000000000000000600052601260045260246000fd5b600061458082612f1c565b915061458b83612f1c565b92508261459b5761459a614546565b5b828204905092915050565b60006145b182612f1c565b91506145bc83612f1c565b9250826145cc576145cb614546565b5b828206905092915050565b600081519050919050565b600082825260208201905092915050565b60006145fe826145d7565b61460881856145e2565b9350614618818560208601612e7d565b61462181612eb0565b840191505092915050565b60006080820190506146416000830187612fb1565b61464e6020830186612fb1565b61465b6040830185613047565b818103606083015261466d81846145f3565b905095945050505050565b60008151905061468781612dd2565b92915050565b6000602082840312156146a3576146a2612d9c565b5b60006146b184828501614678565b91505092915050565b7f4552433732313a206d696e7420746f20746865207a65726f2061646472657373600082015250565b60006146f0602083612e6c565b91506146fb826146ba565b602082019050919050565b6000602082019050818103600083015261471f816146e3565b9050919050565b7f4552433732313a20746f6b656e20616c7265616479206d696e74656400000000600082015250565b600061475c601c83612e6c565b915061476782614726565b602082019050919050565b6000602082019050818103600083015261478b8161474f565b905091905056fe68747470733a2f2f676174657761792e70696e6174612e636c6f75642f697066732f516d5450666e3136435059467431674b6d6875534a547844717a776b367845644e395a4e4b33666e74486870766aa264697066735822122020aadc35fc8e9cdb8a28b4a7c3f50f91cafab7c569f6d9e638c1c24830783cf764736f6c634300080e0033",
  "immutableReferences": {},
  "source": "// SPDX-License-Identifier: MIT\npragma solidity ^0.8.7;\n\nimport \"../client/node_modules/@openzeppelin/contracts/token/ERC721/ERC721.sol\";\nimport \"../client/node_modules/@openzeppelin/contracts/access/Ownable.sol\";\nimport \"../client/node_modules/@openzeppelin/contracts/token/ERC721/extensions/ERC721Enumerable.sol\";\nimport \"../client/node_modules/@openzeppelin/contracts/utils/Counters.sol\";\n\ncontract Jacket is ERC721, ERC721Enumerable, Ownable {\n    using Counters for Counters.Counter;\n    Counters.Counter private _tokenIds;\n    using Strings for uint256;\n\n    string public baseURI;\n\n    constructor() ERC721(\"Jacket\", \"JACKET\") {}\n\n    function mint() public returns (uint256) {\n        _tokenIds.increment();\n        uint256 newItemId = _tokenIds.current();\n        _safeMint(msg.sender, newItemId);\n        return newItemId;\n    }\n\n    // function setBaseURI(string memory baseURI_) external onlyOwner {\n    //     baseURI = baseURI_;\n    // }\n\n    function _baseURI() internal view virtual override returns (string memory) {\n        return\n            \"https://gateway.pinata.cloud/ipfs/QmTPfn16CPYFt1gKmhuSJTxDqzwk6xEdN9ZNK3fntHhpvj\";\n    }\n\n    function tokenURI(uint256 tokenId)\n        public\n        view\n        virtual\n        override\n        returns (string memory)\n    {\n        require(\n            _exists(tokenId),\n            \"ERC721Metadata: URI query for nonexistent token\"\n        );\n        return string(abi.encodePacked(_baseURI(), \"/\", tokenId.toString()));\n    }\n\n    function _beforeTokenTransfer(\n        address from,\n        address to,\n        uint256 tokenId\n    ) internal override(ERC721, ERC721Enumerable) {\n        super._beforeTokenTransfer(from, to, tokenId);\n    }\n\n    function supportsInterface(bytes4 interfaceId)\n        public\n        view\n        override(ERC721, ERC721Enumerable)\n        returns (bool)\n    {\n        return super.supportsInterface(interfaceId);\n    }\n\n    struct NftTokenData {\n        uint256 nftTokenId;\n        string nftTokenURI;\n        uint256 price;\n    }\n\n    function getNftTokens(address _nftTokenOwner)\n        public\n        view\n        returns (NftTokenData[] memory)\n    {\n        uint256 balanceLength = balanceOf(_nftTokenOwner);\n        //require(balanceLength != 0, \"Owner did not have token.\");\n\n        NftTokenData[] memory nftTokenData = new NftTokenData[](balanceLength);\n\n        for (uint256 i = 0; i < balanceLength; i++) {\n            uint256 nftTokenId = tokenOfOwnerByIndex(_nftTokenOwner, i);\n            string memory nftTokenURI = tokenURI(nftTokenId);\n            uint256 tokenPrice = getNftTokenPrice(nftTokenId);\n            nftTokenData[i] = NftTokenData(nftTokenId, nftTokenURI, tokenPrice);\n        }\n\n        return nftTokenData;\n    }\n\n    // \n    mapping(uint256 => uint256) public nftTokenPrices;\n    uint256[] public onSaleNftTokenArray;\n\n    function setSaleNftToken(uint256 _tokenId, uint256 _price) public {\n        address nftTokenOwner = ownerOf(_tokenId);\n\n        require(nftTokenOwner == msg.sender, \"Caller is not nft token owner.\");\n        require(_price > 0, \"Price is zero or lower.\");\n        require(\n            nftTokenPrices[_tokenId] == 0,\n            \"This nft token is already on sale.\"\n        );\n        require(\n            isApprovedForAll(nftTokenOwner, address(this)),\n            \"nft token owner did not approve token.\"\n        );\n\n        nftTokenPrices[_tokenId] = _price;\n        onSaleNftTokenArray.push(_tokenId); // nft list\n    }\n\n    // \n    function getSaleNftTokens() public view returns (NftTokenData[] memory) {\n        uint256[] memory onSaleNftToken = getSaleNftToken();\n        NftTokenData[] memory onSaleNftTokens = new NftTokenData[](\n            onSaleNftToken.length\n        );\n\n        for (uint256 i = 0; i < onSaleNftToken.length; i++) {\n            uint256 tokenId = onSaleNftToken[i];\n            uint256 tokenPrice = getNftTokenPrice(tokenId);\n            onSaleNftTokens[i] = NftTokenData(\n                tokenId,\n                tokenURI(tokenId),\n                tokenPrice\n            );\n        }\n\n        return onSaleNftTokens;\n    }\n\n    function getSaleNftToken() public view returns (uint256[] memory) {\n        return onSaleNftTokenArray;\n    }\n\n    function getNftTokenPrice(uint256 _tokenId) public view returns (uint256) {\n        return nftTokenPrices[_tokenId];\n    }\n\n    //\n    function buyNftToken(uint256 _tokenId) public payable {\n        uint256 price = nftTokenPrices[_tokenId];\n        address nftTokenOwner = ownerOf(_tokenId);\n\n        require(price > 0, \"nft token not sale.\");\n        require(price <= msg.value, \"caller sent lower than price.\");\n        require(nftTokenOwner != msg.sender, \"caller is nft token owner.\");\n        require(\n            isApprovedForAll(nftTokenOwner, address(this)),\n            \"nft token owner did not approve token.\"\n        );\n\n        payable(nftTokenOwner).transfer(msg.value);\n\n        IERC721(address(this)).safeTransferFrom(\n            nftTokenOwner,\n            msg.sender,\n            _tokenId\n        );\n\n        //  \n        removeToken(_tokenId);\n    }\n\n    function burn(uint256 _tokenId) public {\n        address addr_owner = ownerOf(_tokenId);\n        require(\n            addr_owner == msg.sender,\n            \"msg.sender is not the owner of the token\"\n        );\n        _burn(_tokenId);\n        removeToken(_tokenId);\n    }\n\n    function removeToken(uint256 _tokenId) private {\n        nftTokenPrices[_tokenId] = 0;\n\n        for (uint256 i = 0; i < onSaleNftTokenArray.length; i++) {\n            if (nftTokenPrices[onSaleNftTokenArray[i]] == 0) {\n                onSaleNftTokenArray[i] = onSaleNftTokenArray[\n                    onSaleNftTokenArray.length - 1\n                ];\n                onSaleNftTokenArray.pop();\n            }\n        }\n    }\n\n    uint storedData;\n\n    function set(uint x) public {\n        storedData = x;\n    }\n    function get() public view returns (uint) {\n    return storedData;\n  }\n}\n",
  "sourcePath": "/Users/seokkyo/Documents/projects/prototype/contracts/Jacket.sol",
  "compiler": {
    "name": "solc",
    "version": "0.8.14+commit.80d49f37.Emscripten.clang"
  },
  "schemaVersion": "3.4.6",
  "updatedAt": "2022-05-21T17:19:50.056Z",
  "networkType": "ethereum",
  "devdoc": {
    "kind": "dev",
    "methods": {
      "approve(address,uint256)": {
        "details": "See {IERC721-approve}."
      },
      "balanceOf(address)": {
        "details": "See {IERC721-balanceOf}."
      },
      "getApproved(uint256)": {
        "details": "See {IERC721-getApproved}."
      },
      "isApprovedForAll(address,address)": {
        "details": "See {IERC721-isApprovedForAll}."
      },
      "name()": {
        "details": "See {IERC721Metadata-name}."
      },
      "owner()": {
        "details": "Returns the address of the current owner."
      },
      "ownerOf(uint256)": {
        "details": "See {IERC721-ownerOf}."
      },
      "renounceOwnership()": {
        "details": "Leaves the contract without owner. It will not be possible to call `onlyOwner` functions anymore. Can only be called by the current owner. NOTE: Renouncing ownership will leave the contract without an owner, thereby removing any functionality that is only available to the owner."
      },
      "safeTransferFrom(address,address,uint256)": {
        "details": "See {IERC721-safeTransferFrom}."
      },
      "safeTransferFrom(address,address,uint256,bytes)": {
        "details": "See {IERC721-safeTransferFrom}."
      },
      "setApprovalForAll(address,bool)": {
        "details": "See {IERC721-setApprovalForAll}."
      },
      "symbol()": {
        "details": "See {IERC721Metadata-symbol}."
      },
      "tokenByIndex(uint256)": {
        "details": "See {IERC721Enumerable-tokenByIndex}."
      },
      "tokenOfOwnerByIndex(address,uint256)": {
        "details": "See {IERC721Enumerable-tokenOfOwnerByIndex}."
      },
      "tokenURI(uint256)": {
        "details": "See {IERC721Metadata-tokenURI}."
      },
      "totalSupply()": {
        "details": "See {IERC721Enumerable-totalSupply}."
      },
      "transferFrom(address,address,uint256)": {
        "details": "See {IERC721-transferFrom}."
      },
      "transferOwnership(address)": {
        "details": "Transfers ownership of the contract to a new account (`newOwner`). Can only be called by the current owner."
      }
    },
    "version": 1
  },
  "userdoc": {
    "kind": "user",
    "methods": {},
    "version": 1
  }
}