{
  "contractName": "Jacket",
  "abi": [
    {
      "inputs": [],
      "stateMutability": "nonpayable",
      "type": "constructor"
    },
    {
      "anonymous": false,
      "inputs": [
        {
          "indexed": true,
          "internalType": "address",
          "name": "owner",
          "type": "address"
        },
        {
          "indexed": true,
          "internalType": "address",
          "name": "approved",
          "type": "address"
        },
        {
          "indexed": true,
          "internalType": "uint256",
          "name": "tokenId",
          "type": "uint256"
        }
      ],
      "name": "Approval",
      "type": "event"
    },
    {
      "anonymous": false,
      "inputs": [
        {
          "indexed": true,
          "internalType": "address",
          "name": "owner",
          "type": "address"
        },
        {
          "indexed": true,
          "internalType": "address",
          "name": "operator",
          "type": "address"
        },
        {
          "indexed": false,
          "internalType": "bool",
          "name": "approved",
          "type": "bool"
        }
      ],
      "name": "ApprovalForAll",
      "type": "event"
    },
    {
      "anonymous": false,
      "inputs": [
        {
          "indexed": true,
          "internalType": "address",
          "name": "previousOwner",
          "type": "address"
        },
        {
          "indexed": true,
          "internalType": "address",
          "name": "newOwner",
          "type": "address"
        }
      ],
      "name": "OwnershipTransferred",
      "type": "event"
    },
    {
      "anonymous": false,
      "inputs": [
        {
          "indexed": true,
          "internalType": "address",
          "name": "from",
          "type": "address"
        },
        {
          "indexed": true,
          "internalType": "address",
          "name": "to",
          "type": "address"
        },
        {
          "indexed": true,
          "internalType": "uint256",
          "name": "tokenId",
          "type": "uint256"
        }
      ],
      "name": "Transfer",
      "type": "event"
    },
    {
      "inputs": [
        {
          "internalType": "address",
          "name": "to",
          "type": "address"
        },
        {
          "internalType": "uint256",
          "name": "tokenId",
          "type": "uint256"
        }
      ],
      "name": "approve",
      "outputs": [],
      "stateMutability": "nonpayable",
      "type": "function"
    },
    {
      "inputs": [
        {
          "internalType": "address",
          "name": "owner",
          "type": "address"
        }
      ],
      "name": "balanceOf",
      "outputs": [
        {
          "internalType": "uint256",
          "name": "",
          "type": "uint256"
        }
      ],
      "stateMutability": "view",
      "type": "function",
      "constant": true
    },
    {
      "inputs": [],
      "name": "baseURI",
      "outputs": [
        {
          "internalType": "string",
          "name": "",
          "type": "string"
        }
      ],
      "stateMutability": "view",
      "type": "function",
      "constant": true
    },
    {
      "inputs": [
        {
          "internalType": "uint256",
          "name": "tokenId",
          "type": "uint256"
        }
      ],
      "name": "getApproved",
      "outputs": [
        {
          "internalType": "address",
          "name": "",
          "type": "address"
        }
      ],
      "stateMutability": "view",
      "type": "function",
      "constant": true
    },
    {
      "inputs": [
        {
          "internalType": "address",
          "name": "owner",
          "type": "address"
        },
        {
          "internalType": "address",
          "name": "operator",
          "type": "address"
        }
      ],
      "name": "isApprovedForAll",
      "outputs": [
        {
          "internalType": "bool",
          "name": "",
          "type": "bool"
        }
      ],
      "stateMutability": "view",
      "type": "function",
      "constant": true
    },
    {
      "inputs": [],
      "name": "name",
      "outputs": [
        {
          "internalType": "string",
          "name": "",
          "type": "string"
        }
      ],
      "stateMutability": "view",
      "type": "function",
      "constant": true
    },
    {
      "inputs": [
        {
          "internalType": "uint256",
          "name": "",
          "type": "uint256"
        }
      ],
      "name": "nftTokenPrices",
      "outputs": [
        {
          "internalType": "uint256",
          "name": "",
          "type": "uint256"
        }
      ],
      "stateMutability": "view",
      "type": "function",
      "constant": true
    },
    {
      "inputs": [
        {
          "internalType": "uint256",
          "name": "",
          "type": "uint256"
        }
      ],
      "name": "numArray",
      "outputs": [
        {
          "internalType": "uint256",
          "name": "",
          "type": "uint256"
        }
      ],
      "stateMutability": "view",
      "type": "function",
      "constant": true
    },
    {
      "inputs": [
        {
          "internalType": "uint256",
          "name": "",
          "type": "uint256"
        }
      ],
      "name": "onSaleNftTokenArray",
      "outputs": [
        {
          "internalType": "uint256",
          "name": "",
          "type": "uint256"
        }
      ],
      "stateMutability": "view",
      "type": "function",
      "constant": true
    },
    {
      "inputs": [],
      "name": "owner",
      "outputs": [
        {
          "internalType": "address",
          "name": "",
          "type": "address"
        }
      ],
      "stateMutability": "view",
      "type": "function",
      "constant": true
    },
    {
      "inputs": [
        {
          "internalType": "uint256",
          "name": "tokenId",
          "type": "uint256"
        }
      ],
      "name": "ownerOf",
      "outputs": [
        {
          "internalType": "address",
          "name": "",
          "type": "address"
        }
      ],
      "stateMutability": "view",
      "type": "function",
      "constant": true
    },
    {
      "inputs": [
        {
          "internalType": "uint256",
          "name": "",
          "type": "uint256"
        }
      ],
      "name": "recentNftTokenArray",
      "outputs": [
        {
          "internalType": "uint256",
          "name": "",
          "type": "uint256"
        }
      ],
      "stateMutability": "view",
      "type": "function",
      "constant": true
    },
    {
      "inputs": [],
      "name": "renounceOwnership",
      "outputs": [],
      "stateMutability": "nonpayable",
      "type": "function"
    },
    {
      "inputs": [
        {
          "internalType": "address",
          "name": "from",
          "type": "address"
        },
        {
          "internalType": "address",
          "name": "to",
          "type": "address"
        },
        {
          "internalType": "uint256",
          "name": "tokenId",
          "type": "uint256"
        }
      ],
      "name": "safeTransferFrom",
      "outputs": [],
      "stateMutability": "nonpayable",
      "type": "function"
    },
    {
      "inputs": [
        {
          "internalType": "address",
          "name": "from",
          "type": "address"
        },
        {
          "internalType": "address",
          "name": "to",
          "type": "address"
        },
        {
          "internalType": "uint256",
          "name": "tokenId",
          "type": "uint256"
        },
        {
          "internalType": "bytes",
          "name": "_data",
          "type": "bytes"
        }
      ],
      "name": "safeTransferFrom",
      "outputs": [],
      "stateMutability": "nonpayable",
      "type": "function"
    },
    {
      "inputs": [
        {
          "internalType": "address",
          "name": "operator",
          "type": "address"
        },
        {
          "internalType": "bool",
          "name": "approved",
          "type": "bool"
        }
      ],
      "name": "setApprovalForAll",
      "outputs": [],
      "stateMutability": "nonpayable",
      "type": "function"
    },
    {
      "inputs": [],
      "name": "symbol",
      "outputs": [
        {
          "internalType": "string",
          "name": "",
          "type": "string"
        }
      ],
      "stateMutability": "view",
      "type": "function",
      "constant": true
    },
    {
      "inputs": [
        {
          "internalType": "uint256",
          "name": "index",
          "type": "uint256"
        }
      ],
      "name": "tokenByIndex",
      "outputs": [
        {
          "internalType": "uint256",
          "name": "",
          "type": "uint256"
        }
      ],
      "stateMutability": "view",
      "type": "function",
      "constant": true
    },
    {
      "inputs": [
        {
          "internalType": "address",
          "name": "owner",
          "type": "address"
        },
        {
          "internalType": "uint256",
          "name": "index",
          "type": "uint256"
        }
      ],
      "name": "tokenOfOwnerByIndex",
      "outputs": [
        {
          "internalType": "uint256",
          "name": "",
          "type": "uint256"
        }
      ],
      "stateMutability": "view",
      "type": "function",
      "constant": true
    },
    {
      "inputs": [],
      "name": "totalSupply",
      "outputs": [
        {
          "internalType": "uint256",
          "name": "",
          "type": "uint256"
        }
      ],
      "stateMutability": "view",
      "type": "function",
      "constant": true
    },
    {
      "inputs": [
        {
          "internalType": "address",
          "name": "from",
          "type": "address"
        },
        {
          "internalType": "address",
          "name": "to",
          "type": "address"
        },
        {
          "internalType": "uint256",
          "name": "tokenId",
          "type": "uint256"
        }
      ],
      "name": "transferFrom",
      "outputs": [],
      "stateMutability": "nonpayable",
      "type": "function"
    },
    {
      "inputs": [
        {
          "internalType": "address",
          "name": "newOwner",
          "type": "address"
        }
      ],
      "name": "transferOwnership",
      "outputs": [],
      "stateMutability": "nonpayable",
      "type": "function"
    },
    {
      "inputs": [],
      "name": "getmintedId",
      "outputs": [
        {
          "internalType": "uint256",
          "name": "",
          "type": "uint256"
        }
      ],
      "stateMutability": "view",
      "type": "function",
      "constant": true
    },
    {
      "inputs": [],
      "name": "mint",
      "outputs": [],
      "stateMutability": "nonpayable",
      "type": "function"
    },
    {
      "inputs": [
        {
          "internalType": "uint256",
          "name": "tokenId",
          "type": "uint256"
        }
      ],
      "name": "tokenURI",
      "outputs": [
        {
          "internalType": "string",
          "name": "",
          "type": "string"
        }
      ],
      "stateMutability": "view",
      "type": "function",
      "constant": true
    },
    {
      "inputs": [
        {
          "internalType": "bytes4",
          "name": "interfaceId",
          "type": "bytes4"
        }
      ],
      "name": "supportsInterface",
      "outputs": [
        {
          "internalType": "bool",
          "name": "",
          "type": "bool"
        }
      ],
      "stateMutability": "view",
      "type": "function",
      "constant": true
    },
    {
      "inputs": [
        {
          "internalType": "address",
          "name": "_nftTokenOwner",
          "type": "address"
        }
      ],
      "name": "getNftTokens",
      "outputs": [
        {
          "components": [
            {
              "internalType": "uint256",
              "name": "nftTokenId",
              "type": "uint256"
            },
            {
              "internalType": "address",
              "name": "nftTokenOwner",
              "type": "address"
            },
            {
              "internalType": "string",
              "name": "nftTokenURI",
              "type": "string"
            },
            {
              "internalType": "uint256",
              "name": "price",
              "type": "uint256"
            }
          ],
          "internalType": "struct Jacket.NftTokenData[]",
          "name": "",
          "type": "tuple[]"
        }
      ],
      "stateMutability": "view",
      "type": "function",
      "constant": true
    },
    {
      "inputs": [
        {
          "internalType": "uint256",
          "name": "_tokenId",
          "type": "uint256"
        },
        {
          "internalType": "uint256",
          "name": "_price",
          "type": "uint256"
        }
      ],
      "name": "setSaleNftToken",
      "outputs": [],
      "stateMutability": "nonpayable",
      "type": "function"
    },
    {
      "inputs": [],
      "name": "getSaleNftTokens",
      "outputs": [
        {
          "components": [
            {
              "internalType": "uint256",
              "name": "nftTokenId",
              "type": "uint256"
            },
            {
              "internalType": "address",
              "name": "nftTokenOwner",
              "type": "address"
            },
            {
              "internalType": "string",
              "name": "nftTokenURI",
              "type": "string"
            },
            {
              "internalType": "uint256",
              "name": "price",
              "type": "uint256"
            }
          ],
          "internalType": "struct Jacket.NftTokenData[]",
          "name": "",
          "type": "tuple[]"
        }
      ],
      "stateMutability": "view",
      "type": "function",
      "constant": true
    },
    {
      "inputs": [],
      "name": "getSaleNftToken",
      "outputs": [
        {
          "internalType": "uint256[]",
          "name": "",
          "type": "uint256[]"
        }
      ],
      "stateMutability": "view",
      "type": "function",
      "constant": true
    },
    {
      "inputs": [
        {
          "internalType": "uint256",
          "name": "_tokenId",
          "type": "uint256"
        }
      ],
      "name": "getNftTokenPrice",
      "outputs": [
        {
          "internalType": "uint256",
          "name": "",
          "type": "uint256"
        }
      ],
      "stateMutability": "view",
      "type": "function",
      "constant": true
    },
    {
      "inputs": [],
      "name": "getRecentNftToken",
      "outputs": [
        {
          "internalType": "uint256[]",
          "name": "",
          "type": "uint256[]"
        }
      ],
      "stateMutability": "view",
      "type": "function",
      "constant": true
    },
    {
      "inputs": [
        {
          "internalType": "uint256",
          "name": "_tokenId",
          "type": "uint256"
        }
      ],
      "name": "buyNftToken",
      "outputs": [],
      "stateMutability": "payable",
      "type": "function",
      "payable": true
    },
    {
      "inputs": [
        {
          "internalType": "uint256",
          "name": "_tokenId",
          "type": "uint256"
        }
      ],
      "name": "burn",
      "outputs": [],
      "stateMutability": "nonpayable",
      "type": "function"
    },
    {
      "inputs": [
        {
          "internalType": "uint256",
          "name": "_tokenId",
          "type": "uint256"
        }
      ],
      "name": "removeToken",
      "outputs": [],
      "stateMutability": "nonpayable",
      "type": "function"
    },
    {
      "inputs": [
        {
          "internalType": "uint256",
          "name": "_tokenId",
          "type": "uint256"
        },
        {
          "internalType": "uint256",
          "name": "_price",
          "type": "uint256"
        }
      ],
      "name": "changePrice",
      "outputs": [],
      "stateMutability": "nonpayable",
      "type": "function"
    }
  ],
  "bytecode": "0x60806040523480156200001157600080fd5b506040518060400160405280600681526020017f4a61636b657400000000000000000000000000000000000000000000000000008152506040518060400160405280600681526020017f4a41434b45540000000000000000000000000000000000000000000000000000815250816000908051906020019062000096929190620001f6565b508060019080519060200190620000af929190620001f6565b505050620000d2620000c66200012860201b60201c565b6200013060201b60201c565b6000600190505b606481116200012157600e81908060018154018082558091505060019003906000526020600020016000909190919091505580806200011890620002df565b915050620000d9565b5062000390565b600033905090565b6000600a60009054906101000a900473ffffffffffffffffffffffffffffffffffffffff16905081600a60006101000a81548173ffffffffffffffffffffffffffffffffffffffff021916908373ffffffffffffffffffffffffffffffffffffffff1602179055508173ffffffffffffffffffffffffffffffffffffffff168173ffffffffffffffffffffffffffffffffffffffff167f8be0079c531659141344cd1fd0a4f28419497f9722a3daafe3b4186f6b6457e060405160405180910390a35050565b82805462000204906200035b565b90600052602060002090601f01602090048101928262000228576000855562000274565b82601f106200024357805160ff191683800117855562000274565b8280016001018555821562000274579182015b828111156200027357825182559160200191906001019062000256565b5b50905062000283919062000287565b5090565b5b80821115620002a257600081600090555060010162000288565b5090565b7f4e487b7100000000000000000000000000000000000000000000000000000000600052601160045260246000fd5b6000819050919050565b6000620002ec82620002d5565b91507fffffffffffffffffffffffffffffffffffffffffffffffffffffffffffffffff8203620003215762000320620002a6565b5b600182019050919050565b7f4e487b7100000000000000000000000000000000000000000000000000000000600052602260045260246000fd5b600060028204905060018216806200037457607f821691505b6020821081036200038a57620003896200032c565b5b50919050565b614f2b80620003a06000396000f3fe60806040526004361061020f5760003560e01c80636e73473811610118578063b3de019c116100a0578063da8cc6e81161006f578063da8cc6e8146107e7578063e976e6e414610803578063e985e9c51461082e578063f257f5481461086b578063f2fde38b146108a85761020f565b8063b3de019c1461072f578063b88d4fde14610758578063b8e297f414610781578063c87b56dd146107aa5761020f565b806374a6b54f116100e757806374a6b54f146106485780638da5cb5b14610673578063912c45cf1461069e57806395d89b41146106db578063a22cb465146107065761020f565b80636e7347381461057a57806370a08231146105b7578063715018a6146105f457806373e778c51461060b5761020f565b806336c5d7241161019b5780634ae23e641161016a5780634ae23e641461045b5780634f6ccce7146104985780636352211e146104d55780636c0360eb146105125780636e51556c1461053d5761020f565b806336c5d724146103b557806342842e0e146103de57806342966c6814610407578063452b6367146104305761020f565b80631249c58b116101e25780631249c58b146102e257806318160ddd146102f95780631efceb901461032457806323b872dd1461034f5780632f745c59146103785761020f565b806301ffc9a71461021457806306fdde0314610251578063081812fc1461027c578063095ea7b3146102b9575b600080fd5b34801561022057600080fd5b5061023b600480360381019061023691906132b5565b6108d1565b60405161024891906132fd565b60405180910390f35b34801561025d57600080fd5b506102666108e3565b60405161027391906133b1565b60405180910390f35b34801561028857600080fd5b506102a3600480360381019061029e9190613409565b610975565b6040516102b09190613477565b60405180910390f35b3480156102c557600080fd5b506102e060048036038101906102db91906134be565b6109fa565b005b3480156102ee57600080fd5b506102f7610b11565b005b34801561030557600080fd5b5061030e610c6c565b60405161031b919061350d565b60405180910390f35b34801561033057600080fd5b50610339610c79565b60405161034691906135e6565b60405180910390f35b34801561035b57600080fd5b5061037660048036038101906103719190613608565b610cd1565b005b34801561038457600080fd5b5061039f600480360381019061039a91906134be565b610d31565b6040516103ac919061350d565b60405180910390f35b3480156103c157600080fd5b506103dc60048036038101906103d79190613409565b610dd6565b005b3480156103ea57600080fd5b5061040560048036038101906104009190613608565b610ef3565b005b34801561041357600080fd5b5061042e60048036038101906104299190613409565b610f13565b005b34801561043c57600080fd5b50610445610fcd565b60405161045291906135e6565b60405180910390f35b34801561046757600080fd5b50610482600480360381019061047d9190613409565b611025565b60405161048f919061350d565b60405180910390f35b3480156104a457600080fd5b506104bf60048036038101906104ba9190613409565b61103d565b6040516104cc919061350d565b60405180910390f35b3480156104e157600080fd5b506104fc60048036038101906104f79190613409565b6110ae565b6040516105099190613477565b60405180910390f35b34801561051e57600080fd5b5061052761115f565b60405161053491906133b1565b60405180910390f35b34801561054957600080fd5b50610564600480360381019061055f9190613409565b6111ed565b604051610571919061350d565b60405180910390f35b34801561058657600080fd5b506105a1600480360381019061059c9190613409565b611211565b6040516105ae919061350d565b60405180910390f35b3480156105c357600080fd5b506105de60048036038101906105d9919061365b565b611235565b6040516105eb919061350d565b60405180910390f35b34801561060057600080fd5b506106096112ec565b005b34801561061757600080fd5b50610632600480360381019061062d9190613409565b611374565b60405161063f919061350d565b60405180910390f35b34801561065457600080fd5b5061065d611398565b60405161066a9190613806565b60405180910390f35b34801561067f57600080fd5b506106886114c0565b6040516106959190613477565b60405180910390f35b3480156106aa57600080fd5b506106c560048036038101906106c09190613409565b6114ea565b6040516106d2919061350d565b60405180910390f35b3480156106e757600080fd5b506106f0611507565b6040516106fd91906133b1565b60405180910390f35b34801561071257600080fd5b5061072d60048036038101906107289190613854565b611599565b005b34801561073b57600080fd5b5061075660048036038101906107519190613894565b6115af565b005b34801561076457600080fd5b5061077f600480360381019061077a9190613a09565b611729565b005b34801561078d57600080fd5b506107a860048036038101906107a39190613894565b61178b565b005b3480156107b657600080fd5b506107d160048036038101906107cc9190613409565b61192e565b6040516107de91906133b1565b60405180910390f35b61080160048036038101906107fc9190613409565b6119b0565b005b34801561080f57600080fd5b50610818611bd6565b604051610825919061350d565b60405180910390f35b34801561083a57600080fd5b5061085560048036038101906108509190613a8c565b611be0565b60405161086291906132fd565b60405180910390f35b34801561087757600080fd5b50610892600480360381019061088d919061365b565b611c74565b60405161089f9190613806565b60405180910390f35b3480156108b457600080fd5b506108cf60048036038101906108ca919061365b565b611d84565b005b60006108dc82611e7b565b9050919050565b6060600080546108f290613afb565b80601f016020809104026020016040519081016040528092919081815260200182805461091e90613afb565b801561096b5780601f106109405761010080835404028352916020019161096b565b820191906000526020600020905b81548152906001019060200180831161094e57829003601f168201915b5050505050905090565b600061098082611ef5565b6109bf576040517f08c379a00000000000000000000000000000000000000000000000000000000081526004016109b690613b9e565b60405180910390fd5b6004600083815260200190815260200160002060009054906101000a900473ffffffffffffffffffffffffffffffffffffffff169050919050565b6000610a05826110ae565b90508073ffffffffffffffffffffffffffffffffffffffff168373ffffffffffffffffffffffffffffffffffffffff1603610a75576040517f08c379a0000000000000000000000000000000000000000000000000000000008152600401610a6c90613c30565b60405180910390fd5b8073ffffffffffffffffffffffffffffffffffffffff16610a94611f61565b73ffffffffffffffffffffffffffffffffffffffff161480610ac35750610ac281610abd611f61565b611be0565b5b610b02576040517f08c379a0000000000000000000000000000000000000000000000000000000008152600401610af990613cc2565b60405180910390fd5b610b0c8383611f69565b505050565b6000600e8054905011610b59576040517f08c379a0000000000000000000000000000000000000000000000000000000008152600401610b5090613d2e565b60405180910390fd5b6000600e805490504442600e604051602001610b7793929190613e77565b6040516020818303038152906040528051906020012060001c610b9a9190613edf565b90506000600e8281548110610bb257610bb1613f10565b5b90600052602060002001549050610be733600e8481548110610bd757610bd6613f10565b5b9060005260206000200154612022565b600e6001600e80549050610bfb9190613f6e565b81548110610c0c57610c0b613f10565b5b9060005260206000200154600e8381548110610c2b57610c2a613f10565b5b9060005260206000200181905550600e805480610c4b57610c4a613fa2565b5b6001900381819060005260206000200160009055905580600c819055505050565b6000600880549050905090565b60606010805480602002602001604051908101604052809291908181526020018280548015610cc757602002820191906000526020600020905b815481526020019060010190808311610cb3575b5050505050905090565b610ce2610cdc611f61565b82612040565b610d21576040517f08c379a0000000000000000000000000000000000000000000000000000000008152600401610d1890614043565b60405180910390fd5b610d2c83838361211e565b505050565b6000610d3c83611235565b8210610d7d576040517f08c379a0000000000000000000000000000000000000000000000000000000008152600401610d74906140d5565b60405180910390fd5b600660008473ffffffffffffffffffffffffffffffffffffffff1673ffffffffffffffffffffffffffffffffffffffff168152602001908152602001600020600083815260200190815260200160002054905092915050565b60118190806001815401808255809150506001900390600052602060002001600090919091909150556000600f60008381526020019081526020016000208190555060005b601080549050811015610eef576000600f600060108481548110610e4257610e41613f10565b5b906000526020600020015481526020019081526020016000205403610edc5760106001601080549050610e759190613f6e565b81548110610e8657610e85613f10565b5b906000526020600020015460108281548110610ea557610ea4613f10565b5b90600052602060002001819055506010805480610ec557610ec4613fa2565b5b600190038181906000526020600020016000905590555b8080610ee7906140f5565b915050610e1b565b5050565b610f0e83838360405180602001604052806000815250611729565b505050565b6000610f1e826110ae565b90503373ffffffffffffffffffffffffffffffffffffffff168173ffffffffffffffffffffffffffffffffffffffff1614610f8e576040517f08c379a0000000000000000000000000000000000000000000000000000000008152600401610f85906141af565b60405180910390fd5b610f9782612384565b610fa082610dd6565b600e8290806001815401808255809150506001900390600052602060002001600090919091909150555050565b6060601180548060200260200160405190810160405280929190818152602001828054801561101b57602002820191906000526020600020905b815481526020019060010190808311611007575b5050505050905090565b600f6020528060005260406000206000915090505481565b6000611047610c6c565b8210611088576040517f08c379a000000000000000000000000000000000000000000000000000000000815260040161107f90614241565b60405180910390fd5b6008828154811061109c5761109b613f10565b5b90600052602060002001549050919050565b6000806002600084815260200190815260200160002060009054906101000a900473ffffffffffffffffffffffffffffffffffffffff169050600073ffffffffffffffffffffffffffffffffffffffff168173ffffffffffffffffffffffffffffffffffffffff1603611156576040517f08c379a000000000000000000000000000000000000000000000000000000000815260040161114d906142d3565b60405180910390fd5b80915050919050565b600d805461116c90613afb565b80601f016020809104026020016040519081016040528092919081815260200182805461119890613afb565b80156111e55780601f106111ba576101008083540402835291602001916111e5565b820191906000526020600020905b8154815290600101906020018083116111c857829003601f168201915b505050505081565b601181815481106111fd57600080fd5b906000526020600020016000915090505481565b600e818154811061122157600080fd5b906000526020600020016000915090505481565b60008073ffffffffffffffffffffffffffffffffffffffff168273ffffffffffffffffffffffffffffffffffffffff16036112a5576040517f08c379a000000000000000000000000000000000000000000000000000000000815260040161129c90614365565b60405180910390fd5b600360008373ffffffffffffffffffffffffffffffffffffffff1673ffffffffffffffffffffffffffffffffffffffff168152602001908152602001600020549050919050565b6112f4611f61565b73ffffffffffffffffffffffffffffffffffffffff166113126114c0565b73ffffffffffffffffffffffffffffffffffffffff1614611368576040517f08c379a000000000000000000000000000000000000000000000000000000000815260040161135f906143d1565b60405180910390fd5b61137260006124a1565b565b6010818154811061138457600080fd5b906000526020600020016000915090505481565b606060006113a4610c79565b90506000815167ffffffffffffffff8111156113c3576113c26138de565b5b6040519080825280602002602001820160405280156113fc57816020015b6113e961320b565b8152602001906001900390816113e15790505b50905060005b82518110156114b75760008382815181106114205761141f613f10565b5b602002602001015190506000611435826110ae565b90506000611442836114ea565b905060405180608001604052808481526020018373ffffffffffffffffffffffffffffffffffffffff16815260200161147a8561192e565b81526020018281525085858151811061149657611495613f10565b5b602002602001018190525050505080806114af906140f5565b915050611402565b50809250505090565b6000600a60009054906101000a900473ffffffffffffffffffffffffffffffffffffffff16905090565b6000600f6000838152602001908152602001600020549050919050565b60606001805461151690613afb565b80601f016020809104026020016040519081016040528092919081815260200182805461154290613afb565b801561158f5780601f106115645761010080835404028352916020019161158f565b820191906000526020600020905b81548152906001019060200180831161157257829003601f168201915b5050505050905090565b6115ab6115a4611f61565b8383612567565b5050565b60006115ba836110ae565b90503373ffffffffffffffffffffffffffffffffffffffff168173ffffffffffffffffffffffffffffffffffffffff161461162a576040517f08c379a00000000000000000000000000000000000000000000000000000000081526004016116219061443d565b60405180910390fd5b6000821161166d576040517f08c379a0000000000000000000000000000000000000000000000000000000008152600401611664906144a9565b60405180910390fd5b6000600f600085815260200190815260200160002054036116c3576040517f08c379a00000000000000000000000000000000000000000000000000000000081526004016116ba90614515565b60405180910390fd5b6116cd8130611be0565b61170c576040517f08c379a0000000000000000000000000000000000000000000000000000000008152600401611703906145a7565b60405180910390fd5b81600f600085815260200190815260200160002081905550505050565b61173a611734611f61565b83612040565b611779576040517f08c379a000000000000000000000000000000000000000000000000000000000815260040161177090614043565b60405180910390fd5b611785848484846126d3565b50505050565b6000611796836110ae565b90503373ffffffffffffffffffffffffffffffffffffffff168173ffffffffffffffffffffffffffffffffffffffff1614611806576040517f08c379a00000000000000000000000000000000000000000000000000000000081526004016117fd9061443d565b60405180910390fd5b60008211611849576040517f08c379a0000000000000000000000000000000000000000000000000000000008152600401611840906144a9565b60405180910390fd5b6000600f6000858152602001908152602001600020541461189f576040517f08c379a000000000000000000000000000000000000000000000000000000000815260040161189690614639565b60405180910390fd5b6118a98130611be0565b6118e8576040517f08c379a00000000000000000000000000000000000000000000000000000000081526004016118df906145a7565b60405180910390fd5b81600f6000858152602001908152602001600020819055506010839080600181540180825580915050600190039060005260206000200160009091909190915055505050565b606061193982611ef5565b611978576040517f08c379a000000000000000000000000000000000000000000000000000000000815260040161196f906146cb565b60405180910390fd5b61198061272f565b6119898361274f565b60405160200161199a929190614773565b6040516020818303038152906040529050919050565b6000600f600083815260200190815260200160002054905060006119d3836110ae565b905060008211611a18576040517f08c379a0000000000000000000000000000000000000000000000000000000008152600401611a0f906147ee565b60405180910390fd5b34821115611a5b576040517f08c379a0000000000000000000000000000000000000000000000000000000008152600401611a529061485a565b60405180910390fd5b3373ffffffffffffffffffffffffffffffffffffffff168173ffffffffffffffffffffffffffffffffffffffff1603611ac9576040517f08c379a0000000000000000000000000000000000000000000000000000000008152600401611ac0906148c6565b60405180910390fd5b611ad38130611be0565b611b12576040517f08c379a0000000000000000000000000000000000000000000000000000000008152600401611b09906145a7565b60405180910390fd5b8073ffffffffffffffffffffffffffffffffffffffff166108fc349081150290604051600060405180830381858888f19350505050158015611b58573d6000803e3d6000fd5b503073ffffffffffffffffffffffffffffffffffffffff166342842e0e8233866040518463ffffffff1660e01b8152600401611b96939291906148e6565b600060405180830381600087803b158015611bb057600080fd5b505af1158015611bc4573d6000803e3d6000fd5b50505050611bd183610dd6565b505050565b6000600c54905090565b6000600560008473ffffffffffffffffffffffffffffffffffffffff1673ffffffffffffffffffffffffffffffffffffffff16815260200190815260200160002060008373ffffffffffffffffffffffffffffffffffffffff1673ffffffffffffffffffffffffffffffffffffffff16815260200190815260200160002060009054906101000a900460ff16905092915050565b60606000611c8183611235565b905060008167ffffffffffffffff811115611c9f57611c9e6138de565b5b604051908082528060200260200182016040528015611cd857816020015b611cc561320b565b815260200190600190039081611cbd5790505b50905060005b82811015611d79576000611cf28683610d31565b90506000611cff8261192e565b90506000611d0c836114ea565b905060405180608001604052808481526020018973ffffffffffffffffffffffffffffffffffffffff16815260200183815260200182815250858581518110611d5857611d57613f10565b5b60200260200101819052505050508080611d71906140f5565b915050611cde565b508092505050919050565b611d8c611f61565b73ffffffffffffffffffffffffffffffffffffffff16611daa6114c0565b73ffffffffffffffffffffffffffffffffffffffff1614611e00576040517f08c379a0000000000000000000000000000000000000000000000000000000008152600401611df7906143d1565b60405180910390fd5b600073ffffffffffffffffffffffffffffffffffffffff168173ffffffffffffffffffffffffffffffffffffffff1603611e6f576040517f08c379a0000000000000000000000000000000000000000000000000000000008152600401611e669061498f565b60405180910390fd5b611e78816124a1565b50565b60007f780e9d63000000000000000000000000000000000000000000000000000000007bffffffffffffffffffffffffffffffffffffffffffffffffffffffff1916827bffffffffffffffffffffffffffffffffffffffffffffffffffffffff19161480611eee5750611eed826128af565b5b9050919050565b60008073ffffffffffffffffffffffffffffffffffffffff166002600084815260200190815260200160002060009054906101000a900473ffffffffffffffffffffffffffffffffffffffff1673ffffffffffffffffffffffffffffffffffffffff1614159050919050565b600033905090565b816004600083815260200190815260200160002060006101000a81548173ffffffffffffffffffffffffffffffffffffffff021916908373ffffffffffffffffffffffffffffffffffffffff160217905550808273ffffffffffffffffffffffffffffffffffffffff16611fdc836110ae565b73ffffffffffffffffffffffffffffffffffffffff167f8c5be1e5ebec7d5bd14f71427d1e84f3dd0314c0f7b2291e5b200ac8c7c3b92560405160405180910390a45050565b61203c828260405180602001604052806000815250612991565b5050565b600061204b82611ef5565b61208a576040517f08c379a000000000000000000000000000000000000000000000000000000000815260040161208190614a21565b60405180910390fd5b6000612095836110ae565b90508073ffffffffffffffffffffffffffffffffffffffff168473ffffffffffffffffffffffffffffffffffffffff1614806120d757506120d68185611be0565b5b8061211557508373ffffffffffffffffffffffffffffffffffffffff166120fd84610975565b73ffffffffffffffffffffffffffffffffffffffff16145b91505092915050565b8273ffffffffffffffffffffffffffffffffffffffff1661213e826110ae565b73ffffffffffffffffffffffffffffffffffffffff1614612194576040517f08c379a000000000000000000000000000000000000000000000000000000000815260040161218b90614ab3565b60405180910390fd5b600073ffffffffffffffffffffffffffffffffffffffff168273ffffffffffffffffffffffffffffffffffffffff1603612203576040517f08c379a00000000000000000000000000000000000000000000000000000000081526004016121fa90614b45565b60405180910390fd5b61220e8383836129ec565b612219600082611f69565b6001600360008573ffffffffffffffffffffffffffffffffffffffff1673ffffffffffffffffffffffffffffffffffffffff16815260200190815260200160002060008282546122699190613f6e565b925050819055506001600360008473ffffffffffffffffffffffffffffffffffffffff1673ffffffffffffffffffffffffffffffffffffffff16815260200190815260200160002060008282546122c09190614b65565b92505081905550816002600083815260200190815260200160002060006101000a81548173ffffffffffffffffffffffffffffffffffffffff021916908373ffffffffffffffffffffffffffffffffffffffff160217905550808273ffffffffffffffffffffffffffffffffffffffff168473ffffffffffffffffffffffffffffffffffffffff167fddf252ad1be2c89b69c2b068fc378daa952ba7f163c4a11628f55a4df523b3ef60405160405180910390a461237f8383836129fc565b505050565b600061238f826110ae565b905061239d816000846129ec565b6123a8600083611f69565b6001600360008373ffffffffffffffffffffffffffffffffffffffff1673ffffffffffffffffffffffffffffffffffffffff16815260200190815260200160002060008282546123f89190613f6e565b925050819055506002600083815260200190815260200160002060006101000a81549073ffffffffffffffffffffffffffffffffffffffff021916905581600073ffffffffffffffffffffffffffffffffffffffff168273ffffffffffffffffffffffffffffffffffffffff167fddf252ad1be2c89b69c2b068fc378daa952ba7f163c4a11628f55a4df523b3ef60405160405180910390a461249d816000846129fc565b5050565b6000600a60009054906101000a900473ffffffffffffffffffffffffffffffffffffffff16905081600a60006101000a81548173ffffffffffffffffffffffffffffffffffffffff021916908373ffffffffffffffffffffffffffffffffffffffff1602179055508173ffffffffffffffffffffffffffffffffffffffff168173ffffffffffffffffffffffffffffffffffffffff167f8be0079c531659141344cd1fd0a4f28419497f9722a3daafe3b4186f6b6457e060405160405180910390a35050565b8173ffffffffffffffffffffffffffffffffffffffff168373ffffffffffffffffffffffffffffffffffffffff16036125d5576040517f08c379a00000000000000000000000000000000000000000000000000000000081526004016125cc90614c07565b60405180910390fd5b80600560008573ffffffffffffffffffffffffffffffffffffffff1673ffffffffffffffffffffffffffffffffffffffff16815260200190815260200160002060008473ffffffffffffffffffffffffffffffffffffffff1673ffffffffffffffffffffffffffffffffffffffff16815260200190815260200160002060006101000a81548160ff0219169083151502179055508173ffffffffffffffffffffffffffffffffffffffff168373ffffffffffffffffffffffffffffffffffffffff167f17307eab39ab6107e8899845ad3d59bd9653f200f220920489ca2b5937696c31836040516126c691906132fd565b60405180910390a3505050565b6126de84848461211e565b6126ea84848484612a01565b612729576040517f08c379a000000000000000000000000000000000000000000000000000000000815260040161272090614c99565b60405180910390fd5b50505050565b6060604051806080016040528060508152602001614ea660509139905090565b606060008203612796576040518060400160405280600181526020017f300000000000000000000000000000000000000000000000000000000000000081525090506128aa565b600082905060005b600082146127c85780806127b1906140f5565b915050600a826127c19190614cb9565b915061279e565b60008167ffffffffffffffff8111156127e4576127e36138de565b5b6040519080825280601f01601f1916602001820160405280156128165781602001600182028036833780820191505090505b5090505b600085146128a35760018261282f9190613f6e565b9150600a8561283e9190613edf565b603061284a9190614b65565b60f81b8183815181106128605761285f613f10565b5b60200101907effffffffffffffffffffffffffffffffffffffffffffffffffffffffffffff1916908160001a905350600a8561289c9190614cb9565b945061281a565b8093505050505b919050565b60007f80ac58cd000000000000000000000000000000000000000000000000000000007bffffffffffffffffffffffffffffffffffffffffffffffffffffffff1916827bffffffffffffffffffffffffffffffffffffffffffffffffffffffff1916148061297a57507f5b5e139f000000000000000000000000000000000000000000000000000000007bffffffffffffffffffffffffffffffffffffffffffffffffffffffff1916827bffffffffffffffffffffffffffffffffffffffffffffffffffffffff1916145b8061298a575061298982612b88565b5b9050919050565b61299b8383612bf2565b6129a86000848484612a01565b6129e7576040517f08c379a00000000000000000000000000000000000000000000000000000000081526004016129de90614c99565b60405180910390fd5b505050565b6129f7838383612dcb565b505050565b505050565b6000612a228473ffffffffffffffffffffffffffffffffffffffff16612edd565b15612b7b578373ffffffffffffffffffffffffffffffffffffffff1663150b7a02612a4b611f61565b8786866040518563ffffffff1660e01b8152600401612a6d9493929190614d3f565b6020604051808303816000875af1925050508015612aa957506040513d601f19601f82011682018060405250810190612aa69190614da0565b60015b612b2b573d8060008114612ad9576040519150601f19603f3d011682016040523d82523d6000602084013e612ade565b606091505b506000815103612b23576040517f08c379a0000000000000000000000000000000000000000000000000000000008152600401612b1a90614c99565b60405180910390fd5b805181602001fd5b63150b7a0260e01b7bffffffffffffffffffffffffffffffffffffffffffffffffffffffff1916817bffffffffffffffffffffffffffffffffffffffffffffffffffffffff191614915050612b80565b600190505b949350505050565b60007f01ffc9a7000000000000000000000000000000000000000000000000000000007bffffffffffffffffffffffffffffffffffffffffffffffffffffffff1916827bffffffffffffffffffffffffffffffffffffffffffffffffffffffff1916149050919050565b600073ffffffffffffffffffffffffffffffffffffffff168273ffffffffffffffffffffffffffffffffffffffff1603612c61576040517f08c379a0000000000000000000000000000000000000000000000000000000008152600401612c5890614e19565b60405180910390fd5b612c6a81611ef5565b15612caa576040517f08c379a0000000000000000000000000000000000000000000000000000000008152600401612ca190614e85565b60405180910390fd5b612cb6600083836129ec565b6001600360008473ffffffffffffffffffffffffffffffffffffffff1673ffffffffffffffffffffffffffffffffffffffff1681526020019081526020016000206000828254612d069190614b65565b92505081905550816002600083815260200190815260200160002060006101000a81548173ffffffffffffffffffffffffffffffffffffffff021916908373ffffffffffffffffffffffffffffffffffffffff160217905550808273ffffffffffffffffffffffffffffffffffffffff16600073ffffffffffffffffffffffffffffffffffffffff167fddf252ad1be2c89b69c2b068fc378daa952ba7f163c4a11628f55a4df523b3ef60405160405180910390a4612dc7600083836129fc565b5050565b612dd6838383612f00565b600073ffffffffffffffffffffffffffffffffffffffff168373ffffffffffffffffffffffffffffffffffffffff1603612e1857612e1381612f05565b612e57565b8173ffffffffffffffffffffffffffffffffffffffff168373ffffffffffffffffffffffffffffffffffffffff1614612e5657612e558382612f4e565b5b5b600073ffffffffffffffffffffffffffffffffffffffff168273ffffffffffffffffffffffffffffffffffffffff1603612e9957612e94816130bb565b612ed8565b8273ffffffffffffffffffffffffffffffffffffffff168273ffffffffffffffffffffffffffffffffffffffff1614612ed757612ed6828261318c565b5b5b505050565b6000808273ffffffffffffffffffffffffffffffffffffffff163b119050919050565b505050565b6008805490506009600083815260200190815260200160002081905550600881908060018154018082558091505060019003906000526020600020016000909190919091505550565b60006001612f5b84611235565b612f659190613f6e565b905060006007600084815260200190815260200160002054905081811461304a576000600660008673ffffffffffffffffffffffffffffffffffffffff1673ffffffffffffffffffffffffffffffffffffffff168152602001908152602001600020600084815260200190815260200160002054905080600660008773ffffffffffffffffffffffffffffffffffffffff1673ffffffffffffffffffffffffffffffffffffffff168152602001908152602001600020600084815260200190815260200160002081905550816007600083815260200190815260200160002081905550505b6007600084815260200190815260200160002060009055600660008573ffffffffffffffffffffffffffffffffffffffff1673ffffffffffffffffffffffffffffffffffffffff16815260200190815260200160002060008381526020019081526020016000206000905550505050565b600060016008805490506130cf9190613f6e565b90506000600960008481526020019081526020016000205490506000600883815481106130ff576130fe613f10565b5b90600052602060002001549050806008838154811061312157613120613f10565b5b9060005260206000200181905550816009600083815260200190815260200160002081905550600960008581526020019081526020016000206000905560088054806131705761316f613fa2565b5b6001900381819060005260206000200160009055905550505050565b600061319783611235565b905081600660008573ffffffffffffffffffffffffffffffffffffffff1673ffffffffffffffffffffffffffffffffffffffff168152602001908152602001600020600083815260200190815260200160002081905550806007600084815260200190815260200160002081905550505050565b604051806080016040528060008152602001600073ffffffffffffffffffffffffffffffffffffffff16815260200160608152602001600081525090565b6000604051905090565b600080fd5b600080fd5b60007fffffffff0000000000000000000000000000000000000000000000000000000082169050919050565b6132928161325d565b811461329d57600080fd5b50565b6000813590506132af81613289565b92915050565b6000602082840312156132cb576132ca613253565b5b60006132d9848285016132a0565b91505092915050565b60008115159050919050565b6132f7816132e2565b82525050565b600060208201905061331260008301846132ee565b92915050565b600081519050919050565b600082825260208201905092915050565b60005b83811015613352578082015181840152602081019050613337565b83811115613361576000848401525b50505050565b6000601f19601f8301169050919050565b600061338382613318565b61338d8185613323565b935061339d818560208601613334565b6133a681613367565b840191505092915050565b600060208201905081810360008301526133cb8184613378565b905092915050565b6000819050919050565b6133e6816133d3565b81146133f157600080fd5b50565b600081359050613403816133dd565b92915050565b60006020828403121561341f5761341e613253565b5b600061342d848285016133f4565b91505092915050565b600073ffffffffffffffffffffffffffffffffffffffff82169050919050565b600061346182613436565b9050919050565b61347181613456565b82525050565b600060208201905061348c6000830184613468565b92915050565b61349b81613456565b81146134a657600080fd5b50565b6000813590506134b881613492565b92915050565b600080604083850312156134d5576134d4613253565b5b60006134e3858286016134a9565b92505060206134f4858286016133f4565b9150509250929050565b613507816133d3565b82525050565b600060208201905061352260008301846134fe565b92915050565b600081519050919050565b600082825260208201905092915050565b6000819050602082019050919050565b61355d816133d3565b82525050565b600061356f8383613554565b60208301905092915050565b6000602082019050919050565b600061359382613528565b61359d8185613533565b93506135a883613544565b8060005b838110156135d95781516135c08882613563565b97506135cb8361357b565b9250506001810190506135ac565b5085935050505092915050565b600060208201905081810360008301526136008184613588565b905092915050565b60008060006060848603121561362157613620613253565b5b600061362f868287016134a9565b9350506020613640868287016134a9565b9250506040613651868287016133f4565b9150509250925092565b60006020828403121561367157613670613253565b5b600061367f848285016134a9565b91505092915050565b600081519050919050565b600082825260208201905092915050565b6000819050602082019050919050565b6136bd81613456565b82525050565b600082825260208201905092915050565b60006136df82613318565b6136e981856136c3565b93506136f9818560208601613334565b61370281613367565b840191505092915050565b60006080830160008301516137256000860182613554565b50602083015161373860208601826136b4565b506040830151848203604086015261375082826136d4565b91505060608301516137656060860182613554565b508091505092915050565b600061377c838361370d565b905092915050565b6000602082019050919050565b600061379c82613688565b6137a68185613693565b9350836020820285016137b8856136a4565b8060005b858110156137f457848403895281516137d58582613770565b94506137e083613784565b925060208a019950506001810190506137bc565b50829750879550505050505092915050565b600060208201905081810360008301526138208184613791565b905092915050565b613831816132e2565b811461383c57600080fd5b50565b60008135905061384e81613828565b92915050565b6000806040838503121561386b5761386a613253565b5b6000613879858286016134a9565b925050602061388a8582860161383f565b9150509250929050565b600080604083850312156138ab576138aa613253565b5b60006138b9858286016133f4565b92505060206138ca858286016133f4565b9150509250929050565b600080fd5b600080fd5b7f4e487b7100000000000000000000000000000000000000000000000000000000600052604160045260246000fd5b61391682613367565b810181811067ffffffffffffffff82111715613935576139346138de565b5b80604052505050565b6000613948613249565b9050613954828261390d565b919050565b600067ffffffffffffffff821115613974576139736138de565b5b61397d82613367565b9050602081019050919050565b82818337600083830152505050565b60006139ac6139a784613959565b61393e565b9050828152602081018484840111156139c8576139c76138d9565b5b6139d384828561398a565b509392505050565b600082601f8301126139f0576139ef6138d4565b5b8135613a00848260208601613999565b91505092915050565b60008060008060808587031215613a2357613a22613253565b5b6000613a31878288016134a9565b9450506020613a42878288016134a9565b9350506040613a53878288016133f4565b925050606085013567ffffffffffffffff811115613a7457613a73613258565b5b613a80878288016139db565b91505092959194509250565b60008060408385031215613aa357613aa2613253565b5b6000613ab1858286016134a9565b9250506020613ac2858286016134a9565b9150509250929050565b7f4e487b7100000000000000000000000000000000000000000000000000000000600052602260045260246000fd5b60006002820490506001821680613b1357607f821691505b602082108103613b2657613b25613acc565b5b50919050565b7f4552433732313a20617070726f76656420717565727920666f72206e6f6e657860008201527f697374656e7420746f6b656e0000000000000000000000000000000000000000602082015250565b6000613b88602c83613323565b9150613b9382613b2c565b604082019050919050565b60006020820190508181036000830152613bb781613b7b565b9050919050565b7f4552433732313a20617070726f76616c20746f2063757272656e74206f776e6560008201527f7200000000000000000000000000000000000000000000000000000000000000602082015250565b6000613c1a602183613323565b9150613c2582613bbe565b604082019050919050565b60006020820190508181036000830152613c4981613c0d565b9050919050565b7f4552433732313a20617070726f76652063616c6c6572206973206e6f74206f7760008201527f6e6572206e6f7220617070726f76656420666f7220616c6c0000000000000000602082015250565b6000613cac603883613323565b9150613cb782613c50565b604082019050919050565b60006020820190508181036000830152613cdb81613c9f565b9050919050565b7f496d61676520697320736f6c64206f75742e0000000000000000000000000000600082015250565b6000613d18601283613323565b9150613d2382613ce2565b602082019050919050565b60006020820190508181036000830152613d4781613d0b565b9050919050565b6000819050919050565b613d69613d64826133d3565b613d4e565b82525050565b600081549050919050565b600081905092915050565b60008190508160005260206000209050919050565b613da3816133d3565b82525050565b6000613db58383613d9a565b60208301905092915050565b60008160001c9050919050565b6000819050919050565b6000613deb613de683613dc1565b613dce565b9050919050565b6000613dfe8254613dd8565b9050919050565b6000600182019050919050565b6000613e1d82613d6f565b613e278185613d7a565b9350613e3283613d85565b8060005b83811015613e6a57613e4782613df2565b613e518882613da9565b9750613e5c83613e05565b925050600181019050613e36565b5085935050505092915050565b6000613e838286613d58565b602082019150613e938285613d58565b602082019150613ea38284613e12565b9150819050949350505050565b7f4e487b7100000000000000000000000000000000000000000000000000000000600052601260045260246000fd5b6000613eea826133d3565b9150613ef5836133d3565b925082613f0557613f04613eb0565b5b828206905092915050565b7f4e487b7100000000000000000000000000000000000000000000000000000000600052603260045260246000fd5b7f4e487b7100000000000000000000000000000000000000000000000000000000600052601160045260246000fd5b6000613f79826133d3565b9150613f84836133d3565b925082821015613f9757613f96613f3f565b5b828203905092915050565b7f4e487b7100000000000000000000000000000000000000000000000000000000600052603160045260246000fd5b7f4552433732313a207472616e736665722063616c6c6572206973206e6f74206f60008201527f776e6572206e6f7220617070726f766564000000000000000000000000000000602082015250565b600061402d603183613323565b915061403882613fd1565b604082019050919050565b6000602082019050818103600083015261405c81614020565b9050919050565b7f455243373231456e756d657261626c653a206f776e657220696e646578206f7560008201527f74206f6620626f756e6473000000000000000000000000000000000000000000602082015250565b60006140bf602b83613323565b91506140ca82614063565b604082019050919050565b600060208201905081810360008301526140ee816140b2565b9050919050565b6000614100826133d3565b91507fffffffffffffffffffffffffffffffffffffffffffffffffffffffffffffffff820361413257614131613f3f565b5b600182019050919050565b7f6d73672e73656e646572206973206e6f7420746865206f776e6572206f66207460008201527f686520746f6b656e000000000000000000000000000000000000000000000000602082015250565b6000614199602883613323565b91506141a48261413d565b604082019050919050565b600060208201905081810360008301526141c88161418c565b9050919050565b7f455243373231456e756d657261626c653a20676c6f62616c20696e646578206f60008201527f7574206f6620626f756e64730000000000000000000000000000000000000000602082015250565b600061422b602c83613323565b9150614236826141cf565b604082019050919050565b6000602082019050818103600083015261425a8161421e565b9050919050565b7f4552433732313a206f776e657220717565727920666f72206e6f6e657869737460008201527f656e7420746f6b656e0000000000000000000000000000000000000000000000602082015250565b60006142bd602983613323565b91506142c882614261565b604082019050919050565b600060208201905081810360008301526142ec816142b0565b9050919050565b7f4552433732313a2062616c616e636520717565727920666f7220746865207a6560008201527f726f206164647265737300000000000000000000000000000000000000000000602082015250565b600061434f602a83613323565b915061435a826142f3565b604082019050919050565b6000602082019050818103600083015261437e81614342565b9050919050565b7f4f776e61626c653a2063616c6c6572206973206e6f7420746865206f776e6572600082015250565b60006143bb602083613323565b91506143c682614385565b602082019050919050565b600060208201905081810360008301526143ea816143ae565b9050919050565b7f43616c6c6572206973206e6f74206e667420746f6b656e206f776e65722e0000600082015250565b6000614427601e83613323565b9150614432826143f1565b602082019050919050565b600060208201905081810360008301526144568161441a565b9050919050565b7f5072696365206973207a65726f206f72206c6f7765722e000000000000000000600082015250565b6000614493601783613323565b915061449e8261445d565b602082019050919050565b600060208201905081810360008301526144c281614486565b9050919050565b7f54686973206e667420746f6b656e206973206e6f74206f6e2073616c652e0000600082015250565b60006144ff601e83613323565b915061450a826144c9565b602082019050919050565b6000602082019050818103600083015261452e816144f2565b9050919050565b7f6e667420746f6b656e206f776e657220646964206e6f7420617070726f76652060008201527f746f6b656e2e0000000000000000000000000000000000000000000000000000602082015250565b6000614591602683613323565b915061459c82614535565b604082019050919050565b600060208201905081810360008301526145c081614584565b9050919050565b7f54686973206e667420746f6b656e20697320616c7265616479206f6e2073616c60008201527f652e000000000000000000000000000000000000000000000000000000000000602082015250565b6000614623602283613323565b915061462e826145c7565b604082019050919050565b6000602082019050818103600083015261465281614616565b9050919050565b7f4552433732314d657461646174613a2055524920717565727920666f72206e6f60008201527f6e6578697374656e7420746f6b656e0000000000000000000000000000000000602082015250565b60006146b5602f83613323565b91506146c082614659565b604082019050919050565b600060208201905081810360008301526146e4816146a8565b9050919050565b600081905092915050565b600061470182613318565b61470b81856146eb565b935061471b818560208601613334565b80840191505092915050565b7f2f00000000000000000000000000000000000000000000000000000000000000600082015250565b600061475d6001836146eb565b915061476882614727565b600182019050919050565b600061477f82856146f6565b915061478a82614750565b915061479682846146f6565b91508190509392505050565b7f6e667420746f6b656e206e6f742073616c652e00000000000000000000000000600082015250565b60006147d8601383613323565b91506147e3826147a2565b602082019050919050565b60006020820190508181036000830152614807816147cb565b9050919050565b7f63616c6c65722073656e74206c6f776572207468616e2070726963652e000000600082015250565b6000614844601d83613323565b915061484f8261480e565b602082019050919050565b6000602082019050818103600083015261487381614837565b9050919050565b7f63616c6c6572206973206e667420746f6b656e206f776e65722e000000000000600082015250565b60006148b0601a83613323565b91506148bb8261487a565b602082019050919050565b600060208201905081810360008301526148df816148a3565b9050919050565b60006060820190506148fb6000830186613468565b6149086020830185613468565b61491560408301846134fe565b949350505050565b7f4f776e61626c653a206e6577206f776e657220697320746865207a65726f206160008201527f6464726573730000000000000000000000000000000000000000000000000000602082015250565b6000614979602683613323565b91506149848261491d565b604082019050919050565b600060208201905081810360008301526149a88161496c565b9050919050565b7f4552433732313a206f70657261746f7220717565727920666f72206e6f6e657860008201527f697374656e7420746f6b656e0000000000000000000000000000000000000000602082015250565b6000614a0b602c83613323565b9150614a16826149af565b604082019050919050565b60006020820190508181036000830152614a3a816149fe565b9050919050565b7f4552433732313a207472616e736665722066726f6d20696e636f72726563742060008201527f6f776e6572000000000000000000000000000000000000000000000000000000602082015250565b6000614a9d602583613323565b9150614aa882614a41565b604082019050919050565b60006020820190508181036000830152614acc81614a90565b9050919050565b7f4552433732313a207472616e7366657220746f20746865207a65726f2061646460008201527f7265737300000000000000000000000000000000000000000000000000000000602082015250565b6000614b2f602483613323565b9150614b3a82614ad3565b604082019050919050565b60006020820190508181036000830152614b5e81614b22565b9050919050565b6000614b70826133d3565b9150614b7b836133d3565b9250827fffffffffffffffffffffffffffffffffffffffffffffffffffffffffffffffff03821115614bb057614baf613f3f565b5b828201905092915050565b7f4552433732313a20617070726f766520746f2063616c6c657200000000000000600082015250565b6000614bf1601983613323565b9150614bfc82614bbb565b602082019050919050565b60006020820190508181036000830152614c2081614be4565b9050919050565b7f4552433732313a207472616e7366657220746f206e6f6e20455243373231526560008201527f63656976657220696d706c656d656e7465720000000000000000000000000000602082015250565b6000614c83603283613323565b9150614c8e82614c27565b604082019050919050565b60006020820190508181036000830152614cb281614c76565b9050919050565b6000614cc4826133d3565b9150614ccf836133d3565b925082614cdf57614cde613eb0565b5b828204905092915050565b600081519050919050565b600082825260208201905092915050565b6000614d1182614cea565b614d1b8185614cf5565b9350614d2b818560208601613334565b614d3481613367565b840191505092915050565b6000608082019050614d546000830187613468565b614d616020830186613468565b614d6e60408301856134fe565b8181036060830152614d808184614d06565b905095945050505050565b600081519050614d9a81613289565b92915050565b600060208284031215614db657614db5613253565b5b6000614dc484828501614d8b565b91505092915050565b7f4552433732313a206d696e7420746f20746865207a65726f2061646472657373600082015250565b6000614e03602083613323565b9150614e0e82614dcd565b602082019050919050565b60006020820190508181036000830152614e3281614df6565b9050919050565b7f4552433732313a20746f6b656e20616c7265616479206d696e74656400000000600082015250565b6000614e6f601c83613323565b9150614e7a82614e39565b602082019050919050565b60006020820190508181036000830152614e9e81614e62565b905091905056fe68747470733a2f2f676174657761792e70696e6174612e636c6f75642f697066732f516d5450666e3136435059467431674b6d6875534a547844717a776b367845644e395a4e4b33666e74486870766aa26469706673582212209cfbb31d6e661c991ae055fffaa42f206bbfda889734303e3f747a07991f380764736f6c634300080e0033",
  "immutableReferences": {},
  "source": "// SPDX-License-Identifier: MIT\npragma solidity ^0.8.7;\n\nimport \"../client/node_modules/@openzeppelin/contracts/token/ERC721/ERC721.sol\";\nimport \"../client/node_modules/@openzeppelin/contracts/access/Ownable.sol\";\nimport \"../client/node_modules/@openzeppelin/contracts/token/ERC721/extensions/ERC721Enumerable.sol\";\nimport \"../client/node_modules/@openzeppelin/contracts/utils/Counters.sol\";\n\ncontract Jacket is ERC721, ERC721Enumerable, Ownable {\n    using Counters for Counters.Counter;\n    Counters.Counter private _tokenIds;\n    using Strings for uint256;\n    uint256 mintedId;\n\n    string public baseURI;\n    uint256[] public numArray;\n\n    constructor() ERC721(\"Jacket\", \"JACKET\") {\n        for (uint256 i = 1; i <= 100; i++) {\n            numArray.push(i);\n        }\n    }\n\n    function getmintedId() public view returns (uint256) {\n        return mintedId;\n    }\n\n    function mint() public {\n        require(numArray.length > 0, \"Image is sold out.\");\n        uint256 random = uint256(\n            keccak256(\n                abi.encodePacked(block.difficulty, block.timestamp, numArray)\n            )\n        ) % numArray.length;\n        uint256 id = numArray[random];\n        _safeMint(msg.sender, numArray[random]);\n        numArray[random] = numArray[numArray.length - 1];\n        numArray.pop();\n        mintedId = id;\n    }\n\n    // function mint() public returns (uint256) {\n    //     _tokenIds.increment();\n    //     uint256 newItemId = _tokenIds.current();\n    //     _safeMint(msg.sender, newItemId);\n    //     return newItemId;\n    // }\n\n    // function setBaseURI(string memory baseURI_) external onlyOwner {\n    //     baseURI = baseURI_;\n    // }\n\n    function _baseURI() internal view virtual override returns (string memory) {\n        return\n            \"https://gateway.pinata.cloud/ipfs/QmTPfn16CPYFt1gKmhuSJTxDqzwk6xEdN9ZNK3fntHhpvj\";\n    }\n\n    function tokenURI(uint256 tokenId)\n        public\n        view\n        virtual\n        override\n        returns (string memory)\n    {\n        require(\n            _exists(tokenId),\n            \"ERC721Metadata: URI query for nonexistent token\"\n        );\n        return string(abi.encodePacked(_baseURI(), \"/\", tokenId.toString()));\n    }\n\n    function _beforeTokenTransfer(\n        address from,\n        address to,\n        uint256 tokenId\n    ) internal override(ERC721, ERC721Enumerable) {\n        super._beforeTokenTransfer(from, to, tokenId);\n    }\n\n    function supportsInterface(bytes4 interfaceId)\n        public\n        view\n        override(ERC721, ERC721Enumerable)\n        returns (bool)\n    {\n        return super.supportsInterface(interfaceId);\n    }\n\n    struct NftTokenData {\n        uint256 nftTokenId;\n        address nftTokenOwner;\n        string nftTokenURI;\n        uint256 price;\n    }\n\n    function getNftTokens(address _nftTokenOwner)\n        public\n        view\n        returns (NftTokenData[] memory)\n    {\n        uint256 balanceLength = balanceOf(_nftTokenOwner);\n        //require(balanceLength != 0, \"Owner did not have token.\");\n\n        NftTokenData[] memory nftTokenData = new NftTokenData[](balanceLength);\n\n        for (uint256 i = 0; i < balanceLength; i++) {\n            uint256 nftTokenId = tokenOfOwnerByIndex(_nftTokenOwner, i);\n            string memory nftTokenURI = tokenURI(nftTokenId);\n            uint256 tokenPrice = getNftTokenPrice(nftTokenId);\n            nftTokenData[i] = NftTokenData(\n                nftTokenId,\n                _nftTokenOwner,\n                nftTokenURI,\n                tokenPrice\n            );\n        }\n\n        return nftTokenData;\n    }\n\n    // \n    mapping(uint256 => uint256) public nftTokenPrices;\n    uint256[] public onSaleNftTokenArray;\n    uint256[] public recentNftTokenArray;\n\n    function setSaleNftToken(uint256 _tokenId, uint256 _price) public {\n        address nftTokenOwner = ownerOf(_tokenId);\n\n        require(nftTokenOwner == msg.sender, \"Caller is not nft token owner.\");\n        require(_price > 0, \"Price is zero or lower.\");\n        require(\n            nftTokenPrices[_tokenId] == 0,\n            \"This nft token is already on sale.\"\n        );\n        require(\n            isApprovedForAll(nftTokenOwner, address(this)),\n            \"nft token owner did not approve token.\"\n        );\n\n        nftTokenPrices[_tokenId] = _price;\n        onSaleNftTokenArray.push(_tokenId); // nft list\n    }\n\n    // \n    function getSaleNftTokens() public view returns (NftTokenData[] memory) {\n        uint256[] memory onSaleNftToken = getSaleNftToken();\n        NftTokenData[] memory onSaleNftTokens = new NftTokenData[](\n            onSaleNftToken.length\n        );\n\n        for (uint256 i = 0; i < onSaleNftToken.length; i++) {\n            uint256 tokenId = onSaleNftToken[i];\n            address tokenOwner = ownerOf(tokenId);\n            uint256 tokenPrice = getNftTokenPrice(tokenId);\n            onSaleNftTokens[i] = NftTokenData(\n                tokenId,\n                tokenOwner,\n                tokenURI(tokenId),\n                tokenPrice\n            );\n        }\n\n        return onSaleNftTokens;\n    }\n\n    function getSaleNftToken() public view returns (uint256[] memory) {\n        return onSaleNftTokenArray;\n    }\n\n    function getNftTokenPrice(uint256 _tokenId) public view returns (uint256) {\n        return nftTokenPrices[_tokenId];\n    }\n\n    function getRecentNftToken() public view returns (uint256[] memory) {\n        return recentNftTokenArray;\n    }\n\n    //\n    function buyNftToken(uint256 _tokenId) public payable {\n        uint256 price = nftTokenPrices[_tokenId];\n        address nftTokenOwner = ownerOf(_tokenId);\n\n        require(price > 0, \"nft token not sale.\");\n        require(price <= msg.value, \"caller sent lower than price.\");\n        require(nftTokenOwner != msg.sender, \"caller is nft token owner.\");\n        require(\n            isApprovedForAll(nftTokenOwner, address(this)),\n            \"nft token owner did not approve token.\"\n        );\n\n        payable(nftTokenOwner).transfer(msg.value);\n\n        IERC721(address(this)).safeTransferFrom(\n            nftTokenOwner,\n            msg.sender,\n            _tokenId\n        );\n\n        //  \n        removeToken(_tokenId);\n    }\n\n    function burn(uint256 _tokenId) public {\n        address addr_owner = ownerOf(_tokenId);\n        require(\n            addr_owner == msg.sender,\n            \"msg.sender is not the owner of the token\"\n        );\n        _burn(_tokenId);\n        removeToken(_tokenId);\n        numArray.push(_tokenId);\n    }\n\n    function removeToken(uint256 _tokenId) public {\n        //  \n        recentNftTokenArray.push(_tokenId);\n        nftTokenPrices[_tokenId] = 0;\n\n        for (uint256 i = 0; i < onSaleNftTokenArray.length; i++) {\n            if (nftTokenPrices[onSaleNftTokenArray[i]] == 0) {\n                onSaleNftTokenArray[i] = onSaleNftTokenArray[\n                    onSaleNftTokenArray.length - 1\n                ];\n                onSaleNftTokenArray.pop();\n            }\n        }\n    }\n\n    function changePrice(uint256 _tokenId, uint256 _price) public {\n        address nftTokenOwner = ownerOf(_tokenId);\n        require(nftTokenOwner == msg.sender, \"Caller is not nft token owner.\");\n        require(_price > 0, \"Price is zero or lower.\");\n        require(\n            nftTokenPrices[_tokenId] != 0,\n            \"This nft token is not on sale.\"\n        );\n        require(\n            isApprovedForAll(nftTokenOwner, address(this)),\n            \"nft token owner did not approve token.\"\n        );\n\n        nftTokenPrices[_tokenId] = _price;\n    }\n}\n",
  "sourcePath": "/Users/donghwan/projects/capstone/CapstoneDesign_NFTMarketplace  2/contracts/Jacket.sol",
  "compiler": {
    "name": "solc",
    "version": "0.8.14+commit.80d49f37.Emscripten.clang"
  },
  "schemaVersion": "3.4.6",
  "updatedAt": "2022-06-03T20:20:10.118Z",
  "networkType": "ethereum",
  "devdoc": {
    "kind": "dev",
    "methods": {
      "approve(address,uint256)": {
        "details": "See {IERC721-approve}."
      },
      "balanceOf(address)": {
        "details": "See {IERC721-balanceOf}."
      },
      "getApproved(uint256)": {
        "details": "See {IERC721-getApproved}."
      },
      "isApprovedForAll(address,address)": {
        "details": "See {IERC721-isApprovedForAll}."
      },
      "name()": {
        "details": "See {IERC721Metadata-name}."
      },
      "owner()": {
        "details": "Returns the address of the current owner."
      },
      "ownerOf(uint256)": {
        "details": "See {IERC721-ownerOf}."
      },
      "renounceOwnership()": {
        "details": "Leaves the contract without owner. It will not be possible to call `onlyOwner` functions anymore. Can only be called by the current owner. NOTE: Renouncing ownership will leave the contract without an owner, thereby removing any functionality that is only available to the owner."
      },
      "safeTransferFrom(address,address,uint256)": {
        "details": "See {IERC721-safeTransferFrom}."
      },
      "safeTransferFrom(address,address,uint256,bytes)": {
        "details": "See {IERC721-safeTransferFrom}."
      },
      "setApprovalForAll(address,bool)": {
        "details": "See {IERC721-setApprovalForAll}."
      },
      "symbol()": {
        "details": "See {IERC721Metadata-symbol}."
      },
      "tokenByIndex(uint256)": {
        "details": "See {IERC721Enumerable-tokenByIndex}."
      },
      "tokenOfOwnerByIndex(address,uint256)": {
        "details": "See {IERC721Enumerable-tokenOfOwnerByIndex}."
      },
      "tokenURI(uint256)": {
        "details": "See {IERC721Metadata-tokenURI}."
      },
      "totalSupply()": {
        "details": "See {IERC721Enumerable-totalSupply}."
      },
      "transferFrom(address,address,uint256)": {
        "details": "See {IERC721-transferFrom}."
      },
      "transferOwnership(address)": {
        "details": "Transfers ownership of the contract to a new account (`newOwner`). Can only be called by the current owner."
      }
    },
    "version": 1
  },
  "userdoc": {
    "kind": "user",
    "methods": {},
    "version": 1
  }
}