{
  "contractName": "Jacket",
  "abi": [
    {
      "inputs": [],
      "stateMutability": "nonpayable",
      "type": "constructor"
    },
    {
      "anonymous": false,
      "inputs": [
        {
          "indexed": true,
          "internalType": "address",
          "name": "owner",
          "type": "address"
        },
        {
          "indexed": true,
          "internalType": "address",
          "name": "approved",
          "type": "address"
        },
        {
          "indexed": true,
          "internalType": "uint256",
          "name": "tokenId",
          "type": "uint256"
        }
      ],
      "name": "Approval",
      "type": "event"
    },
    {
      "anonymous": false,
      "inputs": [
        {
          "indexed": true,
          "internalType": "address",
          "name": "owner",
          "type": "address"
        },
        {
          "indexed": true,
          "internalType": "address",
          "name": "operator",
          "type": "address"
        },
        {
          "indexed": false,
          "internalType": "bool",
          "name": "approved",
          "type": "bool"
        }
      ],
      "name": "ApprovalForAll",
      "type": "event"
    },
    {
      "anonymous": false,
      "inputs": [
        {
          "indexed": true,
          "internalType": "address",
          "name": "previousOwner",
          "type": "address"
        },
        {
          "indexed": true,
          "internalType": "address",
          "name": "newOwner",
          "type": "address"
        }
      ],
      "name": "OwnershipTransferred",
      "type": "event"
    },
    {
      "anonymous": false,
      "inputs": [
        {
          "indexed": true,
          "internalType": "address",
          "name": "from",
          "type": "address"
        },
        {
          "indexed": true,
          "internalType": "address",
          "name": "to",
          "type": "address"
        },
        {
          "indexed": true,
          "internalType": "uint256",
          "name": "tokenId",
          "type": "uint256"
        }
      ],
      "name": "Transfer",
      "type": "event"
    },
    {
      "inputs": [
        {
          "internalType": "address",
          "name": "to",
          "type": "address"
        },
        {
          "internalType": "uint256",
          "name": "tokenId",
          "type": "uint256"
        }
      ],
      "name": "approve",
      "outputs": [],
      "stateMutability": "nonpayable",
      "type": "function"
    },
    {
      "inputs": [
        {
          "internalType": "address",
          "name": "owner",
          "type": "address"
        }
      ],
      "name": "balanceOf",
      "outputs": [
        {
          "internalType": "uint256",
          "name": "",
          "type": "uint256"
        }
      ],
      "stateMutability": "view",
      "type": "function",
      "constant": true
    },
    {
      "inputs": [],
      "name": "baseURI",
      "outputs": [
        {
          "internalType": "string",
          "name": "",
          "type": "string"
        }
      ],
      "stateMutability": "view",
      "type": "function",
      "constant": true
    },
    {
      "inputs": [
        {
          "internalType": "uint256",
          "name": "tokenId",
          "type": "uint256"
        }
      ],
      "name": "getApproved",
      "outputs": [
        {
          "internalType": "address",
          "name": "",
          "type": "address"
        }
      ],
      "stateMutability": "view",
      "type": "function",
      "constant": true
    },
    {
      "inputs": [
        {
          "internalType": "address",
          "name": "owner",
          "type": "address"
        },
        {
          "internalType": "address",
          "name": "operator",
          "type": "address"
        }
      ],
      "name": "isApprovedForAll",
      "outputs": [
        {
          "internalType": "bool",
          "name": "",
          "type": "bool"
        }
      ],
      "stateMutability": "view",
      "type": "function",
      "constant": true
    },
    {
      "inputs": [],
      "name": "name",
      "outputs": [
        {
          "internalType": "string",
          "name": "",
          "type": "string"
        }
      ],
      "stateMutability": "view",
      "type": "function",
      "constant": true
    },
    {
      "inputs": [
        {
          "internalType": "uint256",
          "name": "",
          "type": "uint256"
        }
      ],
      "name": "nftTokenPrices",
      "outputs": [
        {
          "internalType": "uint256",
          "name": "",
          "type": "uint256"
        }
      ],
      "stateMutability": "view",
      "type": "function",
      "constant": true
    },
    {
      "inputs": [
        {
          "internalType": "uint256",
          "name": "",
          "type": "uint256"
        }
      ],
      "name": "onSaleNftTokenArray",
      "outputs": [
        {
          "internalType": "uint256",
          "name": "",
          "type": "uint256"
        }
      ],
      "stateMutability": "view",
      "type": "function",
      "constant": true
    },
    {
      "inputs": [],
      "name": "owner",
      "outputs": [
        {
          "internalType": "address",
          "name": "",
          "type": "address"
        }
      ],
      "stateMutability": "view",
      "type": "function",
      "constant": true
    },
    {
      "inputs": [
        {
          "internalType": "uint256",
          "name": "tokenId",
          "type": "uint256"
        }
      ],
      "name": "ownerOf",
      "outputs": [
        {
          "internalType": "address",
          "name": "",
          "type": "address"
        }
      ],
      "stateMutability": "view",
      "type": "function",
      "constant": true
    },
    {
      "inputs": [],
      "name": "renounceOwnership",
      "outputs": [],
      "stateMutability": "nonpayable",
      "type": "function"
    },
    {
      "inputs": [
        {
          "internalType": "address",
          "name": "from",
          "type": "address"
        },
        {
          "internalType": "address",
          "name": "to",
          "type": "address"
        },
        {
          "internalType": "uint256",
          "name": "tokenId",
          "type": "uint256"
        }
      ],
      "name": "safeTransferFrom",
      "outputs": [],
      "stateMutability": "nonpayable",
      "type": "function"
    },
    {
      "inputs": [
        {
          "internalType": "address",
          "name": "from",
          "type": "address"
        },
        {
          "internalType": "address",
          "name": "to",
          "type": "address"
        },
        {
          "internalType": "uint256",
          "name": "tokenId",
          "type": "uint256"
        },
        {
          "internalType": "bytes",
          "name": "_data",
          "type": "bytes"
        }
      ],
      "name": "safeTransferFrom",
      "outputs": [],
      "stateMutability": "nonpayable",
      "type": "function"
    },
    {
      "inputs": [
        {
          "internalType": "address",
          "name": "operator",
          "type": "address"
        },
        {
          "internalType": "bool",
          "name": "approved",
          "type": "bool"
        }
      ],
      "name": "setApprovalForAll",
      "outputs": [],
      "stateMutability": "nonpayable",
      "type": "function"
    },
    {
      "inputs": [],
      "name": "symbol",
      "outputs": [
        {
          "internalType": "string",
          "name": "",
          "type": "string"
        }
      ],
      "stateMutability": "view",
      "type": "function",
      "constant": true
    },
    {
      "inputs": [
        {
          "internalType": "uint256",
          "name": "index",
          "type": "uint256"
        }
      ],
      "name": "tokenByIndex",
      "outputs": [
        {
          "internalType": "uint256",
          "name": "",
          "type": "uint256"
        }
      ],
      "stateMutability": "view",
      "type": "function",
      "constant": true
    },
    {
      "inputs": [
        {
          "internalType": "address",
          "name": "owner",
          "type": "address"
        },
        {
          "internalType": "uint256",
          "name": "index",
          "type": "uint256"
        }
      ],
      "name": "tokenOfOwnerByIndex",
      "outputs": [
        {
          "internalType": "uint256",
          "name": "",
          "type": "uint256"
        }
      ],
      "stateMutability": "view",
      "type": "function",
      "constant": true
    },
    {
      "inputs": [],
      "name": "totalSupply",
      "outputs": [
        {
          "internalType": "uint256",
          "name": "",
          "type": "uint256"
        }
      ],
      "stateMutability": "view",
      "type": "function",
      "constant": true
    },
    {
      "inputs": [
        {
          "internalType": "address",
          "name": "from",
          "type": "address"
        },
        {
          "internalType": "address",
          "name": "to",
          "type": "address"
        },
        {
          "internalType": "uint256",
          "name": "tokenId",
          "type": "uint256"
        }
      ],
      "name": "transferFrom",
      "outputs": [],
      "stateMutability": "nonpayable",
      "type": "function"
    },
    {
      "inputs": [
        {
          "internalType": "address",
          "name": "newOwner",
          "type": "address"
        }
      ],
      "name": "transferOwnership",
      "outputs": [],
      "stateMutability": "nonpayable",
      "type": "function"
    },
    {
      "inputs": [],
      "name": "mint",
      "outputs": [
        {
          "internalType": "uint256",
          "name": "",
          "type": "uint256"
        }
      ],
      "stateMutability": "nonpayable",
      "type": "function"
    },
    {
      "inputs": [
        {
          "internalType": "uint256",
          "name": "tokenId",
          "type": "uint256"
        }
      ],
      "name": "tokenURI",
      "outputs": [
        {
          "internalType": "string",
          "name": "",
          "type": "string"
        }
      ],
      "stateMutability": "view",
      "type": "function",
      "constant": true
    },
    {
      "inputs": [
        {
          "internalType": "bytes4",
          "name": "interfaceId",
          "type": "bytes4"
        }
      ],
      "name": "supportsInterface",
      "outputs": [
        {
          "internalType": "bool",
          "name": "",
          "type": "bool"
        }
      ],
      "stateMutability": "view",
      "type": "function",
      "constant": true
    },
    {
      "inputs": [
        {
          "internalType": "address",
          "name": "_nftTokenOwner",
          "type": "address"
        }
      ],
      "name": "getNftTokens",
      "outputs": [
        {
          "components": [
            {
              "internalType": "uint256",
              "name": "nftTokenId",
              "type": "uint256"
            },
            {
              "internalType": "string",
              "name": "nftTokenURI",
              "type": "string"
            },
            {
              "internalType": "uint256",
              "name": "price",
              "type": "uint256"
            }
          ],
          "internalType": "struct Jacket.NftTokenData[]",
          "name": "",
          "type": "tuple[]"
        }
      ],
      "stateMutability": "view",
      "type": "function",
      "constant": true
    },
    {
      "inputs": [
        {
          "internalType": "uint256",
          "name": "_tokenId",
          "type": "uint256"
        },
        {
          "internalType": "uint256",
          "name": "_price",
          "type": "uint256"
        }
      ],
      "name": "setSaleNftToken",
      "outputs": [],
      "stateMutability": "nonpayable",
      "type": "function"
    },
    {
      "inputs": [],
      "name": "getSaleNftTokens",
      "outputs": [
        {
          "components": [
            {
              "internalType": "uint256",
              "name": "nftTokenId",
              "type": "uint256"
            },
            {
              "internalType": "string",
              "name": "nftTokenURI",
              "type": "string"
            },
            {
              "internalType": "uint256",
              "name": "price",
              "type": "uint256"
            }
          ],
          "internalType": "struct Jacket.NftTokenData[]",
          "name": "",
          "type": "tuple[]"
        }
      ],
      "stateMutability": "view",
      "type": "function",
      "constant": true
    },
    {
      "inputs": [],
      "name": "getSaleNftToken",
      "outputs": [
        {
          "internalType": "uint256[]",
          "name": "",
          "type": "uint256[]"
        }
      ],
      "stateMutability": "view",
      "type": "function",
      "constant": true
    },
    {
      "inputs": [
        {
          "internalType": "uint256",
          "name": "_tokenId",
          "type": "uint256"
        }
      ],
      "name": "getNftTokenPrice",
      "outputs": [
        {
          "internalType": "uint256",
          "name": "",
          "type": "uint256"
        }
      ],
      "stateMutability": "view",
      "type": "function",
      "constant": true
    },
    {
      "inputs": [
        {
          "internalType": "uint256",
          "name": "_tokenId",
          "type": "uint256"
        }
      ],
      "name": "buyNftToken",
      "outputs": [],
      "stateMutability": "payable",
      "type": "function",
      "payable": true
    },
    {
      "inputs": [
        {
          "internalType": "uint256",
          "name": "_tokenId",
          "type": "uint256"
        }
      ],
      "name": "burn",
      "outputs": [],
      "stateMutability": "nonpayable",
      "type": "function"
    },
    {
      "inputs": [
        {
          "internalType": "uint256",
          "name": "_tokenId",
          "type": "uint256"
        }
      ],
      "name": "removeToken",
      "outputs": [],
      "stateMutability": "nonpayable",
      "type": "function"
    },
    {
      "inputs": [
        {
          "internalType": "uint256",
          "name": "_tokenId",
          "type": "uint256"
        },
        {
          "internalType": "uint256",
          "name": "_price",
          "type": "uint256"
        }
      ],
      "name": "changePrice",
      "outputs": [],
      "stateMutability": "nonpayable",
      "type": "function"
    }
  ],
  "bytecode": "0x60806040523480156200001157600080fd5b506040518060400160405280600681526020017f4a61636b657400000000000000000000000000000000000000000000000000008152506040518060400160405280600681526020017f4a41434b45540000000000000000000000000000000000000000000000000000815250816000908051906020019062000096929190620001a6565b508060019080519060200190620000af929190620001a6565b505050620000d2620000c6620000d860201b60201c565b620000e060201b60201c565b620002ba565b600033905090565b6000600a60009054906101000a900473ffffffffffffffffffffffffffffffffffffffff16905081600a60006101000a81548173ffffffffffffffffffffffffffffffffffffffff021916908373ffffffffffffffffffffffffffffffffffffffff1602179055508173ffffffffffffffffffffffffffffffffffffffff168173ffffffffffffffffffffffffffffffffffffffff167f8be0079c531659141344cd1fd0a4f28419497f9722a3daafe3b4186f6b6457e060405160405180910390a35050565b828054620001b49062000285565b90600052602060002090601f016020900481019282620001d8576000855562000224565b82601f10620001f357805160ff191683800117855562000224565b8280016001018555821562000224579182015b828111156200022357825182559160200191906001019062000206565b5b50905062000233919062000237565b5090565b5b808211156200025257600081600090555060010162000238565b5090565b7f4e487b7100000000000000000000000000000000000000000000000000000000600052602260045260246000fd5b600060028204905060018216806200029e57607f821691505b602082108103620002b457620002b362000256565b5b50919050565b61481980620002ca6000396000f3fe6080604052600436106101e35760003560e01c806370a0823111610102578063b3de019c11610095578063da8cc6e811610064578063da8cc6e81461072a578063e985e9c514610746578063f257f54814610783578063f2fde38b146107c0576101e3565b8063b3de019c14610672578063b88d4fde1461069b578063b8e297f4146106c4578063c87b56dd146106ed576101e3565b80638da5cb5b116100d15780638da5cb5b146105b6578063912c45cf146105e157806395d89b411461061e578063a22cb46514610649576101e3565b806370a08231146104fa578063715018a61461053757806373e778c51461054e57806374a6b54f1461058b576101e3565b80632f745c591161017a5780634ae23e64116101495780634ae23e64146104185780634f6ccce7146104555780636352211e146104925780636c0360eb146104cf576101e3565b80632f745c591461036057806336c5d7241461039d57806342842e0e146103c657806342966c68146103ef576101e3565b80631249c58b116101b65780631249c58b146102b657806318160ddd146102e15780631efceb901461030c57806323b872dd14610337576101e3565b806301ffc9a7146101e857806306fdde0314610225578063081812fc14610250578063095ea7b31461028d575b600080fd5b3480156101f457600080fd5b5061020f600480360381019061020a9190612dff565b6107e9565b60405161021c9190612e47565b60405180910390f35b34801561023157600080fd5b5061023a6107fb565b6040516102479190612efb565b60405180910390f35b34801561025c57600080fd5b5061027760048036038101906102729190612f53565b61088d565b6040516102849190612fc1565b60405180910390f35b34801561029957600080fd5b506102b460048036038101906102af9190613008565b610912565b005b3480156102c257600080fd5b506102cb610a29565b6040516102d89190613057565b60405180910390f35b3480156102ed57600080fd5b506102f6610a54565b6040516103039190613057565b60405180910390f35b34801561031857600080fd5b50610321610a61565b60405161032e9190613130565b60405180910390f35b34801561034357600080fd5b5061035e60048036038101906103599190613152565b610ab9565b005b34801561036c57600080fd5b5061038760048036038101906103829190613008565b610b19565b6040516103949190613057565b60405180910390f35b3480156103a957600080fd5b506103c460048036038101906103bf9190612f53565b610bbe565b005b3480156103d257600080fd5b506103ed60048036038101906103e89190613152565b610cb2565b005b3480156103fb57600080fd5b5061041660048036038101906104119190612f53565b610cd2565b005b34801561042457600080fd5b5061043f600480360381019061043a9190612f53565b610d63565b60405161044c9190613057565b60405180910390f35b34801561046157600080fd5b5061047c60048036038101906104779190612f53565b610d7b565b6040516104899190613057565b60405180910390f35b34801561049e57600080fd5b506104b960048036038101906104b49190612f53565b610dec565b6040516104c69190612fc1565b60405180910390f35b3480156104db57600080fd5b506104e4610e9d565b6040516104f19190612efb565b60405180910390f35b34801561050657600080fd5b50610521600480360381019061051c91906131a5565b610f2b565b60405161052e9190613057565b60405180910390f35b34801561054357600080fd5b5061054c610fe2565b005b34801561055a57600080fd5b5061057560048036038101906105709190612f53565b61106a565b6040516105829190613057565b60405180910390f35b34801561059757600080fd5b506105a061108e565b6040516105ad919061332e565b60405180910390f35b3480156105c257600080fd5b506105cb61118c565b6040516105d89190612fc1565b60405180910390f35b3480156105ed57600080fd5b5061060860048036038101906106039190612f53565b6111b6565b6040516106159190613057565b60405180910390f35b34801561062a57600080fd5b506106336111d3565b6040516106409190612efb565b60405180910390f35b34801561065557600080fd5b50610670600480360381019061066b919061337c565b611265565b005b34801561067e57600080fd5b50610699600480360381019061069491906133bc565b61127b565b005b3480156106a757600080fd5b506106c260048036038101906106bd9190613531565b611292565b005b3480156106d057600080fd5b506106eb60048036038101906106e691906133bc565b6112f4565b005b3480156106f957600080fd5b50610714600480360381019061070f9190612f53565b611497565b6040516107219190612efb565b60405180910390f35b610744600480360381019061073f9190612f53565b611519565b005b34801561075257600080fd5b5061076d600480360381019061076891906135b4565b61173f565b60405161077a9190612e47565b60405180910390f35b34801561078f57600080fd5b506107aa60048036038101906107a591906131a5565b6117d3565b6040516107b7919061332e565b60405180910390f35b3480156107cc57600080fd5b506107e760048036038101906107e291906131a5565b6118c7565b005b60006107f4826119be565b9050919050565b60606000805461080a90613623565b80601f016020809104026020016040519081016040528092919081815260200182805461083690613623565b80156108835780601f1061085857610100808354040283529160200191610883565b820191906000526020600020905b81548152906001019060200180831161086657829003601f168201915b5050505050905090565b600061089882611a38565b6108d7576040517f08c379a00000000000000000000000000000000000000000000000000000000081526004016108ce906136c6565b60405180910390fd5b6004600083815260200190815260200160002060009054906101000a900473ffffffffffffffffffffffffffffffffffffffff169050919050565b600061091d82610dec565b90508073ffffffffffffffffffffffffffffffffffffffff168373ffffffffffffffffffffffffffffffffffffffff160361098d576040517f08c379a000000000000000000000000000000000000000000000000000000000815260040161098490613758565b60405180910390fd5b8073ffffffffffffffffffffffffffffffffffffffff166109ac611aa4565b73ffffffffffffffffffffffffffffffffffffffff1614806109db57506109da816109d5611aa4565b61173f565b5b610a1a576040517f08c379a0000000000000000000000000000000000000000000000000000000008152600401610a11906137ea565b60405180910390fd5b610a248383611aac565b505050565b6000610a35600b611b65565b6000610a41600b611b7b565b9050610a4d3382611b89565b8091505090565b6000600880549050905090565b6060600e805480602002602001604051908101604052809291908181526020018280548015610aaf57602002820191906000526020600020905b815481526020019060010190808311610a9b575b5050505050905090565b610aca610ac4611aa4565b82611ba7565b610b09576040517f08c379a0000000000000000000000000000000000000000000000000000000008152600401610b009061387c565b60405180910390fd5b610b14838383611c85565b505050565b6000610b2483610f2b565b8210610b65576040517f08c379a0000000000000000000000000000000000000000000000000000000008152600401610b5c9061390e565b60405180910390fd5b600660008473ffffffffffffffffffffffffffffffffffffffff1673ffffffffffffffffffffffffffffffffffffffff168152602001908152602001600020600083815260200190815260200160002054905092915050565b6000600d60008381526020019081526020016000208190555060005b600e80549050811015610cae576000600d6000600e8481548110610c0157610c0061392e565b5b906000526020600020015481526020019081526020016000205403610c9b57600e6001600e80549050610c34919061398c565b81548110610c4557610c4461392e565b5b9060005260206000200154600e8281548110610c6457610c6361392e565b5b9060005260206000200181905550600e805480610c8457610c836139c0565b5b600190038181906000526020600020016000905590555b8080610ca6906139ef565b915050610bda565b5050565b610ccd83838360405180602001604052806000815250611292565b505050565b6000610cdd82610dec565b90503373ffffffffffffffffffffffffffffffffffffffff168173ffffffffffffffffffffffffffffffffffffffff1614610d4d576040517f08c379a0000000000000000000000000000000000000000000000000000000008152600401610d4490613aa9565b60405180910390fd5b610d5682611eeb565b610d5f82610bbe565b5050565b600d6020528060005260406000206000915090505481565b6000610d85610a54565b8210610dc6576040517f08c379a0000000000000000000000000000000000000000000000000000000008152600401610dbd90613b3b565b60405180910390fd5b60088281548110610dda57610dd961392e565b5b90600052602060002001549050919050565b6000806002600084815260200190815260200160002060009054906101000a900473ffffffffffffffffffffffffffffffffffffffff169050600073ffffffffffffffffffffffffffffffffffffffff168173ffffffffffffffffffffffffffffffffffffffff1603610e94576040517f08c379a0000000000000000000000000000000000000000000000000000000008152600401610e8b90613bcd565b60405180910390fd5b80915050919050565b600c8054610eaa90613623565b80601f0160208091040260200160405190810160405280929190818152602001828054610ed690613623565b8015610f235780601f10610ef857610100808354040283529160200191610f23565b820191906000526020600020905b815481529060010190602001808311610f0657829003601f168201915b505050505081565b60008073ffffffffffffffffffffffffffffffffffffffff168273ffffffffffffffffffffffffffffffffffffffff1603610f9b576040517f08c379a0000000000000000000000000000000000000000000000000000000008152600401610f9290613c5f565b60405180910390fd5b600360008373ffffffffffffffffffffffffffffffffffffffff1673ffffffffffffffffffffffffffffffffffffffff168152602001908152602001600020549050919050565b610fea611aa4565b73ffffffffffffffffffffffffffffffffffffffff1661100861118c565b73ffffffffffffffffffffffffffffffffffffffff161461105e576040517f08c379a000000000000000000000000000000000000000000000000000000000815260040161105590613ccb565b60405180910390fd5b6110686000612008565b565b600e818154811061107a57600080fd5b906000526020600020016000915090505481565b6060600061109a610a61565b90506000815167ffffffffffffffff8111156110b9576110b8613406565b5b6040519080825280602002602001820160405280156110f257816020015b6110df612d72565b8152602001906001900390816110d75790505b50905060005b82518110156111835760008382815181106111165761111561392e565b5b60200260200101519050600061112b826111b6565b9050604051806060016040528083815260200161114784611497565b8152602001828152508484815181106111635761116261392e565b5b60200260200101819052505050808061117b906139ef565b9150506110f8565b50809250505090565b6000600a60009054906101000a900473ffffffffffffffffffffffffffffffffffffffff16905090565b6000600d6000838152602001908152602001600020549050919050565b6060600180546111e290613623565b80601f016020809104026020016040519081016040528092919081815260200182805461120e90613623565b801561125b5780601f106112305761010080835404028352916020019161125b565b820191906000526020600020905b81548152906001019060200180831161123e57829003601f168201915b5050505050905090565b611277611270611aa4565b83836120ce565b5050565b61128482610bbe565b61128e82826112f4565b5050565b6112a361129d611aa4565b83611ba7565b6112e2576040517f08c379a00000000000000000000000000000000000000000000000000000000081526004016112d99061387c565b60405180910390fd5b6112ee8484848461223a565b50505050565b60006112ff83610dec565b90503373ffffffffffffffffffffffffffffffffffffffff168173ffffffffffffffffffffffffffffffffffffffff161461136f576040517f08c379a000000000000000000000000000000000000000000000000000000000815260040161136690613d37565b60405180910390fd5b600082116113b2576040517f08c379a00000000000000000000000000000000000000000000000000000000081526004016113a990613da3565b60405180910390fd5b6000600d60008581526020019081526020016000205414611408576040517f08c379a00000000000000000000000000000000000000000000000000000000081526004016113ff90613e35565b60405180910390fd5b611412813061173f565b611451576040517f08c379a000000000000000000000000000000000000000000000000000000000815260040161144890613ec7565b60405180910390fd5b81600d600085815260200190815260200160002081905550600e839080600181540180825580915050600190039060005260206000200160009091909190915055505050565b60606114a282611a38565b6114e1576040517f08c379a00000000000000000000000000000000000000000000000000000000081526004016114d890613f59565b60405180910390fd5b6114e9612296565b6114f2836122b6565b604051602001611503929190614001565b6040516020818303038152906040529050919050565b6000600d6000838152602001908152602001600020549050600061153c83610dec565b905060008211611581576040517f08c379a00000000000000000000000000000000000000000000000000000000081526004016115789061407c565b60405180910390fd5b348211156115c4576040517f08c379a00000000000000000000000000000000000000000000000000000000081526004016115bb906140e8565b60405180910390fd5b3373ffffffffffffffffffffffffffffffffffffffff168173ffffffffffffffffffffffffffffffffffffffff1603611632576040517f08c379a000000000000000000000000000000000000000000000000000000000815260040161162990614154565b60405180910390fd5b61163c813061173f565b61167b576040517f08c379a000000000000000000000000000000000000000000000000000000000815260040161167290613ec7565b60405180910390fd5b8073ffffffffffffffffffffffffffffffffffffffff166108fc349081150290604051600060405180830381858888f193505050501580156116c1573d6000803e3d6000fd5b503073ffffffffffffffffffffffffffffffffffffffff166342842e0e8233866040518463ffffffff1660e01b81526004016116ff93929190614174565b600060405180830381600087803b15801561171957600080fd5b505af115801561172d573d6000803e3d6000fd5b5050505061173a83610bbe565b505050565b6000600560008473ffffffffffffffffffffffffffffffffffffffff1673ffffffffffffffffffffffffffffffffffffffff16815260200190815260200160002060008373ffffffffffffffffffffffffffffffffffffffff1673ffffffffffffffffffffffffffffffffffffffff16815260200190815260200160002060009054906101000a900460ff16905092915050565b606060006117e083610f2b565b905060008167ffffffffffffffff8111156117fe576117fd613406565b5b60405190808252806020026020018201604052801561183757816020015b611824612d72565b81526020019060019003908161181c5790505b50905060005b828110156118bc5760006118518683610b19565b9050600061185e82611497565b9050600061186b836111b6565b905060405180606001604052808481526020018381526020018281525085858151811061189b5761189a61392e565b5b602002602001018190525050505080806118b4906139ef565b91505061183d565b508092505050919050565b6118cf611aa4565b73ffffffffffffffffffffffffffffffffffffffff166118ed61118c565b73ffffffffffffffffffffffffffffffffffffffff1614611943576040517f08c379a000000000000000000000000000000000000000000000000000000000815260040161193a90613ccb565b60405180910390fd5b600073ffffffffffffffffffffffffffffffffffffffff168173ffffffffffffffffffffffffffffffffffffffff16036119b2576040517f08c379a00000000000000000000000000000000000000000000000000000000081526004016119a99061421d565b60405180910390fd5b6119bb81612008565b50565b60007f780e9d63000000000000000000000000000000000000000000000000000000007bffffffffffffffffffffffffffffffffffffffffffffffffffffffff1916827bffffffffffffffffffffffffffffffffffffffffffffffffffffffff19161480611a315750611a3082612416565b5b9050919050565b60008073ffffffffffffffffffffffffffffffffffffffff166002600084815260200190815260200160002060009054906101000a900473ffffffffffffffffffffffffffffffffffffffff1673ffffffffffffffffffffffffffffffffffffffff1614159050919050565b600033905090565b816004600083815260200190815260200160002060006101000a81548173ffffffffffffffffffffffffffffffffffffffff021916908373ffffffffffffffffffffffffffffffffffffffff160217905550808273ffffffffffffffffffffffffffffffffffffffff16611b1f83610dec565b73ffffffffffffffffffffffffffffffffffffffff167f8c5be1e5ebec7d5bd14f71427d1e84f3dd0314c0f7b2291e5b200ac8c7c3b92560405160405180910390a45050565b6001816000016000828254019250508190555050565b600081600001549050919050565b611ba38282604051806020016040528060008152506124f8565b5050565b6000611bb282611a38565b611bf1576040517f08c379a0000000000000000000000000000000000000000000000000000000008152600401611be8906142af565b60405180910390fd5b6000611bfc83610dec565b90508073ffffffffffffffffffffffffffffffffffffffff168473ffffffffffffffffffffffffffffffffffffffff161480611c3e5750611c3d818561173f565b5b80611c7c57508373ffffffffffffffffffffffffffffffffffffffff16611c648461088d565b73ffffffffffffffffffffffffffffffffffffffff16145b91505092915050565b8273ffffffffffffffffffffffffffffffffffffffff16611ca582610dec565b73ffffffffffffffffffffffffffffffffffffffff1614611cfb576040517f08c379a0000000000000000000000000000000000000000000000000000000008152600401611cf290614341565b60405180910390fd5b600073ffffffffffffffffffffffffffffffffffffffff168273ffffffffffffffffffffffffffffffffffffffff1603611d6a576040517f08c379a0000000000000000000000000000000000000000000000000000000008152600401611d61906143d3565b60405180910390fd5b611d75838383612553565b611d80600082611aac565b6001600360008573ffffffffffffffffffffffffffffffffffffffff1673ffffffffffffffffffffffffffffffffffffffff1681526020019081526020016000206000828254611dd0919061398c565b925050819055506001600360008473ffffffffffffffffffffffffffffffffffffffff1673ffffffffffffffffffffffffffffffffffffffff1681526020019081526020016000206000828254611e2791906143f3565b92505081905550816002600083815260200190815260200160002060006101000a81548173ffffffffffffffffffffffffffffffffffffffff021916908373ffffffffffffffffffffffffffffffffffffffff160217905550808273ffffffffffffffffffffffffffffffffffffffff168473ffffffffffffffffffffffffffffffffffffffff167fddf252ad1be2c89b69c2b068fc378daa952ba7f163c4a11628f55a4df523b3ef60405160405180910390a4611ee6838383612563565b505050565b6000611ef682610dec565b9050611f0481600084612553565b611f0f600083611aac565b6001600360008373ffffffffffffffffffffffffffffffffffffffff1673ffffffffffffffffffffffffffffffffffffffff1681526020019081526020016000206000828254611f5f919061398c565b925050819055506002600083815260200190815260200160002060006101000a81549073ffffffffffffffffffffffffffffffffffffffff021916905581600073ffffffffffffffffffffffffffffffffffffffff168273ffffffffffffffffffffffffffffffffffffffff167fddf252ad1be2c89b69c2b068fc378daa952ba7f163c4a11628f55a4df523b3ef60405160405180910390a461200481600084612563565b5050565b6000600a60009054906101000a900473ffffffffffffffffffffffffffffffffffffffff16905081600a60006101000a81548173ffffffffffffffffffffffffffffffffffffffff021916908373ffffffffffffffffffffffffffffffffffffffff1602179055508173ffffffffffffffffffffffffffffffffffffffff168173ffffffffffffffffffffffffffffffffffffffff167f8be0079c531659141344cd1fd0a4f28419497f9722a3daafe3b4186f6b6457e060405160405180910390a35050565b8173ffffffffffffffffffffffffffffffffffffffff168373ffffffffffffffffffffffffffffffffffffffff160361213c576040517f08c379a000000000000000000000000000000000000000000000000000000000815260040161213390614495565b60405180910390fd5b80600560008573ffffffffffffffffffffffffffffffffffffffff1673ffffffffffffffffffffffffffffffffffffffff16815260200190815260200160002060008473ffffffffffffffffffffffffffffffffffffffff1673ffffffffffffffffffffffffffffffffffffffff16815260200190815260200160002060006101000a81548160ff0219169083151502179055508173ffffffffffffffffffffffffffffffffffffffff168373ffffffffffffffffffffffffffffffffffffffff167f17307eab39ab6107e8899845ad3d59bd9653f200f220920489ca2b5937696c318360405161222d9190612e47565b60405180910390a3505050565b612245848484611c85565b61225184848484612568565b612290576040517f08c379a000000000000000000000000000000000000000000000000000000000815260040161228790614527565b60405180910390fd5b50505050565b606060405180608001604052806050815260200161479460509139905090565b6060600082036122fd576040518060400160405280600181526020017f30000000000000000000000000000000000000000000000000000000000000008152509050612411565b600082905060005b6000821461232f578080612318906139ef565b915050600a826123289190614576565b9150612305565b60008167ffffffffffffffff81111561234b5761234a613406565b5b6040519080825280601f01601f19166020018201604052801561237d5781602001600182028036833780820191505090505b5090505b6000851461240a57600182612396919061398c565b9150600a856123a591906145a7565b60306123b191906143f3565b60f81b8183815181106123c7576123c661392e565b5b60200101907effffffffffffffffffffffffffffffffffffffffffffffffffffffffffffff1916908160001a905350600a856124039190614576565b9450612381565b8093505050505b919050565b60007f80ac58cd000000000000000000000000000000000000000000000000000000007bffffffffffffffffffffffffffffffffffffffffffffffffffffffff1916827bffffffffffffffffffffffffffffffffffffffffffffffffffffffff191614806124e157507f5b5e139f000000000000000000000000000000000000000000000000000000007bffffffffffffffffffffffffffffffffffffffffffffffffffffffff1916827bffffffffffffffffffffffffffffffffffffffffffffffffffffffff1916145b806124f157506124f0826126ef565b5b9050919050565b6125028383612759565b61250f6000848484612568565b61254e576040517f08c379a000000000000000000000000000000000000000000000000000000000815260040161254590614527565b60405180910390fd5b505050565b61255e838383612932565b505050565b505050565b60006125898473ffffffffffffffffffffffffffffffffffffffff16612a44565b156126e2578373ffffffffffffffffffffffffffffffffffffffff1663150b7a026125b2611aa4565b8786866040518563ffffffff1660e01b81526004016125d4949392919061462d565b6020604051808303816000875af192505050801561261057506040513d601f19601f8201168201806040525081019061260d919061468e565b60015b612692573d8060008114612640576040519150601f19603f3d011682016040523d82523d6000602084013e612645565b606091505b50600081510361268a576040517f08c379a000000000000000000000000000000000000000000000000000000000815260040161268190614527565b60405180910390fd5b805181602001fd5b63150b7a0260e01b7bffffffffffffffffffffffffffffffffffffffffffffffffffffffff1916817bffffffffffffffffffffffffffffffffffffffffffffffffffffffff1916149150506126e7565b600190505b949350505050565b60007f01ffc9a7000000000000000000000000000000000000000000000000000000007bffffffffffffffffffffffffffffffffffffffffffffffffffffffff1916827bffffffffffffffffffffffffffffffffffffffffffffffffffffffff1916149050919050565b600073ffffffffffffffffffffffffffffffffffffffff168273ffffffffffffffffffffffffffffffffffffffff16036127c8576040517f08c379a00000000000000000000000000000000000000000000000000000000081526004016127bf90614707565b60405180910390fd5b6127d181611a38565b15612811576040517f08c379a000000000000000000000000000000000000000000000000000000000815260040161280890614773565b60405180910390fd5b61281d60008383612553565b6001600360008473ffffffffffffffffffffffffffffffffffffffff1673ffffffffffffffffffffffffffffffffffffffff168152602001908152602001600020600082825461286d91906143f3565b92505081905550816002600083815260200190815260200160002060006101000a81548173ffffffffffffffffffffffffffffffffffffffff021916908373ffffffffffffffffffffffffffffffffffffffff160217905550808273ffffffffffffffffffffffffffffffffffffffff16600073ffffffffffffffffffffffffffffffffffffffff167fddf252ad1be2c89b69c2b068fc378daa952ba7f163c4a11628f55a4df523b3ef60405160405180910390a461292e60008383612563565b5050565b61293d838383612a67565b600073ffffffffffffffffffffffffffffffffffffffff168373ffffffffffffffffffffffffffffffffffffffff160361297f5761297a81612a6c565b6129be565b8173ffffffffffffffffffffffffffffffffffffffff168373ffffffffffffffffffffffffffffffffffffffff16146129bd576129bc8382612ab5565b5b5b600073ffffffffffffffffffffffffffffffffffffffff168273ffffffffffffffffffffffffffffffffffffffff1603612a00576129fb81612c22565b612a3f565b8273ffffffffffffffffffffffffffffffffffffffff168273ffffffffffffffffffffffffffffffffffffffff1614612a3e57612a3d8282612cf3565b5b5b505050565b6000808273ffffffffffffffffffffffffffffffffffffffff163b119050919050565b505050565b6008805490506009600083815260200190815260200160002081905550600881908060018154018082558091505060019003906000526020600020016000909190919091505550565b60006001612ac284610f2b565b612acc919061398c565b9050600060076000848152602001908152602001600020549050818114612bb1576000600660008673ffffffffffffffffffffffffffffffffffffffff1673ffffffffffffffffffffffffffffffffffffffff168152602001908152602001600020600084815260200190815260200160002054905080600660008773ffffffffffffffffffffffffffffffffffffffff1673ffffffffffffffffffffffffffffffffffffffff168152602001908152602001600020600084815260200190815260200160002081905550816007600083815260200190815260200160002081905550505b6007600084815260200190815260200160002060009055600660008573ffffffffffffffffffffffffffffffffffffffff1673ffffffffffffffffffffffffffffffffffffffff16815260200190815260200160002060008381526020019081526020016000206000905550505050565b60006001600880549050612c36919061398c565b9050600060096000848152602001908152602001600020549050600060088381548110612c6657612c6561392e565b5b906000526020600020015490508060088381548110612c8857612c8761392e565b5b906000526020600020018190555081600960008381526020019081526020016000208190555060096000858152602001908152602001600020600090556008805480612cd757612cd66139c0565b5b6001900381819060005260206000200160009055905550505050565b6000612cfe83610f2b565b905081600660008573ffffffffffffffffffffffffffffffffffffffff1673ffffffffffffffffffffffffffffffffffffffff168152602001908152602001600020600083815260200190815260200160002081905550806007600084815260200190815260200160002081905550505050565b60405180606001604052806000815260200160608152602001600081525090565b6000604051905090565b600080fd5b600080fd5b60007fffffffff0000000000000000000000000000000000000000000000000000000082169050919050565b612ddc81612da7565b8114612de757600080fd5b50565b600081359050612df981612dd3565b92915050565b600060208284031215612e1557612e14612d9d565b5b6000612e2384828501612dea565b91505092915050565b60008115159050919050565b612e4181612e2c565b82525050565b6000602082019050612e5c6000830184612e38565b92915050565b600081519050919050565b600082825260208201905092915050565b60005b83811015612e9c578082015181840152602081019050612e81565b83811115612eab576000848401525b50505050565b6000601f19601f8301169050919050565b6000612ecd82612e62565b612ed78185612e6d565b9350612ee7818560208601612e7e565b612ef081612eb1565b840191505092915050565b60006020820190508181036000830152612f158184612ec2565b905092915050565b6000819050919050565b612f3081612f1d565b8114612f3b57600080fd5b50565b600081359050612f4d81612f27565b92915050565b600060208284031215612f6957612f68612d9d565b5b6000612f7784828501612f3e565b91505092915050565b600073ffffffffffffffffffffffffffffffffffffffff82169050919050565b6000612fab82612f80565b9050919050565b612fbb81612fa0565b82525050565b6000602082019050612fd66000830184612fb2565b92915050565b612fe581612fa0565b8114612ff057600080fd5b50565b60008135905061300281612fdc565b92915050565b6000806040838503121561301f5761301e612d9d565b5b600061302d85828601612ff3565b925050602061303e85828601612f3e565b9150509250929050565b61305181612f1d565b82525050565b600060208201905061306c6000830184613048565b92915050565b600081519050919050565b600082825260208201905092915050565b6000819050602082019050919050565b6130a781612f1d565b82525050565b60006130b9838361309e565b60208301905092915050565b6000602082019050919050565b60006130dd82613072565b6130e7818561307d565b93506130f28361308e565b8060005b8381101561312357815161310a88826130ad565b9750613115836130c5565b9250506001810190506130f6565b5085935050505092915050565b6000602082019050818103600083015261314a81846130d2565b905092915050565b60008060006060848603121561316b5761316a612d9d565b5b600061317986828701612ff3565b935050602061318a86828701612ff3565b925050604061319b86828701612f3e565b9150509250925092565b6000602082840312156131bb576131ba612d9d565b5b60006131c984828501612ff3565b91505092915050565b600081519050919050565b600082825260208201905092915050565b6000819050602082019050919050565b600082825260208201905092915050565b600061321a82612e62565b61322481856131fe565b9350613234818560208601612e7e565b61323d81612eb1565b840191505092915050565b6000606083016000830151613260600086018261309e565b5060208301518482036020860152613278828261320f565b915050604083015161328d604086018261309e565b508091505092915050565b60006132a48383613248565b905092915050565b6000602082019050919050565b60006132c4826131d2565b6132ce81856131dd565b9350836020820285016132e0856131ee565b8060005b8581101561331c57848403895281516132fd8582613298565b9450613308836132ac565b925060208a019950506001810190506132e4565b50829750879550505050505092915050565b6000602082019050818103600083015261334881846132b9565b905092915050565b61335981612e2c565b811461336457600080fd5b50565b60008135905061337681613350565b92915050565b6000806040838503121561339357613392612d9d565b5b60006133a185828601612ff3565b92505060206133b285828601613367565b9150509250929050565b600080604083850312156133d3576133d2612d9d565b5b60006133e185828601612f3e565b92505060206133f285828601612f3e565b9150509250929050565b600080fd5b600080fd5b7f4e487b7100000000000000000000000000000000000000000000000000000000600052604160045260246000fd5b61343e82612eb1565b810181811067ffffffffffffffff8211171561345d5761345c613406565b5b80604052505050565b6000613470612d93565b905061347c8282613435565b919050565b600067ffffffffffffffff82111561349c5761349b613406565b5b6134a582612eb1565b9050602081019050919050565b82818337600083830152505050565b60006134d46134cf84613481565b613466565b9050828152602081018484840111156134f0576134ef613401565b5b6134fb8482856134b2565b509392505050565b600082601f830112613518576135176133fc565b5b81356135288482602086016134c1565b91505092915050565b6000806000806080858703121561354b5761354a612d9d565b5b600061355987828801612ff3565b945050602061356a87828801612ff3565b935050604061357b87828801612f3e565b925050606085013567ffffffffffffffff81111561359c5761359b612da2565b5b6135a887828801613503565b91505092959194509250565b600080604083850312156135cb576135ca612d9d565b5b60006135d985828601612ff3565b92505060206135ea85828601612ff3565b9150509250929050565b7f4e487b7100000000000000000000000000000000000000000000000000000000600052602260045260246000fd5b6000600282049050600182168061363b57607f821691505b60208210810361364e5761364d6135f4565b5b50919050565b7f4552433732313a20617070726f76656420717565727920666f72206e6f6e657860008201527f697374656e7420746f6b656e0000000000000000000000000000000000000000602082015250565b60006136b0602c83612e6d565b91506136bb82613654565b604082019050919050565b600060208201905081810360008301526136df816136a3565b9050919050565b7f4552433732313a20617070726f76616c20746f2063757272656e74206f776e6560008201527f7200000000000000000000000000000000000000000000000000000000000000602082015250565b6000613742602183612e6d565b915061374d826136e6565b604082019050919050565b6000602082019050818103600083015261377181613735565b9050919050565b7f4552433732313a20617070726f76652063616c6c6572206973206e6f74206f7760008201527f6e6572206e6f7220617070726f76656420666f7220616c6c0000000000000000602082015250565b60006137d4603883612e6d565b91506137df82613778565b604082019050919050565b60006020820190508181036000830152613803816137c7565b9050919050565b7f4552433732313a207472616e736665722063616c6c6572206973206e6f74206f60008201527f776e6572206e6f7220617070726f766564000000000000000000000000000000602082015250565b6000613866603183612e6d565b91506138718261380a565b604082019050919050565b6000602082019050818103600083015261389581613859565b9050919050565b7f455243373231456e756d657261626c653a206f776e657220696e646578206f7560008201527f74206f6620626f756e6473000000000000000000000000000000000000000000602082015250565b60006138f8602b83612e6d565b91506139038261389c565b604082019050919050565b60006020820190508181036000830152613927816138eb565b9050919050565b7f4e487b7100000000000000000000000000000000000000000000000000000000600052603260045260246000fd5b7f4e487b7100000000000000000000000000000000000000000000000000000000600052601160045260246000fd5b600061399782612f1d565b91506139a283612f1d565b9250828210156139b5576139b461395d565b5b828203905092915050565b7f4e487b7100000000000000000000000000000000000000000000000000000000600052603160045260246000fd5b60006139fa82612f1d565b91507fffffffffffffffffffffffffffffffffffffffffffffffffffffffffffffffff8203613a2c57613a2b61395d565b5b600182019050919050565b7f6d73672e73656e646572206973206e6f7420746865206f776e6572206f66207460008201527f686520746f6b656e000000000000000000000000000000000000000000000000602082015250565b6000613a93602883612e6d565b9150613a9e82613a37565b604082019050919050565b60006020820190508181036000830152613ac281613a86565b9050919050565b7f455243373231456e756d657261626c653a20676c6f62616c20696e646578206f60008201527f7574206f6620626f756e64730000000000000000000000000000000000000000602082015250565b6000613b25602c83612e6d565b9150613b3082613ac9565b604082019050919050565b60006020820190508181036000830152613b5481613b18565b9050919050565b7f4552433732313a206f776e657220717565727920666f72206e6f6e657869737460008201527f656e7420746f6b656e0000000000000000000000000000000000000000000000602082015250565b6000613bb7602983612e6d565b9150613bc282613b5b565b604082019050919050565b60006020820190508181036000830152613be681613baa565b9050919050565b7f4552433732313a2062616c616e636520717565727920666f7220746865207a6560008201527f726f206164647265737300000000000000000000000000000000000000000000602082015250565b6000613c49602a83612e6d565b9150613c5482613bed565b604082019050919050565b60006020820190508181036000830152613c7881613c3c565b9050919050565b7f4f776e61626c653a2063616c6c6572206973206e6f7420746865206f776e6572600082015250565b6000613cb5602083612e6d565b9150613cc082613c7f565b602082019050919050565b60006020820190508181036000830152613ce481613ca8565b9050919050565b7f43616c6c6572206973206e6f74206e667420746f6b656e206f776e65722e0000600082015250565b6000613d21601e83612e6d565b9150613d2c82613ceb565b602082019050919050565b60006020820190508181036000830152613d5081613d14565b9050919050565b7f5072696365206973207a65726f206f72206c6f7765722e000000000000000000600082015250565b6000613d8d601783612e6d565b9150613d9882613d57565b602082019050919050565b60006020820190508181036000830152613dbc81613d80565b9050919050565b7f54686973206e667420746f6b656e20697320616c7265616479206f6e2073616c60008201527f652e000000000000000000000000000000000000000000000000000000000000602082015250565b6000613e1f602283612e6d565b9150613e2a82613dc3565b604082019050919050565b60006020820190508181036000830152613e4e81613e12565b9050919050565b7f6e667420746f6b656e206f776e657220646964206e6f7420617070726f76652060008201527f746f6b656e2e0000000000000000000000000000000000000000000000000000602082015250565b6000613eb1602683612e6d565b9150613ebc82613e55565b604082019050919050565b60006020820190508181036000830152613ee081613ea4565b9050919050565b7f4552433732314d657461646174613a2055524920717565727920666f72206e6f60008201527f6e6578697374656e7420746f6b656e0000000000000000000000000000000000602082015250565b6000613f43602f83612e6d565b9150613f4e82613ee7565b604082019050919050565b60006020820190508181036000830152613f7281613f36565b9050919050565b600081905092915050565b6000613f8f82612e62565b613f998185613f79565b9350613fa9818560208601612e7e565b80840191505092915050565b7f2f00000000000000000000000000000000000000000000000000000000000000600082015250565b6000613feb600183613f79565b9150613ff682613fb5565b600182019050919050565b600061400d8285613f84565b915061401882613fde565b91506140248284613f84565b91508190509392505050565b7f6e667420746f6b656e206e6f742073616c652e00000000000000000000000000600082015250565b6000614066601383612e6d565b915061407182614030565b602082019050919050565b6000602082019050818103600083015261409581614059565b9050919050565b7f63616c6c65722073656e74206c6f776572207468616e2070726963652e000000600082015250565b60006140d2601d83612e6d565b91506140dd8261409c565b602082019050919050565b60006020820190508181036000830152614101816140c5565b9050919050565b7f63616c6c6572206973206e667420746f6b656e206f776e65722e000000000000600082015250565b600061413e601a83612e6d565b915061414982614108565b602082019050919050565b6000602082019050818103600083015261416d81614131565b9050919050565b60006060820190506141896000830186612fb2565b6141966020830185612fb2565b6141a36040830184613048565b949350505050565b7f4f776e61626c653a206e6577206f776e657220697320746865207a65726f206160008201527f6464726573730000000000000000000000000000000000000000000000000000602082015250565b6000614207602683612e6d565b9150614212826141ab565b604082019050919050565b60006020820190508181036000830152614236816141fa565b9050919050565b7f4552433732313a206f70657261746f7220717565727920666f72206e6f6e657860008201527f697374656e7420746f6b656e0000000000000000000000000000000000000000602082015250565b6000614299602c83612e6d565b91506142a48261423d565b604082019050919050565b600060208201905081810360008301526142c88161428c565b9050919050565b7f4552433732313a207472616e736665722066726f6d20696e636f72726563742060008201527f6f776e6572000000000000000000000000000000000000000000000000000000602082015250565b600061432b602583612e6d565b9150614336826142cf565b604082019050919050565b6000602082019050818103600083015261435a8161431e565b9050919050565b7f4552433732313a207472616e7366657220746f20746865207a65726f2061646460008201527f7265737300000000000000000000000000000000000000000000000000000000602082015250565b60006143bd602483612e6d565b91506143c882614361565b604082019050919050565b600060208201905081810360008301526143ec816143b0565b9050919050565b60006143fe82612f1d565b915061440983612f1d565b9250827fffffffffffffffffffffffffffffffffffffffffffffffffffffffffffffffff0382111561443e5761443d61395d565b5b828201905092915050565b7f4552433732313a20617070726f766520746f2063616c6c657200000000000000600082015250565b600061447f601983612e6d565b915061448a82614449565b602082019050919050565b600060208201905081810360008301526144ae81614472565b9050919050565b7f4552433732313a207472616e7366657220746f206e6f6e20455243373231526560008201527f63656976657220696d706c656d656e7465720000000000000000000000000000602082015250565b6000614511603283612e6d565b915061451c826144b5565b604082019050919050565b6000602082019050818103600083015261454081614504565b9050919050565b7f4e487b7100000000000000000000000000000000000000000000000000000000600052601260045260246000fd5b600061458182612f1d565b915061458c83612f1d565b92508261459c5761459b614547565b5b828204905092915050565b60006145b282612f1d565b91506145bd83612f1d565b9250826145cd576145cc614547565b5b828206905092915050565b600081519050919050565b600082825260208201905092915050565b60006145ff826145d8565b61460981856145e3565b9350614619818560208601612e7e565b61462281612eb1565b840191505092915050565b60006080820190506146426000830187612fb2565b61464f6020830186612fb2565b61465c6040830185613048565b818103606083015261466e81846145f4565b905095945050505050565b60008151905061468881612dd3565b92915050565b6000602082840312156146a4576146a3612d9d565b5b60006146b284828501614679565b91505092915050565b7f4552433732313a206d696e7420746f20746865207a65726f2061646472657373600082015250565b60006146f1602083612e6d565b91506146fc826146bb565b602082019050919050565b60006020820190508181036000830152614720816146e4565b9050919050565b7f4552433732313a20746f6b656e20616c7265616479206d696e74656400000000600082015250565b600061475d601c83612e6d565b915061476882614727565b602082019050919050565b6000602082019050818103600083015261478c81614750565b905091905056fe68747470733a2f2f676174657761792e70696e6174612e636c6f75642f697066732f516d5450666e3136435059467431674b6d6875534a547844717a776b367845644e395a4e4b33666e74486870766aa26469706673582212205ad466829a859b3ceaa79f31ed4eda931be29608a4daaf594ffaffd36f5d697664736f6c634300080e0033",
  "immutableReferences": {},
  "source": "// SPDX-License-Identifier: MIT\npragma solidity ^0.8.7;\n\nimport \"../client/node_modules/@openzeppelin/contracts/token/ERC721/ERC721.sol\";\nimport \"../client/node_modules/@openzeppelin/contracts/access/Ownable.sol\";\nimport \"../client/node_modules/@openzeppelin/contracts/token/ERC721/extensions/ERC721Enumerable.sol\";\nimport \"../client/node_modules/@openzeppelin/contracts/utils/Counters.sol\";\n\ncontract Jacket is ERC721, ERC721Enumerable, Ownable {\n    using Counters for Counters.Counter;\n    Counters.Counter private _tokenIds;\n    using Strings for uint256;\n\n    string public baseURI;\n\n    constructor() ERC721(\"Jacket\", \"JACKET\") {}\n\n    function mint() public returns (uint256) {\n        _tokenIds.increment();\n        uint256 newItemId = _tokenIds.current();\n        _safeMint(msg.sender, newItemId);\n        return newItemId;\n    }\n\n    // function setBaseURI(string memory baseURI_) external onlyOwner {\n    //     baseURI = baseURI_;\n    // }\n\n    function _baseURI() internal view virtual override returns (string memory) {\n        return\n            \"https://gateway.pinata.cloud/ipfs/QmTPfn16CPYFt1gKmhuSJTxDqzwk6xEdN9ZNK3fntHhpvj\";\n    }\n\n    function tokenURI(uint256 tokenId)\n        public\n        view\n        virtual\n        override\n        returns (string memory)\n    {\n        require(\n            _exists(tokenId),\n            \"ERC721Metadata: URI query for nonexistent token\"\n        );\n        return string(abi.encodePacked(_baseURI(), \"/\", tokenId.toString()));\n    }\n\n    function _beforeTokenTransfer(\n        address from,\n        address to,\n        uint256 tokenId\n    ) internal override(ERC721, ERC721Enumerable) {\n        super._beforeTokenTransfer(from, to, tokenId);\n    }\n\n    function supportsInterface(bytes4 interfaceId)\n        public\n        view\n        override(ERC721, ERC721Enumerable)\n        returns (bool)\n    {\n        return super.supportsInterface(interfaceId);\n    }\n\n    struct NftTokenData {\n        uint256 nftTokenId;\n        string nftTokenURI;\n        uint256 price;\n    }\n\n    function getNftTokens(address _nftTokenOwner)\n        public\n        view\n        returns (NftTokenData[] memory)\n    {\n        uint256 balanceLength = balanceOf(_nftTokenOwner);\n        //require(balanceLength != 0, \"Owner did not have token.\");\n\n        NftTokenData[] memory nftTokenData = new NftTokenData[](balanceLength);\n\n        for (uint256 i = 0; i < balanceLength; i++) {\n            uint256 nftTokenId = tokenOfOwnerByIndex(_nftTokenOwner, i);\n            string memory nftTokenURI = tokenURI(nftTokenId);\n            uint256 tokenPrice = getNftTokenPrice(nftTokenId);\n            nftTokenData[i] = NftTokenData(nftTokenId, nftTokenURI, tokenPrice);\n        }\n\n        return nftTokenData;\n    }\n\n    // \n    mapping(uint256 => uint256) public nftTokenPrices;\n    uint256[] public onSaleNftTokenArray;\n\n    function setSaleNftToken(uint256 _tokenId, uint256 _price) public {\n        address nftTokenOwner = ownerOf(_tokenId);\n\n        require(nftTokenOwner == msg.sender, \"Caller is not nft token owner.\");\n        require(_price > 0, \"Price is zero or lower.\");\n        require(\n            nftTokenPrices[_tokenId] == 0,\n            \"This nft token is already on sale.\"\n        );\n        require(\n            isApprovedForAll(nftTokenOwner, address(this)),\n            \"nft token owner did not approve token.\"\n        );\n\n        nftTokenPrices[_tokenId] = _price;\n        onSaleNftTokenArray.push(_tokenId); // nft list\n    }\n\n    // \n    function getSaleNftTokens() public view returns (NftTokenData[] memory) {\n        uint256[] memory onSaleNftToken = getSaleNftToken();\n        NftTokenData[] memory onSaleNftTokens = new NftTokenData[](\n            onSaleNftToken.length\n        );\n\n        for (uint256 i = 0; i < onSaleNftToken.length; i++) {\n            uint256 tokenId = onSaleNftToken[i];\n            uint256 tokenPrice = getNftTokenPrice(tokenId);\n            onSaleNftTokens[i] = NftTokenData(\n                tokenId,\n                tokenURI(tokenId),\n                tokenPrice\n            );\n        }\n\n        return onSaleNftTokens;\n    }\n\n    function getSaleNftToken() public view returns (uint256[] memory) {\n        return onSaleNftTokenArray;\n    }\n\n    function getNftTokenPrice(uint256 _tokenId) public view returns (uint256) {\n        return nftTokenPrices[_tokenId];\n    }\n\n    //\n    function buyNftToken(uint256 _tokenId) public payable {\n        uint256 price = nftTokenPrices[_tokenId];\n        address nftTokenOwner = ownerOf(_tokenId);\n\n        require(price > 0, \"nft token not sale.\");\n        require(price <= msg.value, \"caller sent lower than price.\");\n        require(nftTokenOwner != msg.sender, \"caller is nft token owner.\");\n        require(\n            isApprovedForAll(nftTokenOwner, address(this)),\n            \"nft token owner did not approve token.\"\n        );\n\n        payable(nftTokenOwner).transfer(msg.value);\n\n        IERC721(address(this)).safeTransferFrom(\n            nftTokenOwner,\n            msg.sender,\n            _tokenId\n        );\n\n        //  \n        removeToken(_tokenId);\n    }\n\n    function burn(uint256 _tokenId) public {\n        address addr_owner = ownerOf(_tokenId);\n        require(\n            addr_owner == msg.sender,\n            \"msg.sender is not the owner of the token\"\n        );\n        _burn(_tokenId);\n        removeToken(_tokenId);\n    }\n\n    function removeToken(uint256 _tokenId) public {\n        nftTokenPrices[_tokenId] = 0;\n\n        for (uint256 i = 0; i < onSaleNftTokenArray.length; i++) {\n            if (nftTokenPrices[onSaleNftTokenArray[i]] == 0) {\n                onSaleNftTokenArray[i] = onSaleNftTokenArray[\n                    onSaleNftTokenArray.length - 1\n                ];\n                onSaleNftTokenArray.pop();\n            }\n        }\n    }\n\n    function changePrice(uint256 _tokenId, uint256 _price) public {\n        removeToken(_tokenId);\n        setSaleNftToken(_tokenId, _price);\n    }\n}\n",
  "sourcePath": "/Users/seokkyo/Documents/projects/prototype/contracts/Jacket.sol",
  "compiler": {
    "name": "solc",
    "version": "0.8.14+commit.80d49f37.Emscripten.clang"
  },
  "schemaVersion": "3.4.6",
  "updatedAt": "2022-05-29T08:59:52.024Z",
  "networkType": "ethereum",
  "devdoc": {
    "kind": "dev",
    "methods": {
      "approve(address,uint256)": {
        "details": "See {IERC721-approve}."
      },
      "balanceOf(address)": {
        "details": "See {IERC721-balanceOf}."
      },
      "getApproved(uint256)": {
        "details": "See {IERC721-getApproved}."
      },
      "isApprovedForAll(address,address)": {
        "details": "See {IERC721-isApprovedForAll}."
      },
      "name()": {
        "details": "See {IERC721Metadata-name}."
      },
      "owner()": {
        "details": "Returns the address of the current owner."
      },
      "ownerOf(uint256)": {
        "details": "See {IERC721-ownerOf}."
      },
      "renounceOwnership()": {
        "details": "Leaves the contract without owner. It will not be possible to call `onlyOwner` functions anymore. Can only be called by the current owner. NOTE: Renouncing ownership will leave the contract without an owner, thereby removing any functionality that is only available to the owner."
      },
      "safeTransferFrom(address,address,uint256)": {
        "details": "See {IERC721-safeTransferFrom}."
      },
      "safeTransferFrom(address,address,uint256,bytes)": {
        "details": "See {IERC721-safeTransferFrom}."
      },
      "setApprovalForAll(address,bool)": {
        "details": "See {IERC721-setApprovalForAll}."
      },
      "symbol()": {
        "details": "See {IERC721Metadata-symbol}."
      },
      "tokenByIndex(uint256)": {
        "details": "See {IERC721Enumerable-tokenByIndex}."
      },
      "tokenOfOwnerByIndex(address,uint256)": {
        "details": "See {IERC721Enumerable-tokenOfOwnerByIndex}."
      },
      "tokenURI(uint256)": {
        "details": "See {IERC721Metadata-tokenURI}."
      },
      "totalSupply()": {
        "details": "See {IERC721Enumerable-totalSupply}."
      },
      "transferFrom(address,address,uint256)": {
        "details": "See {IERC721-transferFrom}."
      },
      "transferOwnership(address)": {
        "details": "Transfers ownership of the contract to a new account (`newOwner`). Can only be called by the current owner."
      }
    },
    "version": 1
  },
  "userdoc": {
    "kind": "user",
    "methods": {},
    "version": 1
  }
}