{
  "contractName": "Jacket",
  "abi": [
    {
      "inputs": [],
      "stateMutability": "nonpayable",
      "type": "constructor"
    },
    {
      "anonymous": false,
      "inputs": [
        {
          "indexed": true,
          "internalType": "address",
          "name": "owner",
          "type": "address"
        },
        {
          "indexed": true,
          "internalType": "address",
          "name": "approved",
          "type": "address"
        },
        {
          "indexed": true,
          "internalType": "uint256",
          "name": "tokenId",
          "type": "uint256"
        }
      ],
      "name": "Approval",
      "type": "event"
    },
    {
      "anonymous": false,
      "inputs": [
        {
          "indexed": true,
          "internalType": "address",
          "name": "owner",
          "type": "address"
        },
        {
          "indexed": true,
          "internalType": "address",
          "name": "operator",
          "type": "address"
        },
        {
          "indexed": false,
          "internalType": "bool",
          "name": "approved",
          "type": "bool"
        }
      ],
      "name": "ApprovalForAll",
      "type": "event"
    },
    {
      "anonymous": false,
      "inputs": [
        {
          "indexed": true,
          "internalType": "address",
          "name": "previousOwner",
          "type": "address"
        },
        {
          "indexed": true,
          "internalType": "address",
          "name": "newOwner",
          "type": "address"
        }
      ],
      "name": "OwnershipTransferred",
      "type": "event"
    },
    {
      "anonymous": false,
      "inputs": [
        {
          "indexed": true,
          "internalType": "address",
          "name": "from",
          "type": "address"
        },
        {
          "indexed": true,
          "internalType": "address",
          "name": "to",
          "type": "address"
        },
        {
          "indexed": true,
          "internalType": "uint256",
          "name": "tokenId",
          "type": "uint256"
        }
      ],
      "name": "Transfer",
      "type": "event"
    },
    {
      "inputs": [
        {
          "internalType": "address",
          "name": "to",
          "type": "address"
        },
        {
          "internalType": "uint256",
          "name": "tokenId",
          "type": "uint256"
        }
      ],
      "name": "approve",
      "outputs": [],
      "stateMutability": "nonpayable",
      "type": "function"
    },
    {
      "inputs": [
        {
          "internalType": "address",
          "name": "owner",
          "type": "address"
        }
      ],
      "name": "balanceOf",
      "outputs": [
        {
          "internalType": "uint256",
          "name": "",
          "type": "uint256"
        }
      ],
      "stateMutability": "view",
      "type": "function",
      "constant": true
    },
    {
      "inputs": [],
      "name": "baseURI",
      "outputs": [
        {
          "internalType": "string",
          "name": "",
          "type": "string"
        }
      ],
      "stateMutability": "view",
      "type": "function",
      "constant": true
    },
    {
      "inputs": [
        {
          "internalType": "uint256",
          "name": "tokenId",
          "type": "uint256"
        }
      ],
      "name": "getApproved",
      "outputs": [
        {
          "internalType": "address",
          "name": "",
          "type": "address"
        }
      ],
      "stateMutability": "view",
      "type": "function",
      "constant": true
    },
    {
      "inputs": [
        {
          "internalType": "address",
          "name": "owner",
          "type": "address"
        },
        {
          "internalType": "address",
          "name": "operator",
          "type": "address"
        }
      ],
      "name": "isApprovedForAll",
      "outputs": [
        {
          "internalType": "bool",
          "name": "",
          "type": "bool"
        }
      ],
      "stateMutability": "view",
      "type": "function",
      "constant": true
    },
    {
      "inputs": [],
      "name": "name",
      "outputs": [
        {
          "internalType": "string",
          "name": "",
          "type": "string"
        }
      ],
      "stateMutability": "view",
      "type": "function",
      "constant": true
    },
    {
      "inputs": [
        {
          "internalType": "uint256",
          "name": "",
          "type": "uint256"
        }
      ],
      "name": "nftTokenPrices",
      "outputs": [
        {
          "internalType": "uint256",
          "name": "",
          "type": "uint256"
        }
      ],
      "stateMutability": "view",
      "type": "function",
      "constant": true
    },
    {
      "inputs": [
        {
          "internalType": "uint256",
          "name": "",
          "type": "uint256"
        }
      ],
      "name": "numArray",
      "outputs": [
        {
          "internalType": "uint256",
          "name": "",
          "type": "uint256"
        }
      ],
      "stateMutability": "view",
      "type": "function",
      "constant": true
    },
    {
      "inputs": [
        {
          "internalType": "uint256",
          "name": "",
          "type": "uint256"
        }
      ],
      "name": "onSaleNftTokenArray",
      "outputs": [
        {
          "internalType": "uint256",
          "name": "",
          "type": "uint256"
        }
      ],
      "stateMutability": "view",
      "type": "function",
      "constant": true
    },
    {
      "inputs": [],
      "name": "owner",
      "outputs": [
        {
          "internalType": "address",
          "name": "",
          "type": "address"
        }
      ],
      "stateMutability": "view",
      "type": "function",
      "constant": true
    },
    {
      "inputs": [
        {
          "internalType": "uint256",
          "name": "tokenId",
          "type": "uint256"
        }
      ],
      "name": "ownerOf",
      "outputs": [
        {
          "internalType": "address",
          "name": "",
          "type": "address"
        }
      ],
      "stateMutability": "view",
      "type": "function",
      "constant": true
    },
    {
      "inputs": [
        {
          "internalType": "uint256",
          "name": "",
          "type": "uint256"
        }
      ],
      "name": "recentNftTokenArray",
      "outputs": [
        {
          "internalType": "uint256",
          "name": "",
          "type": "uint256"
        }
      ],
      "stateMutability": "view",
      "type": "function",
      "constant": true
    },
    {
      "inputs": [],
      "name": "renounceOwnership",
      "outputs": [],
      "stateMutability": "nonpayable",
      "type": "function"
    },
    {
      "inputs": [
        {
          "internalType": "address",
          "name": "from",
          "type": "address"
        },
        {
          "internalType": "address",
          "name": "to",
          "type": "address"
        },
        {
          "internalType": "uint256",
          "name": "tokenId",
          "type": "uint256"
        }
      ],
      "name": "safeTransferFrom",
      "outputs": [],
      "stateMutability": "nonpayable",
      "type": "function"
    },
    {
      "inputs": [
        {
          "internalType": "address",
          "name": "from",
          "type": "address"
        },
        {
          "internalType": "address",
          "name": "to",
          "type": "address"
        },
        {
          "internalType": "uint256",
          "name": "tokenId",
          "type": "uint256"
        },
        {
          "internalType": "bytes",
          "name": "_data",
          "type": "bytes"
        }
      ],
      "name": "safeTransferFrom",
      "outputs": [],
      "stateMutability": "nonpayable",
      "type": "function"
    },
    {
      "inputs": [
        {
          "internalType": "address",
          "name": "operator",
          "type": "address"
        },
        {
          "internalType": "bool",
          "name": "approved",
          "type": "bool"
        }
      ],
      "name": "setApprovalForAll",
      "outputs": [],
      "stateMutability": "nonpayable",
      "type": "function"
    },
    {
      "inputs": [],
      "name": "symbol",
      "outputs": [
        {
          "internalType": "string",
          "name": "",
          "type": "string"
        }
      ],
      "stateMutability": "view",
      "type": "function",
      "constant": true
    },
    {
      "inputs": [
        {
          "internalType": "uint256",
          "name": "index",
          "type": "uint256"
        }
      ],
      "name": "tokenByIndex",
      "outputs": [
        {
          "internalType": "uint256",
          "name": "",
          "type": "uint256"
        }
      ],
      "stateMutability": "view",
      "type": "function",
      "constant": true
    },
    {
      "inputs": [
        {
          "internalType": "address",
          "name": "owner",
          "type": "address"
        },
        {
          "internalType": "uint256",
          "name": "index",
          "type": "uint256"
        }
      ],
      "name": "tokenOfOwnerByIndex",
      "outputs": [
        {
          "internalType": "uint256",
          "name": "",
          "type": "uint256"
        }
      ],
      "stateMutability": "view",
      "type": "function",
      "constant": true
    },
    {
      "inputs": [],
      "name": "totalSupply",
      "outputs": [
        {
          "internalType": "uint256",
          "name": "",
          "type": "uint256"
        }
      ],
      "stateMutability": "view",
      "type": "function",
      "constant": true
    },
    {
      "inputs": [
        {
          "internalType": "address",
          "name": "from",
          "type": "address"
        },
        {
          "internalType": "address",
          "name": "to",
          "type": "address"
        },
        {
          "internalType": "uint256",
          "name": "tokenId",
          "type": "uint256"
        }
      ],
      "name": "transferFrom",
      "outputs": [],
      "stateMutability": "nonpayable",
      "type": "function"
    },
    {
      "inputs": [
        {
          "internalType": "address",
          "name": "newOwner",
          "type": "address"
        }
      ],
      "name": "transferOwnership",
      "outputs": [],
      "stateMutability": "nonpayable",
      "type": "function"
    },
    {
      "inputs": [],
      "name": "mint",
      "outputs": [
        {
          "internalType": "uint256",
          "name": "",
          "type": "uint256"
        }
      ],
      "stateMutability": "nonpayable",
      "type": "function"
    },
    {
      "inputs": [
        {
          "internalType": "uint256",
          "name": "tokenId",
          "type": "uint256"
        }
      ],
      "name": "tokenURI",
      "outputs": [
        {
          "internalType": "string",
          "name": "",
          "type": "string"
        }
      ],
      "stateMutability": "view",
      "type": "function",
      "constant": true
    },
    {
      "inputs": [
        {
          "internalType": "bytes4",
          "name": "interfaceId",
          "type": "bytes4"
        }
      ],
      "name": "supportsInterface",
      "outputs": [
        {
          "internalType": "bool",
          "name": "",
          "type": "bool"
        }
      ],
      "stateMutability": "view",
      "type": "function",
      "constant": true
    },
    {
      "inputs": [
        {
          "internalType": "address",
          "name": "_nftTokenOwner",
          "type": "address"
        }
      ],
      "name": "getNftTokens",
      "outputs": [
        {
          "components": [
            {
              "internalType": "uint256",
              "name": "nftTokenId",
              "type": "uint256"
            },
            {
              "internalType": "address",
              "name": "nftTokenOwner",
              "type": "address"
            },
            {
              "internalType": "string",
              "name": "nftTokenURI",
              "type": "string"
            },
            {
              "internalType": "uint256",
              "name": "price",
              "type": "uint256"
            }
          ],
          "internalType": "struct Jacket.NftTokenData[]",
          "name": "",
          "type": "tuple[]"
        }
      ],
      "stateMutability": "view",
      "type": "function",
      "constant": true
    },
    {
      "inputs": [
        {
          "internalType": "uint256",
          "name": "_tokenId",
          "type": "uint256"
        },
        {
          "internalType": "uint256",
          "name": "_price",
          "type": "uint256"
        }
      ],
      "name": "setSaleNftToken",
      "outputs": [],
      "stateMutability": "nonpayable",
      "type": "function"
    },
    {
      "inputs": [],
      "name": "getSaleNftTokens",
      "outputs": [
        {
          "components": [
            {
              "internalType": "uint256",
              "name": "nftTokenId",
              "type": "uint256"
            },
            {
              "internalType": "address",
              "name": "nftTokenOwner",
              "type": "address"
            },
            {
              "internalType": "string",
              "name": "nftTokenURI",
              "type": "string"
            },
            {
              "internalType": "uint256",
              "name": "price",
              "type": "uint256"
            }
          ],
          "internalType": "struct Jacket.NftTokenData[]",
          "name": "",
          "type": "tuple[]"
        }
      ],
      "stateMutability": "view",
      "type": "function",
      "constant": true
    },
    {
      "inputs": [],
      "name": "getSaleNftToken",
      "outputs": [
        {
          "internalType": "uint256[]",
          "name": "",
          "type": "uint256[]"
        }
      ],
      "stateMutability": "view",
      "type": "function",
      "constant": true
    },
    {
      "inputs": [
        {
          "internalType": "uint256",
          "name": "_tokenId",
          "type": "uint256"
        }
      ],
      "name": "getNftTokenPrice",
      "outputs": [
        {
          "internalType": "uint256",
          "name": "",
          "type": "uint256"
        }
      ],
      "stateMutability": "view",
      "type": "function",
      "constant": true
    },
    {
      "inputs": [],
      "name": "getRecentNftToken",
      "outputs": [
        {
          "internalType": "uint256[]",
          "name": "",
          "type": "uint256[]"
        }
      ],
      "stateMutability": "view",
      "type": "function",
      "constant": true
    },
    {
      "inputs": [
        {
          "internalType": "uint256",
          "name": "_tokenId",
          "type": "uint256"
        }
      ],
      "name": "buyNftToken",
      "outputs": [],
      "stateMutability": "payable",
      "type": "function",
      "payable": true
    },
    {
      "inputs": [
        {
          "internalType": "uint256",
          "name": "_tokenId",
          "type": "uint256"
        }
      ],
      "name": "burn",
      "outputs": [],
      "stateMutability": "nonpayable",
      "type": "function"
    },
    {
      "inputs": [
        {
          "internalType": "uint256",
          "name": "_tokenId",
          "type": "uint256"
        }
      ],
      "name": "removeToken",
      "outputs": [],
      "stateMutability": "nonpayable",
      "type": "function"
    },
    {
      "inputs": [
        {
          "internalType": "uint256",
          "name": "_tokenId",
          "type": "uint256"
        },
        {
          "internalType": "uint256",
          "name": "_price",
          "type": "uint256"
        }
      ],
      "name": "changePrice",
      "outputs": [],
      "stateMutability": "nonpayable",
      "type": "function"
    }
  ],
  "bytecode": "0x60806040523480156200001157600080fd5b506040518060400160405280600681526020017f4a61636b657400000000000000000000000000000000000000000000000000008152506040518060400160405280600681526020017f4a41434b45540000000000000000000000000000000000000000000000000000815250816000908051906020019062000096929190620001f6565b508060019080519060200190620000af929190620001f6565b505050620000d2620000c66200012860201b60201c565b6200013060201b60201c565b6000600190505b606481116200012157600d81908060018154018082558091505060019003906000526020600020016000909190919091505580806200011890620002df565b915050620000d9565b5062000390565b600033905090565b6000600a60009054906101000a900473ffffffffffffffffffffffffffffffffffffffff16905081600a60006101000a81548173ffffffffffffffffffffffffffffffffffffffff021916908373ffffffffffffffffffffffffffffffffffffffff1602179055508173ffffffffffffffffffffffffffffffffffffffff168173ffffffffffffffffffffffffffffffffffffffff167f8be0079c531659141344cd1fd0a4f28419497f9722a3daafe3b4186f6b6457e060405160405180910390a35050565b82805462000204906200035b565b90600052602060002090601f01602090048101928262000228576000855562000274565b82601f106200024357805160ff191683800117855562000274565b8280016001018555821562000274579182015b828111156200027357825182559160200191906001019062000256565b5b50905062000283919062000287565b5090565b5b80821115620002a257600081600090555060010162000288565b5090565b7f4e487b7100000000000000000000000000000000000000000000000000000000600052601160045260246000fd5b6000819050919050565b6000620002ec82620002d5565b91507fffffffffffffffffffffffffffffffffffffffffffffffffffffffffffffffff8203620003215762000320620002a6565b5b600182019050919050565b7f4e487b7100000000000000000000000000000000000000000000000000000000600052602260045260246000fd5b600060028204905060018216806200037457607f821691505b6020821081036200038a57620003896200032c565b5b50919050565b614d2e80620003a06000396000f3fe6080604052600436106102045760003560e01c80636e51556c11610118578063a22cb465116100a0578063c87b56dd1161006f578063c87b56dd146107b3578063da8cc6e8146107f0578063e985e9c51461080c578063f257f54814610849578063f2fde38b1461088657610204565b8063a22cb4651461070f578063b3de019c14610738578063b88d4fde14610761578063b8e297f41461078a57610204565b806373e778c5116100e757806373e778c51461061457806374a6b54f146106515780638da5cb5b1461067c578063912c45cf146106a757806395d89b41146106e457610204565b80636e51556c146105465780636e7347381461058357806370a08231146105c0578063715018a6146105fd57610204565b80632f745c591161019b578063452b63671161016a578063452b6367146104395780634ae23e64146104645780634f6ccce7146104a15780636352211e146104de5780636c0360eb1461051b57610204565b80632f745c591461038157806336c5d724146103be57806342842e0e146103e757806342966c681461041057610204565b80631249c58b116101d75780631249c58b146102d757806318160ddd146103025780631efceb901461032d57806323b872dd1461035857610204565b806301ffc9a71461020957806306fdde0314610246578063081812fc14610271578063095ea7b3146102ae575b600080fd5b34801561021557600080fd5b50610230600480360381019061022b9190613124565b6108af565b60405161023d919061316c565b60405180910390f35b34801561025257600080fd5b5061025b6108c1565b6040516102689190613220565b60405180910390f35b34801561027d57600080fd5b5061029860048036038101906102939190613278565b610953565b6040516102a591906132e6565b60405180910390f35b3480156102ba57600080fd5b506102d560048036038101906102d0919061332d565b6109d8565b005b3480156102e357600080fd5b506102ec610aef565b6040516102f9919061337c565b60405180910390f35b34801561030e57600080fd5b50610317610c48565b604051610324919061337c565b60405180910390f35b34801561033957600080fd5b50610342610c55565b60405161034f9190613455565b60405180910390f35b34801561036457600080fd5b5061037f600480360381019061037a9190613477565b610cad565b005b34801561038d57600080fd5b506103a860048036038101906103a3919061332d565b610d0d565b6040516103b5919061337c565b60405180910390f35b3480156103ca57600080fd5b506103e560048036038101906103e09190613278565b610db2565b005b3480156103f357600080fd5b5061040e60048036038101906104099190613477565b610ecf565b005b34801561041c57600080fd5b5061043760048036038101906104329190613278565b610eef565b005b34801561044557600080fd5b5061044e610fa9565b60405161045b9190613455565b60405180910390f35b34801561047057600080fd5b5061048b60048036038101906104869190613278565b611001565b604051610498919061337c565b60405180910390f35b3480156104ad57600080fd5b506104c860048036038101906104c39190613278565b611019565b6040516104d5919061337c565b60405180910390f35b3480156104ea57600080fd5b5061050560048036038101906105009190613278565b61108a565b60405161051291906132e6565b60405180910390f35b34801561052757600080fd5b5061053061113b565b60405161053d9190613220565b60405180910390f35b34801561055257600080fd5b5061056d60048036038101906105689190613278565b6111c9565b60405161057a919061337c565b60405180910390f35b34801561058f57600080fd5b506105aa60048036038101906105a59190613278565b6111ed565b6040516105b7919061337c565b60405180910390f35b3480156105cc57600080fd5b506105e760048036038101906105e291906134ca565b611211565b6040516105f4919061337c565b60405180910390f35b34801561060957600080fd5b506106126112c8565b005b34801561062057600080fd5b5061063b60048036038101906106369190613278565b611350565b604051610648919061337c565b60405180910390f35b34801561065d57600080fd5b50610666611374565b6040516106739190613675565b60405180910390f35b34801561068857600080fd5b5061069161149c565b60405161069e91906132e6565b60405180910390f35b3480156106b357600080fd5b506106ce60048036038101906106c99190613278565b6114c6565b6040516106db919061337c565b60405180910390f35b3480156106f057600080fd5b506106f96114e3565b6040516107069190613220565b60405180910390f35b34801561071b57600080fd5b50610736600480360381019061073191906136c3565b611575565b005b34801561074457600080fd5b5061075f600480360381019061075a9190613703565b61158b565b005b34801561076d57600080fd5b5061078860048036038101906107839190613878565b6115a2565b005b34801561079657600080fd5b506107b160048036038101906107ac9190613703565b611604565b005b3480156107bf57600080fd5b506107da60048036038101906107d59190613278565b6117a7565b6040516107e79190613220565b60405180910390f35b61080a60048036038101906108059190613278565b611829565b005b34801561081857600080fd5b50610833600480360381019061082e91906138fb565b611a4f565b604051610840919061316c565b60405180910390f35b34801561085557600080fd5b50610870600480360381019061086b91906134ca565b611ae3565b60405161087d9190613675565b60405180910390f35b34801561089257600080fd5b506108ad60048036038101906108a891906134ca565b611bf3565b005b60006108ba82611cea565b9050919050565b6060600080546108d09061396a565b80601f01602080910402602001604051908101604052809291908181526020018280546108fc9061396a565b80156109495780601f1061091e57610100808354040283529160200191610949565b820191906000526020600020905b81548152906001019060200180831161092c57829003601f168201915b5050505050905090565b600061095e82611d64565b61099d576040517f08c379a000000000000000000000000000000000000000000000000000000000815260040161099490613a0d565b60405180910390fd5b6004600083815260200190815260200160002060009054906101000a900473ffffffffffffffffffffffffffffffffffffffff169050919050565b60006109e38261108a565b90508073ffffffffffffffffffffffffffffffffffffffff168373ffffffffffffffffffffffffffffffffffffffff1603610a53576040517f08c379a0000000000000000000000000000000000000000000000000000000008152600401610a4a90613a9f565b60405180910390fd5b8073ffffffffffffffffffffffffffffffffffffffff16610a72611dd0565b73ffffffffffffffffffffffffffffffffffffffff161480610aa15750610aa081610a9b611dd0565b611a4f565b5b610ae0576040517f08c379a0000000000000000000000000000000000000000000000000000000008152600401610ad790613b31565b60405180910390fd5b610aea8383611dd8565b505050565b600080600d8054905011610b38576040517f08c379a0000000000000000000000000000000000000000000000000000000008152600401610b2f90613b9d565b60405180910390fd5b6000600d805490504442600d604051602001610b5693929190613ce6565b6040516020818303038152906040528051906020012060001c610b799190613d4e565b90506000600d8281548110610b9157610b90613d7f565b5b90600052602060002001549050610bc633600d8481548110610bb657610bb5613d7f565b5b9060005260206000200154611e91565b600d6001600d80549050610bda9190613ddd565b81548110610beb57610bea613d7f565b5b9060005260206000200154600d8381548110610c0a57610c09613d7f565b5b9060005260206000200181905550600d805480610c2a57610c29613e11565b5b60019003818190600052602060002001600090559055809250505090565b6000600880549050905090565b6060600f805480602002602001604051908101604052809291908181526020018280548015610ca357602002820191906000526020600020905b815481526020019060010190808311610c8f575b5050505050905090565b610cbe610cb8611dd0565b82611eaf565b610cfd576040517f08c379a0000000000000000000000000000000000000000000000000000000008152600401610cf490613eb2565b60405180910390fd5b610d08838383611f8d565b505050565b6000610d1883611211565b8210610d59576040517f08c379a0000000000000000000000000000000000000000000000000000000008152600401610d5090613f44565b60405180910390fd5b600660008473ffffffffffffffffffffffffffffffffffffffff1673ffffffffffffffffffffffffffffffffffffffff168152602001908152602001600020600083815260200190815260200160002054905092915050565b60108190806001815401808255809150506001900390600052602060002001600090919091909150556000600e60008381526020019081526020016000208190555060005b600f80549050811015610ecb576000600e6000600f8481548110610e1e57610e1d613d7f565b5b906000526020600020015481526020019081526020016000205403610eb857600f6001600f80549050610e519190613ddd565b81548110610e6257610e61613d7f565b5b9060005260206000200154600f8281548110610e8157610e80613d7f565b5b9060005260206000200181905550600f805480610ea157610ea0613e11565b5b600190038181906000526020600020016000905590555b8080610ec390613f64565b915050610df7565b5050565b610eea838383604051806020016040528060008152506115a2565b505050565b6000610efa8261108a565b90503373ffffffffffffffffffffffffffffffffffffffff168173ffffffffffffffffffffffffffffffffffffffff1614610f6a576040517f08c379a0000000000000000000000000000000000000000000000000000000008152600401610f619061401e565b60405180910390fd5b610f73826121f3565b610f7c82610db2565b600d8290806001815401808255809150506001900390600052602060002001600090919091909150555050565b60606010805480602002602001604051908101604052809291908181526020018280548015610ff757602002820191906000526020600020905b815481526020019060010190808311610fe3575b5050505050905090565b600e6020528060005260406000206000915090505481565b6000611023610c48565b8210611064576040517f08c379a000000000000000000000000000000000000000000000000000000000815260040161105b906140b0565b60405180910390fd5b6008828154811061107857611077613d7f565b5b90600052602060002001549050919050565b6000806002600084815260200190815260200160002060009054906101000a900473ffffffffffffffffffffffffffffffffffffffff169050600073ffffffffffffffffffffffffffffffffffffffff168173ffffffffffffffffffffffffffffffffffffffff1603611132576040517f08c379a000000000000000000000000000000000000000000000000000000000815260040161112990614142565b60405180910390fd5b80915050919050565b600c80546111489061396a565b80601f01602080910402602001604051908101604052809291908181526020018280546111749061396a565b80156111c15780601f10611196576101008083540402835291602001916111c1565b820191906000526020600020905b8154815290600101906020018083116111a457829003601f168201915b505050505081565b601081815481106111d957600080fd5b906000526020600020016000915090505481565b600d81815481106111fd57600080fd5b906000526020600020016000915090505481565b60008073ffffffffffffffffffffffffffffffffffffffff168273ffffffffffffffffffffffffffffffffffffffff1603611281576040517f08c379a0000000000000000000000000000000000000000000000000000000008152600401611278906141d4565b60405180910390fd5b600360008373ffffffffffffffffffffffffffffffffffffffff1673ffffffffffffffffffffffffffffffffffffffff168152602001908152602001600020549050919050565b6112d0611dd0565b73ffffffffffffffffffffffffffffffffffffffff166112ee61149c565b73ffffffffffffffffffffffffffffffffffffffff1614611344576040517f08c379a000000000000000000000000000000000000000000000000000000000815260040161133b90614240565b60405180910390fd5b61134e6000612310565b565b600f818154811061136057600080fd5b906000526020600020016000915090505481565b60606000611380610c55565b90506000815167ffffffffffffffff81111561139f5761139e61374d565b5b6040519080825280602002602001820160405280156113d857816020015b6113c561307a565b8152602001906001900390816113bd5790505b50905060005b82518110156114935760008382815181106113fc576113fb613d7f565b5b6020026020010151905060006114118261108a565b9050600061141e836114c6565b905060405180608001604052808481526020018373ffffffffffffffffffffffffffffffffffffffff168152602001611456856117a7565b81526020018281525085858151811061147257611471613d7f565b5b6020026020010181905250505050808061148b90613f64565b9150506113de565b50809250505090565b6000600a60009054906101000a900473ffffffffffffffffffffffffffffffffffffffff16905090565b6000600e6000838152602001908152602001600020549050919050565b6060600180546114f29061396a565b80601f016020809104026020016040519081016040528092919081815260200182805461151e9061396a565b801561156b5780601f106115405761010080835404028352916020019161156b565b820191906000526020600020905b81548152906001019060200180831161154e57829003601f168201915b5050505050905090565b611587611580611dd0565b83836123d6565b5050565b61159482610db2565b61159e8282611604565b5050565b6115b36115ad611dd0565b83611eaf565b6115f2576040517f08c379a00000000000000000000000000000000000000000000000000000000081526004016115e990613eb2565b60405180910390fd5b6115fe84848484612542565b50505050565b600061160f8361108a565b90503373ffffffffffffffffffffffffffffffffffffffff168173ffffffffffffffffffffffffffffffffffffffff161461167f576040517f08c379a0000000000000000000000000000000000000000000000000000000008152600401611676906142ac565b60405180910390fd5b600082116116c2576040517f08c379a00000000000000000000000000000000000000000000000000000000081526004016116b990614318565b60405180910390fd5b6000600e60008581526020019081526020016000205414611718576040517f08c379a000000000000000000000000000000000000000000000000000000000815260040161170f906143aa565b60405180910390fd5b6117228130611a4f565b611761576040517f08c379a00000000000000000000000000000000000000000000000000000000081526004016117589061443c565b60405180910390fd5b81600e600085815260200190815260200160002081905550600f839080600181540180825580915050600190039060005260206000200160009091909190915055505050565b60606117b282611d64565b6117f1576040517f08c379a00000000000000000000000000000000000000000000000000000000081526004016117e8906144ce565b60405180910390fd5b6117f961259e565b611802836125be565b604051602001611813929190614576565b6040516020818303038152906040529050919050565b6000600e6000838152602001908152602001600020549050600061184c8361108a565b905060008211611891576040517f08c379a0000000000000000000000000000000000000000000000000000000008152600401611888906145f1565b60405180910390fd5b348211156118d4576040517f08c379a00000000000000000000000000000000000000000000000000000000081526004016118cb9061465d565b60405180910390fd5b3373ffffffffffffffffffffffffffffffffffffffff168173ffffffffffffffffffffffffffffffffffffffff1603611942576040517f08c379a0000000000000000000000000000000000000000000000000000000008152600401611939906146c9565b60405180910390fd5b61194c8130611a4f565b61198b576040517f08c379a00000000000000000000000000000000000000000000000000000000081526004016119829061443c565b60405180910390fd5b8073ffffffffffffffffffffffffffffffffffffffff166108fc349081150290604051600060405180830381858888f193505050501580156119d1573d6000803e3d6000fd5b503073ffffffffffffffffffffffffffffffffffffffff166342842e0e8233866040518463ffffffff1660e01b8152600401611a0f939291906146e9565b600060405180830381600087803b158015611a2957600080fd5b505af1158015611a3d573d6000803e3d6000fd5b50505050611a4a83610db2565b505050565b6000600560008473ffffffffffffffffffffffffffffffffffffffff1673ffffffffffffffffffffffffffffffffffffffff16815260200190815260200160002060008373ffffffffffffffffffffffffffffffffffffffff1673ffffffffffffffffffffffffffffffffffffffff16815260200190815260200160002060009054906101000a900460ff16905092915050565b60606000611af083611211565b905060008167ffffffffffffffff811115611b0e57611b0d61374d565b5b604051908082528060200260200182016040528015611b4757816020015b611b3461307a565b815260200190600190039081611b2c5790505b50905060005b82811015611be8576000611b618683610d0d565b90506000611b6e826117a7565b90506000611b7b836114c6565b905060405180608001604052808481526020018973ffffffffffffffffffffffffffffffffffffffff16815260200183815260200182815250858581518110611bc757611bc6613d7f565b5b60200260200101819052505050508080611be090613f64565b915050611b4d565b508092505050919050565b611bfb611dd0565b73ffffffffffffffffffffffffffffffffffffffff16611c1961149c565b73ffffffffffffffffffffffffffffffffffffffff1614611c6f576040517f08c379a0000000000000000000000000000000000000000000000000000000008152600401611c6690614240565b60405180910390fd5b600073ffffffffffffffffffffffffffffffffffffffff168173ffffffffffffffffffffffffffffffffffffffff1603611cde576040517f08c379a0000000000000000000000000000000000000000000000000000000008152600401611cd590614792565b60405180910390fd5b611ce781612310565b50565b60007f780e9d63000000000000000000000000000000000000000000000000000000007bffffffffffffffffffffffffffffffffffffffffffffffffffffffff1916827bffffffffffffffffffffffffffffffffffffffffffffffffffffffff19161480611d5d5750611d5c8261271e565b5b9050919050565b60008073ffffffffffffffffffffffffffffffffffffffff166002600084815260200190815260200160002060009054906101000a900473ffffffffffffffffffffffffffffffffffffffff1673ffffffffffffffffffffffffffffffffffffffff1614159050919050565b600033905090565b816004600083815260200190815260200160002060006101000a81548173ffffffffffffffffffffffffffffffffffffffff021916908373ffffffffffffffffffffffffffffffffffffffff160217905550808273ffffffffffffffffffffffffffffffffffffffff16611e4b8361108a565b73ffffffffffffffffffffffffffffffffffffffff167f8c5be1e5ebec7d5bd14f71427d1e84f3dd0314c0f7b2291e5b200ac8c7c3b92560405160405180910390a45050565b611eab828260405180602001604052806000815250612800565b5050565b6000611eba82611d64565b611ef9576040517f08c379a0000000000000000000000000000000000000000000000000000000008152600401611ef090614824565b60405180910390fd5b6000611f048361108a565b90508073ffffffffffffffffffffffffffffffffffffffff168473ffffffffffffffffffffffffffffffffffffffff161480611f465750611f458185611a4f565b5b80611f8457508373ffffffffffffffffffffffffffffffffffffffff16611f6c84610953565b73ffffffffffffffffffffffffffffffffffffffff16145b91505092915050565b8273ffffffffffffffffffffffffffffffffffffffff16611fad8261108a565b73ffffffffffffffffffffffffffffffffffffffff1614612003576040517f08c379a0000000000000000000000000000000000000000000000000000000008152600401611ffa906148b6565b60405180910390fd5b600073ffffffffffffffffffffffffffffffffffffffff168273ffffffffffffffffffffffffffffffffffffffff1603612072576040517f08c379a000000000000000000000000000000000000000000000000000000000815260040161206990614948565b60405180910390fd5b61207d83838361285b565b612088600082611dd8565b6001600360008573ffffffffffffffffffffffffffffffffffffffff1673ffffffffffffffffffffffffffffffffffffffff16815260200190815260200160002060008282546120d89190613ddd565b925050819055506001600360008473ffffffffffffffffffffffffffffffffffffffff1673ffffffffffffffffffffffffffffffffffffffff168152602001908152602001600020600082825461212f9190614968565b92505081905550816002600083815260200190815260200160002060006101000a81548173ffffffffffffffffffffffffffffffffffffffff021916908373ffffffffffffffffffffffffffffffffffffffff160217905550808273ffffffffffffffffffffffffffffffffffffffff168473ffffffffffffffffffffffffffffffffffffffff167fddf252ad1be2c89b69c2b068fc378daa952ba7f163c4a11628f55a4df523b3ef60405160405180910390a46121ee83838361286b565b505050565b60006121fe8261108a565b905061220c8160008461285b565b612217600083611dd8565b6001600360008373ffffffffffffffffffffffffffffffffffffffff1673ffffffffffffffffffffffffffffffffffffffff16815260200190815260200160002060008282546122679190613ddd565b925050819055506002600083815260200190815260200160002060006101000a81549073ffffffffffffffffffffffffffffffffffffffff021916905581600073ffffffffffffffffffffffffffffffffffffffff168273ffffffffffffffffffffffffffffffffffffffff167fddf252ad1be2c89b69c2b068fc378daa952ba7f163c4a11628f55a4df523b3ef60405160405180910390a461230c8160008461286b565b5050565b6000600a60009054906101000a900473ffffffffffffffffffffffffffffffffffffffff16905081600a60006101000a81548173ffffffffffffffffffffffffffffffffffffffff021916908373ffffffffffffffffffffffffffffffffffffffff1602179055508173ffffffffffffffffffffffffffffffffffffffff168173ffffffffffffffffffffffffffffffffffffffff167f8be0079c531659141344cd1fd0a4f28419497f9722a3daafe3b4186f6b6457e060405160405180910390a35050565b8173ffffffffffffffffffffffffffffffffffffffff168373ffffffffffffffffffffffffffffffffffffffff1603612444576040517f08c379a000000000000000000000000000000000000000000000000000000000815260040161243b90614a0a565b60405180910390fd5b80600560008573ffffffffffffffffffffffffffffffffffffffff1673ffffffffffffffffffffffffffffffffffffffff16815260200190815260200160002060008473ffffffffffffffffffffffffffffffffffffffff1673ffffffffffffffffffffffffffffffffffffffff16815260200190815260200160002060006101000a81548160ff0219169083151502179055508173ffffffffffffffffffffffffffffffffffffffff168373ffffffffffffffffffffffffffffffffffffffff167f17307eab39ab6107e8899845ad3d59bd9653f200f220920489ca2b5937696c3183604051612535919061316c565b60405180910390a3505050565b61254d848484611f8d565b61255984848484612870565b612598576040517f08c379a000000000000000000000000000000000000000000000000000000000815260040161258f90614a9c565b60405180910390fd5b50505050565b6060604051806080016040528060508152602001614ca960509139905090565b606060008203612605576040518060400160405280600181526020017f30000000000000000000000000000000000000000000000000000000000000008152509050612719565b600082905060005b6000821461263757808061262090613f64565b915050600a826126309190614abc565b915061260d565b60008167ffffffffffffffff8111156126535761265261374d565b5b6040519080825280601f01601f1916602001820160405280156126855781602001600182028036833780820191505090505b5090505b600085146127125760018261269e9190613ddd565b9150600a856126ad9190613d4e565b60306126b99190614968565b60f81b8183815181106126cf576126ce613d7f565b5b60200101907effffffffffffffffffffffffffffffffffffffffffffffffffffffffffffff1916908160001a905350600a8561270b9190614abc565b9450612689565b8093505050505b919050565b60007f80ac58cd000000000000000000000000000000000000000000000000000000007bffffffffffffffffffffffffffffffffffffffffffffffffffffffff1916827bffffffffffffffffffffffffffffffffffffffffffffffffffffffff191614806127e957507f5b5e139f000000000000000000000000000000000000000000000000000000007bffffffffffffffffffffffffffffffffffffffffffffffffffffffff1916827bffffffffffffffffffffffffffffffffffffffffffffffffffffffff1916145b806127f957506127f8826129f7565b5b9050919050565b61280a8383612a61565b6128176000848484612870565b612856576040517f08c379a000000000000000000000000000000000000000000000000000000000815260040161284d90614a9c565b60405180910390fd5b505050565b612866838383612c3a565b505050565b505050565b60006128918473ffffffffffffffffffffffffffffffffffffffff16612d4c565b156129ea578373ffffffffffffffffffffffffffffffffffffffff1663150b7a026128ba611dd0565b8786866040518563ffffffff1660e01b81526004016128dc9493929190614b42565b6020604051808303816000875af192505050801561291857506040513d601f19601f820116820180604052508101906129159190614ba3565b60015b61299a573d8060008114612948576040519150601f19603f3d011682016040523d82523d6000602084013e61294d565b606091505b506000815103612992576040517f08c379a000000000000000000000000000000000000000000000000000000000815260040161298990614a9c565b60405180910390fd5b805181602001fd5b63150b7a0260e01b7bffffffffffffffffffffffffffffffffffffffffffffffffffffffff1916817bffffffffffffffffffffffffffffffffffffffffffffffffffffffff1916149150506129ef565b600190505b949350505050565b60007f01ffc9a7000000000000000000000000000000000000000000000000000000007bffffffffffffffffffffffffffffffffffffffffffffffffffffffff1916827bffffffffffffffffffffffffffffffffffffffffffffffffffffffff1916149050919050565b600073ffffffffffffffffffffffffffffffffffffffff168273ffffffffffffffffffffffffffffffffffffffff1603612ad0576040517f08c379a0000000000000000000000000000000000000000000000000000000008152600401612ac790614c1c565b60405180910390fd5b612ad981611d64565b15612b19576040517f08c379a0000000000000000000000000000000000000000000000000000000008152600401612b1090614c88565b60405180910390fd5b612b256000838361285b565b6001600360008473ffffffffffffffffffffffffffffffffffffffff1673ffffffffffffffffffffffffffffffffffffffff1681526020019081526020016000206000828254612b759190614968565b92505081905550816002600083815260200190815260200160002060006101000a81548173ffffffffffffffffffffffffffffffffffffffff021916908373ffffffffffffffffffffffffffffffffffffffff160217905550808273ffffffffffffffffffffffffffffffffffffffff16600073ffffffffffffffffffffffffffffffffffffffff167fddf252ad1be2c89b69c2b068fc378daa952ba7f163c4a11628f55a4df523b3ef60405160405180910390a4612c366000838361286b565b5050565b612c45838383612d6f565b600073ffffffffffffffffffffffffffffffffffffffff168373ffffffffffffffffffffffffffffffffffffffff1603612c8757612c8281612d74565b612cc6565b8173ffffffffffffffffffffffffffffffffffffffff168373ffffffffffffffffffffffffffffffffffffffff1614612cc557612cc48382612dbd565b5b5b600073ffffffffffffffffffffffffffffffffffffffff168273ffffffffffffffffffffffffffffffffffffffff1603612d0857612d0381612f2a565b612d47565b8273ffffffffffffffffffffffffffffffffffffffff168273ffffffffffffffffffffffffffffffffffffffff1614612d4657612d458282612ffb565b5b5b505050565b6000808273ffffffffffffffffffffffffffffffffffffffff163b119050919050565b505050565b6008805490506009600083815260200190815260200160002081905550600881908060018154018082558091505060019003906000526020600020016000909190919091505550565b60006001612dca84611211565b612dd49190613ddd565b9050600060076000848152602001908152602001600020549050818114612eb9576000600660008673ffffffffffffffffffffffffffffffffffffffff1673ffffffffffffffffffffffffffffffffffffffff168152602001908152602001600020600084815260200190815260200160002054905080600660008773ffffffffffffffffffffffffffffffffffffffff1673ffffffffffffffffffffffffffffffffffffffff168152602001908152602001600020600084815260200190815260200160002081905550816007600083815260200190815260200160002081905550505b6007600084815260200190815260200160002060009055600660008573ffffffffffffffffffffffffffffffffffffffff1673ffffffffffffffffffffffffffffffffffffffff16815260200190815260200160002060008381526020019081526020016000206000905550505050565b60006001600880549050612f3e9190613ddd565b9050600060096000848152602001908152602001600020549050600060088381548110612f6e57612f6d613d7f565b5b906000526020600020015490508060088381548110612f9057612f8f613d7f565b5b906000526020600020018190555081600960008381526020019081526020016000208190555060096000858152602001908152602001600020600090556008805480612fdf57612fde613e11565b5b6001900381819060005260206000200160009055905550505050565b600061300683611211565b905081600660008573ffffffffffffffffffffffffffffffffffffffff1673ffffffffffffffffffffffffffffffffffffffff168152602001908152602001600020600083815260200190815260200160002081905550806007600084815260200190815260200160002081905550505050565b604051806080016040528060008152602001600073ffffffffffffffffffffffffffffffffffffffff16815260200160608152602001600081525090565b6000604051905090565b600080fd5b600080fd5b60007fffffffff0000000000000000000000000000000000000000000000000000000082169050919050565b613101816130cc565b811461310c57600080fd5b50565b60008135905061311e816130f8565b92915050565b60006020828403121561313a576131396130c2565b5b60006131488482850161310f565b91505092915050565b60008115159050919050565b61316681613151565b82525050565b6000602082019050613181600083018461315d565b92915050565b600081519050919050565b600082825260208201905092915050565b60005b838110156131c15780820151818401526020810190506131a6565b838111156131d0576000848401525b50505050565b6000601f19601f8301169050919050565b60006131f282613187565b6131fc8185613192565b935061320c8185602086016131a3565b613215816131d6565b840191505092915050565b6000602082019050818103600083015261323a81846131e7565b905092915050565b6000819050919050565b61325581613242565b811461326057600080fd5b50565b6000813590506132728161324c565b92915050565b60006020828403121561328e5761328d6130c2565b5b600061329c84828501613263565b91505092915050565b600073ffffffffffffffffffffffffffffffffffffffff82169050919050565b60006132d0826132a5565b9050919050565b6132e0816132c5565b82525050565b60006020820190506132fb60008301846132d7565b92915050565b61330a816132c5565b811461331557600080fd5b50565b60008135905061332781613301565b92915050565b60008060408385031215613344576133436130c2565b5b600061335285828601613318565b925050602061336385828601613263565b9150509250929050565b61337681613242565b82525050565b6000602082019050613391600083018461336d565b92915050565b600081519050919050565b600082825260208201905092915050565b6000819050602082019050919050565b6133cc81613242565b82525050565b60006133de83836133c3565b60208301905092915050565b6000602082019050919050565b600061340282613397565b61340c81856133a2565b9350613417836133b3565b8060005b8381101561344857815161342f88826133d2565b975061343a836133ea565b92505060018101905061341b565b5085935050505092915050565b6000602082019050818103600083015261346f81846133f7565b905092915050565b6000806000606084860312156134905761348f6130c2565b5b600061349e86828701613318565b93505060206134af86828701613318565b92505060406134c086828701613263565b9150509250925092565b6000602082840312156134e0576134df6130c2565b5b60006134ee84828501613318565b91505092915050565b600081519050919050565b600082825260208201905092915050565b6000819050602082019050919050565b61352c816132c5565b82525050565b600082825260208201905092915050565b600061354e82613187565b6135588185613532565b93506135688185602086016131a3565b613571816131d6565b840191505092915050565b600060808301600083015161359460008601826133c3565b5060208301516135a76020860182613523565b50604083015184820360408601526135bf8282613543565b91505060608301516135d460608601826133c3565b508091505092915050565b60006135eb838361357c565b905092915050565b6000602082019050919050565b600061360b826134f7565b6136158185613502565b93508360208202850161362785613513565b8060005b85811015613663578484038952815161364485826135df565b945061364f836135f3565b925060208a0199505060018101905061362b565b50829750879550505050505092915050565b6000602082019050818103600083015261368f8184613600565b905092915050565b6136a081613151565b81146136ab57600080fd5b50565b6000813590506136bd81613697565b92915050565b600080604083850312156136da576136d96130c2565b5b60006136e885828601613318565b92505060206136f9858286016136ae565b9150509250929050565b6000806040838503121561371a576137196130c2565b5b600061372885828601613263565b925050602061373985828601613263565b9150509250929050565b600080fd5b600080fd5b7f4e487b7100000000000000000000000000000000000000000000000000000000600052604160045260246000fd5b613785826131d6565b810181811067ffffffffffffffff821117156137a4576137a361374d565b5b80604052505050565b60006137b76130b8565b90506137c3828261377c565b919050565b600067ffffffffffffffff8211156137e3576137e261374d565b5b6137ec826131d6565b9050602081019050919050565b82818337600083830152505050565b600061381b613816846137c8565b6137ad565b90508281526020810184848401111561383757613836613748565b5b6138428482856137f9565b509392505050565b600082601f83011261385f5761385e613743565b5b813561386f848260208601613808565b91505092915050565b60008060008060808587031215613892576138916130c2565b5b60006138a087828801613318565b94505060206138b187828801613318565b93505060406138c287828801613263565b925050606085013567ffffffffffffffff8111156138e3576138e26130c7565b5b6138ef8782880161384a565b91505092959194509250565b60008060408385031215613912576139116130c2565b5b600061392085828601613318565b925050602061393185828601613318565b9150509250929050565b7f4e487b7100000000000000000000000000000000000000000000000000000000600052602260045260246000fd5b6000600282049050600182168061398257607f821691505b6020821081036139955761399461393b565b5b50919050565b7f4552433732313a20617070726f76656420717565727920666f72206e6f6e657860008201527f697374656e7420746f6b656e0000000000000000000000000000000000000000602082015250565b60006139f7602c83613192565b9150613a028261399b565b604082019050919050565b60006020820190508181036000830152613a26816139ea565b9050919050565b7f4552433732313a20617070726f76616c20746f2063757272656e74206f776e6560008201527f7200000000000000000000000000000000000000000000000000000000000000602082015250565b6000613a89602183613192565b9150613a9482613a2d565b604082019050919050565b60006020820190508181036000830152613ab881613a7c565b9050919050565b7f4552433732313a20617070726f76652063616c6c6572206973206e6f74206f7760008201527f6e6572206e6f7220617070726f76656420666f7220616c6c0000000000000000602082015250565b6000613b1b603883613192565b9150613b2682613abf565b604082019050919050565b60006020820190508181036000830152613b4a81613b0e565b9050919050565b7f496d61676520697320736f6c64206f75742e0000000000000000000000000000600082015250565b6000613b87601283613192565b9150613b9282613b51565b602082019050919050565b60006020820190508181036000830152613bb681613b7a565b9050919050565b6000819050919050565b613bd8613bd382613242565b613bbd565b82525050565b600081549050919050565b600081905092915050565b60008190508160005260206000209050919050565b613c1281613242565b82525050565b6000613c248383613c09565b60208301905092915050565b60008160001c9050919050565b6000819050919050565b6000613c5a613c5583613c30565b613c3d565b9050919050565b6000613c6d8254613c47565b9050919050565b6000600182019050919050565b6000613c8c82613bde565b613c968185613be9565b9350613ca183613bf4565b8060005b83811015613cd957613cb682613c61565b613cc08882613c18565b9750613ccb83613c74565b925050600181019050613ca5565b5085935050505092915050565b6000613cf28286613bc7565b602082019150613d028285613bc7565b602082019150613d128284613c81565b9150819050949350505050565b7f4e487b7100000000000000000000000000000000000000000000000000000000600052601260045260246000fd5b6000613d5982613242565b9150613d6483613242565b925082613d7457613d73613d1f565b5b828206905092915050565b7f4e487b7100000000000000000000000000000000000000000000000000000000600052603260045260246000fd5b7f4e487b7100000000000000000000000000000000000000000000000000000000600052601160045260246000fd5b6000613de882613242565b9150613df383613242565b925082821015613e0657613e05613dae565b5b828203905092915050565b7f4e487b7100000000000000000000000000000000000000000000000000000000600052603160045260246000fd5b7f4552433732313a207472616e736665722063616c6c6572206973206e6f74206f60008201527f776e6572206e6f7220617070726f766564000000000000000000000000000000602082015250565b6000613e9c603183613192565b9150613ea782613e40565b604082019050919050565b60006020820190508181036000830152613ecb81613e8f565b9050919050565b7f455243373231456e756d657261626c653a206f776e657220696e646578206f7560008201527f74206f6620626f756e6473000000000000000000000000000000000000000000602082015250565b6000613f2e602b83613192565b9150613f3982613ed2565b604082019050919050565b60006020820190508181036000830152613f5d81613f21565b9050919050565b6000613f6f82613242565b91507fffffffffffffffffffffffffffffffffffffffffffffffffffffffffffffffff8203613fa157613fa0613dae565b5b600182019050919050565b7f6d73672e73656e646572206973206e6f7420746865206f776e6572206f66207460008201527f686520746f6b656e000000000000000000000000000000000000000000000000602082015250565b6000614008602883613192565b915061401382613fac565b604082019050919050565b6000602082019050818103600083015261403781613ffb565b9050919050565b7f455243373231456e756d657261626c653a20676c6f62616c20696e646578206f60008201527f7574206f6620626f756e64730000000000000000000000000000000000000000602082015250565b600061409a602c83613192565b91506140a58261403e565b604082019050919050565b600060208201905081810360008301526140c98161408d565b9050919050565b7f4552433732313a206f776e657220717565727920666f72206e6f6e657869737460008201527f656e7420746f6b656e0000000000000000000000000000000000000000000000602082015250565b600061412c602983613192565b9150614137826140d0565b604082019050919050565b6000602082019050818103600083015261415b8161411f565b9050919050565b7f4552433732313a2062616c616e636520717565727920666f7220746865207a6560008201527f726f206164647265737300000000000000000000000000000000000000000000602082015250565b60006141be602a83613192565b91506141c982614162565b604082019050919050565b600060208201905081810360008301526141ed816141b1565b9050919050565b7f4f776e61626c653a2063616c6c6572206973206e6f7420746865206f776e6572600082015250565b600061422a602083613192565b9150614235826141f4565b602082019050919050565b600060208201905081810360008301526142598161421d565b9050919050565b7f43616c6c6572206973206e6f74206e667420746f6b656e206f776e65722e0000600082015250565b6000614296601e83613192565b91506142a182614260565b602082019050919050565b600060208201905081810360008301526142c581614289565b9050919050565b7f5072696365206973207a65726f206f72206c6f7765722e000000000000000000600082015250565b6000614302601783613192565b915061430d826142cc565b602082019050919050565b60006020820190508181036000830152614331816142f5565b9050919050565b7f54686973206e667420746f6b656e20697320616c7265616479206f6e2073616c60008201527f652e000000000000000000000000000000000000000000000000000000000000602082015250565b6000614394602283613192565b915061439f82614338565b604082019050919050565b600060208201905081810360008301526143c381614387565b9050919050565b7f6e667420746f6b656e206f776e657220646964206e6f7420617070726f76652060008201527f746f6b656e2e0000000000000000000000000000000000000000000000000000602082015250565b6000614426602683613192565b9150614431826143ca565b604082019050919050565b6000602082019050818103600083015261445581614419565b9050919050565b7f4552433732314d657461646174613a2055524920717565727920666f72206e6f60008201527f6e6578697374656e7420746f6b656e0000000000000000000000000000000000602082015250565b60006144b8602f83613192565b91506144c38261445c565b604082019050919050565b600060208201905081810360008301526144e7816144ab565b9050919050565b600081905092915050565b600061450482613187565b61450e81856144ee565b935061451e8185602086016131a3565b80840191505092915050565b7f2f00000000000000000000000000000000000000000000000000000000000000600082015250565b60006145606001836144ee565b915061456b8261452a565b600182019050919050565b600061458282856144f9565b915061458d82614553565b915061459982846144f9565b91508190509392505050565b7f6e667420746f6b656e206e6f742073616c652e00000000000000000000000000600082015250565b60006145db601383613192565b91506145e6826145a5565b602082019050919050565b6000602082019050818103600083015261460a816145ce565b9050919050565b7f63616c6c65722073656e74206c6f776572207468616e2070726963652e000000600082015250565b6000614647601d83613192565b915061465282614611565b602082019050919050565b600060208201905081810360008301526146768161463a565b9050919050565b7f63616c6c6572206973206e667420746f6b656e206f776e65722e000000000000600082015250565b60006146b3601a83613192565b91506146be8261467d565b602082019050919050565b600060208201905081810360008301526146e2816146a6565b9050919050565b60006060820190506146fe60008301866132d7565b61470b60208301856132d7565b614718604083018461336d565b949350505050565b7f4f776e61626c653a206e6577206f776e657220697320746865207a65726f206160008201527f6464726573730000000000000000000000000000000000000000000000000000602082015250565b600061477c602683613192565b915061478782614720565b604082019050919050565b600060208201905081810360008301526147ab8161476f565b9050919050565b7f4552433732313a206f70657261746f7220717565727920666f72206e6f6e657860008201527f697374656e7420746f6b656e0000000000000000000000000000000000000000602082015250565b600061480e602c83613192565b9150614819826147b2565b604082019050919050565b6000602082019050818103600083015261483d81614801565b9050919050565b7f4552433732313a207472616e736665722066726f6d20696e636f72726563742060008201527f6f776e6572000000000000000000000000000000000000000000000000000000602082015250565b60006148a0602583613192565b91506148ab82614844565b604082019050919050565b600060208201905081810360008301526148cf81614893565b9050919050565b7f4552433732313a207472616e7366657220746f20746865207a65726f2061646460008201527f7265737300000000000000000000000000000000000000000000000000000000602082015250565b6000614932602483613192565b915061493d826148d6565b604082019050919050565b6000602082019050818103600083015261496181614925565b9050919050565b600061497382613242565b915061497e83613242565b9250827fffffffffffffffffffffffffffffffffffffffffffffffffffffffffffffffff038211156149b3576149b2613dae565b5b828201905092915050565b7f4552433732313a20617070726f766520746f2063616c6c657200000000000000600082015250565b60006149f4601983613192565b91506149ff826149be565b602082019050919050565b60006020820190508181036000830152614a23816149e7565b9050919050565b7f4552433732313a207472616e7366657220746f206e6f6e20455243373231526560008201527f63656976657220696d706c656d656e7465720000000000000000000000000000602082015250565b6000614a86603283613192565b9150614a9182614a2a565b604082019050919050565b60006020820190508181036000830152614ab581614a79565b9050919050565b6000614ac782613242565b9150614ad283613242565b925082614ae257614ae1613d1f565b5b828204905092915050565b600081519050919050565b600082825260208201905092915050565b6000614b1482614aed565b614b1e8185614af8565b9350614b2e8185602086016131a3565b614b37816131d6565b840191505092915050565b6000608082019050614b5760008301876132d7565b614b6460208301866132d7565b614b71604083018561336d565b8181036060830152614b838184614b09565b905095945050505050565b600081519050614b9d816130f8565b92915050565b600060208284031215614bb957614bb86130c2565b5b6000614bc784828501614b8e565b91505092915050565b7f4552433732313a206d696e7420746f20746865207a65726f2061646472657373600082015250565b6000614c06602083613192565b9150614c1182614bd0565b602082019050919050565b60006020820190508181036000830152614c3581614bf9565b9050919050565b7f4552433732313a20746f6b656e20616c7265616479206d696e74656400000000600082015250565b6000614c72601c83613192565b9150614c7d82614c3c565b602082019050919050565b60006020820190508181036000830152614ca181614c65565b905091905056fe68747470733a2f2f676174657761792e70696e6174612e636c6f75642f697066732f516d5450666e3136435059467431674b6d6875534a547844717a776b367845644e395a4e4b33666e74486870766aa26469706673582212207ba9edbb0d97ec5d103cddc62984d1d54598f9e3eadf94a6c624092c5a30c32164736f6c634300080e0033",
  "immutableReferences": {},
  "source": "// SPDX-License-Identifier: MIT\npragma solidity ^0.8.7;\n\nimport \"../client/node_modules/@openzeppelin/contracts/token/ERC721/ERC721.sol\";\nimport \"../client/node_modules/@openzeppelin/contracts/access/Ownable.sol\";\nimport \"../client/node_modules/@openzeppelin/contracts/token/ERC721/extensions/ERC721Enumerable.sol\";\nimport \"../client/node_modules/@openzeppelin/contracts/utils/Counters.sol\";\n\ncontract Jacket is ERC721, ERC721Enumerable, Ownable {\n    using Counters for Counters.Counter;\n    Counters.Counter private _tokenIds;\n    using Strings for uint256;\n\n    string public baseURI;\n    uint256[] public numArray;\n\n    constructor() ERC721(\"Jacket\", \"JACKET\") {\n        for (uint256 i = 1; i <= 100; i++) {\n            numArray.push(i);\n        }\n    }\n\n    function mint() public returns (uint256) {\n        require(numArray.length > 0, \"Image is sold out.\");\n        uint256 random = uint256(\n            keccak256(\n                abi.encodePacked(block.difficulty, block.timestamp, numArray)\n            )\n        ) % numArray.length;\n        uint256 id = numArray[random];\n        _safeMint(msg.sender, numArray[random]);\n        numArray[random] = numArray[numArray.length - 1];\n        numArray.pop();\n        return id;\n    }\n\n    // function mint() public returns (uint256) {\n    //     _tokenIds.increment();\n    //     uint256 newItemId = _tokenIds.current();\n    //     _safeMint(msg.sender, newItemId);\n    //     return newItemId;\n    // }\n\n    // function setBaseURI(string memory baseURI_) external onlyOwner {\n    //     baseURI = baseURI_;\n    // }\n\n    function _baseURI() internal view virtual override returns (string memory) {\n        return\n            \"https://gateway.pinata.cloud/ipfs/QmTPfn16CPYFt1gKmhuSJTxDqzwk6xEdN9ZNK3fntHhpvj\";\n    }\n\n    function tokenURI(uint256 tokenId)\n        public\n        view\n        virtual\n        override\n        returns (string memory)\n    {\n        require(\n            _exists(tokenId),\n            \"ERC721Metadata: URI query for nonexistent token\"\n        );\n        return string(abi.encodePacked(_baseURI(), \"/\", tokenId.toString()));\n    }\n\n    function _beforeTokenTransfer(\n        address from,\n        address to,\n        uint256 tokenId\n    ) internal override(ERC721, ERC721Enumerable) {\n        super._beforeTokenTransfer(from, to, tokenId);\n    }\n\n    function supportsInterface(bytes4 interfaceId)\n        public\n        view\n        override(ERC721, ERC721Enumerable)\n        returns (bool)\n    {\n        return super.supportsInterface(interfaceId);\n    }\n\n    struct NftTokenData {\n        uint256 nftTokenId;\n        address nftTokenOwner;\n        string nftTokenURI;\n        uint256 price;\n    }\n\n    function getNftTokens(address _nftTokenOwner)\n        public\n        view\n        returns (NftTokenData[] memory)\n    {\n        uint256 balanceLength = balanceOf(_nftTokenOwner);\n        //require(balanceLength != 0, \"Owner did not have token.\");\n\n        NftTokenData[] memory nftTokenData = new NftTokenData[](balanceLength);\n\n        for (uint256 i = 0; i < balanceLength; i++) {\n            uint256 nftTokenId = tokenOfOwnerByIndex(_nftTokenOwner, i);\n            string memory nftTokenURI = tokenURI(nftTokenId);\n            uint256 tokenPrice = getNftTokenPrice(nftTokenId);\n            nftTokenData[i] = NftTokenData(\n                nftTokenId,\n                _nftTokenOwner,\n                nftTokenURI,\n                tokenPrice\n            );\n        }\n\n        return nftTokenData;\n    }\n\n    // \n    mapping(uint256 => uint256) public nftTokenPrices;\n    uint256[] public onSaleNftTokenArray;\n    uint256[] public recentNftTokenArray;\n\n    function setSaleNftToken(uint256 _tokenId, uint256 _price) public {\n        address nftTokenOwner = ownerOf(_tokenId);\n\n        require(nftTokenOwner == msg.sender, \"Caller is not nft token owner.\");\n        require(_price > 0, \"Price is zero or lower.\");\n        require(\n            nftTokenPrices[_tokenId] == 0,\n            \"This nft token is already on sale.\"\n        );\n        require(\n            isApprovedForAll(nftTokenOwner, address(this)),\n            \"nft token owner did not approve token.\"\n        );\n\n        nftTokenPrices[_tokenId] = _price;\n        onSaleNftTokenArray.push(_tokenId); // nft list\n    }\n\n    // \n    function getSaleNftTokens() public view returns (NftTokenData[] memory) {\n        uint256[] memory onSaleNftToken = getSaleNftToken();\n        NftTokenData[] memory onSaleNftTokens = new NftTokenData[](\n            onSaleNftToken.length\n        );\n\n        for (uint256 i = 0; i < onSaleNftToken.length; i++) {\n            uint256 tokenId = onSaleNftToken[i];\n            address tokenOwner = ownerOf(tokenId);\n            uint256 tokenPrice = getNftTokenPrice(tokenId);\n            onSaleNftTokens[i] = NftTokenData(\n                tokenId,\n                tokenOwner,\n                tokenURI(tokenId),\n                tokenPrice\n            );\n        }\n\n        return onSaleNftTokens;\n    }\n\n    function getSaleNftToken() public view returns (uint256[] memory) {\n        return onSaleNftTokenArray;\n    }\n\n    function getNftTokenPrice(uint256 _tokenId) public view returns (uint256) {\n        return nftTokenPrices[_tokenId];\n    }\n\n    function getRecentNftToken() public view returns (uint256[] memory) {\n        return recentNftTokenArray;\n    }\n\n    //\n    function buyNftToken(uint256 _tokenId) public payable {\n        uint256 price = nftTokenPrices[_tokenId];\n        address nftTokenOwner = ownerOf(_tokenId);\n\n        require(price > 0, \"nft token not sale.\");\n        require(price <= msg.value, \"caller sent lower than price.\");\n        require(nftTokenOwner != msg.sender, \"caller is nft token owner.\");\n        require(\n            isApprovedForAll(nftTokenOwner, address(this)),\n            \"nft token owner did not approve token.\"\n        );\n\n        payable(nftTokenOwner).transfer(msg.value);\n\n        IERC721(address(this)).safeTransferFrom(\n            nftTokenOwner,\n            msg.sender,\n            _tokenId\n        );\n\n        //  \n        removeToken(_tokenId);\n    }\n\n    function burn(uint256 _tokenId) public {\n        address addr_owner = ownerOf(_tokenId);\n        require(\n            addr_owner == msg.sender,\n            \"msg.sender is not the owner of the token\"\n        );\n        _burn(_tokenId);\n        removeToken(_tokenId);\n        numArray.push(_tokenId);\n    }\n\n    function removeToken(uint256 _tokenId) public {\n        //  \n        recentNftTokenArray.push(_tokenId);\n        nftTokenPrices[_tokenId] = 0;\n\n        for (uint256 i = 0; i < onSaleNftTokenArray.length; i++) {\n            if (nftTokenPrices[onSaleNftTokenArray[i]] == 0) {\n                onSaleNftTokenArray[i] = onSaleNftTokenArray[\n                    onSaleNftTokenArray.length - 1\n                ];\n                onSaleNftTokenArray.pop();\n            }\n        }\n    }\n\n    function changePrice(uint256 _tokenId, uint256 _price) public {\n        removeToken(_tokenId);\n        setSaleNftToken(_tokenId, _price);\n    }\n}\n",
  "sourcePath": "/Users/donghwan/projects/capstone/CapstoneDesign_NFTMarketplace /contracts/Jacket.sol",
  "compiler": {
    "name": "solc",
    "version": "0.8.14+commit.80d49f37.Emscripten.clang"
  },
  "schemaVersion": "3.4.6",
  "updatedAt": "2022-06-01T15:42:50.717Z",
  "networkType": "ethereum",
  "devdoc": {
    "kind": "dev",
    "methods": {
      "approve(address,uint256)": {
        "details": "See {IERC721-approve}."
      },
      "balanceOf(address)": {
        "details": "See {IERC721-balanceOf}."
      },
      "getApproved(uint256)": {
        "details": "See {IERC721-getApproved}."
      },
      "isApprovedForAll(address,address)": {
        "details": "See {IERC721-isApprovedForAll}."
      },
      "name()": {
        "details": "See {IERC721Metadata-name}."
      },
      "owner()": {
        "details": "Returns the address of the current owner."
      },
      "ownerOf(uint256)": {
        "details": "See {IERC721-ownerOf}."
      },
      "renounceOwnership()": {
        "details": "Leaves the contract without owner. It will not be possible to call `onlyOwner` functions anymore. Can only be called by the current owner. NOTE: Renouncing ownership will leave the contract without an owner, thereby removing any functionality that is only available to the owner."
      },
      "safeTransferFrom(address,address,uint256)": {
        "details": "See {IERC721-safeTransferFrom}."
      },
      "safeTransferFrom(address,address,uint256,bytes)": {
        "details": "See {IERC721-safeTransferFrom}."
      },
      "setApprovalForAll(address,bool)": {
        "details": "See {IERC721-setApprovalForAll}."
      },
      "symbol()": {
        "details": "See {IERC721Metadata-symbol}."
      },
      "tokenByIndex(uint256)": {
        "details": "See {IERC721Enumerable-tokenByIndex}."
      },
      "tokenOfOwnerByIndex(address,uint256)": {
        "details": "See {IERC721Enumerable-tokenOfOwnerByIndex}."
      },
      "tokenURI(uint256)": {
        "details": "See {IERC721Metadata-tokenURI}."
      },
      "totalSupply()": {
        "details": "See {IERC721Enumerable-totalSupply}."
      },
      "transferFrom(address,address,uint256)": {
        "details": "See {IERC721-transferFrom}."
      },
      "transferOwnership(address)": {
        "details": "Transfers ownership of the contract to a new account (`newOwner`). Can only be called by the current owner."
      }
    },
    "version": 1
  },
  "userdoc": {
    "kind": "user",
    "methods": {},
    "version": 1
  }
}