{
  "contractName": "Jacket",
  "abi": [
    {
      "inputs": [],
      "stateMutability": "nonpayable",
      "type": "constructor"
    },
    {
      "anonymous": false,
      "inputs": [
        {
          "indexed": true,
          "internalType": "address",
          "name": "owner",
          "type": "address"
        },
        {
          "indexed": true,
          "internalType": "address",
          "name": "approved",
          "type": "address"
        },
        {
          "indexed": true,
          "internalType": "uint256",
          "name": "tokenId",
          "type": "uint256"
        }
      ],
      "name": "Approval",
      "type": "event"
    },
    {
      "anonymous": false,
      "inputs": [
        {
          "indexed": true,
          "internalType": "address",
          "name": "owner",
          "type": "address"
        },
        {
          "indexed": true,
          "internalType": "address",
          "name": "operator",
          "type": "address"
        },
        {
          "indexed": false,
          "internalType": "bool",
          "name": "approved",
          "type": "bool"
        }
      ],
      "name": "ApprovalForAll",
      "type": "event"
    },
    {
      "anonymous": false,
      "inputs": [
        {
          "indexed": true,
          "internalType": "address",
          "name": "previousOwner",
          "type": "address"
        },
        {
          "indexed": true,
          "internalType": "address",
          "name": "newOwner",
          "type": "address"
        }
      ],
      "name": "OwnershipTransferred",
      "type": "event"
    },
    {
      "anonymous": false,
      "inputs": [
        {
          "indexed": true,
          "internalType": "address",
          "name": "from",
          "type": "address"
        },
        {
          "indexed": true,
          "internalType": "address",
          "name": "to",
          "type": "address"
        },
        {
          "indexed": true,
          "internalType": "uint256",
          "name": "tokenId",
          "type": "uint256"
        }
      ],
      "name": "Transfer",
      "type": "event"
    },
    {
      "inputs": [
        {
          "internalType": "address",
          "name": "to",
          "type": "address"
        },
        {
          "internalType": "uint256",
          "name": "tokenId",
          "type": "uint256"
        }
      ],
      "name": "approve",
      "outputs": [],
      "stateMutability": "nonpayable",
      "type": "function"
    },
    {
      "inputs": [
        {
          "internalType": "address",
          "name": "owner",
          "type": "address"
        }
      ],
      "name": "balanceOf",
      "outputs": [
        {
          "internalType": "uint256",
          "name": "",
          "type": "uint256"
        }
      ],
      "stateMutability": "view",
      "type": "function",
      "constant": true
    },
    {
      "inputs": [],
      "name": "baseURI",
      "outputs": [
        {
          "internalType": "string",
          "name": "",
          "type": "string"
        }
      ],
      "stateMutability": "view",
      "type": "function",
      "constant": true
    },
    {
      "inputs": [
        {
          "internalType": "uint256",
          "name": "tokenId",
          "type": "uint256"
        }
      ],
      "name": "getApproved",
      "outputs": [
        {
          "internalType": "address",
          "name": "",
          "type": "address"
        }
      ],
      "stateMutability": "view",
      "type": "function",
      "constant": true
    },
    {
      "inputs": [
        {
          "internalType": "address",
          "name": "owner",
          "type": "address"
        },
        {
          "internalType": "address",
          "name": "operator",
          "type": "address"
        }
      ],
      "name": "isApprovedForAll",
      "outputs": [
        {
          "internalType": "bool",
          "name": "",
          "type": "bool"
        }
      ],
      "stateMutability": "view",
      "type": "function",
      "constant": true
    },
    {
      "inputs": [],
      "name": "name",
      "outputs": [
        {
          "internalType": "string",
          "name": "",
          "type": "string"
        }
      ],
      "stateMutability": "view",
      "type": "function",
      "constant": true
    },
    {
      "inputs": [
        {
          "internalType": "uint256",
          "name": "",
          "type": "uint256"
        }
      ],
      "name": "nftTokenPrices",
      "outputs": [
        {
          "internalType": "uint256",
          "name": "",
          "type": "uint256"
        }
      ],
      "stateMutability": "view",
      "type": "function",
      "constant": true
    },
    {
      "inputs": [
        {
          "internalType": "uint256",
          "name": "",
          "type": "uint256"
        }
      ],
      "name": "numArray",
      "outputs": [
        {
          "internalType": "uint256",
          "name": "",
          "type": "uint256"
        }
      ],
      "stateMutability": "view",
      "type": "function",
      "constant": true
    },
    {
      "inputs": [
        {
          "internalType": "uint256",
          "name": "",
          "type": "uint256"
        }
      ],
      "name": "onSaleNftTokenArray",
      "outputs": [
        {
          "internalType": "uint256",
          "name": "",
          "type": "uint256"
        }
      ],
      "stateMutability": "view",
      "type": "function",
      "constant": true
    },
    {
      "inputs": [],
      "name": "owner",
      "outputs": [
        {
          "internalType": "address",
          "name": "",
          "type": "address"
        }
      ],
      "stateMutability": "view",
      "type": "function",
      "constant": true
    },
    {
      "inputs": [
        {
          "internalType": "uint256",
          "name": "tokenId",
          "type": "uint256"
        }
      ],
      "name": "ownerOf",
      "outputs": [
        {
          "internalType": "address",
          "name": "",
          "type": "address"
        }
      ],
      "stateMutability": "view",
      "type": "function",
      "constant": true
    },
    {
      "inputs": [],
      "name": "renounceOwnership",
      "outputs": [],
      "stateMutability": "nonpayable",
      "type": "function"
    },
    {
      "inputs": [
        {
          "internalType": "address",
          "name": "from",
          "type": "address"
        },
        {
          "internalType": "address",
          "name": "to",
          "type": "address"
        },
        {
          "internalType": "uint256",
          "name": "tokenId",
          "type": "uint256"
        }
      ],
      "name": "safeTransferFrom",
      "outputs": [],
      "stateMutability": "nonpayable",
      "type": "function"
    },
    {
      "inputs": [
        {
          "internalType": "address",
          "name": "from",
          "type": "address"
        },
        {
          "internalType": "address",
          "name": "to",
          "type": "address"
        },
        {
          "internalType": "uint256",
          "name": "tokenId",
          "type": "uint256"
        },
        {
          "internalType": "bytes",
          "name": "_data",
          "type": "bytes"
        }
      ],
      "name": "safeTransferFrom",
      "outputs": [],
      "stateMutability": "nonpayable",
      "type": "function"
    },
    {
      "inputs": [
        {
          "internalType": "address",
          "name": "operator",
          "type": "address"
        },
        {
          "internalType": "bool",
          "name": "approved",
          "type": "bool"
        }
      ],
      "name": "setApprovalForAll",
      "outputs": [],
      "stateMutability": "nonpayable",
      "type": "function"
    },
    {
      "inputs": [],
      "name": "symbol",
      "outputs": [
        {
          "internalType": "string",
          "name": "",
          "type": "string"
        }
      ],
      "stateMutability": "view",
      "type": "function",
      "constant": true
    },
    {
      "inputs": [
        {
          "internalType": "uint256",
          "name": "index",
          "type": "uint256"
        }
      ],
      "name": "tokenByIndex",
      "outputs": [
        {
          "internalType": "uint256",
          "name": "",
          "type": "uint256"
        }
      ],
      "stateMutability": "view",
      "type": "function",
      "constant": true
    },
    {
      "inputs": [
        {
          "internalType": "address",
          "name": "owner",
          "type": "address"
        },
        {
          "internalType": "uint256",
          "name": "index",
          "type": "uint256"
        }
      ],
      "name": "tokenOfOwnerByIndex",
      "outputs": [
        {
          "internalType": "uint256",
          "name": "",
          "type": "uint256"
        }
      ],
      "stateMutability": "view",
      "type": "function",
      "constant": true
    },
    {
      "inputs": [],
      "name": "totalSupply",
      "outputs": [
        {
          "internalType": "uint256",
          "name": "",
          "type": "uint256"
        }
      ],
      "stateMutability": "view",
      "type": "function",
      "constant": true
    },
    {
      "inputs": [
        {
          "internalType": "address",
          "name": "from",
          "type": "address"
        },
        {
          "internalType": "address",
          "name": "to",
          "type": "address"
        },
        {
          "internalType": "uint256",
          "name": "tokenId",
          "type": "uint256"
        }
      ],
      "name": "transferFrom",
      "outputs": [],
      "stateMutability": "nonpayable",
      "type": "function"
    },
    {
      "inputs": [
        {
          "internalType": "address",
          "name": "newOwner",
          "type": "address"
        }
      ],
      "name": "transferOwnership",
      "outputs": [],
      "stateMutability": "nonpayable",
      "type": "function"
    },
    {
      "inputs": [],
      "name": "mint",
      "outputs": [],
      "stateMutability": "nonpayable",
      "type": "function"
    },
    {
      "inputs": [],
      "name": "getmintedId",
      "outputs": [
        {
          "internalType": "uint256",
          "name": "",
          "type": "uint256"
        }
      ],
      "stateMutability": "view",
      "type": "function",
      "constant": true
    },
    {
      "inputs": [
        {
          "internalType": "uint256",
          "name": "tokenId",
          "type": "uint256"
        }
      ],
      "name": "tokenURI",
      "outputs": [
        {
          "internalType": "string",
          "name": "",
          "type": "string"
        }
      ],
      "stateMutability": "view",
      "type": "function",
      "constant": true
    },
    {
      "inputs": [
        {
          "internalType": "bytes4",
          "name": "interfaceId",
          "type": "bytes4"
        }
      ],
      "name": "supportsInterface",
      "outputs": [
        {
          "internalType": "bool",
          "name": "",
          "type": "bool"
        }
      ],
      "stateMutability": "view",
      "type": "function",
      "constant": true
    },
    {
      "inputs": [
        {
          "internalType": "address",
          "name": "_nftTokenOwner",
          "type": "address"
        }
      ],
      "name": "getNftTokens",
      "outputs": [
        {
          "components": [
            {
              "internalType": "uint256",
              "name": "nftTokenId",
              "type": "uint256"
            },
            {
              "internalType": "address",
              "name": "nftTokenOwner",
              "type": "address"
            },
            {
              "internalType": "string",
              "name": "nftTokenURI",
              "type": "string"
            },
            {
              "internalType": "uint256",
              "name": "price",
              "type": "uint256"
            }
          ],
          "internalType": "struct Jacket.NftTokenData[]",
          "name": "",
          "type": "tuple[]"
        }
      ],
      "stateMutability": "view",
      "type": "function",
      "constant": true
    },
    {
      "inputs": [
        {
          "internalType": "uint256",
          "name": "_tokenId",
          "type": "uint256"
        },
        {
          "internalType": "uint256",
          "name": "_price",
          "type": "uint256"
        }
      ],
      "name": "setSaleNftToken",
      "outputs": [],
      "stateMutability": "nonpayable",
      "type": "function"
    },
    {
      "inputs": [],
      "name": "getSaleNftTokens",
      "outputs": [
        {
          "components": [
            {
              "internalType": "uint256",
              "name": "nftTokenId",
              "type": "uint256"
            },
            {
              "internalType": "address",
              "name": "nftTokenOwner",
              "type": "address"
            },
            {
              "internalType": "string",
              "name": "nftTokenURI",
              "type": "string"
            },
            {
              "internalType": "uint256",
              "name": "price",
              "type": "uint256"
            }
          ],
          "internalType": "struct Jacket.NftTokenData[]",
          "name": "",
          "type": "tuple[]"
        }
      ],
      "stateMutability": "view",
      "type": "function",
      "constant": true
    },
    {
      "inputs": [],
      "name": "getSaleNftToken",
      "outputs": [
        {
          "internalType": "uint256[]",
          "name": "",
          "type": "uint256[]"
        }
      ],
      "stateMutability": "view",
      "type": "function",
      "constant": true
    },
    {
      "inputs": [
        {
          "internalType": "uint256",
          "name": "_tokenId",
          "type": "uint256"
        }
      ],
      "name": "getNftTokenPrice",
      "outputs": [
        {
          "internalType": "uint256",
          "name": "",
          "type": "uint256"
        }
      ],
      "stateMutability": "view",
      "type": "function",
      "constant": true
    },
    {
      "inputs": [
        {
          "internalType": "uint256",
          "name": "_tokenId",
          "type": "uint256"
        }
      ],
      "name": "buyNftToken",
      "outputs": [],
      "stateMutability": "payable",
      "type": "function",
      "payable": true
    },
    {
      "inputs": [
        {
          "internalType": "uint256",
          "name": "_tokenId",
          "type": "uint256"
        }
      ],
      "name": "burn",
      "outputs": [],
      "stateMutability": "nonpayable",
      "type": "function"
    },
    {
      "inputs": [
        {
          "internalType": "uint256",
          "name": "_tokenId",
          "type": "uint256"
        }
      ],
      "name": "removeToken",
      "outputs": [],
      "stateMutability": "nonpayable",
      "type": "function"
    },
    {
      "inputs": [
        {
          "internalType": "uint256",
          "name": "_tokenId",
          "type": "uint256"
        },
        {
          "internalType": "uint256",
          "name": "_price",
          "type": "uint256"
        }
      ],
      "name": "changePrice",
      "outputs": [],
      "stateMutability": "nonpayable",
      "type": "function"
    }
  ],
  "bytecode": "0x60806040523480156200001157600080fd5b506040518060400160405280600681526020017f4a61636b657400000000000000000000000000000000000000000000000000008152506040518060400160405280600681526020017f4a41434b45540000000000000000000000000000000000000000000000000000815250816000908051906020019062000096929190620001f6565b508060019080519060200190620000af929190620001f6565b505050620000d2620000c66200012860201b60201c565b6200013060201b60201c565b6000600190505b606481116200012157600e81908060018154018082558091505060019003906000526020600020016000909190919091505580806200011890620002df565b915050620000d9565b5062000390565b600033905090565b6000600a60009054906101000a900473ffffffffffffffffffffffffffffffffffffffff16905081600a60006101000a81548173ffffffffffffffffffffffffffffffffffffffff021916908373ffffffffffffffffffffffffffffffffffffffff1602179055508173ffffffffffffffffffffffffffffffffffffffff168173ffffffffffffffffffffffffffffffffffffffff167f8be0079c531659141344cd1fd0a4f28419497f9722a3daafe3b4186f6b6457e060405160405180910390a35050565b82805462000204906200035b565b90600052602060002090601f01602090048101928262000228576000855562000274565b82601f106200024357805160ff191683800117855562000274565b8280016001018555821562000274579182015b828111156200027357825182559160200191906001019062000256565b5b50905062000283919062000287565b5090565b5b80821115620002a257600081600090555060010162000288565b5090565b7f4e487b7100000000000000000000000000000000000000000000000000000000600052601160045260246000fd5b6000819050919050565b6000620002ec82620002d5565b91507fffffffffffffffffffffffffffffffffffffffffffffffffffffffffffffffff8203620003215762000320620002a6565b5b600182019050919050565b7f4e487b7100000000000000000000000000000000000000000000000000000000600052602260045260246000fd5b600060028204905060018216806200037457607f821691505b6020821081036200038a57620003896200032c565b5b50919050565b614e3680620003a06000396000f3fe6080604052600436106101f95760003560e01c806370a082311161010d578063b3de019c116100a0578063da8cc6e81161006f578063da8cc6e814610769578063e976e6e414610785578063e985e9c5146107b0578063f257f548146107ed578063f2fde38b1461082a576101f9565b8063b3de019c146106b1578063b88d4fde146106da578063b8e297f414610703578063c87b56dd1461072c576101f9565b80638da5cb5b116100dc5780638da5cb5b146105f5578063912c45cf1461062057806395d89b411461065d578063a22cb46514610688576101f9565b806370a0823114610539578063715018a61461057657806373e778c51461058d57806374a6b54f146105ca576101f9565b80632f745c59116101905780634ae23e641161015f5780634ae23e641461041a5780634f6ccce7146104575780636352211e146104945780636c0360eb146104d15780636e734738146104fc576101f9565b80632f745c591461036257806336c5d7241461039f57806342842e0e146103c857806342966c68146103f1576101f9565b80631249c58b116101cc5780631249c58b146102cc57806318160ddd146102e35780631efceb901461030e57806323b872dd14610339576101f9565b806301ffc9a7146101fe57806306fdde031461023b578063081812fc14610266578063095ea7b3146102a3575b600080fd5b34801561020a57600080fd5b50610225600480360381019061022091906131c0565b610853565b6040516102329190613208565b60405180910390f35b34801561024757600080fd5b50610250610865565b60405161025d91906132bc565b60405180910390f35b34801561027257600080fd5b5061028d60048036038101906102889190613314565b6108f7565b60405161029a9190613382565b60405180910390f35b3480156102af57600080fd5b506102ca60048036038101906102c591906133c9565b61097c565b005b3480156102d857600080fd5b506102e1610a93565b005b3480156102ef57600080fd5b506102f8610bee565b6040516103059190613418565b60405180910390f35b34801561031a57600080fd5b50610323610bfb565b60405161033091906134f1565b60405180910390f35b34801561034557600080fd5b50610360600480360381019061035b9190613513565b610c53565b005b34801561036e57600080fd5b50610389600480360381019061038491906133c9565b610cb3565b6040516103969190613418565b60405180910390f35b3480156103ab57600080fd5b506103c660048036038101906103c19190613314565b610d58565b005b3480156103d457600080fd5b506103ef60048036038101906103ea9190613513565b610e7a565b005b3480156103fd57600080fd5b5061041860048036038101906104139190613314565b610e9a565b005b34801561042657600080fd5b50610441600480360381019061043c9190613314565b610f54565b60405161044e9190613418565b60405180910390f35b34801561046357600080fd5b5061047e60048036038101906104799190613314565b610f6c565b60405161048b9190613418565b60405180910390f35b3480156104a057600080fd5b506104bb60048036038101906104b69190613314565b610fdd565b6040516104c89190613382565b60405180910390f35b3480156104dd57600080fd5b506104e661108e565b6040516104f391906132bc565b60405180910390f35b34801561050857600080fd5b50610523600480360381019061051e9190613314565b61111c565b6040516105309190613418565b60405180910390f35b34801561054557600080fd5b50610560600480360381019061055b9190613566565b611140565b60405161056d9190613418565b60405180910390f35b34801561058257600080fd5b5061058b6111f7565b005b34801561059957600080fd5b506105b460048036038101906105af9190613314565b61127f565b6040516105c19190613418565b60405180910390f35b3480156105d657600080fd5b506105df6112a3565b6040516105ec9190613711565b60405180910390f35b34801561060157600080fd5b5061060a6113cb565b6040516106179190613382565b60405180910390f35b34801561062c57600080fd5b5061064760048036038101906106429190613314565b6113f5565b6040516106549190613418565b60405180910390f35b34801561066957600080fd5b50610672611412565b60405161067f91906132bc565b60405180910390f35b34801561069457600080fd5b506106af60048036038101906106aa919061375f565b6114a4565b005b3480156106bd57600080fd5b506106d860048036038101906106d3919061379f565b6114ba565b005b3480156106e657600080fd5b5061070160048036038101906106fc9190613914565b611634565b005b34801561070f57600080fd5b5061072a6004803603810190610725919061379f565b611696565b005b34801561073857600080fd5b50610753600480360381019061074e9190613314565b611839565b60405161076091906132bc565b60405180910390f35b610783600480360381019061077e9190613314565b6118bb565b005b34801561079157600080fd5b5061079a611ae1565b6040516107a79190613418565b60405180910390f35b3480156107bc57600080fd5b506107d760048036038101906107d29190613997565b611aeb565b6040516107e49190613208565b60405180910390f35b3480156107f957600080fd5b50610814600480360381019061080f9190613566565b611b7f565b6040516108219190613711565b60405180910390f35b34801561083657600080fd5b50610851600480360381019061084c9190613566565b611c8f565b005b600061085e82611d86565b9050919050565b60606000805461087490613a06565b80601f01602080910402602001604051908101604052809291908181526020018280546108a090613a06565b80156108ed5780601f106108c2576101008083540402835291602001916108ed565b820191906000526020600020905b8154815290600101906020018083116108d057829003601f168201915b5050505050905090565b600061090282611e00565b610941576040517f08c379a000000000000000000000000000000000000000000000000000000000815260040161093890613aa9565b60405180910390fd5b6004600083815260200190815260200160002060009054906101000a900473ffffffffffffffffffffffffffffffffffffffff169050919050565b600061098782610fdd565b90508073ffffffffffffffffffffffffffffffffffffffff168373ffffffffffffffffffffffffffffffffffffffff16036109f7576040517f08c379a00000000000000000000000000000000000000000000000000000000081526004016109ee90613b3b565b60405180910390fd5b8073ffffffffffffffffffffffffffffffffffffffff16610a16611e6c565b73ffffffffffffffffffffffffffffffffffffffff161480610a455750610a4481610a3f611e6c565b611aeb565b5b610a84576040517f08c379a0000000000000000000000000000000000000000000000000000000008152600401610a7b90613bcd565b60405180910390fd5b610a8e8383611e74565b505050565b6000600e8054905011610adb576040517f08c379a0000000000000000000000000000000000000000000000000000000008152600401610ad290613c39565b60405180910390fd5b6000600e805490504442600e604051602001610af993929190613d82565b6040516020818303038152906040528051906020012060001c610b1c9190613dea565b90506000600e8281548110610b3457610b33613e1b565b5b90600052602060002001549050610b6933600e8481548110610b5957610b58613e1b565b5b9060005260206000200154611f2d565b600e6001600e80549050610b7d9190613e79565b81548110610b8e57610b8d613e1b565b5b9060005260206000200154600e8381548110610bad57610bac613e1b565b5b9060005260206000200181905550600e805480610bcd57610bcc613ead565b5b6001900381819060005260206000200160009055905580600c819055505050565b6000600880549050905090565b60606010805480602002602001604051908101604052809291908181526020018280548015610c4957602002820191906000526020600020905b815481526020019060010190808311610c35575b5050505050905090565b610c64610c5e611e6c565b82611f4b565b610ca3576040517f08c379a0000000000000000000000000000000000000000000000000000000008152600401610c9a90613f4e565b60405180910390fd5b610cae838383612029565b505050565b6000610cbe83611140565b8210610cff576040517f08c379a0000000000000000000000000000000000000000000000000000000008152600401610cf690613fe0565b60405180910390fd5b600660008473ffffffffffffffffffffffffffffffffffffffff1673ffffffffffffffffffffffffffffffffffffffff168152602001908152602001600020600083815260200190815260200160002054905092915050565b6000600f60008381526020019081526020016000208190555060005b601080549050811015610e76576000600f600060108481548110610d9b57610d9a613e1b565b5b906000526020600020015481526020019081526020016000205403610e635760008190505b6001601080549050610dd29190613e79565b811015610e39576010600182610de89190614000565b81548110610df957610df8613e1b565b5b906000526020600020015460108281548110610e1857610e17613e1b565b5b90600052602060002001819055508080610e3190614056565b915050610dc0565b506010805480610e4c57610e4b613ead565b5b600190038181906000526020600020016000905590555b8080610e6e90614056565b915050610d74565b5050565b610e9583838360405180602001604052806000815250611634565b505050565b6000610ea582610fdd565b90503373ffffffffffffffffffffffffffffffffffffffff168173ffffffffffffffffffffffffffffffffffffffff1614610f15576040517f08c379a0000000000000000000000000000000000000000000000000000000008152600401610f0c90614110565b60405180910390fd5b610f1e82610d58565b610f278261228f565b600e8290806001815401808255809150506001900390600052602060002001600090919091909150555050565b600f6020528060005260406000206000915090505481565b6000610f76610bee565b8210610fb7576040517f08c379a0000000000000000000000000000000000000000000000000000000008152600401610fae906141a2565b60405180910390fd5b60088281548110610fcb57610fca613e1b565b5b90600052602060002001549050919050565b6000806002600084815260200190815260200160002060009054906101000a900473ffffffffffffffffffffffffffffffffffffffff169050600073ffffffffffffffffffffffffffffffffffffffff168173ffffffffffffffffffffffffffffffffffffffff1603611085576040517f08c379a000000000000000000000000000000000000000000000000000000000815260040161107c90614234565b60405180910390fd5b80915050919050565b600d805461109b90613a06565b80601f01602080910402602001604051908101604052809291908181526020018280546110c790613a06565b80156111145780601f106110e957610100808354040283529160200191611114565b820191906000526020600020905b8154815290600101906020018083116110f757829003601f168201915b505050505081565b600e818154811061112c57600080fd5b906000526020600020016000915090505481565b60008073ffffffffffffffffffffffffffffffffffffffff168273ffffffffffffffffffffffffffffffffffffffff16036111b0576040517f08c379a00000000000000000000000000000000000000000000000000000000081526004016111a7906142c6565b60405180910390fd5b600360008373ffffffffffffffffffffffffffffffffffffffff1673ffffffffffffffffffffffffffffffffffffffff168152602001908152602001600020549050919050565b6111ff611e6c565b73ffffffffffffffffffffffffffffffffffffffff1661121d6113cb565b73ffffffffffffffffffffffffffffffffffffffff1614611273576040517f08c379a000000000000000000000000000000000000000000000000000000000815260040161126a90614332565b60405180910390fd5b61127d60006123ac565b565b6010818154811061128f57600080fd5b906000526020600020016000915090505481565b606060006112af610bfb565b90506000815167ffffffffffffffff8111156112ce576112cd6137e9565b5b60405190808252806020026020018201604052801561130757816020015b6112f4613116565b8152602001906001900390816112ec5790505b50905060005b82518110156113c257600083828151811061132b5761132a613e1b565b5b60200260200101519050600061134082610fdd565b9050600061134d836113f5565b905060405180608001604052808481526020018373ffffffffffffffffffffffffffffffffffffffff16815260200161138585611839565b8152602001828152508585815181106113a1576113a0613e1b565b5b602002602001018190525050505080806113ba90614056565b91505061130d565b50809250505090565b6000600a60009054906101000a900473ffffffffffffffffffffffffffffffffffffffff16905090565b6000600f6000838152602001908152602001600020549050919050565b60606001805461142190613a06565b80601f016020809104026020016040519081016040528092919081815260200182805461144d90613a06565b801561149a5780601f1061146f5761010080835404028352916020019161149a565b820191906000526020600020905b81548152906001019060200180831161147d57829003601f168201915b5050505050905090565b6114b66114af611e6c565b8383612472565b5050565b60006114c583610fdd565b90503373ffffffffffffffffffffffffffffffffffffffff168173ffffffffffffffffffffffffffffffffffffffff1614611535576040517f08c379a000000000000000000000000000000000000000000000000000000000815260040161152c9061439e565b60405180910390fd5b60008211611578576040517f08c379a000000000000000000000000000000000000000000000000000000000815260040161156f9061440a565b60405180910390fd5b6000600f600085815260200190815260200160002054036115ce576040517f08c379a00000000000000000000000000000000000000000000000000000000081526004016115c590614476565b60405180910390fd5b6115d88130611aeb565b611617576040517f08c379a000000000000000000000000000000000000000000000000000000000815260040161160e90614508565b60405180910390fd5b81600f600085815260200190815260200160002081905550505050565b61164561163f611e6c565b83611f4b565b611684576040517f08c379a000000000000000000000000000000000000000000000000000000000815260040161167b90613f4e565b60405180910390fd5b611690848484846125de565b50505050565b60006116a183610fdd565b90503373ffffffffffffffffffffffffffffffffffffffff168173ffffffffffffffffffffffffffffffffffffffff1614611711576040517f08c379a00000000000000000000000000000000000000000000000000000000081526004016117089061439e565b60405180910390fd5b60008211611754576040517f08c379a000000000000000000000000000000000000000000000000000000000815260040161174b9061440a565b60405180910390fd5b6000600f600085815260200190815260200160002054146117aa576040517f08c379a00000000000000000000000000000000000000000000000000000000081526004016117a19061459a565b60405180910390fd5b6117b48130611aeb565b6117f3576040517f08c379a00000000000000000000000000000000000000000000000000000000081526004016117ea90614508565b60405180910390fd5b81600f6000858152602001908152602001600020819055506010839080600181540180825580915050600190039060005260206000200160009091909190915055505050565b606061184482611e00565b611883576040517f08c379a000000000000000000000000000000000000000000000000000000000815260040161187a9061462c565b60405180910390fd5b61188b61263a565b6118948361265a565b6040516020016118a59291906146d4565b6040516020818303038152906040529050919050565b6000600f600083815260200190815260200160002054905060006118de83610fdd565b905060008211611923576040517f08c379a000000000000000000000000000000000000000000000000000000000815260040161191a9061474f565b60405180910390fd5b34821115611966576040517f08c379a000000000000000000000000000000000000000000000000000000000815260040161195d906147bb565b60405180910390fd5b3373ffffffffffffffffffffffffffffffffffffffff168173ffffffffffffffffffffffffffffffffffffffff16036119d4576040517f08c379a00000000000000000000000000000000000000000000000000000000081526004016119cb90614827565b60405180910390fd5b6119de8130611aeb565b611a1d576040517f08c379a0000000000000000000000000000000000000000000000000000000008152600401611a1490614508565b60405180910390fd5b8073ffffffffffffffffffffffffffffffffffffffff166108fc349081150290604051600060405180830381858888f19350505050158015611a63573d6000803e3d6000fd5b503073ffffffffffffffffffffffffffffffffffffffff166342842e0e8233866040518463ffffffff1660e01b8152600401611aa193929190614847565b600060405180830381600087803b158015611abb57600080fd5b505af1158015611acf573d6000803e3d6000fd5b50505050611adc83610d58565b505050565b6000600c54905090565b6000600560008473ffffffffffffffffffffffffffffffffffffffff1673ffffffffffffffffffffffffffffffffffffffff16815260200190815260200160002060008373ffffffffffffffffffffffffffffffffffffffff1673ffffffffffffffffffffffffffffffffffffffff16815260200190815260200160002060009054906101000a900460ff16905092915050565b60606000611b8c83611140565b905060008167ffffffffffffffff811115611baa57611ba96137e9565b5b604051908082528060200260200182016040528015611be357816020015b611bd0613116565b815260200190600190039081611bc85790505b50905060005b82811015611c84576000611bfd8683610cb3565b90506000611c0a82611839565b90506000611c17836113f5565b905060405180608001604052808481526020018973ffffffffffffffffffffffffffffffffffffffff16815260200183815260200182815250858581518110611c6357611c62613e1b565b5b60200260200101819052505050508080611c7c90614056565b915050611be9565b508092505050919050565b611c97611e6c565b73ffffffffffffffffffffffffffffffffffffffff16611cb56113cb565b73ffffffffffffffffffffffffffffffffffffffff1614611d0b576040517f08c379a0000000000000000000000000000000000000000000000000000000008152600401611d0290614332565b60405180910390fd5b600073ffffffffffffffffffffffffffffffffffffffff168173ffffffffffffffffffffffffffffffffffffffff1603611d7a576040517f08c379a0000000000000000000000000000000000000000000000000000000008152600401611d71906148f0565b60405180910390fd5b611d83816123ac565b50565b60007f780e9d63000000000000000000000000000000000000000000000000000000007bffffffffffffffffffffffffffffffffffffffffffffffffffffffff1916827bffffffffffffffffffffffffffffffffffffffffffffffffffffffff19161480611df95750611df8826127ba565b5b9050919050565b60008073ffffffffffffffffffffffffffffffffffffffff166002600084815260200190815260200160002060009054906101000a900473ffffffffffffffffffffffffffffffffffffffff1673ffffffffffffffffffffffffffffffffffffffff1614159050919050565b600033905090565b816004600083815260200190815260200160002060006101000a81548173ffffffffffffffffffffffffffffffffffffffff021916908373ffffffffffffffffffffffffffffffffffffffff160217905550808273ffffffffffffffffffffffffffffffffffffffff16611ee783610fdd565b73ffffffffffffffffffffffffffffffffffffffff167f8c5be1e5ebec7d5bd14f71427d1e84f3dd0314c0f7b2291e5b200ac8c7c3b92560405160405180910390a45050565b611f4782826040518060200160405280600081525061289c565b5050565b6000611f5682611e00565b611f95576040517f08c379a0000000000000000000000000000000000000000000000000000000008152600401611f8c90614982565b60405180910390fd5b6000611fa083610fdd565b90508073ffffffffffffffffffffffffffffffffffffffff168473ffffffffffffffffffffffffffffffffffffffff161480611fe25750611fe18185611aeb565b5b8061202057508373ffffffffffffffffffffffffffffffffffffffff16612008846108f7565b73ffffffffffffffffffffffffffffffffffffffff16145b91505092915050565b8273ffffffffffffffffffffffffffffffffffffffff1661204982610fdd565b73ffffffffffffffffffffffffffffffffffffffff161461209f576040517f08c379a000000000000000000000000000000000000000000000000000000000815260040161209690614a14565b60405180910390fd5b600073ffffffffffffffffffffffffffffffffffffffff168273ffffffffffffffffffffffffffffffffffffffff160361210e576040517f08c379a000000000000000000000000000000000000000000000000000000000815260040161210590614aa6565b60405180910390fd5b6121198383836128f7565b612124600082611e74565b6001600360008573ffffffffffffffffffffffffffffffffffffffff1673ffffffffffffffffffffffffffffffffffffffff16815260200190815260200160002060008282546121749190613e79565b925050819055506001600360008473ffffffffffffffffffffffffffffffffffffffff1673ffffffffffffffffffffffffffffffffffffffff16815260200190815260200160002060008282546121cb9190614000565b92505081905550816002600083815260200190815260200160002060006101000a81548173ffffffffffffffffffffffffffffffffffffffff021916908373ffffffffffffffffffffffffffffffffffffffff160217905550808273ffffffffffffffffffffffffffffffffffffffff168473ffffffffffffffffffffffffffffffffffffffff167fddf252ad1be2c89b69c2b068fc378daa952ba7f163c4a11628f55a4df523b3ef60405160405180910390a461228a838383612907565b505050565b600061229a82610fdd565b90506122a8816000846128f7565b6122b3600083611e74565b6001600360008373ffffffffffffffffffffffffffffffffffffffff1673ffffffffffffffffffffffffffffffffffffffff16815260200190815260200160002060008282546123039190613e79565b925050819055506002600083815260200190815260200160002060006101000a81549073ffffffffffffffffffffffffffffffffffffffff021916905581600073ffffffffffffffffffffffffffffffffffffffff168273ffffffffffffffffffffffffffffffffffffffff167fddf252ad1be2c89b69c2b068fc378daa952ba7f163c4a11628f55a4df523b3ef60405160405180910390a46123a881600084612907565b5050565b6000600a60009054906101000a900473ffffffffffffffffffffffffffffffffffffffff16905081600a60006101000a81548173ffffffffffffffffffffffffffffffffffffffff021916908373ffffffffffffffffffffffffffffffffffffffff1602179055508173ffffffffffffffffffffffffffffffffffffffff168173ffffffffffffffffffffffffffffffffffffffff167f8be0079c531659141344cd1fd0a4f28419497f9722a3daafe3b4186f6b6457e060405160405180910390a35050565b8173ffffffffffffffffffffffffffffffffffffffff168373ffffffffffffffffffffffffffffffffffffffff16036124e0576040517f08c379a00000000000000000000000000000000000000000000000000000000081526004016124d790614b12565b60405180910390fd5b80600560008573ffffffffffffffffffffffffffffffffffffffff1673ffffffffffffffffffffffffffffffffffffffff16815260200190815260200160002060008473ffffffffffffffffffffffffffffffffffffffff1673ffffffffffffffffffffffffffffffffffffffff16815260200190815260200160002060006101000a81548160ff0219169083151502179055508173ffffffffffffffffffffffffffffffffffffffff168373ffffffffffffffffffffffffffffffffffffffff167f17307eab39ab6107e8899845ad3d59bd9653f200f220920489ca2b5937696c31836040516125d19190613208565b60405180910390a3505050565b6125e9848484612029565b6125f58484848461290c565b612634576040517f08c379a000000000000000000000000000000000000000000000000000000000815260040161262b90614ba4565b60405180910390fd5b50505050565b6060604051806080016040528060508152602001614db160509139905090565b6060600082036126a1576040518060400160405280600181526020017f300000000000000000000000000000000000000000000000000000000000000081525090506127b5565b600082905060005b600082146126d35780806126bc90614056565b915050600a826126cc9190614bc4565b91506126a9565b60008167ffffffffffffffff8111156126ef576126ee6137e9565b5b6040519080825280601f01601f1916602001820160405280156127215781602001600182028036833780820191505090505b5090505b600085146127ae5760018261273a9190613e79565b9150600a856127499190613dea565b60306127559190614000565b60f81b81838151811061276b5761276a613e1b565b5b60200101907effffffffffffffffffffffffffffffffffffffffffffffffffffffffffffff1916908160001a905350600a856127a79190614bc4565b9450612725565b8093505050505b919050565b60007f80ac58cd000000000000000000000000000000000000000000000000000000007bffffffffffffffffffffffffffffffffffffffffffffffffffffffff1916827bffffffffffffffffffffffffffffffffffffffffffffffffffffffff1916148061288557507f5b5e139f000000000000000000000000000000000000000000000000000000007bffffffffffffffffffffffffffffffffffffffffffffffffffffffff1916827bffffffffffffffffffffffffffffffffffffffffffffffffffffffff1916145b80612895575061289482612a93565b5b9050919050565b6128a68383612afd565b6128b3600084848461290c565b6128f2576040517f08c379a00000000000000000000000000000000000000000000000000000000081526004016128e990614ba4565b60405180910390fd5b505050565b612902838383612cd6565b505050565b505050565b600061292d8473ffffffffffffffffffffffffffffffffffffffff16612de8565b15612a86578373ffffffffffffffffffffffffffffffffffffffff1663150b7a02612956611e6c565b8786866040518563ffffffff1660e01b81526004016129789493929190614c4a565b6020604051808303816000875af19250505080156129b457506040513d601f19601f820116820180604052508101906129b19190614cab565b60015b612a36573d80600081146129e4576040519150601f19603f3d011682016040523d82523d6000602084013e6129e9565b606091505b506000815103612a2e576040517f08c379a0000000000000000000000000000000000000000000000000000000008152600401612a2590614ba4565b60405180910390fd5b805181602001fd5b63150b7a0260e01b7bffffffffffffffffffffffffffffffffffffffffffffffffffffffff1916817bffffffffffffffffffffffffffffffffffffffffffffffffffffffff191614915050612a8b565b600190505b949350505050565b60007f01ffc9a7000000000000000000000000000000000000000000000000000000007bffffffffffffffffffffffffffffffffffffffffffffffffffffffff1916827bffffffffffffffffffffffffffffffffffffffffffffffffffffffff1916149050919050565b600073ffffffffffffffffffffffffffffffffffffffff168273ffffffffffffffffffffffffffffffffffffffff1603612b6c576040517f08c379a0000000000000000000000000000000000000000000000000000000008152600401612b6390614d24565b60405180910390fd5b612b7581611e00565b15612bb5576040517f08c379a0000000000000000000000000000000000000000000000000000000008152600401612bac90614d90565b60405180910390fd5b612bc1600083836128f7565b6001600360008473ffffffffffffffffffffffffffffffffffffffff1673ffffffffffffffffffffffffffffffffffffffff1681526020019081526020016000206000828254612c119190614000565b92505081905550816002600083815260200190815260200160002060006101000a81548173ffffffffffffffffffffffffffffffffffffffff021916908373ffffffffffffffffffffffffffffffffffffffff160217905550808273ffffffffffffffffffffffffffffffffffffffff16600073ffffffffffffffffffffffffffffffffffffffff167fddf252ad1be2c89b69c2b068fc378daa952ba7f163c4a11628f55a4df523b3ef60405160405180910390a4612cd260008383612907565b5050565b612ce1838383612e0b565b600073ffffffffffffffffffffffffffffffffffffffff168373ffffffffffffffffffffffffffffffffffffffff1603612d2357612d1e81612e10565b612d62565b8173ffffffffffffffffffffffffffffffffffffffff168373ffffffffffffffffffffffffffffffffffffffff1614612d6157612d608382612e59565b5b5b600073ffffffffffffffffffffffffffffffffffffffff168273ffffffffffffffffffffffffffffffffffffffff1603612da457612d9f81612fc6565b612de3565b8273ffffffffffffffffffffffffffffffffffffffff168273ffffffffffffffffffffffffffffffffffffffff1614612de257612de18282613097565b5b5b505050565b6000808273ffffffffffffffffffffffffffffffffffffffff163b119050919050565b505050565b6008805490506009600083815260200190815260200160002081905550600881908060018154018082558091505060019003906000526020600020016000909190919091505550565b60006001612e6684611140565b612e709190613e79565b9050600060076000848152602001908152602001600020549050818114612f55576000600660008673ffffffffffffffffffffffffffffffffffffffff1673ffffffffffffffffffffffffffffffffffffffff168152602001908152602001600020600084815260200190815260200160002054905080600660008773ffffffffffffffffffffffffffffffffffffffff1673ffffffffffffffffffffffffffffffffffffffff168152602001908152602001600020600084815260200190815260200160002081905550816007600083815260200190815260200160002081905550505b6007600084815260200190815260200160002060009055600660008573ffffffffffffffffffffffffffffffffffffffff1673ffffffffffffffffffffffffffffffffffffffff16815260200190815260200160002060008381526020019081526020016000206000905550505050565b60006001600880549050612fda9190613e79565b905060006009600084815260200190815260200160002054905060006008838154811061300a57613009613e1b565b5b90600052602060002001549050806008838154811061302c5761302b613e1b565b5b90600052602060002001819055508160096000838152602001908152602001600020819055506009600085815260200190815260200160002060009055600880548061307b5761307a613ead565b5b6001900381819060005260206000200160009055905550505050565b60006130a283611140565b905081600660008573ffffffffffffffffffffffffffffffffffffffff1673ffffffffffffffffffffffffffffffffffffffff168152602001908152602001600020600083815260200190815260200160002081905550806007600084815260200190815260200160002081905550505050565b604051806080016040528060008152602001600073ffffffffffffffffffffffffffffffffffffffff16815260200160608152602001600081525090565b6000604051905090565b600080fd5b600080fd5b60007fffffffff0000000000000000000000000000000000000000000000000000000082169050919050565b61319d81613168565b81146131a857600080fd5b50565b6000813590506131ba81613194565b92915050565b6000602082840312156131d6576131d561315e565b5b60006131e4848285016131ab565b91505092915050565b60008115159050919050565b613202816131ed565b82525050565b600060208201905061321d60008301846131f9565b92915050565b600081519050919050565b600082825260208201905092915050565b60005b8381101561325d578082015181840152602081019050613242565b8381111561326c576000848401525b50505050565b6000601f19601f8301169050919050565b600061328e82613223565b613298818561322e565b93506132a881856020860161323f565b6132b181613272565b840191505092915050565b600060208201905081810360008301526132d68184613283565b905092915050565b6000819050919050565b6132f1816132de565b81146132fc57600080fd5b50565b60008135905061330e816132e8565b92915050565b60006020828403121561332a5761332961315e565b5b6000613338848285016132ff565b91505092915050565b600073ffffffffffffffffffffffffffffffffffffffff82169050919050565b600061336c82613341565b9050919050565b61337c81613361565b82525050565b60006020820190506133976000830184613373565b92915050565b6133a681613361565b81146133b157600080fd5b50565b6000813590506133c38161339d565b92915050565b600080604083850312156133e0576133df61315e565b5b60006133ee858286016133b4565b92505060206133ff858286016132ff565b9150509250929050565b613412816132de565b82525050565b600060208201905061342d6000830184613409565b92915050565b600081519050919050565b600082825260208201905092915050565b6000819050602082019050919050565b613468816132de565b82525050565b600061347a838361345f565b60208301905092915050565b6000602082019050919050565b600061349e82613433565b6134a8818561343e565b93506134b38361344f565b8060005b838110156134e45781516134cb888261346e565b97506134d683613486565b9250506001810190506134b7565b5085935050505092915050565b6000602082019050818103600083015261350b8184613493565b905092915050565b60008060006060848603121561352c5761352b61315e565b5b600061353a868287016133b4565b935050602061354b868287016133b4565b925050604061355c868287016132ff565b9150509250925092565b60006020828403121561357c5761357b61315e565b5b600061358a848285016133b4565b91505092915050565b600081519050919050565b600082825260208201905092915050565b6000819050602082019050919050565b6135c881613361565b82525050565b600082825260208201905092915050565b60006135ea82613223565b6135f481856135ce565b935061360481856020860161323f565b61360d81613272565b840191505092915050565b6000608083016000830151613630600086018261345f565b50602083015161364360208601826135bf565b506040830151848203604086015261365b82826135df565b9150506060830151613670606086018261345f565b508091505092915050565b60006136878383613618565b905092915050565b6000602082019050919050565b60006136a782613593565b6136b1818561359e565b9350836020820285016136c3856135af565b8060005b858110156136ff57848403895281516136e0858261367b565b94506136eb8361368f565b925060208a019950506001810190506136c7565b50829750879550505050505092915050565b6000602082019050818103600083015261372b818461369c565b905092915050565b61373c816131ed565b811461374757600080fd5b50565b60008135905061375981613733565b92915050565b600080604083850312156137765761377561315e565b5b6000613784858286016133b4565b92505060206137958582860161374a565b9150509250929050565b600080604083850312156137b6576137b561315e565b5b60006137c4858286016132ff565b92505060206137d5858286016132ff565b9150509250929050565b600080fd5b600080fd5b7f4e487b7100000000000000000000000000000000000000000000000000000000600052604160045260246000fd5b61382182613272565b810181811067ffffffffffffffff821117156138405761383f6137e9565b5b80604052505050565b6000613853613154565b905061385f8282613818565b919050565b600067ffffffffffffffff82111561387f5761387e6137e9565b5b61388882613272565b9050602081019050919050565b82818337600083830152505050565b60006138b76138b284613864565b613849565b9050828152602081018484840111156138d3576138d26137e4565b5b6138de848285613895565b509392505050565b600082601f8301126138fb576138fa6137df565b5b813561390b8482602086016138a4565b91505092915050565b6000806000806080858703121561392e5761392d61315e565b5b600061393c878288016133b4565b945050602061394d878288016133b4565b935050604061395e878288016132ff565b925050606085013567ffffffffffffffff81111561397f5761397e613163565b5b61398b878288016138e6565b91505092959194509250565b600080604083850312156139ae576139ad61315e565b5b60006139bc858286016133b4565b92505060206139cd858286016133b4565b9150509250929050565b7f4e487b7100000000000000000000000000000000000000000000000000000000600052602260045260246000fd5b60006002820490506001821680613a1e57607f821691505b602082108103613a3157613a306139d7565b5b50919050565b7f4552433732313a20617070726f76656420717565727920666f72206e6f6e657860008201527f697374656e7420746f6b656e0000000000000000000000000000000000000000602082015250565b6000613a93602c8361322e565b9150613a9e82613a37565b604082019050919050565b60006020820190508181036000830152613ac281613a86565b9050919050565b7f4552433732313a20617070726f76616c20746f2063757272656e74206f776e6560008201527f7200000000000000000000000000000000000000000000000000000000000000602082015250565b6000613b2560218361322e565b9150613b3082613ac9565b604082019050919050565b60006020820190508181036000830152613b5481613b18565b9050919050565b7f4552433732313a20617070726f76652063616c6c6572206973206e6f74206f7760008201527f6e6572206e6f7220617070726f76656420666f7220616c6c0000000000000000602082015250565b6000613bb760388361322e565b9150613bc282613b5b565b604082019050919050565b60006020820190508181036000830152613be681613baa565b9050919050565b7f496d61676520697320736f6c64206f75742e0000000000000000000000000000600082015250565b6000613c2360128361322e565b9150613c2e82613bed565b602082019050919050565b60006020820190508181036000830152613c5281613c16565b9050919050565b6000819050919050565b613c74613c6f826132de565b613c59565b82525050565b600081549050919050565b600081905092915050565b60008190508160005260206000209050919050565b613cae816132de565b82525050565b6000613cc08383613ca5565b60208301905092915050565b60008160001c9050919050565b6000819050919050565b6000613cf6613cf183613ccc565b613cd9565b9050919050565b6000613d098254613ce3565b9050919050565b6000600182019050919050565b6000613d2882613c7a565b613d328185613c85565b9350613d3d83613c90565b8060005b83811015613d7557613d5282613cfd565b613d5c8882613cb4565b9750613d6783613d10565b925050600181019050613d41565b5085935050505092915050565b6000613d8e8286613c63565b602082019150613d9e8285613c63565b602082019150613dae8284613d1d565b9150819050949350505050565b7f4e487b7100000000000000000000000000000000000000000000000000000000600052601260045260246000fd5b6000613df5826132de565b9150613e00836132de565b925082613e1057613e0f613dbb565b5b828206905092915050565b7f4e487b7100000000000000000000000000000000000000000000000000000000600052603260045260246000fd5b7f4e487b7100000000000000000000000000000000000000000000000000000000600052601160045260246000fd5b6000613e84826132de565b9150613e8f836132de565b925082821015613ea257613ea1613e4a565b5b828203905092915050565b7f4e487b7100000000000000000000000000000000000000000000000000000000600052603160045260246000fd5b7f4552433732313a207472616e736665722063616c6c6572206973206e6f74206f60008201527f776e6572206e6f7220617070726f766564000000000000000000000000000000602082015250565b6000613f3860318361322e565b9150613f4382613edc565b604082019050919050565b60006020820190508181036000830152613f6781613f2b565b9050919050565b7f455243373231456e756d657261626c653a206f776e657220696e646578206f7560008201527f74206f6620626f756e6473000000000000000000000000000000000000000000602082015250565b6000613fca602b8361322e565b9150613fd582613f6e565b604082019050919050565b60006020820190508181036000830152613ff981613fbd565b9050919050565b600061400b826132de565b9150614016836132de565b9250827fffffffffffffffffffffffffffffffffffffffffffffffffffffffffffffffff0382111561404b5761404a613e4a565b5b828201905092915050565b6000614061826132de565b91507fffffffffffffffffffffffffffffffffffffffffffffffffffffffffffffffff820361409357614092613e4a565b5b600182019050919050565b7f6d73672e73656e646572206973206e6f7420746865206f776e6572206f66207460008201527f686520746f6b656e000000000000000000000000000000000000000000000000602082015250565b60006140fa60288361322e565b91506141058261409e565b604082019050919050565b60006020820190508181036000830152614129816140ed565b9050919050565b7f455243373231456e756d657261626c653a20676c6f62616c20696e646578206f60008201527f7574206f6620626f756e64730000000000000000000000000000000000000000602082015250565b600061418c602c8361322e565b915061419782614130565b604082019050919050565b600060208201905081810360008301526141bb8161417f565b9050919050565b7f4552433732313a206f776e657220717565727920666f72206e6f6e657869737460008201527f656e7420746f6b656e0000000000000000000000000000000000000000000000602082015250565b600061421e60298361322e565b9150614229826141c2565b604082019050919050565b6000602082019050818103600083015261424d81614211565b9050919050565b7f4552433732313a2062616c616e636520717565727920666f7220746865207a6560008201527f726f206164647265737300000000000000000000000000000000000000000000602082015250565b60006142b0602a8361322e565b91506142bb82614254565b604082019050919050565b600060208201905081810360008301526142df816142a3565b9050919050565b7f4f776e61626c653a2063616c6c6572206973206e6f7420746865206f776e6572600082015250565b600061431c60208361322e565b9150614327826142e6565b602082019050919050565b6000602082019050818103600083015261434b8161430f565b9050919050565b7f43616c6c6572206973206e6f74206e667420746f6b656e206f776e65722e0000600082015250565b6000614388601e8361322e565b915061439382614352565b602082019050919050565b600060208201905081810360008301526143b78161437b565b9050919050565b7f5072696365206973207a65726f206f72206c6f7765722e000000000000000000600082015250565b60006143f460178361322e565b91506143ff826143be565b602082019050919050565b60006020820190508181036000830152614423816143e7565b9050919050565b7f54686973206e667420746f6b656e206973206e6f74206f6e2073616c652e0000600082015250565b6000614460601e8361322e565b915061446b8261442a565b602082019050919050565b6000602082019050818103600083015261448f81614453565b9050919050565b7f6e667420746f6b656e206f776e657220646964206e6f7420617070726f76652060008201527f746f6b656e2e0000000000000000000000000000000000000000000000000000602082015250565b60006144f260268361322e565b91506144fd82614496565b604082019050919050565b60006020820190508181036000830152614521816144e5565b9050919050565b7f54686973206e667420746f6b656e20697320616c7265616479206f6e2073616c60008201527f652e000000000000000000000000000000000000000000000000000000000000602082015250565b600061458460228361322e565b915061458f82614528565b604082019050919050565b600060208201905081810360008301526145b381614577565b9050919050565b7f4552433732314d657461646174613a2055524920717565727920666f72206e6f60008201527f6e6578697374656e7420746f6b656e0000000000000000000000000000000000602082015250565b6000614616602f8361322e565b9150614621826145ba565b604082019050919050565b6000602082019050818103600083015261464581614609565b9050919050565b600081905092915050565b600061466282613223565b61466c818561464c565b935061467c81856020860161323f565b80840191505092915050565b7f2f00000000000000000000000000000000000000000000000000000000000000600082015250565b60006146be60018361464c565b91506146c982614688565b600182019050919050565b60006146e08285614657565b91506146eb826146b1565b91506146f78284614657565b91508190509392505050565b7f6e667420746f6b656e206e6f742073616c652e00000000000000000000000000600082015250565b600061473960138361322e565b915061474482614703565b602082019050919050565b600060208201905081810360008301526147688161472c565b9050919050565b7f63616c6c65722073656e74206c6f776572207468616e2070726963652e000000600082015250565b60006147a5601d8361322e565b91506147b08261476f565b602082019050919050565b600060208201905081810360008301526147d481614798565b9050919050565b7f63616c6c6572206973206e667420746f6b656e206f776e65722e000000000000600082015250565b6000614811601a8361322e565b915061481c826147db565b602082019050919050565b6000602082019050818103600083015261484081614804565b9050919050565b600060608201905061485c6000830186613373565b6148696020830185613373565b6148766040830184613409565b949350505050565b7f4f776e61626c653a206e6577206f776e657220697320746865207a65726f206160008201527f6464726573730000000000000000000000000000000000000000000000000000602082015250565b60006148da60268361322e565b91506148e58261487e565b604082019050919050565b60006020820190508181036000830152614909816148cd565b9050919050565b7f4552433732313a206f70657261746f7220717565727920666f72206e6f6e657860008201527f697374656e7420746f6b656e0000000000000000000000000000000000000000602082015250565b600061496c602c8361322e565b915061497782614910565b604082019050919050565b6000602082019050818103600083015261499b8161495f565b9050919050565b7f4552433732313a207472616e736665722066726f6d20696e636f72726563742060008201527f6f776e6572000000000000000000000000000000000000000000000000000000602082015250565b60006149fe60258361322e565b9150614a09826149a2565b604082019050919050565b60006020820190508181036000830152614a2d816149f1565b9050919050565b7f4552433732313a207472616e7366657220746f20746865207a65726f2061646460008201527f7265737300000000000000000000000000000000000000000000000000000000602082015250565b6000614a9060248361322e565b9150614a9b82614a34565b604082019050919050565b60006020820190508181036000830152614abf81614a83565b9050919050565b7f4552433732313a20617070726f766520746f2063616c6c657200000000000000600082015250565b6000614afc60198361322e565b9150614b0782614ac6565b602082019050919050565b60006020820190508181036000830152614b2b81614aef565b9050919050565b7f4552433732313a207472616e7366657220746f206e6f6e20455243373231526560008201527f63656976657220696d706c656d656e7465720000000000000000000000000000602082015250565b6000614b8e60328361322e565b9150614b9982614b32565b604082019050919050565b60006020820190508181036000830152614bbd81614b81565b9050919050565b6000614bcf826132de565b9150614bda836132de565b925082614bea57614be9613dbb565b5b828204905092915050565b600081519050919050565b600082825260208201905092915050565b6000614c1c82614bf5565b614c268185614c00565b9350614c3681856020860161323f565b614c3f81613272565b840191505092915050565b6000608082019050614c5f6000830187613373565b614c6c6020830186613373565b614c796040830185613409565b8181036060830152614c8b8184614c11565b905095945050505050565b600081519050614ca581613194565b92915050565b600060208284031215614cc157614cc061315e565b5b6000614ccf84828501614c96565b91505092915050565b7f4552433732313a206d696e7420746f20746865207a65726f2061646472657373600082015250565b6000614d0e60208361322e565b9150614d1982614cd8565b602082019050919050565b60006020820190508181036000830152614d3d81614d01565b9050919050565b7f4552433732313a20746f6b656e20616c7265616479206d696e74656400000000600082015250565b6000614d7a601c8361322e565b9150614d8582614d44565b602082019050919050565b60006020820190508181036000830152614da981614d6d565b905091905056fe68747470733a2f2f676174657761792e70696e6174612e636c6f75642f697066732f516d5450666e3136435059467431674b6d6875534a547844717a776b367845644e395a4e4b33666e74486870766aa2646970667358221220ccd2ab83aac17cdf788e3cf9ad7bf0018d4ec4084313dc1f52460bcce5faa1b864736f6c634300080e0033",
  "immutableReferences": {},
  "source": "// SPDX-License-Identifier: MIT\r\npragma solidity ^0.8.7;\r\n\r\nimport \"../client/node_modules/@openzeppelin/contracts/token/ERC721/ERC721.sol\";\r\nimport \"../client/node_modules/@openzeppelin/contracts/access/Ownable.sol\";\r\nimport \"../client/node_modules/@openzeppelin/contracts/token/ERC721/extensions/ERC721Enumerable.sol\";\r\nimport \"../client/node_modules/@openzeppelin/contracts/utils/Counters.sol\";\r\n\r\ncontract Jacket is ERC721, ERC721Enumerable, Ownable {\r\n    using Counters for Counters.Counter;\r\n    Counters.Counter private _tokenIds;\r\n    using Strings for uint256;\r\n    uint256 mintedId;\r\n\r\n    string public baseURI;\r\n    uint256[] public numArray;\r\n\r\n    constructor() ERC721(\"Jacket\", \"JACKET\") {\r\n        for (uint256 i = 1; i <= 100; i++) {\r\n            numArray.push(i);\r\n        }\r\n    }\r\n\r\n    function mint() public {\r\n        require(numArray.length > 0, \"Image is sold out.\");\r\n        uint256 random = uint256(\r\n            keccak256(\r\n                abi.encodePacked(block.difficulty, block.timestamp, numArray)\r\n            )\r\n        ) % numArray.length;\r\n        uint256 id = numArray[random];\r\n        _safeMint(msg.sender, numArray[random]);\r\n        numArray[random] = numArray[numArray.length - 1];\r\n        numArray.pop();\r\n        mintedId = id;\r\n    }\r\n\r\n    function getmintedId() public view returns (uint256) {\r\n    return mintedId;\r\n    }\r\n\r\n\r\n    function _baseURI() internal view virtual override returns (string memory) {\r\n        return\r\n            \"https://gateway.pinata.cloud/ipfs/QmTPfn16CPYFt1gKmhuSJTxDqzwk6xEdN9ZNK3fntHhpvj\";\r\n    }\r\n\r\n    function tokenURI(uint256 tokenId)\r\n        public\r\n        view\r\n        virtual\r\n        override\r\n        returns (string memory)\r\n    {\r\n        require(\r\n            _exists(tokenId),\r\n            \"ERC721Metadata: URI query for nonexistent token\"\r\n        );\r\n        return string(abi.encodePacked(_baseURI(), \"/\", tokenId.toString()));\r\n    }\r\n\r\n    function _beforeTokenTransfer(\r\n        address from,\r\n        address to,\r\n        uint256 tokenId\r\n    ) internal override(ERC721, ERC721Enumerable) {\r\n        super._beforeTokenTransfer(from, to, tokenId);\r\n    }\r\n\r\n    function supportsInterface(bytes4 interfaceId)\r\n        public\r\n        view\r\n        override(ERC721, ERC721Enumerable)\r\n        returns (bool)\r\n    {\r\n        return super.supportsInterface(interfaceId);\r\n    }\r\n\r\n    struct NftTokenData {\r\n        uint256 nftTokenId;\r\n        address nftTokenOwner;\r\n        string nftTokenURI;\r\n        uint256 price;\r\n    }\r\n\r\n    function getNftTokens(address _nftTokenOwner)\r\n        public\r\n        view\r\n        returns (NftTokenData[] memory)\r\n    {\r\n        uint256 balanceLength = balanceOf(_nftTokenOwner);\r\n        //require(balanceLength != 0, \"Owner did not have token.\");\r\n\r\n        NftTokenData[] memory nftTokenData = new NftTokenData[](balanceLength);\r\n\r\n        for (uint256 i = 0; i < balanceLength; i++) {\r\n            uint256 nftTokenId = tokenOfOwnerByIndex(_nftTokenOwner, i);\r\n            string memory nftTokenURI = tokenURI(nftTokenId);\r\n            uint256 tokenPrice = getNftTokenPrice(nftTokenId);\r\n            nftTokenData[i] = NftTokenData(\r\n                nftTokenId,\r\n                _nftTokenOwner,\r\n                nftTokenURI,\r\n                tokenPrice\r\n            );\r\n        }\r\n\r\n        return nftTokenData;\r\n    }\r\n\r\n    // \r\n    mapping(uint256 => uint256) public nftTokenPrices;\r\n    uint256[] public onSaleNftTokenArray;\r\n\r\n    function setSaleNftToken(uint256 _tokenId, uint256 _price) public {\r\n        address nftTokenOwner = ownerOf(_tokenId);\r\n\r\n        require(nftTokenOwner == msg.sender, \"Caller is not nft token owner.\");\r\n        require(_price > 0, \"Price is zero or lower.\");\r\n        require(\r\n            nftTokenPrices[_tokenId] == 0,\r\n            \"This nft token is already on sale.\"\r\n        );\r\n        require(\r\n            isApprovedForAll(nftTokenOwner, address(this)),\r\n            \"nft token owner did not approve token.\"\r\n        );\r\n\r\n        nftTokenPrices[_tokenId] = _price;\r\n        onSaleNftTokenArray.push(_tokenId); // nft list\r\n    }\r\n\r\n    // \r\n    function getSaleNftTokens() public view returns (NftTokenData[] memory) {\r\n        uint256[] memory onSaleNftToken = getSaleNftToken();\r\n        NftTokenData[] memory onSaleNftTokens = new NftTokenData[](\r\n            onSaleNftToken.length\r\n        );\r\n\r\n        for (uint256 i = 0; i < onSaleNftToken.length; i++) {\r\n            uint256 tokenId = onSaleNftToken[i];\r\n            address tokenOwner = ownerOf(tokenId);\r\n            uint256 tokenPrice = getNftTokenPrice(tokenId);\r\n            onSaleNftTokens[i] = NftTokenData(\r\n                tokenId,\r\n                tokenOwner,\r\n                tokenURI(tokenId),\r\n                tokenPrice\r\n            );\r\n        }\r\n\r\n        return onSaleNftTokens;\r\n    }\r\n\r\n    function getSaleNftToken() public view returns (uint256[] memory) {\r\n        return onSaleNftTokenArray;\r\n    }\r\n\r\n    function getNftTokenPrice(uint256 _tokenId) public view returns (uint256) {\r\n        return nftTokenPrices[_tokenId];\r\n    }\r\n\r\n    //\r\n    function buyNftToken(uint256 _tokenId) public payable {\r\n        uint256 price = nftTokenPrices[_tokenId];\r\n        address nftTokenOwner = ownerOf(_tokenId);\r\n\r\n        require(price > 0, \"nft token not sale.\");\r\n        require(price <= msg.value, \"caller sent lower than price.\");\r\n        require(nftTokenOwner != msg.sender, \"caller is nft token owner.\");\r\n        require(\r\n            isApprovedForAll(nftTokenOwner, address(this)),\r\n            \"nft token owner did not approve token.\"\r\n        );\r\n\r\n        payable(nftTokenOwner).transfer(msg.value);\r\n\r\n        IERC721(address(this)).safeTransferFrom(\r\n            nftTokenOwner,\r\n            msg.sender,\r\n            _tokenId\r\n        );\r\n\r\n        //  \r\n        removeToken(_tokenId);\r\n    }\r\n\r\n    function burn(uint256 _tokenId) public {\r\n        address addr_owner = ownerOf(_tokenId);\r\n        require(\r\n            addr_owner == msg.sender,\r\n            \"msg.sender is not the owner of the token\"\r\n        );\r\n        removeToken(_tokenId);\r\n        _burn(_tokenId);\r\n        numArray.push(_tokenId);\r\n    }\r\n\r\n    function removeToken(uint256 _tokenId) public {\r\n        nftTokenPrices[_tokenId] = 0;\r\n\r\n        for (uint256 i = 0; i < onSaleNftTokenArray.length; i++) {\r\n            if (nftTokenPrices[onSaleNftTokenArray[i]] == 0) {\r\n                for (uint256 j = i; j < onSaleNftTokenArray.length - 1; j++) {\r\n                    onSaleNftTokenArray[j] = onSaleNftTokenArray[j + 1];\r\n                }\r\n                onSaleNftTokenArray.pop();\r\n            }\r\n        }\r\n    }\r\n\r\n    function changePrice(uint256 _tokenId, uint256 _price) public {\r\n        address nftTokenOwner = ownerOf(_tokenId);\r\n        require(nftTokenOwner == msg.sender, \"Caller is not nft token owner.\");\r\n        require(_price > 0, \"Price is zero or lower.\");\r\n        require(\r\n            nftTokenPrices[_tokenId] != 0,\r\n            \"This nft token is not on sale.\"\r\n        );\r\n        require(\r\n            isApprovedForAll(nftTokenOwner, address(this)),\r\n            \"nft token owner did not approve token.\"\r\n        );\r\n\r\n        nftTokenPrices[_tokenId] = _price;\r\n    }\r\n}\r\n",
  "sourcePath": "/Users/seokkyo/Documents/projects/prototype/contracts/Jacket.sol",
  "compiler": {
    "name": "solc",
    "version": "0.8.14+commit.80d49f37.Emscripten.clang"
  },
  "schemaVersion": "3.4.6",
  "updatedAt": "2022-06-08T09:00:43.768Z",
  "networkType": "ethereum",
  "devdoc": {
    "kind": "dev",
    "methods": {
      "approve(address,uint256)": {
        "details": "See {IERC721-approve}."
      },
      "balanceOf(address)": {
        "details": "See {IERC721-balanceOf}."
      },
      "getApproved(uint256)": {
        "details": "See {IERC721-getApproved}."
      },
      "isApprovedForAll(address,address)": {
        "details": "See {IERC721-isApprovedForAll}."
      },
      "name()": {
        "details": "See {IERC721Metadata-name}."
      },
      "owner()": {
        "details": "Returns the address of the current owner."
      },
      "ownerOf(uint256)": {
        "details": "See {IERC721-ownerOf}."
      },
      "renounceOwnership()": {
        "details": "Leaves the contract without owner. It will not be possible to call `onlyOwner` functions anymore. Can only be called by the current owner. NOTE: Renouncing ownership will leave the contract without an owner, thereby removing any functionality that is only available to the owner."
      },
      "safeTransferFrom(address,address,uint256)": {
        "details": "See {IERC721-safeTransferFrom}."
      },
      "safeTransferFrom(address,address,uint256,bytes)": {
        "details": "See {IERC721-safeTransferFrom}."
      },
      "setApprovalForAll(address,bool)": {
        "details": "See {IERC721-setApprovalForAll}."
      },
      "symbol()": {
        "details": "See {IERC721Metadata-symbol}."
      },
      "tokenByIndex(uint256)": {
        "details": "See {IERC721Enumerable-tokenByIndex}."
      },
      "tokenOfOwnerByIndex(address,uint256)": {
        "details": "See {IERC721Enumerable-tokenOfOwnerByIndex}."
      },
      "tokenURI(uint256)": {
        "details": "See {IERC721Metadata-tokenURI}."
      },
      "totalSupply()": {
        "details": "See {IERC721Enumerable-totalSupply}."
      },
      "transferFrom(address,address,uint256)": {
        "details": "See {IERC721-transferFrom}."
      },
      "transferOwnership(address)": {
        "details": "Transfers ownership of the contract to a new account (`newOwner`). Can only be called by the current owner."
      }
    },
    "version": 1
  },
  "userdoc": {
    "kind": "user",
    "methods": {},
    "version": 1
  }
}