{
  "contractName": "Jacket",
  "abi": [
    {
      "inputs": [],
      "stateMutability": "nonpayable",
      "type": "constructor"
    },
    {
      "anonymous": false,
      "inputs": [
        {
          "indexed": true,
          "internalType": "address",
          "name": "owner",
          "type": "address"
        },
        {
          "indexed": true,
          "internalType": "address",
          "name": "approved",
          "type": "address"
        },
        {
          "indexed": true,
          "internalType": "uint256",
          "name": "tokenId",
          "type": "uint256"
        }
      ],
      "name": "Approval",
      "type": "event"
    },
    {
      "anonymous": false,
      "inputs": [
        {
          "indexed": true,
          "internalType": "address",
          "name": "owner",
          "type": "address"
        },
        {
          "indexed": true,
          "internalType": "address",
          "name": "operator",
          "type": "address"
        },
        {
          "indexed": false,
          "internalType": "bool",
          "name": "approved",
          "type": "bool"
        }
      ],
      "name": "ApprovalForAll",
      "type": "event"
    },
    {
      "anonymous": false,
      "inputs": [
        {
          "indexed": true,
          "internalType": "address",
          "name": "previousOwner",
          "type": "address"
        },
        {
          "indexed": true,
          "internalType": "address",
          "name": "newOwner",
          "type": "address"
        }
      ],
      "name": "OwnershipTransferred",
      "type": "event"
    },
    {
      "anonymous": false,
      "inputs": [
        {
          "indexed": true,
          "internalType": "address",
          "name": "from",
          "type": "address"
        },
        {
          "indexed": true,
          "internalType": "address",
          "name": "to",
          "type": "address"
        },
        {
          "indexed": true,
          "internalType": "uint256",
          "name": "tokenId",
          "type": "uint256"
        }
      ],
      "name": "Transfer",
      "type": "event"
    },
    {
      "inputs": [
        {
          "internalType": "address",
          "name": "to",
          "type": "address"
        },
        {
          "internalType": "uint256",
          "name": "tokenId",
          "type": "uint256"
        }
      ],
      "name": "approve",
      "outputs": [],
      "stateMutability": "nonpayable",
      "type": "function"
    },
    {
      "inputs": [
        {
          "internalType": "address",
          "name": "owner",
          "type": "address"
        }
      ],
      "name": "balanceOf",
      "outputs": [
        {
          "internalType": "uint256",
          "name": "",
          "type": "uint256"
        }
      ],
      "stateMutability": "view",
      "type": "function",
      "constant": true
    },
    {
      "inputs": [],
      "name": "baseURI",
      "outputs": [
        {
          "internalType": "string",
          "name": "",
          "type": "string"
        }
      ],
      "stateMutability": "view",
      "type": "function",
      "constant": true
    },
    {
      "inputs": [
        {
          "internalType": "uint256",
          "name": "tokenId",
          "type": "uint256"
        }
      ],
      "name": "getApproved",
      "outputs": [
        {
          "internalType": "address",
          "name": "",
          "type": "address"
        }
      ],
      "stateMutability": "view",
      "type": "function",
      "constant": true
    },
    {
      "inputs": [
        {
          "internalType": "address",
          "name": "owner",
          "type": "address"
        },
        {
          "internalType": "address",
          "name": "operator",
          "type": "address"
        }
      ],
      "name": "isApprovedForAll",
      "outputs": [
        {
          "internalType": "bool",
          "name": "",
          "type": "bool"
        }
      ],
      "stateMutability": "view",
      "type": "function",
      "constant": true
    },
    {
      "inputs": [],
      "name": "name",
      "outputs": [
        {
          "internalType": "string",
          "name": "",
          "type": "string"
        }
      ],
      "stateMutability": "view",
      "type": "function",
      "constant": true
    },
    {
      "inputs": [
        {
          "internalType": "uint256",
          "name": "",
          "type": "uint256"
        }
      ],
      "name": "nftTokenPrices",
      "outputs": [
        {
          "internalType": "uint256",
          "name": "",
          "type": "uint256"
        }
      ],
      "stateMutability": "view",
      "type": "function",
      "constant": true
    },
    {
      "inputs": [
        {
          "internalType": "uint256",
          "name": "",
          "type": "uint256"
        }
      ],
      "name": "onSaleNftTokenArray",
      "outputs": [
        {
          "internalType": "uint256",
          "name": "",
          "type": "uint256"
        }
      ],
      "stateMutability": "view",
      "type": "function",
      "constant": true
    },
    {
      "inputs": [],
      "name": "owner",
      "outputs": [
        {
          "internalType": "address",
          "name": "",
          "type": "address"
        }
      ],
      "stateMutability": "view",
      "type": "function",
      "constant": true
    },
    {
      "inputs": [
        {
          "internalType": "uint256",
          "name": "tokenId",
          "type": "uint256"
        }
      ],
      "name": "ownerOf",
      "outputs": [
        {
          "internalType": "address",
          "name": "",
          "type": "address"
        }
      ],
      "stateMutability": "view",
      "type": "function",
      "constant": true
    },
    {
      "inputs": [],
      "name": "renounceOwnership",
      "outputs": [],
      "stateMutability": "nonpayable",
      "type": "function"
    },
    {
      "inputs": [
        {
          "internalType": "address",
          "name": "from",
          "type": "address"
        },
        {
          "internalType": "address",
          "name": "to",
          "type": "address"
        },
        {
          "internalType": "uint256",
          "name": "tokenId",
          "type": "uint256"
        }
      ],
      "name": "safeTransferFrom",
      "outputs": [],
      "stateMutability": "nonpayable",
      "type": "function"
    },
    {
      "inputs": [
        {
          "internalType": "address",
          "name": "from",
          "type": "address"
        },
        {
          "internalType": "address",
          "name": "to",
          "type": "address"
        },
        {
          "internalType": "uint256",
          "name": "tokenId",
          "type": "uint256"
        },
        {
          "internalType": "bytes",
          "name": "_data",
          "type": "bytes"
        }
      ],
      "name": "safeTransferFrom",
      "outputs": [],
      "stateMutability": "nonpayable",
      "type": "function"
    },
    {
      "inputs": [
        {
          "internalType": "address",
          "name": "operator",
          "type": "address"
        },
        {
          "internalType": "bool",
          "name": "approved",
          "type": "bool"
        }
      ],
      "name": "setApprovalForAll",
      "outputs": [],
      "stateMutability": "nonpayable",
      "type": "function"
    },
    {
      "inputs": [],
      "name": "symbol",
      "outputs": [
        {
          "internalType": "string",
          "name": "",
          "type": "string"
        }
      ],
      "stateMutability": "view",
      "type": "function",
      "constant": true
    },
    {
      "inputs": [
        {
          "internalType": "uint256",
          "name": "index",
          "type": "uint256"
        }
      ],
      "name": "tokenByIndex",
      "outputs": [
        {
          "internalType": "uint256",
          "name": "",
          "type": "uint256"
        }
      ],
      "stateMutability": "view",
      "type": "function",
      "constant": true
    },
    {
      "inputs": [
        {
          "internalType": "address",
          "name": "owner",
          "type": "address"
        },
        {
          "internalType": "uint256",
          "name": "index",
          "type": "uint256"
        }
      ],
      "name": "tokenOfOwnerByIndex",
      "outputs": [
        {
          "internalType": "uint256",
          "name": "",
          "type": "uint256"
        }
      ],
      "stateMutability": "view",
      "type": "function",
      "constant": true
    },
    {
      "inputs": [],
      "name": "totalSupply",
      "outputs": [
        {
          "internalType": "uint256",
          "name": "",
          "type": "uint256"
        }
      ],
      "stateMutability": "view",
      "type": "function",
      "constant": true
    },
    {
      "inputs": [
        {
          "internalType": "address",
          "name": "from",
          "type": "address"
        },
        {
          "internalType": "address",
          "name": "to",
          "type": "address"
        },
        {
          "internalType": "uint256",
          "name": "tokenId",
          "type": "uint256"
        }
      ],
      "name": "transferFrom",
      "outputs": [],
      "stateMutability": "nonpayable",
      "type": "function"
    },
    {
      "inputs": [
        {
          "internalType": "address",
          "name": "newOwner",
          "type": "address"
        }
      ],
      "name": "transferOwnership",
      "outputs": [],
      "stateMutability": "nonpayable",
      "type": "function"
    },
    {
      "inputs": [],
      "name": "mint",
      "outputs": [
        {
          "internalType": "uint256",
          "name": "",
          "type": "uint256"
        }
      ],
      "stateMutability": "nonpayable",
      "type": "function"
    },
    {
      "inputs": [
        {
          "internalType": "uint256",
          "name": "tokenId",
          "type": "uint256"
        }
      ],
      "name": "tokenURI",
      "outputs": [
        {
          "internalType": "string",
          "name": "",
          "type": "string"
        }
      ],
      "stateMutability": "view",
      "type": "function",
      "constant": true
    },
    {
      "inputs": [
        {
          "internalType": "bytes4",
          "name": "interfaceId",
          "type": "bytes4"
        }
      ],
      "name": "supportsInterface",
      "outputs": [
        {
          "internalType": "bool",
          "name": "",
          "type": "bool"
        }
      ],
      "stateMutability": "view",
      "type": "function",
      "constant": true
    },
    {
      "inputs": [
        {
          "internalType": "address",
          "name": "_nftTokenOwner",
          "type": "address"
        }
      ],
      "name": "getNftTokens",
      "outputs": [
        {
          "components": [
            {
              "internalType": "uint256",
              "name": "nftTokenId",
              "type": "uint256"
            },
            {
              "internalType": "address",
              "name": "nftTokenOwner",
              "type": "address"
            },
            {
              "internalType": "string",
              "name": "nftTokenURI",
              "type": "string"
            },
            {
              "internalType": "uint256",
              "name": "price",
              "type": "uint256"
            }
          ],
          "internalType": "struct Jacket.NftTokenData[]",
          "name": "",
          "type": "tuple[]"
        }
      ],
      "stateMutability": "view",
      "type": "function",
      "constant": true
    },
    {
      "inputs": [
        {
          "internalType": "uint256",
          "name": "_tokenId",
          "type": "uint256"
        },
        {
          "internalType": "uint256",
          "name": "_price",
          "type": "uint256"
        }
      ],
      "name": "setSaleNftToken",
      "outputs": [],
      "stateMutability": "nonpayable",
      "type": "function"
    },
    {
      "inputs": [],
      "name": "getSaleNftTokens",
      "outputs": [
        {
          "components": [
            {
              "internalType": "uint256",
              "name": "nftTokenId",
              "type": "uint256"
            },
            {
              "internalType": "address",
              "name": "nftTokenOwner",
              "type": "address"
            },
            {
              "internalType": "string",
              "name": "nftTokenURI",
              "type": "string"
            },
            {
              "internalType": "uint256",
              "name": "price",
              "type": "uint256"
            }
          ],
          "internalType": "struct Jacket.NftTokenData[]",
          "name": "",
          "type": "tuple[]"
        }
      ],
      "stateMutability": "view",
      "type": "function",
      "constant": true
    },
    {
      "inputs": [],
      "name": "getSaleNftToken",
      "outputs": [
        {
          "internalType": "uint256[]",
          "name": "",
          "type": "uint256[]"
        }
      ],
      "stateMutability": "view",
      "type": "function",
      "constant": true
    },
    {
      "inputs": [
        {
          "internalType": "uint256",
          "name": "_tokenId",
          "type": "uint256"
        }
      ],
      "name": "getNftTokenPrice",
      "outputs": [
        {
          "internalType": "uint256",
          "name": "",
          "type": "uint256"
        }
      ],
      "stateMutability": "view",
      "type": "function",
      "constant": true
    },
    {
      "inputs": [
        {
          "internalType": "uint256",
          "name": "_tokenId",
          "type": "uint256"
        }
      ],
      "name": "buyNftToken",
      "outputs": [],
      "stateMutability": "payable",
      "type": "function",
      "payable": true
    },
    {
      "inputs": [
        {
          "internalType": "uint256",
          "name": "_tokenId",
          "type": "uint256"
        }
      ],
      "name": "burn",
      "outputs": [],
      "stateMutability": "nonpayable",
      "type": "function"
    },
    {
      "inputs": [
        {
          "internalType": "uint256",
          "name": "_tokenId",
          "type": "uint256"
        }
      ],
      "name": "removeToken",
      "outputs": [],
      "stateMutability": "nonpayable",
      "type": "function"
    },
    {
      "inputs": [
        {
          "internalType": "uint256",
          "name": "_tokenId",
          "type": "uint256"
        },
        {
          "internalType": "uint256",
          "name": "_price",
          "type": "uint256"
        }
      ],
      "name": "changePrice",
      "outputs": [],
      "stateMutability": "nonpayable",
      "type": "function"
    }
  ],
  "bytecode": "0x60806040523480156200001157600080fd5b506040518060400160405280600681526020017f4a61636b657400000000000000000000000000000000000000000000000000008152506040518060400160405280600681526020017f4a41434b45540000000000000000000000000000000000000000000000000000815250816000908051906020019062000096929190620001a6565b508060019080519060200190620000af929190620001a6565b505050620000d2620000c6620000d860201b60201c565b620000e060201b60201c565b620002ba565b600033905090565b6000600a60009054906101000a900473ffffffffffffffffffffffffffffffffffffffff16905081600a60006101000a81548173ffffffffffffffffffffffffffffffffffffffff021916908373ffffffffffffffffffffffffffffffffffffffff1602179055508173ffffffffffffffffffffffffffffffffffffffff168173ffffffffffffffffffffffffffffffffffffffff167f8be0079c531659141344cd1fd0a4f28419497f9722a3daafe3b4186f6b6457e060405160405180910390a35050565b828054620001b49062000285565b90600052602060002090601f016020900481019282620001d8576000855562000224565b82601f10620001f357805160ff191683800117855562000224565b8280016001018555821562000224579182015b828111156200022357825182559160200191906001019062000206565b5b50905062000233919062000237565b5090565b5b808211156200025257600081600090555060010162000238565b5090565b7f4e487b7100000000000000000000000000000000000000000000000000000000600052602260045260246000fd5b600060028204905060018216806200029e57607f821691505b602082108103620002b457620002b362000256565b5b50919050565b61489e80620002ca6000396000f3fe6080604052600436106101e35760003560e01c806370a0823111610102578063b3de019c11610095578063da8cc6e811610064578063da8cc6e81461072a578063e985e9c514610746578063f257f54814610783578063f2fde38b146107c0576101e3565b8063b3de019c14610672578063b88d4fde1461069b578063b8e297f4146106c4578063c87b56dd146106ed576101e3565b80638da5cb5b116100d15780638da5cb5b146105b6578063912c45cf146105e157806395d89b411461061e578063a22cb46514610649576101e3565b806370a08231146104fa578063715018a61461053757806373e778c51461054e57806374a6b54f1461058b576101e3565b80632f745c591161017a5780634ae23e64116101495780634ae23e64146104185780634f6ccce7146104555780636352211e146104925780636c0360eb146104cf576101e3565b80632f745c591461036057806336c5d7241461039d57806342842e0e146103c657806342966c68146103ef576101e3565b80631249c58b116101b65780631249c58b146102b657806318160ddd146102e15780631efceb901461030c57806323b872dd14610337576101e3565b806301ffc9a7146101e857806306fdde0314610225578063081812fc14610250578063095ea7b31461028d575b600080fd5b3480156101f457600080fd5b5061020f600480360381019061020a9190612e62565b6107e9565b60405161021c9190612eaa565b60405180910390f35b34801561023157600080fd5b5061023a6107fb565b6040516102479190612f5e565b60405180910390f35b34801561025c57600080fd5b5061027760048036038101906102729190612fb6565b61088d565b6040516102849190613024565b60405180910390f35b34801561029957600080fd5b506102b460048036038101906102af919061306b565b610912565b005b3480156102c257600080fd5b506102cb610a29565b6040516102d891906130ba565b60405180910390f35b3480156102ed57600080fd5b506102f6610a54565b60405161030391906130ba565b60405180910390f35b34801561031857600080fd5b50610321610a61565b60405161032e9190613193565b60405180910390f35b34801561034357600080fd5b5061035e600480360381019061035991906131b5565b610ab9565b005b34801561036c57600080fd5b506103876004803603810190610382919061306b565b610b19565b60405161039491906130ba565b60405180910390f35b3480156103a957600080fd5b506103c460048036038101906103bf9190612fb6565b610bbe565b005b3480156103d257600080fd5b506103ed60048036038101906103e891906131b5565b610cb2565b005b3480156103fb57600080fd5b5061041660048036038101906104119190612fb6565b610cd2565b005b34801561042457600080fd5b5061043f600480360381019061043a9190612fb6565b610d63565b60405161044c91906130ba565b60405180910390f35b34801561046157600080fd5b5061047c60048036038101906104779190612fb6565b610d7b565b60405161048991906130ba565b60405180910390f35b34801561049e57600080fd5b506104b960048036038101906104b49190612fb6565b610dec565b6040516104c69190613024565b60405180910390f35b3480156104db57600080fd5b506104e4610e9d565b6040516104f19190612f5e565b60405180910390f35b34801561050657600080fd5b50610521600480360381019061051c9190613208565b610f2b565b60405161052e91906130ba565b60405180910390f35b34801561054357600080fd5b5061054c610fe2565b005b34801561055a57600080fd5b5061057560048036038101906105709190612fb6565b61106a565b60405161058291906130ba565b60405180910390f35b34801561059757600080fd5b506105a061108e565b6040516105ad91906133b3565b60405180910390f35b3480156105c257600080fd5b506105cb6111b6565b6040516105d89190613024565b60405180910390f35b3480156105ed57600080fd5b5061060860048036038101906106039190612fb6565b6111e0565b60405161061591906130ba565b60405180910390f35b34801561062a57600080fd5b506106336111fd565b6040516106409190612f5e565b60405180910390f35b34801561065557600080fd5b50610670600480360381019061066b9190613401565b61128f565b005b34801561067e57600080fd5b5061069960048036038101906106949190613441565b6112a5565b005b3480156106a757600080fd5b506106c260048036038101906106bd91906135b6565b6112bc565b005b3480156106d057600080fd5b506106eb60048036038101906106e69190613441565b61131e565b005b3480156106f957600080fd5b50610714600480360381019061070f9190612fb6565b6114c1565b6040516107219190612f5e565b60405180910390f35b610744600480360381019061073f9190612fb6565b611543565b005b34801561075257600080fd5b5061076d60048036038101906107689190613639565b611769565b60405161077a9190612eaa565b60405180910390f35b34801561078f57600080fd5b506107aa60048036038101906107a59190613208565b6117fd565b6040516107b791906133b3565b60405180910390f35b3480156107cc57600080fd5b506107e760048036038101906107e29190613208565b61190d565b005b60006107f482611a04565b9050919050565b60606000805461080a906136a8565b80601f0160208091040260200160405190810160405280929190818152602001828054610836906136a8565b80156108835780601f1061085857610100808354040283529160200191610883565b820191906000526020600020905b81548152906001019060200180831161086657829003601f168201915b5050505050905090565b600061089882611a7e565b6108d7576040517f08c379a00000000000000000000000000000000000000000000000000000000081526004016108ce9061374b565b60405180910390fd5b6004600083815260200190815260200160002060009054906101000a900473ffffffffffffffffffffffffffffffffffffffff169050919050565b600061091d82610dec565b90508073ffffffffffffffffffffffffffffffffffffffff168373ffffffffffffffffffffffffffffffffffffffff160361098d576040517f08c379a0000000000000000000000000000000000000000000000000000000008152600401610984906137dd565b60405180910390fd5b8073ffffffffffffffffffffffffffffffffffffffff166109ac611aea565b73ffffffffffffffffffffffffffffffffffffffff1614806109db57506109da816109d5611aea565b611769565b5b610a1a576040517f08c379a0000000000000000000000000000000000000000000000000000000008152600401610a119061386f565b60405180910390fd5b610a248383611af2565b505050565b6000610a35600b611bab565b6000610a41600b611bc1565b9050610a4d3382611bcf565b8091505090565b6000600880549050905090565b6060600e805480602002602001604051908101604052809291908181526020018280548015610aaf57602002820191906000526020600020905b815481526020019060010190808311610a9b575b5050505050905090565b610aca610ac4611aea565b82611bed565b610b09576040517f08c379a0000000000000000000000000000000000000000000000000000000008152600401610b0090613901565b60405180910390fd5b610b14838383611ccb565b505050565b6000610b2483610f2b565b8210610b65576040517f08c379a0000000000000000000000000000000000000000000000000000000008152600401610b5c90613993565b60405180910390fd5b600660008473ffffffffffffffffffffffffffffffffffffffff1673ffffffffffffffffffffffffffffffffffffffff168152602001908152602001600020600083815260200190815260200160002054905092915050565b6000600d60008381526020019081526020016000208190555060005b600e80549050811015610cae576000600d6000600e8481548110610c0157610c006139b3565b5b906000526020600020015481526020019081526020016000205403610c9b57600e6001600e80549050610c349190613a11565b81548110610c4557610c446139b3565b5b9060005260206000200154600e8281548110610c6457610c636139b3565b5b9060005260206000200181905550600e805480610c8457610c83613a45565b5b600190038181906000526020600020016000905590555b8080610ca690613a74565b915050610bda565b5050565b610ccd838383604051806020016040528060008152506112bc565b505050565b6000610cdd82610dec565b90503373ffffffffffffffffffffffffffffffffffffffff168173ffffffffffffffffffffffffffffffffffffffff1614610d4d576040517f08c379a0000000000000000000000000000000000000000000000000000000008152600401610d4490613b2e565b60405180910390fd5b610d5682611f31565b610d5f82610bbe565b5050565b600d6020528060005260406000206000915090505481565b6000610d85610a54565b8210610dc6576040517f08c379a0000000000000000000000000000000000000000000000000000000008152600401610dbd90613bc0565b60405180910390fd5b60088281548110610dda57610dd96139b3565b5b90600052602060002001549050919050565b6000806002600084815260200190815260200160002060009054906101000a900473ffffffffffffffffffffffffffffffffffffffff169050600073ffffffffffffffffffffffffffffffffffffffff168173ffffffffffffffffffffffffffffffffffffffff1603610e94576040517f08c379a0000000000000000000000000000000000000000000000000000000008152600401610e8b90613c52565b60405180910390fd5b80915050919050565b600c8054610eaa906136a8565b80601f0160208091040260200160405190810160405280929190818152602001828054610ed6906136a8565b8015610f235780601f10610ef857610100808354040283529160200191610f23565b820191906000526020600020905b815481529060010190602001808311610f0657829003601f168201915b505050505081565b60008073ffffffffffffffffffffffffffffffffffffffff168273ffffffffffffffffffffffffffffffffffffffff1603610f9b576040517f08c379a0000000000000000000000000000000000000000000000000000000008152600401610f9290613ce4565b60405180910390fd5b600360008373ffffffffffffffffffffffffffffffffffffffff1673ffffffffffffffffffffffffffffffffffffffff168152602001908152602001600020549050919050565b610fea611aea565b73ffffffffffffffffffffffffffffffffffffffff166110086111b6565b73ffffffffffffffffffffffffffffffffffffffff161461105e576040517f08c379a000000000000000000000000000000000000000000000000000000000815260040161105590613d50565b60405180910390fd5b611068600061204e565b565b600e818154811061107a57600080fd5b906000526020600020016000915090505481565b6060600061109a610a61565b90506000815167ffffffffffffffff8111156110b9576110b861348b565b5b6040519080825280602002602001820160405280156110f257816020015b6110df612db8565b8152602001906001900390816110d75790505b50905060005b82518110156111ad576000838281518110611116576111156139b3565b5b60200260200101519050600061112b82610dec565b90506000611138836111e0565b905060405180608001604052808481526020018373ffffffffffffffffffffffffffffffffffffffff168152602001611170856114c1565b81526020018281525085858151811061118c5761118b6139b3565b5b602002602001018190525050505080806111a590613a74565b9150506110f8565b50809250505090565b6000600a60009054906101000a900473ffffffffffffffffffffffffffffffffffffffff16905090565b6000600d6000838152602001908152602001600020549050919050565b60606001805461120c906136a8565b80601f0160208091040260200160405190810160405280929190818152602001828054611238906136a8565b80156112855780601f1061125a57610100808354040283529160200191611285565b820191906000526020600020905b81548152906001019060200180831161126857829003601f168201915b5050505050905090565b6112a161129a611aea565b8383612114565b5050565b6112ae82610bbe565b6112b8828261131e565b5050565b6112cd6112c7611aea565b83611bed565b61130c576040517f08c379a000000000000000000000000000000000000000000000000000000000815260040161130390613901565b60405180910390fd5b61131884848484612280565b50505050565b600061132983610dec565b90503373ffffffffffffffffffffffffffffffffffffffff168173ffffffffffffffffffffffffffffffffffffffff1614611399576040517f08c379a000000000000000000000000000000000000000000000000000000000815260040161139090613dbc565b60405180910390fd5b600082116113dc576040517f08c379a00000000000000000000000000000000000000000000000000000000081526004016113d390613e28565b60405180910390fd5b6000600d60008581526020019081526020016000205414611432576040517f08c379a000000000000000000000000000000000000000000000000000000000815260040161142990613eba565b60405180910390fd5b61143c8130611769565b61147b576040517f08c379a000000000000000000000000000000000000000000000000000000000815260040161147290613f4c565b60405180910390fd5b81600d600085815260200190815260200160002081905550600e839080600181540180825580915050600190039060005260206000200160009091909190915055505050565b60606114cc82611a7e565b61150b576040517f08c379a000000000000000000000000000000000000000000000000000000000815260040161150290613fde565b60405180910390fd5b6115136122dc565b61151c836122fc565b60405160200161152d929190614086565b6040516020818303038152906040529050919050565b6000600d6000838152602001908152602001600020549050600061156683610dec565b9050600082116115ab576040517f08c379a00000000000000000000000000000000000000000000000000000000081526004016115a290614101565b60405180910390fd5b348211156115ee576040517f08c379a00000000000000000000000000000000000000000000000000000000081526004016115e59061416d565b60405180910390fd5b3373ffffffffffffffffffffffffffffffffffffffff168173ffffffffffffffffffffffffffffffffffffffff160361165c576040517f08c379a0000000000000000000000000000000000000000000000000000000008152600401611653906141d9565b60405180910390fd5b6116668130611769565b6116a5576040517f08c379a000000000000000000000000000000000000000000000000000000000815260040161169c90613f4c565b60405180910390fd5b8073ffffffffffffffffffffffffffffffffffffffff166108fc349081150290604051600060405180830381858888f193505050501580156116eb573d6000803e3d6000fd5b503073ffffffffffffffffffffffffffffffffffffffff166342842e0e8233866040518463ffffffff1660e01b8152600401611729939291906141f9565b600060405180830381600087803b15801561174357600080fd5b505af1158015611757573d6000803e3d6000fd5b5050505061176483610bbe565b505050565b6000600560008473ffffffffffffffffffffffffffffffffffffffff1673ffffffffffffffffffffffffffffffffffffffff16815260200190815260200160002060008373ffffffffffffffffffffffffffffffffffffffff1673ffffffffffffffffffffffffffffffffffffffff16815260200190815260200160002060009054906101000a900460ff16905092915050565b6060600061180a83610f2b565b905060008167ffffffffffffffff8111156118285761182761348b565b5b60405190808252806020026020018201604052801561186157816020015b61184e612db8565b8152602001906001900390816118465790505b50905060005b8281101561190257600061187b8683610b19565b90506000611888826114c1565b90506000611895836111e0565b905060405180608001604052808481526020018973ffffffffffffffffffffffffffffffffffffffff168152602001838152602001828152508585815181106118e1576118e06139b3565b5b602002602001018190525050505080806118fa90613a74565b915050611867565b508092505050919050565b611915611aea565b73ffffffffffffffffffffffffffffffffffffffff166119336111b6565b73ffffffffffffffffffffffffffffffffffffffff1614611989576040517f08c379a000000000000000000000000000000000000000000000000000000000815260040161198090613d50565b60405180910390fd5b600073ffffffffffffffffffffffffffffffffffffffff168173ffffffffffffffffffffffffffffffffffffffff16036119f8576040517f08c379a00000000000000000000000000000000000000000000000000000000081526004016119ef906142a2565b60405180910390fd5b611a018161204e565b50565b60007f780e9d63000000000000000000000000000000000000000000000000000000007bffffffffffffffffffffffffffffffffffffffffffffffffffffffff1916827bffffffffffffffffffffffffffffffffffffffffffffffffffffffff19161480611a775750611a768261245c565b5b9050919050565b60008073ffffffffffffffffffffffffffffffffffffffff166002600084815260200190815260200160002060009054906101000a900473ffffffffffffffffffffffffffffffffffffffff1673ffffffffffffffffffffffffffffffffffffffff1614159050919050565b600033905090565b816004600083815260200190815260200160002060006101000a81548173ffffffffffffffffffffffffffffffffffffffff021916908373ffffffffffffffffffffffffffffffffffffffff160217905550808273ffffffffffffffffffffffffffffffffffffffff16611b6583610dec565b73ffffffffffffffffffffffffffffffffffffffff167f8c5be1e5ebec7d5bd14f71427d1e84f3dd0314c0f7b2291e5b200ac8c7c3b92560405160405180910390a45050565b6001816000016000828254019250508190555050565b600081600001549050919050565b611be982826040518060200160405280600081525061253e565b5050565b6000611bf882611a7e565b611c37576040517f08c379a0000000000000000000000000000000000000000000000000000000008152600401611c2e90614334565b60405180910390fd5b6000611c4283610dec565b90508073ffffffffffffffffffffffffffffffffffffffff168473ffffffffffffffffffffffffffffffffffffffff161480611c845750611c838185611769565b5b80611cc257508373ffffffffffffffffffffffffffffffffffffffff16611caa8461088d565b73ffffffffffffffffffffffffffffffffffffffff16145b91505092915050565b8273ffffffffffffffffffffffffffffffffffffffff16611ceb82610dec565b73ffffffffffffffffffffffffffffffffffffffff1614611d41576040517f08c379a0000000000000000000000000000000000000000000000000000000008152600401611d38906143c6565b60405180910390fd5b600073ffffffffffffffffffffffffffffffffffffffff168273ffffffffffffffffffffffffffffffffffffffff1603611db0576040517f08c379a0000000000000000000000000000000000000000000000000000000008152600401611da790614458565b60405180910390fd5b611dbb838383612599565b611dc6600082611af2565b6001600360008573ffffffffffffffffffffffffffffffffffffffff1673ffffffffffffffffffffffffffffffffffffffff1681526020019081526020016000206000828254611e169190613a11565b925050819055506001600360008473ffffffffffffffffffffffffffffffffffffffff1673ffffffffffffffffffffffffffffffffffffffff1681526020019081526020016000206000828254611e6d9190614478565b92505081905550816002600083815260200190815260200160002060006101000a81548173ffffffffffffffffffffffffffffffffffffffff021916908373ffffffffffffffffffffffffffffffffffffffff160217905550808273ffffffffffffffffffffffffffffffffffffffff168473ffffffffffffffffffffffffffffffffffffffff167fddf252ad1be2c89b69c2b068fc378daa952ba7f163c4a11628f55a4df523b3ef60405160405180910390a4611f2c8383836125a9565b505050565b6000611f3c82610dec565b9050611f4a81600084612599565b611f55600083611af2565b6001600360008373ffffffffffffffffffffffffffffffffffffffff1673ffffffffffffffffffffffffffffffffffffffff1681526020019081526020016000206000828254611fa59190613a11565b925050819055506002600083815260200190815260200160002060006101000a81549073ffffffffffffffffffffffffffffffffffffffff021916905581600073ffffffffffffffffffffffffffffffffffffffff168273ffffffffffffffffffffffffffffffffffffffff167fddf252ad1be2c89b69c2b068fc378daa952ba7f163c4a11628f55a4df523b3ef60405160405180910390a461204a816000846125a9565b5050565b6000600a60009054906101000a900473ffffffffffffffffffffffffffffffffffffffff16905081600a60006101000a81548173ffffffffffffffffffffffffffffffffffffffff021916908373ffffffffffffffffffffffffffffffffffffffff1602179055508173ffffffffffffffffffffffffffffffffffffffff168173ffffffffffffffffffffffffffffffffffffffff167f8be0079c531659141344cd1fd0a4f28419497f9722a3daafe3b4186f6b6457e060405160405180910390a35050565b8173ffffffffffffffffffffffffffffffffffffffff168373ffffffffffffffffffffffffffffffffffffffff1603612182576040517f08c379a00000000000000000000000000000000000000000000000000000000081526004016121799061451a565b60405180910390fd5b80600560008573ffffffffffffffffffffffffffffffffffffffff1673ffffffffffffffffffffffffffffffffffffffff16815260200190815260200160002060008473ffffffffffffffffffffffffffffffffffffffff1673ffffffffffffffffffffffffffffffffffffffff16815260200190815260200160002060006101000a81548160ff0219169083151502179055508173ffffffffffffffffffffffffffffffffffffffff168373ffffffffffffffffffffffffffffffffffffffff167f17307eab39ab6107e8899845ad3d59bd9653f200f220920489ca2b5937696c31836040516122739190612eaa565b60405180910390a3505050565b61228b848484611ccb565b612297848484846125ae565b6122d6576040517f08c379a00000000000000000000000000000000000000000000000000000000081526004016122cd906145ac565b60405180910390fd5b50505050565b606060405180608001604052806050815260200161481960509139905090565b606060008203612343576040518060400160405280600181526020017f30000000000000000000000000000000000000000000000000000000000000008152509050612457565b600082905060005b6000821461237557808061235e90613a74565b915050600a8261236e91906145fb565b915061234b565b60008167ffffffffffffffff8111156123915761239061348b565b5b6040519080825280601f01601f1916602001820160405280156123c35781602001600182028036833780820191505090505b5090505b60008514612450576001826123dc9190613a11565b9150600a856123eb919061462c565b60306123f79190614478565b60f81b81838151811061240d5761240c6139b3565b5b60200101907effffffffffffffffffffffffffffffffffffffffffffffffffffffffffffff1916908160001a905350600a8561244991906145fb565b94506123c7565b8093505050505b919050565b60007f80ac58cd000000000000000000000000000000000000000000000000000000007bffffffffffffffffffffffffffffffffffffffffffffffffffffffff1916827bffffffffffffffffffffffffffffffffffffffffffffffffffffffff1916148061252757507f5b5e139f000000000000000000000000000000000000000000000000000000007bffffffffffffffffffffffffffffffffffffffffffffffffffffffff1916827bffffffffffffffffffffffffffffffffffffffffffffffffffffffff1916145b80612537575061253682612735565b5b9050919050565b612548838361279f565b61255560008484846125ae565b612594576040517f08c379a000000000000000000000000000000000000000000000000000000000815260040161258b906145ac565b60405180910390fd5b505050565b6125a4838383612978565b505050565b505050565b60006125cf8473ffffffffffffffffffffffffffffffffffffffff16612a8a565b15612728578373ffffffffffffffffffffffffffffffffffffffff1663150b7a026125f8611aea565b8786866040518563ffffffff1660e01b815260040161261a94939291906146b2565b6020604051808303816000875af192505050801561265657506040513d601f19601f820116820180604052508101906126539190614713565b60015b6126d8573d8060008114612686576040519150601f19603f3d011682016040523d82523d6000602084013e61268b565b606091505b5060008151036126d0576040517f08c379a00000000000000000000000000000000000000000000000000000000081526004016126c7906145ac565b60405180910390fd5b805181602001fd5b63150b7a0260e01b7bffffffffffffffffffffffffffffffffffffffffffffffffffffffff1916817bffffffffffffffffffffffffffffffffffffffffffffffffffffffff19161491505061272d565b600190505b949350505050565b60007f01ffc9a7000000000000000000000000000000000000000000000000000000007bffffffffffffffffffffffffffffffffffffffffffffffffffffffff1916827bffffffffffffffffffffffffffffffffffffffffffffffffffffffff1916149050919050565b600073ffffffffffffffffffffffffffffffffffffffff168273ffffffffffffffffffffffffffffffffffffffff160361280e576040517f08c379a00000000000000000000000000000000000000000000000000000000081526004016128059061478c565b60405180910390fd5b61281781611a7e565b15612857576040517f08c379a000000000000000000000000000000000000000000000000000000000815260040161284e906147f8565b60405180910390fd5b61286360008383612599565b6001600360008473ffffffffffffffffffffffffffffffffffffffff1673ffffffffffffffffffffffffffffffffffffffff16815260200190815260200160002060008282546128b39190614478565b92505081905550816002600083815260200190815260200160002060006101000a81548173ffffffffffffffffffffffffffffffffffffffff021916908373ffffffffffffffffffffffffffffffffffffffff160217905550808273ffffffffffffffffffffffffffffffffffffffff16600073ffffffffffffffffffffffffffffffffffffffff167fddf252ad1be2c89b69c2b068fc378daa952ba7f163c4a11628f55a4df523b3ef60405160405180910390a4612974600083836125a9565b5050565b612983838383612aad565b600073ffffffffffffffffffffffffffffffffffffffff168373ffffffffffffffffffffffffffffffffffffffff16036129c5576129c081612ab2565b612a04565b8173ffffffffffffffffffffffffffffffffffffffff168373ffffffffffffffffffffffffffffffffffffffff1614612a0357612a028382612afb565b5b5b600073ffffffffffffffffffffffffffffffffffffffff168273ffffffffffffffffffffffffffffffffffffffff1603612a4657612a4181612c68565b612a85565b8273ffffffffffffffffffffffffffffffffffffffff168273ffffffffffffffffffffffffffffffffffffffff1614612a8457612a838282612d39565b5b5b505050565b6000808273ffffffffffffffffffffffffffffffffffffffff163b119050919050565b505050565b6008805490506009600083815260200190815260200160002081905550600881908060018154018082558091505060019003906000526020600020016000909190919091505550565b60006001612b0884610f2b565b612b129190613a11565b9050600060076000848152602001908152602001600020549050818114612bf7576000600660008673ffffffffffffffffffffffffffffffffffffffff1673ffffffffffffffffffffffffffffffffffffffff168152602001908152602001600020600084815260200190815260200160002054905080600660008773ffffffffffffffffffffffffffffffffffffffff1673ffffffffffffffffffffffffffffffffffffffff168152602001908152602001600020600084815260200190815260200160002081905550816007600083815260200190815260200160002081905550505b6007600084815260200190815260200160002060009055600660008573ffffffffffffffffffffffffffffffffffffffff1673ffffffffffffffffffffffffffffffffffffffff16815260200190815260200160002060008381526020019081526020016000206000905550505050565b60006001600880549050612c7c9190613a11565b9050600060096000848152602001908152602001600020549050600060088381548110612cac57612cab6139b3565b5b906000526020600020015490508060088381548110612cce57612ccd6139b3565b5b906000526020600020018190555081600960008381526020019081526020016000208190555060096000858152602001908152602001600020600090556008805480612d1d57612d1c613a45565b5b6001900381819060005260206000200160009055905550505050565b6000612d4483610f2b565b905081600660008573ffffffffffffffffffffffffffffffffffffffff1673ffffffffffffffffffffffffffffffffffffffff168152602001908152602001600020600083815260200190815260200160002081905550806007600084815260200190815260200160002081905550505050565b604051806080016040528060008152602001600073ffffffffffffffffffffffffffffffffffffffff16815260200160608152602001600081525090565b6000604051905090565b600080fd5b600080fd5b60007fffffffff0000000000000000000000000000000000000000000000000000000082169050919050565b612e3f81612e0a565b8114612e4a57600080fd5b50565b600081359050612e5c81612e36565b92915050565b600060208284031215612e7857612e77612e00565b5b6000612e8684828501612e4d565b91505092915050565b60008115159050919050565b612ea481612e8f565b82525050565b6000602082019050612ebf6000830184612e9b565b92915050565b600081519050919050565b600082825260208201905092915050565b60005b83811015612eff578082015181840152602081019050612ee4565b83811115612f0e576000848401525b50505050565b6000601f19601f8301169050919050565b6000612f3082612ec5565b612f3a8185612ed0565b9350612f4a818560208601612ee1565b612f5381612f14565b840191505092915050565b60006020820190508181036000830152612f788184612f25565b905092915050565b6000819050919050565b612f9381612f80565b8114612f9e57600080fd5b50565b600081359050612fb081612f8a565b92915050565b600060208284031215612fcc57612fcb612e00565b5b6000612fda84828501612fa1565b91505092915050565b600073ffffffffffffffffffffffffffffffffffffffff82169050919050565b600061300e82612fe3565b9050919050565b61301e81613003565b82525050565b60006020820190506130396000830184613015565b92915050565b61304881613003565b811461305357600080fd5b50565b6000813590506130658161303f565b92915050565b6000806040838503121561308257613081612e00565b5b600061309085828601613056565b92505060206130a185828601612fa1565b9150509250929050565b6130b481612f80565b82525050565b60006020820190506130cf60008301846130ab565b92915050565b600081519050919050565b600082825260208201905092915050565b6000819050602082019050919050565b61310a81612f80565b82525050565b600061311c8383613101565b60208301905092915050565b6000602082019050919050565b6000613140826130d5565b61314a81856130e0565b9350613155836130f1565b8060005b8381101561318657815161316d8882613110565b975061317883613128565b925050600181019050613159565b5085935050505092915050565b600060208201905081810360008301526131ad8184613135565b905092915050565b6000806000606084860312156131ce576131cd612e00565b5b60006131dc86828701613056565b93505060206131ed86828701613056565b92505060406131fe86828701612fa1565b9150509250925092565b60006020828403121561321e5761321d612e00565b5b600061322c84828501613056565b91505092915050565b600081519050919050565b600082825260208201905092915050565b6000819050602082019050919050565b61326a81613003565b82525050565b600082825260208201905092915050565b600061328c82612ec5565b6132968185613270565b93506132a6818560208601612ee1565b6132af81612f14565b840191505092915050565b60006080830160008301516132d26000860182613101565b5060208301516132e56020860182613261565b50604083015184820360408601526132fd8282613281565b91505060608301516133126060860182613101565b508091505092915050565b600061332983836132ba565b905092915050565b6000602082019050919050565b600061334982613235565b6133538185613240565b93508360208202850161336585613251565b8060005b858110156133a15784840389528151613382858261331d565b945061338d83613331565b925060208a01995050600181019050613369565b50829750879550505050505092915050565b600060208201905081810360008301526133cd818461333e565b905092915050565b6133de81612e8f565b81146133e957600080fd5b50565b6000813590506133fb816133d5565b92915050565b6000806040838503121561341857613417612e00565b5b600061342685828601613056565b9250506020613437858286016133ec565b9150509250929050565b6000806040838503121561345857613457612e00565b5b600061346685828601612fa1565b925050602061347785828601612fa1565b9150509250929050565b600080fd5b600080fd5b7f4e487b7100000000000000000000000000000000000000000000000000000000600052604160045260246000fd5b6134c382612f14565b810181811067ffffffffffffffff821117156134e2576134e161348b565b5b80604052505050565b60006134f5612df6565b905061350182826134ba565b919050565b600067ffffffffffffffff8211156135215761352061348b565b5b61352a82612f14565b9050602081019050919050565b82818337600083830152505050565b600061355961355484613506565b6134eb565b90508281526020810184848401111561357557613574613486565b5b613580848285613537565b509392505050565b600082601f83011261359d5761359c613481565b5b81356135ad848260208601613546565b91505092915050565b600080600080608085870312156135d0576135cf612e00565b5b60006135de87828801613056565b94505060206135ef87828801613056565b935050604061360087828801612fa1565b925050606085013567ffffffffffffffff81111561362157613620612e05565b5b61362d87828801613588565b91505092959194509250565b600080604083850312156136505761364f612e00565b5b600061365e85828601613056565b925050602061366f85828601613056565b9150509250929050565b7f4e487b7100000000000000000000000000000000000000000000000000000000600052602260045260246000fd5b600060028204905060018216806136c057607f821691505b6020821081036136d3576136d2613679565b5b50919050565b7f4552433732313a20617070726f76656420717565727920666f72206e6f6e657860008201527f697374656e7420746f6b656e0000000000000000000000000000000000000000602082015250565b6000613735602c83612ed0565b9150613740826136d9565b604082019050919050565b6000602082019050818103600083015261376481613728565b9050919050565b7f4552433732313a20617070726f76616c20746f2063757272656e74206f776e6560008201527f7200000000000000000000000000000000000000000000000000000000000000602082015250565b60006137c7602183612ed0565b91506137d28261376b565b604082019050919050565b600060208201905081810360008301526137f6816137ba565b9050919050565b7f4552433732313a20617070726f76652063616c6c6572206973206e6f74206f7760008201527f6e6572206e6f7220617070726f76656420666f7220616c6c0000000000000000602082015250565b6000613859603883612ed0565b9150613864826137fd565b604082019050919050565b600060208201905081810360008301526138888161384c565b9050919050565b7f4552433732313a207472616e736665722063616c6c6572206973206e6f74206f60008201527f776e6572206e6f7220617070726f766564000000000000000000000000000000602082015250565b60006138eb603183612ed0565b91506138f68261388f565b604082019050919050565b6000602082019050818103600083015261391a816138de565b9050919050565b7f455243373231456e756d657261626c653a206f776e657220696e646578206f7560008201527f74206f6620626f756e6473000000000000000000000000000000000000000000602082015250565b600061397d602b83612ed0565b915061398882613921565b604082019050919050565b600060208201905081810360008301526139ac81613970565b9050919050565b7f4e487b7100000000000000000000000000000000000000000000000000000000600052603260045260246000fd5b7f4e487b7100000000000000000000000000000000000000000000000000000000600052601160045260246000fd5b6000613a1c82612f80565b9150613a2783612f80565b925082821015613a3a57613a396139e2565b5b828203905092915050565b7f4e487b7100000000000000000000000000000000000000000000000000000000600052603160045260246000fd5b6000613a7f82612f80565b91507fffffffffffffffffffffffffffffffffffffffffffffffffffffffffffffffff8203613ab157613ab06139e2565b5b600182019050919050565b7f6d73672e73656e646572206973206e6f7420746865206f776e6572206f66207460008201527f686520746f6b656e000000000000000000000000000000000000000000000000602082015250565b6000613b18602883612ed0565b9150613b2382613abc565b604082019050919050565b60006020820190508181036000830152613b4781613b0b565b9050919050565b7f455243373231456e756d657261626c653a20676c6f62616c20696e646578206f60008201527f7574206f6620626f756e64730000000000000000000000000000000000000000602082015250565b6000613baa602c83612ed0565b9150613bb582613b4e565b604082019050919050565b60006020820190508181036000830152613bd981613b9d565b9050919050565b7f4552433732313a206f776e657220717565727920666f72206e6f6e657869737460008201527f656e7420746f6b656e0000000000000000000000000000000000000000000000602082015250565b6000613c3c602983612ed0565b9150613c4782613be0565b604082019050919050565b60006020820190508181036000830152613c6b81613c2f565b9050919050565b7f4552433732313a2062616c616e636520717565727920666f7220746865207a6560008201527f726f206164647265737300000000000000000000000000000000000000000000602082015250565b6000613cce602a83612ed0565b9150613cd982613c72565b604082019050919050565b60006020820190508181036000830152613cfd81613cc1565b9050919050565b7f4f776e61626c653a2063616c6c6572206973206e6f7420746865206f776e6572600082015250565b6000613d3a602083612ed0565b9150613d4582613d04565b602082019050919050565b60006020820190508181036000830152613d6981613d2d565b9050919050565b7f43616c6c6572206973206e6f74206e667420746f6b656e206f776e65722e0000600082015250565b6000613da6601e83612ed0565b9150613db182613d70565b602082019050919050565b60006020820190508181036000830152613dd581613d99565b9050919050565b7f5072696365206973207a65726f206f72206c6f7765722e000000000000000000600082015250565b6000613e12601783612ed0565b9150613e1d82613ddc565b602082019050919050565b60006020820190508181036000830152613e4181613e05565b9050919050565b7f54686973206e667420746f6b656e20697320616c7265616479206f6e2073616c60008201527f652e000000000000000000000000000000000000000000000000000000000000602082015250565b6000613ea4602283612ed0565b9150613eaf82613e48565b604082019050919050565b60006020820190508181036000830152613ed381613e97565b9050919050565b7f6e667420746f6b656e206f776e657220646964206e6f7420617070726f76652060008201527f746f6b656e2e0000000000000000000000000000000000000000000000000000602082015250565b6000613f36602683612ed0565b9150613f4182613eda565b604082019050919050565b60006020820190508181036000830152613f6581613f29565b9050919050565b7f4552433732314d657461646174613a2055524920717565727920666f72206e6f60008201527f6e6578697374656e7420746f6b656e0000000000000000000000000000000000602082015250565b6000613fc8602f83612ed0565b9150613fd382613f6c565b604082019050919050565b60006020820190508181036000830152613ff781613fbb565b9050919050565b600081905092915050565b600061401482612ec5565b61401e8185613ffe565b935061402e818560208601612ee1565b80840191505092915050565b7f2f00000000000000000000000000000000000000000000000000000000000000600082015250565b6000614070600183613ffe565b915061407b8261403a565b600182019050919050565b60006140928285614009565b915061409d82614063565b91506140a98284614009565b91508190509392505050565b7f6e667420746f6b656e206e6f742073616c652e00000000000000000000000000600082015250565b60006140eb601383612ed0565b91506140f6826140b5565b602082019050919050565b6000602082019050818103600083015261411a816140de565b9050919050565b7f63616c6c65722073656e74206c6f776572207468616e2070726963652e000000600082015250565b6000614157601d83612ed0565b915061416282614121565b602082019050919050565b600060208201905081810360008301526141868161414a565b9050919050565b7f63616c6c6572206973206e667420746f6b656e206f776e65722e000000000000600082015250565b60006141c3601a83612ed0565b91506141ce8261418d565b602082019050919050565b600060208201905081810360008301526141f2816141b6565b9050919050565b600060608201905061420e6000830186613015565b61421b6020830185613015565b61422860408301846130ab565b949350505050565b7f4f776e61626c653a206e6577206f776e657220697320746865207a65726f206160008201527f6464726573730000000000000000000000000000000000000000000000000000602082015250565b600061428c602683612ed0565b915061429782614230565b604082019050919050565b600060208201905081810360008301526142bb8161427f565b9050919050565b7f4552433732313a206f70657261746f7220717565727920666f72206e6f6e657860008201527f697374656e7420746f6b656e0000000000000000000000000000000000000000602082015250565b600061431e602c83612ed0565b9150614329826142c2565b604082019050919050565b6000602082019050818103600083015261434d81614311565b9050919050565b7f4552433732313a207472616e736665722066726f6d20696e636f72726563742060008201527f6f776e6572000000000000000000000000000000000000000000000000000000602082015250565b60006143b0602583612ed0565b91506143bb82614354565b604082019050919050565b600060208201905081810360008301526143df816143a3565b9050919050565b7f4552433732313a207472616e7366657220746f20746865207a65726f2061646460008201527f7265737300000000000000000000000000000000000000000000000000000000602082015250565b6000614442602483612ed0565b915061444d826143e6565b604082019050919050565b6000602082019050818103600083015261447181614435565b9050919050565b600061448382612f80565b915061448e83612f80565b9250827fffffffffffffffffffffffffffffffffffffffffffffffffffffffffffffffff038211156144c3576144c26139e2565b5b828201905092915050565b7f4552433732313a20617070726f766520746f2063616c6c657200000000000000600082015250565b6000614504601983612ed0565b915061450f826144ce565b602082019050919050565b60006020820190508181036000830152614533816144f7565b9050919050565b7f4552433732313a207472616e7366657220746f206e6f6e20455243373231526560008201527f63656976657220696d706c656d656e7465720000000000000000000000000000602082015250565b6000614596603283612ed0565b91506145a18261453a565b604082019050919050565b600060208201905081810360008301526145c581614589565b9050919050565b7f4e487b7100000000000000000000000000000000000000000000000000000000600052601260045260246000fd5b600061460682612f80565b915061461183612f80565b925082614621576146206145cc565b5b828204905092915050565b600061463782612f80565b915061464283612f80565b925082614652576146516145cc565b5b828206905092915050565b600081519050919050565b600082825260208201905092915050565b60006146848261465d565b61468e8185614668565b935061469e818560208601612ee1565b6146a781612f14565b840191505092915050565b60006080820190506146c76000830187613015565b6146d46020830186613015565b6146e160408301856130ab565b81810360608301526146f38184614679565b905095945050505050565b60008151905061470d81612e36565b92915050565b60006020828403121561472957614728612e00565b5b6000614737848285016146fe565b91505092915050565b7f4552433732313a206d696e7420746f20746865207a65726f2061646472657373600082015250565b6000614776602083612ed0565b915061478182614740565b602082019050919050565b600060208201905081810360008301526147a581614769565b9050919050565b7f4552433732313a20746f6b656e20616c7265616479206d696e74656400000000600082015250565b60006147e2601c83612ed0565b91506147ed826147ac565b602082019050919050565b60006020820190508181036000830152614811816147d5565b905091905056fe68747470733a2f2f676174657761792e70696e6174612e636c6f75642f697066732f516d5450666e3136435059467431674b6d6875534a547844717a776b367845644e395a4e4b33666e74486870766aa264697066735822122071771689fdad339fb64ca5252b0903195356376579ff1cb11d1bafb4dbe70fb564736f6c634300080e0033",
  "immutableReferences": {},
  "source": "// SPDX-License-Identifier: MIT\npragma solidity ^0.8.7;\n\nimport \"../client/node_modules/@openzeppelin/contracts/token/ERC721/ERC721.sol\";\nimport \"../client/node_modules/@openzeppelin/contracts/access/Ownable.sol\";\nimport \"../client/node_modules/@openzeppelin/contracts/token/ERC721/extensions/ERC721Enumerable.sol\";\nimport \"../client/node_modules/@openzeppelin/contracts/utils/Counters.sol\";\n\ncontract Jacket is ERC721, ERC721Enumerable, Ownable {\n    using Counters for Counters.Counter;\n    Counters.Counter private _tokenIds;\n    using Strings for uint256;\n\n    string public baseURI;\n\n    constructor() ERC721(\"Jacket\", \"JACKET\") {}\n\n    function mint() public returns (uint256) {\n        _tokenIds.increment();\n        uint256 newItemId = _tokenIds.current();\n        _safeMint(msg.sender, newItemId);\n        return newItemId;\n    }\n\n    // function setBaseURI(string memory baseURI_) external onlyOwner {\n    //     baseURI = baseURI_;\n    // }\n\n    function _baseURI() internal view virtual override returns (string memory) {\n        return\n            \"https://gateway.pinata.cloud/ipfs/QmTPfn16CPYFt1gKmhuSJTxDqzwk6xEdN9ZNK3fntHhpvj\";\n    }\n\n    function tokenURI(uint256 tokenId)\n        public\n        view\n        virtual\n        override\n        returns (string memory)\n    {\n        require(\n            _exists(tokenId),\n            \"ERC721Metadata: URI query for nonexistent token\"\n        );\n        return string(abi.encodePacked(_baseURI(), \"/\", tokenId.toString()));\n    }\n\n    function _beforeTokenTransfer(\n        address from,\n        address to,\n        uint256 tokenId\n    ) internal override(ERC721, ERC721Enumerable) {\n        super._beforeTokenTransfer(from, to, tokenId);\n    }\n\n    function supportsInterface(bytes4 interfaceId)\n        public\n        view\n        override(ERC721, ERC721Enumerable)\n        returns (bool)\n    {\n        return super.supportsInterface(interfaceId);\n    }\n\n    struct NftTokenData {\n        uint256 nftTokenId;\n        address nftTokenOwner;\n        string nftTokenURI;\n        uint256 price;\n    }\n\n    function getNftTokens(address _nftTokenOwner)\n        public\n        view\n        returns (NftTokenData[] memory)\n    {\n        uint256 balanceLength = balanceOf(_nftTokenOwner);\n        //require(balanceLength != 0, \"Owner did not have token.\");\n\n        NftTokenData[] memory nftTokenData = new NftTokenData[](balanceLength);\n\n        for (uint256 i = 0; i < balanceLength; i++) {\n            uint256 nftTokenId = tokenOfOwnerByIndex(_nftTokenOwner, i);\n            string memory nftTokenURI = tokenURI(nftTokenId);\n            uint256 tokenPrice = getNftTokenPrice(nftTokenId);\n            nftTokenData[i] = NftTokenData(nftTokenId, _nftTokenOwner, nftTokenURI, tokenPrice);\n        }\n\n        return nftTokenData;\n    }\n\n    // \n    mapping(uint256 => uint256) public nftTokenPrices;\n    uint256[] public onSaleNftTokenArray;\n\n    function setSaleNftToken(uint256 _tokenId, uint256 _price) public {\n        address nftTokenOwner = ownerOf(_tokenId);\n\n        require(nftTokenOwner == msg.sender, \"Caller is not nft token owner.\");\n        require(_price > 0, \"Price is zero or lower.\");\n        require(\n            nftTokenPrices[_tokenId] == 0,\n            \"This nft token is already on sale.\"\n        );\n        require(\n            isApprovedForAll(nftTokenOwner, address(this)),\n            \"nft token owner did not approve token.\"\n        );\n\n        nftTokenPrices[_tokenId] = _price;\n        onSaleNftTokenArray.push(_tokenId); // nft list\n    }\n\n    // \n    function getSaleNftTokens() public view returns (NftTokenData[] memory) {\n        uint256[] memory onSaleNftToken = getSaleNftToken();\n        NftTokenData[] memory onSaleNftTokens = new NftTokenData[](\n            onSaleNftToken.length\n        );\n\n        for (uint256 i = 0; i < onSaleNftToken.length; i++) {\n            uint256 tokenId = onSaleNftToken[i];\n            address tokenOwner = ownerOf(tokenId);\n            uint256 tokenPrice = getNftTokenPrice(tokenId);\n            onSaleNftTokens[i] = NftTokenData(\n                tokenId,\n                tokenOwner,\n                tokenURI(tokenId),\n                tokenPrice\n            );\n        }\n\n        return onSaleNftTokens;\n    }\n\n    function getSaleNftToken() public view returns (uint256[] memory) {\n        return onSaleNftTokenArray;\n    }\n\n    function getNftTokenPrice(uint256 _tokenId) public view returns (uint256) {\n        return nftTokenPrices[_tokenId];\n    }\n\n    //\n    function buyNftToken(uint256 _tokenId) public payable {\n        uint256 price = nftTokenPrices[_tokenId];\n        address nftTokenOwner = ownerOf(_tokenId);\n\n        require(price > 0, \"nft token not sale.\");\n        require(price <= msg.value, \"caller sent lower than price.\");\n        require(nftTokenOwner != msg.sender, \"caller is nft token owner.\");\n        require(\n            isApprovedForAll(nftTokenOwner, address(this)),\n            \"nft token owner did not approve token.\"\n        );\n\n        payable(nftTokenOwner).transfer(msg.value);\n\n        IERC721(address(this)).safeTransferFrom(\n            nftTokenOwner,\n            msg.sender,\n            _tokenId\n        );\n\n        //  \n        removeToken(_tokenId);\n    }\n\n    function burn(uint256 _tokenId) public {\n        address addr_owner = ownerOf(_tokenId);\n        require(\n            addr_owner == msg.sender,\n            \"msg.sender is not the owner of the token\"\n        );\n        _burn(_tokenId);\n        removeToken(_tokenId);\n    }\n\n    function removeToken(uint256 _tokenId) public {\n        nftTokenPrices[_tokenId] = 0;\n\n        for (uint256 i = 0; i < onSaleNftTokenArray.length; i++) {\n            if (nftTokenPrices[onSaleNftTokenArray[i]] == 0) {\n                onSaleNftTokenArray[i] = onSaleNftTokenArray[\n                    onSaleNftTokenArray.length - 1\n                ];\n                onSaleNftTokenArray.pop();\n            }\n        }\n    }\n\n    function changePrice(uint256 _tokenId, uint256 _price) public {\n        removeToken(_tokenId);\n        setSaleNftToken(_tokenId, _price);\n    }\n}\n",
  "sourcePath": "/Users/donghwan/projects/capstone/CapstoneDesign_NFTMarketplace /contracts/Jacket.sol",
  "compiler": {
    "name": "solc",
    "version": "0.8.14+commit.80d49f37.Emscripten.clang"
  },
  "schemaVersion": "3.4.6",
  "updatedAt": "2022-05-30T16:00:38.904Z",
  "networkType": "ethereum",
  "devdoc": {
    "kind": "dev",
    "methods": {
      "approve(address,uint256)": {
        "details": "See {IERC721-approve}."
      },
      "balanceOf(address)": {
        "details": "See {IERC721-balanceOf}."
      },
      "getApproved(uint256)": {
        "details": "See {IERC721-getApproved}."
      },
      "isApprovedForAll(address,address)": {
        "details": "See {IERC721-isApprovedForAll}."
      },
      "name()": {
        "details": "See {IERC721Metadata-name}."
      },
      "owner()": {
        "details": "Returns the address of the current owner."
      },
      "ownerOf(uint256)": {
        "details": "See {IERC721-ownerOf}."
      },
      "renounceOwnership()": {
        "details": "Leaves the contract without owner. It will not be possible to call `onlyOwner` functions anymore. Can only be called by the current owner. NOTE: Renouncing ownership will leave the contract without an owner, thereby removing any functionality that is only available to the owner."
      },
      "safeTransferFrom(address,address,uint256)": {
        "details": "See {IERC721-safeTransferFrom}."
      },
      "safeTransferFrom(address,address,uint256,bytes)": {
        "details": "See {IERC721-safeTransferFrom}."
      },
      "setApprovalForAll(address,bool)": {
        "details": "See {IERC721-setApprovalForAll}."
      },
      "symbol()": {
        "details": "See {IERC721Metadata-symbol}."
      },
      "tokenByIndex(uint256)": {
        "details": "See {IERC721Enumerable-tokenByIndex}."
      },
      "tokenOfOwnerByIndex(address,uint256)": {
        "details": "See {IERC721Enumerable-tokenOfOwnerByIndex}."
      },
      "tokenURI(uint256)": {
        "details": "See {IERC721Metadata-tokenURI}."
      },
      "totalSupply()": {
        "details": "See {IERC721Enumerable-totalSupply}."
      },
      "transferFrom(address,address,uint256)": {
        "details": "See {IERC721-transferFrom}."
      },
      "transferOwnership(address)": {
        "details": "Transfers ownership of the contract to a new account (`newOwner`). Can only be called by the current owner."
      }
    },
    "version": 1
  },
  "userdoc": {
    "kind": "user",
    "methods": {},
    "version": 1
  }
}