{
  "contractName": "Jacket",
  "abi": [
    {
      "inputs": [],
      "stateMutability": "nonpayable",
      "type": "constructor"
    },
    {
      "anonymous": false,
      "inputs": [
        {
          "indexed": true,
          "internalType": "address",
          "name": "owner",
          "type": "address"
        },
        {
          "indexed": true,
          "internalType": "address",
          "name": "approved",
          "type": "address"
        },
        {
          "indexed": true,
          "internalType": "uint256",
          "name": "tokenId",
          "type": "uint256"
        }
      ],
      "name": "Approval",
      "type": "event"
    },
    {
      "anonymous": false,
      "inputs": [
        {
          "indexed": true,
          "internalType": "address",
          "name": "owner",
          "type": "address"
        },
        {
          "indexed": true,
          "internalType": "address",
          "name": "operator",
          "type": "address"
        },
        {
          "indexed": false,
          "internalType": "bool",
          "name": "approved",
          "type": "bool"
        }
      ],
      "name": "ApprovalForAll",
      "type": "event"
    },
    {
      "anonymous": false,
      "inputs": [
        {
          "indexed": true,
          "internalType": "address",
          "name": "previousOwner",
          "type": "address"
        },
        {
          "indexed": true,
          "internalType": "address",
          "name": "newOwner",
          "type": "address"
        }
      ],
      "name": "OwnershipTransferred",
      "type": "event"
    },
    {
      "anonymous": false,
      "inputs": [
        {
          "indexed": true,
          "internalType": "address",
          "name": "from",
          "type": "address"
        },
        {
          "indexed": true,
          "internalType": "address",
          "name": "to",
          "type": "address"
        },
        {
          "indexed": true,
          "internalType": "uint256",
          "name": "tokenId",
          "type": "uint256"
        }
      ],
      "name": "Transfer",
      "type": "event"
    },
    {
      "inputs": [
        {
          "internalType": "address",
          "name": "to",
          "type": "address"
        },
        {
          "internalType": "uint256",
          "name": "tokenId",
          "type": "uint256"
        }
      ],
      "name": "approve",
      "outputs": [],
      "stateMutability": "nonpayable",
      "type": "function"
    },
    {
      "inputs": [
        {
          "internalType": "address",
          "name": "owner",
          "type": "address"
        }
      ],
      "name": "balanceOf",
      "outputs": [
        {
          "internalType": "uint256",
          "name": "",
          "type": "uint256"
        }
      ],
      "stateMutability": "view",
      "type": "function",
      "constant": true
    },
    {
      "inputs": [],
      "name": "baseURI",
      "outputs": [
        {
          "internalType": "string",
          "name": "",
          "type": "string"
        }
      ],
      "stateMutability": "view",
      "type": "function",
      "constant": true
    },
    {
      "inputs": [
        {
          "internalType": "uint256",
          "name": "tokenId",
          "type": "uint256"
        }
      ],
      "name": "getApproved",
      "outputs": [
        {
          "internalType": "address",
          "name": "",
          "type": "address"
        }
      ],
      "stateMutability": "view",
      "type": "function",
      "constant": true
    },
    {
      "inputs": [
        {
          "internalType": "address",
          "name": "owner",
          "type": "address"
        },
        {
          "internalType": "address",
          "name": "operator",
          "type": "address"
        }
      ],
      "name": "isApprovedForAll",
      "outputs": [
        {
          "internalType": "bool",
          "name": "",
          "type": "bool"
        }
      ],
      "stateMutability": "view",
      "type": "function",
      "constant": true
    },
    {
      "inputs": [],
      "name": "name",
      "outputs": [
        {
          "internalType": "string",
          "name": "",
          "type": "string"
        }
      ],
      "stateMutability": "view",
      "type": "function",
      "constant": true
    },
    {
      "inputs": [
        {
          "internalType": "uint256",
          "name": "",
          "type": "uint256"
        }
      ],
      "name": "nftTokenPrices",
      "outputs": [
        {
          "internalType": "uint256",
          "name": "",
          "type": "uint256"
        }
      ],
      "stateMutability": "view",
      "type": "function",
      "constant": true
    },
    {
      "inputs": [
        {
          "internalType": "uint256",
          "name": "",
          "type": "uint256"
        }
      ],
      "name": "onSaleNftTokenArray",
      "outputs": [
        {
          "internalType": "uint256",
          "name": "",
          "type": "uint256"
        }
      ],
      "stateMutability": "view",
      "type": "function",
      "constant": true
    },
    {
      "inputs": [],
      "name": "owner",
      "outputs": [
        {
          "internalType": "address",
          "name": "",
          "type": "address"
        }
      ],
      "stateMutability": "view",
      "type": "function",
      "constant": true
    },
    {
      "inputs": [
        {
          "internalType": "uint256",
          "name": "tokenId",
          "type": "uint256"
        }
      ],
      "name": "ownerOf",
      "outputs": [
        {
          "internalType": "address",
          "name": "",
          "type": "address"
        }
      ],
      "stateMutability": "view",
      "type": "function",
      "constant": true
    },
    {
      "inputs": [],
      "name": "renounceOwnership",
      "outputs": [],
      "stateMutability": "nonpayable",
      "type": "function"
    },
    {
      "inputs": [
        {
          "internalType": "address",
          "name": "from",
          "type": "address"
        },
        {
          "internalType": "address",
          "name": "to",
          "type": "address"
        },
        {
          "internalType": "uint256",
          "name": "tokenId",
          "type": "uint256"
        }
      ],
      "name": "safeTransferFrom",
      "outputs": [],
      "stateMutability": "nonpayable",
      "type": "function"
    },
    {
      "inputs": [
        {
          "internalType": "address",
          "name": "from",
          "type": "address"
        },
        {
          "internalType": "address",
          "name": "to",
          "type": "address"
        },
        {
          "internalType": "uint256",
          "name": "tokenId",
          "type": "uint256"
        },
        {
          "internalType": "bytes",
          "name": "_data",
          "type": "bytes"
        }
      ],
      "name": "safeTransferFrom",
      "outputs": [],
      "stateMutability": "nonpayable",
      "type": "function"
    },
    {
      "inputs": [
        {
          "internalType": "address",
          "name": "operator",
          "type": "address"
        },
        {
          "internalType": "bool",
          "name": "approved",
          "type": "bool"
        }
      ],
      "name": "setApprovalForAll",
      "outputs": [],
      "stateMutability": "nonpayable",
      "type": "function"
    },
    {
      "inputs": [],
      "name": "symbol",
      "outputs": [
        {
          "internalType": "string",
          "name": "",
          "type": "string"
        }
      ],
      "stateMutability": "view",
      "type": "function",
      "constant": true
    },
    {
      "inputs": [
        {
          "internalType": "uint256",
          "name": "index",
          "type": "uint256"
        }
      ],
      "name": "tokenByIndex",
      "outputs": [
        {
          "internalType": "uint256",
          "name": "",
          "type": "uint256"
        }
      ],
      "stateMutability": "view",
      "type": "function",
      "constant": true
    },
    {
      "inputs": [
        {
          "internalType": "address",
          "name": "owner",
          "type": "address"
        },
        {
          "internalType": "uint256",
          "name": "index",
          "type": "uint256"
        }
      ],
      "name": "tokenOfOwnerByIndex",
      "outputs": [
        {
          "internalType": "uint256",
          "name": "",
          "type": "uint256"
        }
      ],
      "stateMutability": "view",
      "type": "function",
      "constant": true
    },
    {
      "inputs": [],
      "name": "totalSupply",
      "outputs": [
        {
          "internalType": "uint256",
          "name": "",
          "type": "uint256"
        }
      ],
      "stateMutability": "view",
      "type": "function",
      "constant": true
    },
    {
      "inputs": [
        {
          "internalType": "address",
          "name": "from",
          "type": "address"
        },
        {
          "internalType": "address",
          "name": "to",
          "type": "address"
        },
        {
          "internalType": "uint256",
          "name": "tokenId",
          "type": "uint256"
        }
      ],
      "name": "transferFrom",
      "outputs": [],
      "stateMutability": "nonpayable",
      "type": "function"
    },
    {
      "inputs": [
        {
          "internalType": "address",
          "name": "newOwner",
          "type": "address"
        }
      ],
      "name": "transferOwnership",
      "outputs": [],
      "stateMutability": "nonpayable",
      "type": "function"
    },
    {
      "inputs": [],
      "name": "mint",
      "outputs": [
        {
          "internalType": "uint256",
          "name": "",
          "type": "uint256"
        }
      ],
      "stateMutability": "nonpayable",
      "type": "function"
    },
    {
      "inputs": [
        {
          "internalType": "uint256",
          "name": "tokenId",
          "type": "uint256"
        }
      ],
      "name": "tokenURI",
      "outputs": [
        {
          "internalType": "string",
          "name": "",
          "type": "string"
        }
      ],
      "stateMutability": "view",
      "type": "function",
      "constant": true
    },
    {
      "inputs": [
        {
          "internalType": "bytes4",
          "name": "interfaceId",
          "type": "bytes4"
        }
      ],
      "name": "supportsInterface",
      "outputs": [
        {
          "internalType": "bool",
          "name": "",
          "type": "bool"
        }
      ],
      "stateMutability": "view",
      "type": "function",
      "constant": true
    },
    {
      "inputs": [
        {
          "internalType": "address",
          "name": "_nftTokenOwner",
          "type": "address"
        }
      ],
      "name": "getNftTokens",
      "outputs": [
        {
          "components": [
            {
              "internalType": "uint256",
              "name": "nftTokenId",
              "type": "uint256"
            },
            {
              "internalType": "string",
              "name": "nftTokenURI",
              "type": "string"
            },
            {
              "internalType": "uint256",
              "name": "price",
              "type": "uint256"
            }
          ],
          "internalType": "struct Jacket.NftTokenData[]",
          "name": "",
          "type": "tuple[]"
        }
      ],
      "stateMutability": "view",
      "type": "function",
      "constant": true
    },
    {
      "inputs": [
        {
          "internalType": "uint256",
          "name": "_tokenId",
          "type": "uint256"
        },
        {
          "internalType": "uint256",
          "name": "_price",
          "type": "uint256"
        }
      ],
      "name": "setSaleNftToken",
      "outputs": [],
      "stateMutability": "nonpayable",
      "type": "function"
    },
    {
      "inputs": [],
      "name": "getSaleNftTokens",
      "outputs": [
        {
          "components": [
            {
              "internalType": "uint256",
              "name": "nftTokenId",
              "type": "uint256"
            },
            {
              "internalType": "string",
              "name": "nftTokenURI",
              "type": "string"
            },
            {
              "internalType": "uint256",
              "name": "price",
              "type": "uint256"
            }
          ],
          "internalType": "struct Jacket.NftTokenData[]",
          "name": "",
          "type": "tuple[]"
        }
      ],
      "stateMutability": "view",
      "type": "function",
      "constant": true
    },
    {
      "inputs": [],
      "name": "getSaleNftToken",
      "outputs": [
        {
          "internalType": "uint256[]",
          "name": "",
          "type": "uint256[]"
        }
      ],
      "stateMutability": "view",
      "type": "function",
      "constant": true
    },
    {
      "inputs": [
        {
          "internalType": "uint256",
          "name": "_tokenId",
          "type": "uint256"
        }
      ],
      "name": "getNftTokenPrice",
      "outputs": [
        {
          "internalType": "uint256",
          "name": "",
          "type": "uint256"
        }
      ],
      "stateMutability": "view",
      "type": "function",
      "constant": true
    },
    {
      "inputs": [
        {
          "internalType": "uint256",
          "name": "_tokenId",
          "type": "uint256"
        }
      ],
      "name": "buyNftToken",
      "outputs": [],
      "stateMutability": "payable",
      "type": "function",
      "payable": true
    },
    {
      "inputs": [
        {
          "internalType": "uint256",
          "name": "_tokenId",
          "type": "uint256"
        }
      ],
      "name": "burn",
      "outputs": [],
      "stateMutability": "nonpayable",
      "type": "function"
    }
  ],
  "bytecode": "0x60806040523480156200001157600080fd5b506040518060400160405280600681526020017f4a61636b657400000000000000000000000000000000000000000000000000008152506040518060400160405280600681526020017f4a41434b45540000000000000000000000000000000000000000000000000000815250816000908051906020019062000096929190620001a6565b508060019080519060200190620000af929190620001a6565b505050620000d2620000c6620000d860201b60201c565b620000e060201b60201c565b620002bb565b600033905090565b6000600a60009054906101000a900473ffffffffffffffffffffffffffffffffffffffff16905081600a60006101000a81548173ffffffffffffffffffffffffffffffffffffffff021916908373ffffffffffffffffffffffffffffffffffffffff1602179055508173ffffffffffffffffffffffffffffffffffffffff168173ffffffffffffffffffffffffffffffffffffffff167f8be0079c531659141344cd1fd0a4f28419497f9722a3daafe3b4186f6b6457e060405160405180910390a35050565b828054620001b49062000285565b90600052602060002090601f016020900481019282620001d8576000855562000224565b82601f10620001f357805160ff191683800117855562000224565b8280016001018555821562000224579182015b828111156200022357825182559160200191906001019062000206565b5b50905062000233919062000237565b5090565b5b808211156200025257600081600090555060010162000238565b5090565b7f4e487b7100000000000000000000000000000000000000000000000000000000600052602260045260246000fd5b600060028204905060018216806200029e57607f821691505b60208210811415620002b557620002b462000256565b5b50919050565b61480f80620002cb6000396000f3fe6080604052600436106101cd5760003560e01c806370a08231116100f7578063a22cb46511610095578063da8cc6e811610064578063da8cc6e8146106c2578063e985e9c5146106de578063f257f5481461071b578063f2fde38b14610758576101cd565b8063a22cb4651461060a578063b88d4fde14610633578063b8e297f41461065c578063c87b56dd14610685576101cd565b806374a6b54f116100d157806374a6b54f1461054c5780638da5cb5b14610577578063912c45cf146105a257806395d89b41146105df576101cd565b806370a08231146104bb578063715018a6146104f857806373e778c51461050f576101cd565b806323b872dd1161016f5780634ae23e641161013e5780634ae23e64146103d95780634f6ccce7146104165780636352211e146104535780636c0360eb14610490576101cd565b806323b872dd146103215780632f745c591461034a57806342842e0e1461038757806342966c68146103b0576101cd565b8063095ea7b3116101ab578063095ea7b3146102775780631249c58b146102a057806318160ddd146102cb5780631efceb90146102f6576101cd565b806301ffc9a7146101d257806306fdde031461020f578063081812fc1461023a575b600080fd5b3480156101de57600080fd5b506101f960048036038101906101f49190612d9c565b610781565b6040516102069190612de4565b60405180910390f35b34801561021b57600080fd5b50610224610793565b6040516102319190612e98565b60405180910390f35b34801561024657600080fd5b50610261600480360381019061025c9190612ef0565b610825565b60405161026e9190612f5e565b60405180910390f35b34801561028357600080fd5b5061029e60048036038101906102999190612fa5565b6108aa565b005b3480156102ac57600080fd5b506102b56109c2565b6040516102c29190612ff4565b60405180910390f35b3480156102d757600080fd5b506102e06109ed565b6040516102ed9190612ff4565b60405180910390f35b34801561030257600080fd5b5061030b6109fa565b60405161031891906130cd565b60405180910390f35b34801561032d57600080fd5b50610348600480360381019061034391906130ef565b610a52565b005b34801561035657600080fd5b50610371600480360381019061036c9190612fa5565b610ab2565b60405161037e9190612ff4565b60405180910390f35b34801561039357600080fd5b506103ae60048036038101906103a991906130ef565b610b57565b005b3480156103bc57600080fd5b506103d760048036038101906103d29190612ef0565b610b77565b005b3480156103e557600080fd5b5061040060048036038101906103fb9190612ef0565b610c08565b60405161040d9190612ff4565b60405180910390f35b34801561042257600080fd5b5061043d60048036038101906104389190612ef0565b610c20565b60405161044a9190612ff4565b60405180910390f35b34801561045f57600080fd5b5061047a60048036038101906104759190612ef0565b610c91565b6040516104879190612f5e565b60405180910390f35b34801561049c57600080fd5b506104a5610d43565b6040516104b29190612e98565b60405180910390f35b3480156104c757600080fd5b506104e260048036038101906104dd9190613142565b610dd1565b6040516104ef9190612ff4565b60405180910390f35b34801561050457600080fd5b5061050d610e89565b005b34801561051b57600080fd5b5061053660048036038101906105319190612ef0565b610f11565b6040516105439190612ff4565b60405180910390f35b34801561055857600080fd5b50610561610f35565b60405161056e91906132cb565b60405180910390f35b34801561058357600080fd5b5061058c611033565b6040516105999190612f5e565b60405180910390f35b3480156105ae57600080fd5b506105c960048036038101906105c49190612ef0565b61105d565b6040516105d69190612ff4565b60405180910390f35b3480156105eb57600080fd5b506105f461107a565b6040516106019190612e98565b60405180910390f35b34801561061657600080fd5b50610631600480360381019061062c9190613319565b61110c565b005b34801561063f57600080fd5b5061065a6004803603810190610655919061348e565b611122565b005b34801561066857600080fd5b50610683600480360381019061067e9190613511565b611184565b005b34801561069157600080fd5b506106ac60048036038101906106a79190612ef0565b611327565b6040516106b99190612e98565b60405180910390f35b6106dc60048036038101906106d79190612ef0565b6113a9565b005b3480156106ea57600080fd5b5061070560048036038101906107009190613551565b6115d0565b6040516107129190612de4565b60405180910390f35b34801561072757600080fd5b50610742600480360381019061073d9190613142565b611664565b60405161074f91906132cb565b60405180910390f35b34801561076457600080fd5b5061077f600480360381019061077a9190613142565b611758565b005b600061078c82611850565b9050919050565b6060600080546107a2906135c0565b80601f01602080910402602001604051908101604052809291908181526020018280546107ce906135c0565b801561081b5780601f106107f05761010080835404028352916020019161081b565b820191906000526020600020905b8154815290600101906020018083116107fe57829003601f168201915b5050505050905090565b6000610830826118ca565b61086f576040517f08c379a000000000000000000000000000000000000000000000000000000000815260040161086690613664565b60405180910390fd5b6004600083815260200190815260200160002060009054906101000a900473ffffffffffffffffffffffffffffffffffffffff169050919050565b60006108b582610c91565b90508073ffffffffffffffffffffffffffffffffffffffff168373ffffffffffffffffffffffffffffffffffffffff161415610926576040517f08c379a000000000000000000000000000000000000000000000000000000000815260040161091d906136f6565b60405180910390fd5b8073ffffffffffffffffffffffffffffffffffffffff16610945611936565b73ffffffffffffffffffffffffffffffffffffffff16148061097457506109738161096e611936565b6115d0565b5b6109b3576040517f08c379a00000000000000000000000000000000000000000000000000000000081526004016109aa90613788565b60405180910390fd5b6109bd838361193e565b505050565b60006109ce600b6119f7565b60006109da600b611a0d565b90506109e63382611a1b565b8091505090565b6000600880549050905090565b6060600e805480602002602001604051908101604052809291908181526020018280548015610a4857602002820191906000526020600020905b815481526020019060010190808311610a34575b5050505050905090565b610a63610a5d611936565b82611a39565b610aa2576040517f08c379a0000000000000000000000000000000000000000000000000000000008152600401610a999061381a565b60405180910390fd5b610aad838383611b17565b505050565b6000610abd83610dd1565b8210610afe576040517f08c379a0000000000000000000000000000000000000000000000000000000008152600401610af5906138ac565b60405180910390fd5b600660008473ffffffffffffffffffffffffffffffffffffffff1673ffffffffffffffffffffffffffffffffffffffff168152602001908152602001600020600083815260200190815260200160002054905092915050565b610b7283838360405180602001604052806000815250611122565b505050565b6000610b8282610c91565b90503373ffffffffffffffffffffffffffffffffffffffff168173ffffffffffffffffffffffffffffffffffffffff1614610bf2576040517f08c379a0000000000000000000000000000000000000000000000000000000008152600401610be99061393e565b60405180910390fd5b610bfb82611d7e565b610c0482611e9b565b5050565b600d6020528060005260406000206000915090505481565b6000610c2a6109ed565b8210610c6b576040517f08c379a0000000000000000000000000000000000000000000000000000000008152600401610c62906139d0565b60405180910390fd5b60088281548110610c7f57610c7e6139f0565b5b90600052602060002001549050919050565b6000806002600084815260200190815260200160002060009054906101000a900473ffffffffffffffffffffffffffffffffffffffff169050600073ffffffffffffffffffffffffffffffffffffffff168173ffffffffffffffffffffffffffffffffffffffff161415610d3a576040517f08c379a0000000000000000000000000000000000000000000000000000000008152600401610d3190613a91565b60405180910390fd5b80915050919050565b600c8054610d50906135c0565b80601f0160208091040260200160405190810160405280929190818152602001828054610d7c906135c0565b8015610dc95780601f10610d9e57610100808354040283529160200191610dc9565b820191906000526020600020905b815481529060010190602001808311610dac57829003601f168201915b505050505081565b60008073ffffffffffffffffffffffffffffffffffffffff168273ffffffffffffffffffffffffffffffffffffffff161415610e42576040517f08c379a0000000000000000000000000000000000000000000000000000000008152600401610e3990613b23565b60405180910390fd5b600360008373ffffffffffffffffffffffffffffffffffffffff1673ffffffffffffffffffffffffffffffffffffffff168152602001908152602001600020549050919050565b610e91611936565b73ffffffffffffffffffffffffffffffffffffffff16610eaf611033565b73ffffffffffffffffffffffffffffffffffffffff1614610f05576040517f08c379a0000000000000000000000000000000000000000000000000000000008152600401610efc90613b8f565b60405180910390fd5b610f0f6000611f90565b565b600e8181548110610f2157600080fd5b906000526020600020016000915090505481565b60606000610f416109fa565b90506000815167ffffffffffffffff811115610f6057610f5f613363565b5b604051908082528060200260200182016040528015610f9957816020015b610f86612d0f565b815260200190600190039081610f7e5790505b50905060005b825181101561102a576000838281518110610fbd57610fbc6139f0565b5b602002602001015190506000610fd28261105d565b90506040518060600160405280838152602001610fee84611327565b81526020018281525084848151811061100a576110096139f0565b5b60200260200101819052505050808061102290613bde565b915050610f9f565b50809250505090565b6000600a60009054906101000a900473ffffffffffffffffffffffffffffffffffffffff16905090565b6000600d6000838152602001908152602001600020549050919050565b606060018054611089906135c0565b80601f01602080910402602001604051908101604052809291908181526020018280546110b5906135c0565b80156111025780601f106110d757610100808354040283529160200191611102565b820191906000526020600020905b8154815290600101906020018083116110e557829003601f168201915b5050505050905090565b61111e611117611936565b8383612056565b5050565b61113361112d611936565b83611a39565b611172576040517f08c379a00000000000000000000000000000000000000000000000000000000081526004016111699061381a565b60405180910390fd5b61117e848484846121c3565b50505050565b600061118f83610c91565b90503373ffffffffffffffffffffffffffffffffffffffff168173ffffffffffffffffffffffffffffffffffffffff16146111ff576040517f08c379a00000000000000000000000000000000000000000000000000000000081526004016111f690613c73565b60405180910390fd5b60008211611242576040517f08c379a000000000000000000000000000000000000000000000000000000000815260040161123990613cdf565b60405180910390fd5b6000600d60008581526020019081526020016000205414611298576040517f08c379a000000000000000000000000000000000000000000000000000000000815260040161128f90613d71565b60405180910390fd5b6112a281306115d0565b6112e1576040517f08c379a00000000000000000000000000000000000000000000000000000000081526004016112d890613e03565b60405180910390fd5b81600d600085815260200190815260200160002081905550600e839080600181540180825580915050600190039060005260206000200160009091909190915055505050565b6060611332826118ca565b611371576040517f08c379a000000000000000000000000000000000000000000000000000000000815260040161136890613e95565b60405180910390fd5b61137961221f565b6113828361223f565b604051602001611393929190613f89565b6040516020818303038152906040529050919050565b6000600d600083815260200190815260200160002054905060006113cc83610c91565b905060008211611411576040517f08c379a00000000000000000000000000000000000000000000000000000000081526004016114089061400f565b60405180910390fd5b34821115611454576040517f08c379a000000000000000000000000000000000000000000000000000000000815260040161144b9061407b565b60405180910390fd5b3373ffffffffffffffffffffffffffffffffffffffff168173ffffffffffffffffffffffffffffffffffffffff1614156114c3576040517f08c379a00000000000000000000000000000000000000000000000000000000081526004016114ba906140e7565b60405180910390fd5b6114cd81306115d0565b61150c576040517f08c379a000000000000000000000000000000000000000000000000000000000815260040161150390613e03565b60405180910390fd5b8073ffffffffffffffffffffffffffffffffffffffff166108fc349081150290604051600060405180830381858888f19350505050158015611552573d6000803e3d6000fd5b503073ffffffffffffffffffffffffffffffffffffffff166342842e0e8233866040518463ffffffff1660e01b815260040161159093929190614107565b600060405180830381600087803b1580156115aa57600080fd5b505af11580156115be573d6000803e3d6000fd5b505050506115cb83611e9b565b505050565b6000600560008473ffffffffffffffffffffffffffffffffffffffff1673ffffffffffffffffffffffffffffffffffffffff16815260200190815260200160002060008373ffffffffffffffffffffffffffffffffffffffff1673ffffffffffffffffffffffffffffffffffffffff16815260200190815260200160002060009054906101000a900460ff16905092915050565b6060600061167183610dd1565b905060008167ffffffffffffffff81111561168f5761168e613363565b5b6040519080825280602002602001820160405280156116c857816020015b6116b5612d0f565b8152602001906001900390816116ad5790505b50905060005b8281101561174d5760006116e28683610ab2565b905060006116ef82611327565b905060006116fc8361105d565b905060405180606001604052808481526020018381526020018281525085858151811061172c5761172b6139f0565b5b6020026020010181905250505050808061174590613bde565b9150506116ce565b508092505050919050565b611760611936565b73ffffffffffffffffffffffffffffffffffffffff1661177e611033565b73ffffffffffffffffffffffffffffffffffffffff16146117d4576040517f08c379a00000000000000000000000000000000000000000000000000000000081526004016117cb90613b8f565b60405180910390fd5b600073ffffffffffffffffffffffffffffffffffffffff168173ffffffffffffffffffffffffffffffffffffffff161415611844576040517f08c379a000000000000000000000000000000000000000000000000000000000815260040161183b906141b0565b60405180910390fd5b61184d81611f90565b50565b60007f780e9d63000000000000000000000000000000000000000000000000000000007bffffffffffffffffffffffffffffffffffffffffffffffffffffffff1916827bffffffffffffffffffffffffffffffffffffffffffffffffffffffff191614806118c357506118c2826123a0565b5b9050919050565b60008073ffffffffffffffffffffffffffffffffffffffff166002600084815260200190815260200160002060009054906101000a900473ffffffffffffffffffffffffffffffffffffffff1673ffffffffffffffffffffffffffffffffffffffff1614159050919050565b600033905090565b816004600083815260200190815260200160002060006101000a81548173ffffffffffffffffffffffffffffffffffffffff021916908373ffffffffffffffffffffffffffffffffffffffff160217905550808273ffffffffffffffffffffffffffffffffffffffff166119b183610c91565b73ffffffffffffffffffffffffffffffffffffffff167f8c5be1e5ebec7d5bd14f71427d1e84f3dd0314c0f7b2291e5b200ac8c7c3b92560405160405180910390a45050565b6001816000016000828254019250508190555050565b600081600001549050919050565b611a35828260405180602001604052806000815250612482565b5050565b6000611a44826118ca565b611a83576040517f08c379a0000000000000000000000000000000000000000000000000000000008152600401611a7a90614242565b60405180910390fd5b6000611a8e83610c91565b90508073ffffffffffffffffffffffffffffffffffffffff168473ffffffffffffffffffffffffffffffffffffffff161480611ad05750611acf81856115d0565b5b80611b0e57508373ffffffffffffffffffffffffffffffffffffffff16611af684610825565b73ffffffffffffffffffffffffffffffffffffffff16145b91505092915050565b8273ffffffffffffffffffffffffffffffffffffffff16611b3782610c91565b73ffffffffffffffffffffffffffffffffffffffff1614611b8d576040517f08c379a0000000000000000000000000000000000000000000000000000000008152600401611b84906142d4565b60405180910390fd5b600073ffffffffffffffffffffffffffffffffffffffff168273ffffffffffffffffffffffffffffffffffffffff161415611bfd576040517f08c379a0000000000000000000000000000000000000000000000000000000008152600401611bf490614366565b60405180910390fd5b611c088383836124dd565b611c1360008261193e565b6001600360008573ffffffffffffffffffffffffffffffffffffffff1673ffffffffffffffffffffffffffffffffffffffff1681526020019081526020016000206000828254611c639190614386565b925050819055506001600360008473ffffffffffffffffffffffffffffffffffffffff1673ffffffffffffffffffffffffffffffffffffffff1681526020019081526020016000206000828254611cba91906143ba565b92505081905550816002600083815260200190815260200160002060006101000a81548173ffffffffffffffffffffffffffffffffffffffff021916908373ffffffffffffffffffffffffffffffffffffffff160217905550808273ffffffffffffffffffffffffffffffffffffffff168473ffffffffffffffffffffffffffffffffffffffff167fddf252ad1be2c89b69c2b068fc378daa952ba7f163c4a11628f55a4df523b3ef60405160405180910390a4611d798383836124ed565b505050565b6000611d8982610c91565b9050611d97816000846124dd565b611da260008361193e565b6001600360008373ffffffffffffffffffffffffffffffffffffffff1673ffffffffffffffffffffffffffffffffffffffff1681526020019081526020016000206000828254611df29190614386565b925050819055506002600083815260200190815260200160002060006101000a81549073ffffffffffffffffffffffffffffffffffffffff021916905581600073ffffffffffffffffffffffffffffffffffffffff168273ffffffffffffffffffffffffffffffffffffffff167fddf252ad1be2c89b69c2b068fc378daa952ba7f163c4a11628f55a4df523b3ef60405160405180910390a4611e97816000846124ed565b5050565b6000600d60008381526020019081526020016000208190555060005b600e80549050811015611f8c576000600d6000600e8481548110611ede57611edd6139f0565b5b90600052602060002001548152602001908152602001600020541415611f7957600e6001600e80549050611f129190614386565b81548110611f2357611f226139f0565b5b9060005260206000200154600e8281548110611f4257611f416139f0565b5b9060005260206000200181905550600e805480611f6257611f61614410565b5b600190038181906000526020600020016000905590555b8080611f8490613bde565b915050611eb7565b5050565b6000600a60009054906101000a900473ffffffffffffffffffffffffffffffffffffffff16905081600a60006101000a81548173ffffffffffffffffffffffffffffffffffffffff021916908373ffffffffffffffffffffffffffffffffffffffff1602179055508173ffffffffffffffffffffffffffffffffffffffff168173ffffffffffffffffffffffffffffffffffffffff167f8be0079c531659141344cd1fd0a4f28419497f9722a3daafe3b4186f6b6457e060405160405180910390a35050565b8173ffffffffffffffffffffffffffffffffffffffff168373ffffffffffffffffffffffffffffffffffffffff1614156120c5576040517f08c379a00000000000000000000000000000000000000000000000000000000081526004016120bc9061448b565b60405180910390fd5b80600560008573ffffffffffffffffffffffffffffffffffffffff1673ffffffffffffffffffffffffffffffffffffffff16815260200190815260200160002060008473ffffffffffffffffffffffffffffffffffffffff1673ffffffffffffffffffffffffffffffffffffffff16815260200190815260200160002060006101000a81548160ff0219169083151502179055508173ffffffffffffffffffffffffffffffffffffffff168373ffffffffffffffffffffffffffffffffffffffff167f17307eab39ab6107e8899845ad3d59bd9653f200f220920489ca2b5937696c31836040516121b69190612de4565b60405180910390a3505050565b6121ce848484611b17565b6121da848484846124f2565b612219576040517f08c379a00000000000000000000000000000000000000000000000000000000081526004016122109061451d565b60405180910390fd5b50505050565b606060405180608001604052806050815260200161478a60509139905090565b60606000821415612287576040518060400160405280600181526020017f3000000000000000000000000000000000000000000000000000000000000000815250905061239b565b600082905060005b600082146122b95780806122a290613bde565b915050600a826122b2919061456c565b915061228f565b60008167ffffffffffffffff8111156122d5576122d4613363565b5b6040519080825280601f01601f1916602001820160405280156123075781602001600182028036833780820191505090505b5090505b60008514612394576001826123209190614386565b9150600a8561232f919061459d565b603061233b91906143ba565b60f81b818381518110612351576123506139f0565b5b60200101907effffffffffffffffffffffffffffffffffffffffffffffffffffffffffffff1916908160001a905350600a8561238d919061456c565b945061230b565b8093505050505b919050565b60007f80ac58cd000000000000000000000000000000000000000000000000000000007bffffffffffffffffffffffffffffffffffffffffffffffffffffffff1916827bffffffffffffffffffffffffffffffffffffffffffffffffffffffff1916148061246b57507f5b5e139f000000000000000000000000000000000000000000000000000000007bffffffffffffffffffffffffffffffffffffffffffffffffffffffff1916827bffffffffffffffffffffffffffffffffffffffffffffffffffffffff1916145b8061247b575061247a82612689565b5b9050919050565b61248c83836126f3565b61249960008484846124f2565b6124d8576040517f08c379a00000000000000000000000000000000000000000000000000000000081526004016124cf9061451d565b60405180910390fd5b505050565b6124e88383836128cd565b505050565b505050565b60006125138473ffffffffffffffffffffffffffffffffffffffff166129e1565b1561267c578373ffffffffffffffffffffffffffffffffffffffff1663150b7a0261253c611936565b8786866040518563ffffffff1660e01b815260040161255e9493929190614623565b602060405180830381600087803b15801561257857600080fd5b505af19250505080156125a957506040513d601f19601f820116820180604052508101906125a69190614684565b60015b61262c573d80600081146125d9576040519150601f19603f3d011682016040523d82523d6000602084013e6125de565b606091505b50600081511415612624576040517f08c379a000000000000000000000000000000000000000000000000000000000815260040161261b9061451d565b60405180910390fd5b805181602001fd5b63150b7a0260e01b7bffffffffffffffffffffffffffffffffffffffffffffffffffffffff1916817bffffffffffffffffffffffffffffffffffffffffffffffffffffffff191614915050612681565b600190505b949350505050565b60007f01ffc9a7000000000000000000000000000000000000000000000000000000007bffffffffffffffffffffffffffffffffffffffffffffffffffffffff1916827bffffffffffffffffffffffffffffffffffffffffffffffffffffffff1916149050919050565b600073ffffffffffffffffffffffffffffffffffffffff168273ffffffffffffffffffffffffffffffffffffffff161415612763576040517f08c379a000000000000000000000000000000000000000000000000000000000815260040161275a906146fd565b60405180910390fd5b61276c816118ca565b156127ac576040517f08c379a00000000000000000000000000000000000000000000000000000000081526004016127a390614769565b60405180910390fd5b6127b8600083836124dd565b6001600360008473ffffffffffffffffffffffffffffffffffffffff1673ffffffffffffffffffffffffffffffffffffffff168152602001908152602001600020600082825461280891906143ba565b92505081905550816002600083815260200190815260200160002060006101000a81548173ffffffffffffffffffffffffffffffffffffffff021916908373ffffffffffffffffffffffffffffffffffffffff160217905550808273ffffffffffffffffffffffffffffffffffffffff16600073ffffffffffffffffffffffffffffffffffffffff167fddf252ad1be2c89b69c2b068fc378daa952ba7f163c4a11628f55a4df523b3ef60405160405180910390a46128c9600083836124ed565b5050565b6128d8838383612a04565b600073ffffffffffffffffffffffffffffffffffffffff168373ffffffffffffffffffffffffffffffffffffffff16141561291b5761291681612a09565b61295a565b8173ffffffffffffffffffffffffffffffffffffffff168373ffffffffffffffffffffffffffffffffffffffff1614612959576129588382612a52565b5b5b600073ffffffffffffffffffffffffffffffffffffffff168273ffffffffffffffffffffffffffffffffffffffff16141561299d5761299881612bbf565b6129dc565b8273ffffffffffffffffffffffffffffffffffffffff168273ffffffffffffffffffffffffffffffffffffffff16146129db576129da8282612c90565b5b5b505050565b6000808273ffffffffffffffffffffffffffffffffffffffff163b119050919050565b505050565b6008805490506009600083815260200190815260200160002081905550600881908060018154018082558091505060019003906000526020600020016000909190919091505550565b60006001612a5f84610dd1565b612a699190614386565b9050600060076000848152602001908152602001600020549050818114612b4e576000600660008673ffffffffffffffffffffffffffffffffffffffff1673ffffffffffffffffffffffffffffffffffffffff168152602001908152602001600020600084815260200190815260200160002054905080600660008773ffffffffffffffffffffffffffffffffffffffff1673ffffffffffffffffffffffffffffffffffffffff168152602001908152602001600020600084815260200190815260200160002081905550816007600083815260200190815260200160002081905550505b6007600084815260200190815260200160002060009055600660008573ffffffffffffffffffffffffffffffffffffffff1673ffffffffffffffffffffffffffffffffffffffff16815260200190815260200160002060008381526020019081526020016000206000905550505050565b60006001600880549050612bd39190614386565b9050600060096000848152602001908152602001600020549050600060088381548110612c0357612c026139f0565b5b906000526020600020015490508060088381548110612c2557612c246139f0565b5b906000526020600020018190555081600960008381526020019081526020016000208190555060096000858152602001908152602001600020600090556008805480612c7457612c73614410565b5b6001900381819060005260206000200160009055905550505050565b6000612c9b83610dd1565b905081600660008573ffffffffffffffffffffffffffffffffffffffff1673ffffffffffffffffffffffffffffffffffffffff168152602001908152602001600020600083815260200190815260200160002081905550806007600084815260200190815260200160002081905550505050565b60405180606001604052806000815260200160608152602001600081525090565b6000604051905090565b600080fd5b600080fd5b60007fffffffff0000000000000000000000000000000000000000000000000000000082169050919050565b612d7981612d44565b8114612d8457600080fd5b50565b600081359050612d9681612d70565b92915050565b600060208284031215612db257612db1612d3a565b5b6000612dc084828501612d87565b91505092915050565b60008115159050919050565b612dde81612dc9565b82525050565b6000602082019050612df96000830184612dd5565b92915050565b600081519050919050565b600082825260208201905092915050565b60005b83811015612e39578082015181840152602081019050612e1e565b83811115612e48576000848401525b50505050565b6000601f19601f8301169050919050565b6000612e6a82612dff565b612e748185612e0a565b9350612e84818560208601612e1b565b612e8d81612e4e565b840191505092915050565b60006020820190508181036000830152612eb28184612e5f565b905092915050565b6000819050919050565b612ecd81612eba565b8114612ed857600080fd5b50565b600081359050612eea81612ec4565b92915050565b600060208284031215612f0657612f05612d3a565b5b6000612f1484828501612edb565b91505092915050565b600073ffffffffffffffffffffffffffffffffffffffff82169050919050565b6000612f4882612f1d565b9050919050565b612f5881612f3d565b82525050565b6000602082019050612f736000830184612f4f565b92915050565b612f8281612f3d565b8114612f8d57600080fd5b50565b600081359050612f9f81612f79565b92915050565b60008060408385031215612fbc57612fbb612d3a565b5b6000612fca85828601612f90565b9250506020612fdb85828601612edb565b9150509250929050565b612fee81612eba565b82525050565b60006020820190506130096000830184612fe5565b92915050565b600081519050919050565b600082825260208201905092915050565b6000819050602082019050919050565b61304481612eba565b82525050565b6000613056838361303b565b60208301905092915050565b6000602082019050919050565b600061307a8261300f565b613084818561301a565b935061308f8361302b565b8060005b838110156130c05781516130a7888261304a565b97506130b283613062565b925050600181019050613093565b5085935050505092915050565b600060208201905081810360008301526130e7818461306f565b905092915050565b60008060006060848603121561310857613107612d3a565b5b600061311686828701612f90565b935050602061312786828701612f90565b925050604061313886828701612edb565b9150509250925092565b60006020828403121561315857613157612d3a565b5b600061316684828501612f90565b91505092915050565b600081519050919050565b600082825260208201905092915050565b6000819050602082019050919050565b600082825260208201905092915050565b60006131b782612dff565b6131c1818561319b565b93506131d1818560208601612e1b565b6131da81612e4e565b840191505092915050565b60006060830160008301516131fd600086018261303b565b506020830151848203602086015261321582826131ac565b915050604083015161322a604086018261303b565b508091505092915050565b600061324183836131e5565b905092915050565b6000602082019050919050565b60006132618261316f565b61326b818561317a565b93508360208202850161327d8561318b565b8060005b858110156132b9578484038952815161329a8582613235565b94506132a583613249565b925060208a01995050600181019050613281565b50829750879550505050505092915050565b600060208201905081810360008301526132e58184613256565b905092915050565b6132f681612dc9565b811461330157600080fd5b50565b600081359050613313816132ed565b92915050565b600080604083850312156133305761332f612d3a565b5b600061333e85828601612f90565b925050602061334f85828601613304565b9150509250929050565b600080fd5b600080fd5b7f4e487b7100000000000000000000000000000000000000000000000000000000600052604160045260246000fd5b61339b82612e4e565b810181811067ffffffffffffffff821117156133ba576133b9613363565b5b80604052505050565b60006133cd612d30565b90506133d98282613392565b919050565b600067ffffffffffffffff8211156133f9576133f8613363565b5b61340282612e4e565b9050602081019050919050565b82818337600083830152505050565b600061343161342c846133de565b6133c3565b90508281526020810184848401111561344d5761344c61335e565b5b61345884828561340f565b509392505050565b600082601f83011261347557613474613359565b5b813561348584826020860161341e565b91505092915050565b600080600080608085870312156134a8576134a7612d3a565b5b60006134b687828801612f90565b94505060206134c787828801612f90565b93505060406134d887828801612edb565b925050606085013567ffffffffffffffff8111156134f9576134f8612d3f565b5b61350587828801613460565b91505092959194509250565b6000806040838503121561352857613527612d3a565b5b600061353685828601612edb565b925050602061354785828601612edb565b9150509250929050565b6000806040838503121561356857613567612d3a565b5b600061357685828601612f90565b925050602061358785828601612f90565b9150509250929050565b7f4e487b7100000000000000000000000000000000000000000000000000000000600052602260045260246000fd5b600060028204905060018216806135d857607f821691505b602082108114156135ec576135eb613591565b5b50919050565b7f4552433732313a20617070726f76656420717565727920666f72206e6f6e657860008201527f697374656e7420746f6b656e0000000000000000000000000000000000000000602082015250565b600061364e602c83612e0a565b9150613659826135f2565b604082019050919050565b6000602082019050818103600083015261367d81613641565b9050919050565b7f4552433732313a20617070726f76616c20746f2063757272656e74206f776e6560008201527f7200000000000000000000000000000000000000000000000000000000000000602082015250565b60006136e0602183612e0a565b91506136eb82613684565b604082019050919050565b6000602082019050818103600083015261370f816136d3565b9050919050565b7f4552433732313a20617070726f76652063616c6c6572206973206e6f74206f7760008201527f6e6572206e6f7220617070726f76656420666f7220616c6c0000000000000000602082015250565b6000613772603883612e0a565b915061377d82613716565b604082019050919050565b600060208201905081810360008301526137a181613765565b9050919050565b7f4552433732313a207472616e736665722063616c6c6572206973206e6f74206f60008201527f776e6572206e6f7220617070726f766564000000000000000000000000000000602082015250565b6000613804603183612e0a565b915061380f826137a8565b604082019050919050565b60006020820190508181036000830152613833816137f7565b9050919050565b7f455243373231456e756d657261626c653a206f776e657220696e646578206f7560008201527f74206f6620626f756e6473000000000000000000000000000000000000000000602082015250565b6000613896602b83612e0a565b91506138a18261383a565b604082019050919050565b600060208201905081810360008301526138c581613889565b9050919050565b7f6d73672e73656e646572206973206e6f7420746865206f776e6572206f66207460008201527f686520746f6b656e000000000000000000000000000000000000000000000000602082015250565b6000613928602883612e0a565b9150613933826138cc565b604082019050919050565b600060208201905081810360008301526139578161391b565b9050919050565b7f455243373231456e756d657261626c653a20676c6f62616c20696e646578206f60008201527f7574206f6620626f756e64730000000000000000000000000000000000000000602082015250565b60006139ba602c83612e0a565b91506139c58261395e565b604082019050919050565b600060208201905081810360008301526139e9816139ad565b9050919050565b7f4e487b7100000000000000000000000000000000000000000000000000000000600052603260045260246000fd5b7f4552433732313a206f776e657220717565727920666f72206e6f6e657869737460008201527f656e7420746f6b656e0000000000000000000000000000000000000000000000602082015250565b6000613a7b602983612e0a565b9150613a8682613a1f565b604082019050919050565b60006020820190508181036000830152613aaa81613a6e565b9050919050565b7f4552433732313a2062616c616e636520717565727920666f7220746865207a6560008201527f726f206164647265737300000000000000000000000000000000000000000000602082015250565b6000613b0d602a83612e0a565b9150613b1882613ab1565b604082019050919050565b60006020820190508181036000830152613b3c81613b00565b9050919050565b7f4f776e61626c653a2063616c6c6572206973206e6f7420746865206f776e6572600082015250565b6000613b79602083612e0a565b9150613b8482613b43565b602082019050919050565b60006020820190508181036000830152613ba881613b6c565b9050919050565b7f4e487b7100000000000000000000000000000000000000000000000000000000600052601160045260246000fd5b6000613be982612eba565b91507fffffffffffffffffffffffffffffffffffffffffffffffffffffffffffffffff821415613c1c57613c1b613baf565b5b600182019050919050565b7f43616c6c6572206973206e6f74206e667420746f6b656e206f776e65722e0000600082015250565b6000613c5d601e83612e0a565b9150613c6882613c27565b602082019050919050565b60006020820190508181036000830152613c8c81613c50565b9050919050565b7f5072696365206973207a65726f206f72206c6f7765722e000000000000000000600082015250565b6000613cc9601783612e0a565b9150613cd482613c93565b602082019050919050565b60006020820190508181036000830152613cf881613cbc565b9050919050565b7f54686973206e667420746f6b656e20697320616c7265616479206f6e2073616c60008201527f652e000000000000000000000000000000000000000000000000000000000000602082015250565b6000613d5b602283612e0a565b9150613d6682613cff565b604082019050919050565b60006020820190508181036000830152613d8a81613d4e565b9050919050565b7f6e667420746f6b656e206f776e657220646964206e6f7420617070726f76652060008201527f746f6b656e2e0000000000000000000000000000000000000000000000000000602082015250565b6000613ded602683612e0a565b9150613df882613d91565b604082019050919050565b60006020820190508181036000830152613e1c81613de0565b9050919050565b7f4552433732314d657461646174613a2055524920717565727920666f72206e6f60008201527f6e6578697374656e7420746f6b656e0000000000000000000000000000000000602082015250565b6000613e7f602f83612e0a565b9150613e8a82613e23565b604082019050919050565b60006020820190508181036000830152613eae81613e72565b9050919050565b600081905092915050565b6000613ecb82612dff565b613ed58185613eb5565b9350613ee5818560208601612e1b565b80840191505092915050565b7f2f00000000000000000000000000000000000000000000000000000000000000600082015250565b6000613f27600183613eb5565b9150613f3282613ef1565b600182019050919050565b7f2e6a736f6e000000000000000000000000000000000000000000000000000000600082015250565b6000613f73600583613eb5565b9150613f7e82613f3d565b600582019050919050565b6000613f958285613ec0565b9150613fa082613f1a565b9150613fac8284613ec0565b9150613fb782613f66565b91508190509392505050565b7f6e667420746f6b656e206e6f742073616c652e00000000000000000000000000600082015250565b6000613ff9601383612e0a565b915061400482613fc3565b602082019050919050565b6000602082019050818103600083015261402881613fec565b9050919050565b7f63616c6c65722073656e74206c6f776572207468616e2070726963652e000000600082015250565b6000614065601d83612e0a565b91506140708261402f565b602082019050919050565b6000602082019050818103600083015261409481614058565b9050919050565b7f63616c6c6572206973206e667420746f6b656e206f776e65722e000000000000600082015250565b60006140d1601a83612e0a565b91506140dc8261409b565b602082019050919050565b60006020820190508181036000830152614100816140c4565b9050919050565b600060608201905061411c6000830186612f4f565b6141296020830185612f4f565b6141366040830184612fe5565b949350505050565b7f4f776e61626c653a206e6577206f776e657220697320746865207a65726f206160008201527f6464726573730000000000000000000000000000000000000000000000000000602082015250565b600061419a602683612e0a565b91506141a58261413e565b604082019050919050565b600060208201905081810360008301526141c98161418d565b9050919050565b7f4552433732313a206f70657261746f7220717565727920666f72206e6f6e657860008201527f697374656e7420746f6b656e0000000000000000000000000000000000000000602082015250565b600061422c602c83612e0a565b9150614237826141d0565b604082019050919050565b6000602082019050818103600083015261425b8161421f565b9050919050565b7f4552433732313a207472616e736665722066726f6d20696e636f72726563742060008201527f6f776e6572000000000000000000000000000000000000000000000000000000602082015250565b60006142be602583612e0a565b91506142c982614262565b604082019050919050565b600060208201905081810360008301526142ed816142b1565b9050919050565b7f4552433732313a207472616e7366657220746f20746865207a65726f2061646460008201527f7265737300000000000000000000000000000000000000000000000000000000602082015250565b6000614350602483612e0a565b915061435b826142f4565b604082019050919050565b6000602082019050818103600083015261437f81614343565b9050919050565b600061439182612eba565b915061439c83612eba565b9250828210156143af576143ae613baf565b5b828203905092915050565b60006143c582612eba565b91506143d083612eba565b9250827fffffffffffffffffffffffffffffffffffffffffffffffffffffffffffffffff0382111561440557614404613baf565b5b828201905092915050565b7f4e487b7100000000000000000000000000000000000000000000000000000000600052603160045260246000fd5b7f4552433732313a20617070726f766520746f2063616c6c657200000000000000600082015250565b6000614475601983612e0a565b91506144808261443f565b602082019050919050565b600060208201905081810360008301526144a481614468565b9050919050565b7f4552433732313a207472616e7366657220746f206e6f6e20455243373231526560008201527f63656976657220696d706c656d656e7465720000000000000000000000000000602082015250565b6000614507603283612e0a565b9150614512826144ab565b604082019050919050565b60006020820190508181036000830152614536816144fa565b9050919050565b7f4e487b7100000000000000000000000000000000000000000000000000000000600052601260045260246000fd5b600061457782612eba565b915061458283612eba565b9250826145925761459161453d565b5b828204905092915050565b60006145a882612eba565b91506145b383612eba565b9250826145c3576145c261453d565b5b828206905092915050565b600081519050919050565b600082825260208201905092915050565b60006145f5826145ce565b6145ff81856145d9565b935061460f818560208601612e1b565b61461881612e4e565b840191505092915050565b60006080820190506146386000830187612f4f565b6146456020830186612f4f565b6146526040830185612fe5565b818103606083015261466481846145ea565b905095945050505050565b60008151905061467e81612d70565b92915050565b60006020828403121561469a57614699612d3a565b5b60006146a88482850161466f565b91505092915050565b7f4552433732313a206d696e7420746f20746865207a65726f2061646472657373600082015250565b60006146e7602083612e0a565b91506146f2826146b1565b602082019050919050565b60006020820190508181036000830152614716816146da565b9050919050565b7f4552433732313a20746f6b656e20616c7265616479206d696e74656400000000600082015250565b6000614753601c83612e0a565b915061475e8261471d565b602082019050919050565b6000602082019050818103600083015261478281614746565b905091905056fe68747470733a2f2f676174657761792e70696e6174612e636c6f75642f697066732f516d5450666e3136435059467431674b6d6875534a547844717a776b367845644e395a4e4b33666e74486870766aa26469706673582212209737393b665c36de058dd9d74439852648717291a74987df6058e4e8d60e0caf64736f6c63430008090033",
  "immutableReferences": {},
  "source": "// SPDX-License-Identifier: MIT\npragma solidity ^0.8.7;\n\nimport \"../node_modules/openzeppelin-solidity/contracts/token/ERC721/ERC721.sol\";\nimport \"../node_modules/openzeppelin-solidity/contracts/access/Ownable.sol\";\nimport \"../node_modules/openzeppelin-solidity/contracts/token/ERC721/extensions/ERC721Enumerable.sol\";\nimport \"../node_modules/openzeppelin-solidity/contracts/utils/Counters.sol\";\n\ncontract Jacket is ERC721, ERC721Enumerable, Ownable {\n    using Counters for Counters.Counter;\n    Counters.Counter private _tokenIds;\n    using Strings for uint256;\n\n    string public baseURI;\n\n    constructor() ERC721(\"Jacket\", \"JACKET\") {}\n\n    function mint() public returns (uint256) {\n        _tokenIds.increment();\n        uint256 newItemId = _tokenIds.current();\n        _safeMint(msg.sender, newItemId);\n        return newItemId;\n    }\n\n    // function setBaseURI(string memory baseURI_) external onlyOwner {\n    //     baseURI = baseURI_;\n    // }\n\n    function _baseURI() internal view virtual override returns (string memory) {\n        return\n            \"https://gateway.pinata.cloud/ipfs/QmTPfn16CPYFt1gKmhuSJTxDqzwk6xEdN9ZNK3fntHhpvj\";\n    }\n\n    function tokenURI(uint256 tokenId)\n        public\n        view\n        virtual\n        override\n        returns (string memory)\n    {\n        require(\n            _exists(tokenId),\n            \"ERC721Metadata: URI query for nonexistent token\"\n        );\n        return\n            string(\n                abi.encodePacked(_baseURI(), \"/\", tokenId.toString(), \".json\")\n            );\n    }\n\n    function _beforeTokenTransfer(\n        address from,\n        address to,\n        uint256 tokenId\n    ) internal override(ERC721, ERC721Enumerable) {\n        super._beforeTokenTransfer(from, to, tokenId);\n    }\n\n    function supportsInterface(bytes4 interfaceId)\n        public\n        view\n        override(ERC721, ERC721Enumerable)\n        returns (bool)\n    {\n        return super.supportsInterface(interfaceId);\n    }\n\n    struct NftTokenData {\n        uint256 nftTokenId;\n        string nftTokenURI;\n        uint256 price;\n    }\n\n    function getNftTokens(address _nftTokenOwner)\n        public\n        view\n        returns (NftTokenData[] memory)\n    {\n        uint256 balanceLength = balanceOf(_nftTokenOwner);\n        //require(balanceLength != 0, \"Owner did not have token.\");\n\n        NftTokenData[] memory nftTokenData = new NftTokenData[](balanceLength);\n\n        for (uint256 i = 0; i < balanceLength; i++) {\n            uint256 nftTokenId = tokenOfOwnerByIndex(_nftTokenOwner, i);\n            string memory nftTokenURI = tokenURI(nftTokenId);\n            uint256 tokenPrice = getNftTokenPrice(nftTokenId);\n            nftTokenData[i] = NftTokenData(nftTokenId, nftTokenURI, tokenPrice);\n        }\n\n        return nftTokenData;\n    }\n\n    // \n    mapping(uint256 => uint256) public nftTokenPrices;\n    uint256[] public onSaleNftTokenArray;\n\n    function setSaleNftToken(uint256 _tokenId, uint256 _price) public {\n        address nftTokenOwner = ownerOf(_tokenId);\n\n        require(nftTokenOwner == msg.sender, \"Caller is not nft token owner.\");\n        require(_price > 0, \"Price is zero or lower.\");\n        require(\n            nftTokenPrices[_tokenId] == 0,\n            \"This nft token is already on sale.\"\n        );\n        require(\n            isApprovedForAll(nftTokenOwner, address(this)),\n            \"nft token owner did not approve token.\"\n        );\n\n        nftTokenPrices[_tokenId] = _price;\n        onSaleNftTokenArray.push(_tokenId); // nft list\n    }\n\n    // \n    function getSaleNftTokens() public view returns (NftTokenData[] memory) {\n        uint256[] memory onSaleNftToken = getSaleNftToken();\n        NftTokenData[] memory onSaleNftTokens = new NftTokenData[](\n            onSaleNftToken.length\n        );\n\n        for (uint256 i = 0; i < onSaleNftToken.length; i++) {\n            uint256 tokenId = onSaleNftToken[i];\n            uint256 tokenPrice = getNftTokenPrice(tokenId);\n            onSaleNftTokens[i] = NftTokenData(\n                tokenId,\n                tokenURI(tokenId),\n                tokenPrice\n            );\n        }\n\n        return onSaleNftTokens;\n    }\n\n    function getSaleNftToken() public view returns (uint256[] memory) {\n        return onSaleNftTokenArray;\n    }\n\n    function getNftTokenPrice(uint256 _tokenId) public view returns (uint256) {\n        return nftTokenPrices[_tokenId];\n    }\n\n    //\n    function buyNftToken(uint256 _tokenId) public payable {\n        uint256 price = nftTokenPrices[_tokenId];\n        address nftTokenOwner = ownerOf(_tokenId);\n\n        require(price > 0, \"nft token not sale.\");\n        require(price <= msg.value, \"caller sent lower than price.\");\n        require(nftTokenOwner != msg.sender, \"caller is nft token owner.\");\n        require(\n            isApprovedForAll(nftTokenOwner, address(this)),\n            \"nft token owner did not approve token.\"\n        );\n\n        payable(nftTokenOwner).transfer(msg.value);\n\n        IERC721(address(this)).safeTransferFrom(\n            nftTokenOwner,\n            msg.sender,\n            _tokenId\n        );\n\n        //  \n        removeToken(_tokenId);\n    }\n\n    function burn(uint256 _tokenId) public {\n        address addr_owner = ownerOf(_tokenId);\n        require(\n            addr_owner == msg.sender,\n            \"msg.sender is not the owner of the token\"\n        );\n        _burn(_tokenId);\n        removeToken(_tokenId);\n    }\n\n    function removeToken(uint256 _tokenId) private {\n        nftTokenPrices[_tokenId] = 0;\n\n        for (uint256 i = 0; i < onSaleNftTokenArray.length; i++) {\n            if (nftTokenPrices[onSaleNftTokenArray[i]] == 0) {\n                onSaleNftTokenArray[i] = onSaleNftTokenArray[\n                    onSaleNftTokenArray.length - 1\n                ];\n                onSaleNftTokenArray.pop();\n            }\n        }\n    }\n}\n",
  "sourcePath": "/Users/donghwan/projects/capstone/capstone_practice/contracts/jacket.sol",
  "compiler": {
    "name": "solc",
    "version": "0.8.9+commit.e5eed63a.Emscripten.clang"
  },
  "schemaVersion": "3.4.6",
  "updatedAt": "2022-05-24T10:02:35.588Z",
  "networkType": "ethereum",
  "devdoc": {
    "kind": "dev",
    "methods": {
      "approve(address,uint256)": {
        "details": "See {IERC721-approve}."
      },
      "balanceOf(address)": {
        "details": "See {IERC721-balanceOf}."
      },
      "getApproved(uint256)": {
        "details": "See {IERC721-getApproved}."
      },
      "isApprovedForAll(address,address)": {
        "details": "See {IERC721-isApprovedForAll}."
      },
      "name()": {
        "details": "See {IERC721Metadata-name}."
      },
      "owner()": {
        "details": "Returns the address of the current owner."
      },
      "ownerOf(uint256)": {
        "details": "See {IERC721-ownerOf}."
      },
      "renounceOwnership()": {
        "details": "Leaves the contract without owner. It will not be possible to call `onlyOwner` functions anymore. Can only be called by the current owner. NOTE: Renouncing ownership will leave the contract without an owner, thereby removing any functionality that is only available to the owner."
      },
      "safeTransferFrom(address,address,uint256)": {
        "details": "See {IERC721-safeTransferFrom}."
      },
      "safeTransferFrom(address,address,uint256,bytes)": {
        "details": "See {IERC721-safeTransferFrom}."
      },
      "setApprovalForAll(address,bool)": {
        "details": "See {IERC721-setApprovalForAll}."
      },
      "symbol()": {
        "details": "See {IERC721Metadata-symbol}."
      },
      "tokenByIndex(uint256)": {
        "details": "See {IERC721Enumerable-tokenByIndex}."
      },
      "tokenOfOwnerByIndex(address,uint256)": {
        "details": "See {IERC721Enumerable-tokenOfOwnerByIndex}."
      },
      "tokenURI(uint256)": {
        "details": "See {IERC721Metadata-tokenURI}."
      },
      "totalSupply()": {
        "details": "See {IERC721Enumerable-totalSupply}."
      },
      "transferFrom(address,address,uint256)": {
        "details": "See {IERC721-transferFrom}."
      },
      "transferOwnership(address)": {
        "details": "Transfers ownership of the contract to a new account (`newOwner`). Can only be called by the current owner."
      }
    },
    "version": 1
  },
  "userdoc": {
    "kind": "user",
    "methods": {},
    "version": 1
  }
}