{
  "contractName": "SimpleStorage",
  "abi": [
    {
      "inputs": [
        {
          "internalType": "uint256",
          "name": "x",
          "type": "uint256"
        }
      ],
      "name": "set",
      "outputs": [],
      "stateMutability": "nonpayable",
      "type": "function"
    },
    {
      "inputs": [],
      "name": "get",
      "outputs": [
        {
          "internalType": "uint256",
          "name": "",
          "type": "uint256"
        }
      ],
      "stateMutability": "view",
      "type": "function"
    }
  ],
  "bytecode": "0x608060405234801561001057600080fd5b50610150806100206000396000f3fe608060405234801561001057600080fd5b50600436106100365760003560e01c806360fe47b11461003b5780636d4ce63c14610057575b600080fd5b610055600480360381019061005091906100c3565b610075565b005b61005f61007f565b60405161006c91906100ff565b60405180910390f35b8060008190555050565b60008054905090565b600080fd5b6000819050919050565b6100a08161008d565b81146100ab57600080fd5b50565b6000813590506100bd81610097565b92915050565b6000602082840312156100d9576100d8610088565b5b60006100e7848285016100ae565b91505092915050565b6100f98161008d565b82525050565b600060208201905061011460008301846100f0565b9291505056fea264697066735822122037c9769f86ad5dad6a1ab2eae471c5094f4db6f5effb1f19fab474404e8492f764736f6c634300080e0033",
  "immutableReferences": {},
  "source": "// SPDX-License-Identifier: MIT\npragma solidity >=0.4.21 <8.10.0;\n\ncontract SimpleStorage {\n  uint storedData;\n\n  function set(uint x) public {\n    storedData = x;\n  }\n\n  function get() public view returns (uint) {\n    return storedData;\n  }\n}\n",
  "sourcePath": "/Users/donghwan/projects/capstone/CapstoneDesign_NFTMarketplace 복사본 2/contracts/SimpleStorage.sol",
  "compiler": {
    "name": "solc",
    "version": "0.8.14+commit.80d49f37.Emscripten.clang"
  },
  "schemaVersion": "3.4.6",
  "updatedAt": "2022-06-03T07:25:05.204Z",
  "devdoc": {
    "kind": "dev",
    "methods": {},
    "version": 1
  },
  "userdoc": {
    "kind": "user",
    "methods": {},
    "version": 1
  }
}